:200000000210817E227FFC7C011213B32212279F90001174FFF0020066122741122A46ADCE
:20002000077F31C3ED9F403E7F39D3ED9F5037900007ED2D500205832582F582500205831B
:20004000740193C0E0E493C0E0221209C68017120A5F8012120D2A800D120B1D8008120888
:20006000288003120E67020019004A004F00540059005E0066006600660063AC0CAD0DAEDA
:200080000EAF0F22A804A905AA06AB0722A80CA90DAA0EAB0F22E608860108860208860300
:2000A000F822C88604088605088606088607C8228C0C8D0D8E0E8F0F228C088D098E0A8F4F
:2000C0000B228E478F487449120C17E4F54DF54E74491200A21209A88F50054CE54C700ED9
:2000E000054BE54B7008054AE54A70020549E5507007AE4DAF4E02080F742565506003025A
:2001000007F9E4F551E4F552755301E4F554E4F555E4F55674491200A21209A88F50054CD3
:20012000E54C700E054BE54B7008054AE54A70020549AF50EF64637003020584AF50EF64D5
:200140006670030201B17D66AF50D3EF9D50357D2EAF50C3EF9D50030207F97D39AF50D376
:20016000EF9D40030207F9AF509007B4EF2F500205832582F58250020583740193C0E0E4E8
:2001800093C0E022AF50EF646C70030205097D6CAF50C3EF9D50030207F9AF50EF64757006
:2001A000030204BCAF50EF647870030204B90207F943511074042546F546AF46AB07780299
:2001C0007CFF7DFF7EFF7FFC1210FD1210457457120B97EC30E71074571200A212242474CB
:2001E00057120B9743510274571200A2EC4D4E4F7006E4F54F0202E074571200A21224478B
:20020000AD07ED30E70474FD2DFDEDFF3395E0FE7C007D031227237C007D0A1225021F8FB3
:200220004F7D0EAF4FD3EF64806305809D402F7F4F8547838548821210377F5685478385DE
:2002400048821210377F4C8547838548821210377403254EF54EE4354DF54D020114AF4FCF
:20026000EFF404FFFF3395E0FE740E2FFFE43EFE7E00EF2FFDEE33FCED2DFDEC33FC7E239A
:1F0280007F01EF2DFFEE3CFE8E838F821210ED74571200A21228BA1200847C3FE4FDFEC8
:2002A0001211327457120B97784C79BE7ABC7B2074571200A21223ED20E725783D79CC7A5D
:2002C000CC7BCD74571200A21228BA1200847C3E7DE67E667F661211327457120B97054FF3
:2002E00074571200A21224687457120B97780079987A967B8074571200A2C31227ED401511
:20030000E4F8F9FA7B0A74571200A2120C2D7457120B97054F755B00755C0F755D42755E55
:20032000407556017D07AF4FC3EF64806305809D4003435108AF51530708EF60030203ADCF
:20034000AF4FEF20E7030203A77DF8AF4FD3EF64806305809D4045AF4FEFFD3395E0FC7ECB
:20036000007F08C3EF9DFFEE9CFEEF2FFDEE33FCED2DFDEC33FC7E237F01EF2DFFEE3CFE52
:200380008E838F821210DD12246812008474571200A2120C2D7457120B978011E4F557F509
:2003A00058F559F55A80067401254FF556755308AF52530702EF7003020611AD567F06C39B
:2003C000EF9DFDAF54C3ED9FFF8F0CAF0CEF30E703020611AF0CEF3395E0FEEF2FFDEE333F
:2003E000FCED2DFDEC33FC7E237FD5EF2DFFEE3CFE8E838F821210ED74571200A21210FDC8
:200400001200B9780079987A967B80120996C31227ED4030AF51530708EF6013054FE4F87F
:20042000F9FA7B0A120996120C2D1200B980150556E4F8F9FA7B0A745B1200A21226867484
:200440005B120B97AF0CEF3395E0FEEF2FFDEE33FCED2DFDEC33FC7E237FBDEF2DFFEE3CB1
:20046000FE8E838F821210ED745B1200A2120C2D745B120B97AF0CEF3395E0FEEF2FFDEEA3
:2004800033FCED2DFDEC33FC7E237FBDEF2DFFEE3CFE8E838F821210ED120996120C2D743A
:2004A00057120B97AD56AF54ED2FFF8F53E55470030206110553020611435101AF51530709
:2004C00004EF602274042546F546AF46AB0778027CFF7DFF7EFF7FFC1210FD121045745728
:2004E000120B970205A105460546AF46AB0778027CFF7DFF7EFF7FFE1210FD120A37E4FDA5
:20050000FC7457120B970205A1435104020114435280020114AF52530780EF700643520404
:20052000020114AF5074D02FF980297F0AE98FF0A4FB74491200A21209A874D02FFF2BF936
:20054000054CE54C700E054BE54B7008054AE54A7002054974491200A21209A8AD077F30CE
:20056000C3ED9F40077F39D3ED9F40BFAF52530780EF60088954435202020114895543529F
:200580000102011405460546AF46AB0778027CFF7DFF7EFF7FFE1210FD120A378F50020741
:2005A000F9755B00755C00755D00755E01AF51530701EF604380117B04745B1200A2122742
:2005C00011745B120B970553785B12009674571200A2120C2DE4F8F9FA7B0FD31227ED5048
:2005E000D6802EE4F8F9FA7B0A745B1200A2122686745B120B970553785B120096745712AF
:2006000000A2120C2DE4F8F9FA7B09D31227ED50D2AF51530762EF60020553AF52530701BE
:20062000EF6028AF52530714EF7020801515557F20854783854882121037054EE54E7002C8
:20064000054DAD55AF53C3EF9D40E2AF51530702EF60047D2D8002E4FDED6013AF05854737
:2006600083854882121037054EE54E7002054DAF52530701EF700302074BAF52530704EFA5
:20068000700302074B801515557F30854783854882121037054EE54E7002054DAD55AF53A0
:2006A000C3EF9D40E202074BAF51530710EF6019E55670137F2E854783854882121037053C
:2006C0004EE54E7002054D1556785B12009674571200A2120C2D8F82AF827E00AB07AA0603
:2006E000E4F9F8745B1200A212268612008474571200A21227FE7457120B97AF8274302F15
:20070000FD7F39D3ED9F400474272DFDAF05854783854882121037054EE54E7002054DAF18
:2007200051530701EF60117B04745B1200A2122673745B120B978013E4F8F9FA7B0A745BC7
:200740001200A2120C2D745B120B97745B1200A2EC4D4E4F60030206A8AF51530708EF70EA
:20076000030207CBAF515307958F547F65854783854882121037054EE54E7002054DAF54A8
:200780004307208F51AF4FEF30E70D435102AF4FEFF404FF8F4F80137F2B854783854882CB
:2007A000121037054EE54E7002054DAF4FEF3395E0FE3395E0FDFC7457120B97755B00759E
:2007C0005C00755D00755E0A020611AF52530701EF70030200D0801515557F2085478385F3
:2007E0004882121037054EE54E7002054DAD55AF53C3EF9D40E20200D0AF5085478385482A
:2008000082121037054EE54E7002054D0200D022050F07F9051505230523052305230523C9
:2008200005230523052305231200037E167F7D7C011213B37E167F4E7C011213B37E167F55
:200840001D7C011213B37E157FD87C011213B3020968E4F528AF28900011EFF012252C7445
:2008600029120B977D24AF28EF2FFF74082FFF12096C900000E0FF7E008E448F45900001B1
:20088000E0FF7E008E428F43900002E0FF7E008E408F41900003E0FF7E008E3E8F3F9000B2
:2008A00004E0FF7E008E3C8F3D900005E0FF7E008E3A8F3B900006E0FF7E008E388F3990AC
:2008C0000007E0FF7E008E368F37900008E0FF7E008E348F357E157FAB7C011213B37844E1
:2008E000790A7AC07B0074291200A21223ED70227D06AF28EF2FFF74082FFF12096C852866
:1F090000357534007E157F8E7C011213B3752D028003E4F52DE52D70297D06AF28EF2FB5
:2009200074082FFF12096C852936852A37852B38852C398528357534007E157F717C01124D
:2009400013B3121121EF6005752D0180157E007F3212109C05287D05AF28C3EF9D500302EA
:2009600008557401652D600302085222EDAD07FF7E0074202FFFE43EFE8E368F37AF057E76
:200980000074202FFFE43EFE8E348F357E227FF57C011213B322AC08AD09AE0AAF0B22A8BE
:2009A00008A909AA0AAB0B22EC70078F828E83E0FF22D5E0078F828E8393FF22D5E006C856
:2009C0008F008607C8221200037E1B7FEA7C011213B37E1C7FB07C011213B37E1B7FCA7C29
:2009E000011213B37E1B7FA27C011213B380457D027F0712096C7E1B7F7B7C011213B37D59
:200A0000027F0712096C122A46BF650280281224E5EF600B7E1B7F5D7C011213B380097E31
:200A20001B7F357C011213B37E1B7F167C011213B3122A4680B922EC700A8F828E83E0FECC
:200A4000A3E0FF22D5E00B8F828E8393FE740193FF22D5E009C88F008606088607C8220234
:200A60000B0C1200037E1A7FE77C011213B37E1A7FB87C011213B37E1A7F777C011213B3F0
:200A80007F08900000E4F0A3DFFB122A46BF6503020B0F1227AD7E1A7F347C011213B39013
:200AA0000009E0FF7E008E428F4390000AE0FF7E008E408F4190000BE0FF7E008E3E8F3F07
:200AC00090000CE0FF7E008E3C8F3D90000DE0FF7E008E3A8F3B90000EE0FF7E008E388FAB
:200AE0003990000FE0FF7E008E368F37900010E0FF7E008E348F357E197FDC7C011213B36D
:200B00007E197FBC7C011213B3122A46020A6222EF4BFFEE4AFEED49FDEC48FC2212000393
:200B20007E177FEB7C011213B37E177FB47C011213B37E177F757C011213B37E177F427C94
:200B4000011213B37B047F287C02120BA57F287C02120F868F2C7E177F0D7C011213B37BDE
:200B6000047F287C02120BA57F287C02120F868F2D7E167FD67C011213B3122A46900011A1
:200B800074FFF0AD2DAF2C12280C7E167FAB7C011213B3122A4622C8A60408A60508A60667
:200BA00008A607C822742E120B97E4F532AF031F8F33122A468F34740865347017E532604A
:200BC000F115327F081228A77F201228A77F081228A780DEAF34EF640A6006740D653470FF
:200BE00005E4F534800DAD33AF32EF6D60C4AF341228A7AF327E00AB07AA06E4F9F8742E19
:200C00001200A21210FDAB341210C5E53460050532020BB2AF3222C8F608A60108A602089F
:200C2000A603C822880C890D8A0E8B0F22C008C009C00AC00BC00CC00DC00EC00FC024C0A3
:200C400025C026C027880C890D8A0E8B0F8C088D098E0A8F0B758200E50C450D450E450F09
:200C60007008E4FCFDFEFF020D110582E50C548070267B01AC0CAD0DAE0EAF0F122711A8C6
:200C800008A909AA0AAB0B1227ED6002500A8C0C8D0D8E0E8F0F80D2E4F524F525F526F569
:200CA000277B01AC24AD25AE26AF271227118C248D258E268F27A80CA90DAA0EAB0FAC089F
:200CC000AD09AE0AAF0B1227ED401EA80CA90DAA0EAB0FAC08AD09AE0AAF0B1227FE8C08E5
:200CE0008D098E0A8F0B4327017B01AC0CAD0DAE0EAF0F1226738C0C8D0D8E0E8F0FD582EB
:200D0000A0AC24AD25AE26AF27A808A909AA0AAB0BD027D026D025D024D00FD00ED00DD0DB
:200D20000CD00BD00AD009D008221200037E197F817C011213B37E197F457C011213B37EF0
:200D4000197F077C011213B37B067F287C02120BA57F287C02120F868E2E8F2F7D027F06ED
:200D600012096C7E187FEE7C011213B37D047F0812096C7E187FB27C011213B37D047F0ADF
:200D800012096C7E187FAC7C011213B37D027F0E12096C7E187F8A7C011213B3E4FD7F12BD
:200DA00012096C7E187F6C7C011213B37F09900000E4F0A3DFFB90001174FFF0020E6312E4
:200DC000252C7430120B977D0E7F0A12096C900000E0FF7E008E448F45900001E0FF7E004E
:200DE0008E428F43900002E0FF7E008E408F41900003E0FF7E008E3E8F3F900004E0FF7E49
:1F0E0000008E3C8F3D900005E0FF7E008E3A8F3B900006E0FF7E008E388F39900007E0C1
:200E20007E008E368F37900008E0FF7E008E348F357E187F277C011213B37D1A7F0E12095F
:200E40006C8530348531358532368533377E187F217C011213B3121121EF700AAE2EAF2F84
:200E600012109C020DBF22020F821200037E1F7FDC7C011213B37E1F7FB07C011213B37E30
:200E80001F7F897C011213B37E1F7F447C011213B37E1F7F357C011213B37E1E7FF87C01EB
:200EA0001213B37E1E7FB47C011213B37E1E7F677C011213B37E1E7F2E7C011213B37E1D26
:200EC0007FF27C011213B3122A46EF64316008EF64326003020F85BF31028003020F7F80DB
:200EE0003A1200037E1D7FA37C011213B37E1D7F547C011213B37E1D7F337C011213B37EAE
:200F00001D7F207C011213B3800FC2B47F08DFFED2B47E007F0A12109C80EF80C412000344
:200F20007E1C7FE87C011213B37E1C7FB07C011213B37E1C7F8A7C011213B37E1C7F477C69
:200F4000011213B37B047F287C02120BA57F287C02120F868F2C74FF652C60267E1C7F2206
:200F60007C011213B38016C2B4AF2C122417D2B4121121EF70097E007F0A12109C80E80287
:200F80000F1D020E6A22742E120B97E4F50EF50FE4F50C852E08852F0985300A85310BE487
:200FA000F8F9FA7B011209961210FD742E120B971209961209A8AB07E50C700DEB64206041
:200FC00003BB090280CD750C017401650C7010BB2D05750C8080BC750C02BB2B0280B47FCB
:200FE00030C3EB9F40077F39D3EB9F400280287E007F0AAC0EAD0F122723AC06AD07AF033D
:201000007E0074D02FFF74FF3EFEEF2DFFEE3CFE8E0E8F0F020F93AF0C7E00EF64804E7046
:201020000DAE0EAF0FC3E49FFDE49EFC8004AC0EAD0FAE04AF0522C082C08322880889091D
:201040008A0A8B0B22EC70108F828E83E0FCA3E0FDA3E0FEA3E0FF22D5E0138F828E8393B8
:20106000FC740193FD740293FE740393FF22D5E00FC88F008604088605088606088607C814
:2010800022E5A8C2AF549075815EA881760018B81FFAC0E01210D9D0A802000DEF60010EF0
:2010A00090FF67A3E583458270F9DFF4DEF22278007912900000E849600AE4F0A3E9197023
:2010C000F51880F222EC70078F828E83EBF022B40206C88F00A603C8221210AF22E493FCE1
:1F10E000740193FD740293FE740393FF22E493F8740193F9740293FA740393FB22EF2B06
:20110000EE3AFEED39FDEC38FC22C2B4D2B47F06DFFEA2B4E433FF8F337F0D122417AF33FD
:2011200022E4FDA298E433FFBF0104C298AD99AF05221200B9120C24E4F8120996E4FFFEA7
:2011400053058053047F7B171226738FF012007BE4FFFE53058053047F7B17122673A9071C
:20116000AF017E0074192FFDE43EFCAFF07E00D3EF9DEE64806304809C5003E970061209CC
:201180009602133EAFF07E0074192FFDE43EFCAF017E00D3EF9DEE64806304809C40061238
:2011A000007B02133E120996E4FFFEFD530480EC4D4E4F6002780112007BE4FFFEFD530488
:2011C00080EC4D4E4F600343000212099653057F7C004305801200B912007B53057F7C009A
:2011E0004305801200B07B061209961227111200B97B0612007B1227111200B0AFF0D3EFA3
:2012000099401CAD017C00AFF07E00C3EF9DFFEE9CFEAB0712007B1226731200B08027AFBA
:20122000F0C3E5079501501EAFF0AD077C00AF017E00C3EF9DFFEE9CFEAB0712099612269D
:20124000731200B989F0E85401FF600912099612133F1200B9E85402FF600912007B1213FA
:201260003F1200B012008D1209961210FD1200B9E4F582120996E4FFFEFD530480EC4D4EEB
:201280004F600E12099612133F1200B9758201801E120996EC4D4E4F7015E4FCFDFEFF0233
:2012A000133E7B011209961227111200B915F0120996E4FFFEFD530440EC4D4E4F60E3E473
:2012C000F8F9FA7B401209961210FD1200B9E4FFFEFD530480EC4D4E4F700D7B0112099698
:2012E0001227111200B915F0AFF0A90709097B081209961226731200B9EC4D4E4F7007E498
:20130000FCFDFEFF803812099653057F7C001200B9AF01E4FEFDFC7B1712271112099F121D
:201320000B10120084E582600DEBFFEAFEE9FDE84480FC120084AC00AD01AE02AF0322E470
:20134000C39FFFE49EFEE49DFDE49CFC228F31753201753308AD32AF31EF5DFF60077F0187
:201360001213758005E4FF121375AF32EF2FFF8F32D533E122C2B4EF6002D2B47F0D1224F8
:2013800017D2B422E4F531E4F53212110AEF6018AD327F01EF8DF005F08002C333D5F0FBED
:2013A000FDAF31EF4DFF8F3105327408653270DAAF31227546341200847E287FA71200C29A
:2013C00022120084AC00AD01AE02AF03EC4D4E4F7008E4FCFDFEFF021473AC00AD01AE02DE
:2013E000AF03EC30E71375F001AC00AD01AE02AF0312133F1200B98006E4F5F012103C79AE
:2014000096800C097B011209961226731200B9120996E4FFFEFDEC4D4E4F70E7800C7B013A
:201420001209961227111200B919120996E4FFFE5305807C00EC4D4E4F60E31209965305C5
:1F1440007F7C001200B9AF01E4FEFDFC7B1712271112099F120B10120084E5F0600DEBB6
:20146000EAFEE9FDE84480FC120084AC00AD01AE02AF03228F308530357534007E227FED24
:201480007C011213B3AF30EF640A6010AF30EF640B6014AF30EF640C601880217E227FC262
:2014A0007C011213B3801F7E227F977C011213B380147E227F717C011213B380097E227F0C
:2014C0004B7C011213B37E227F327C011213B380FE0000000000000000FE0008019C0E6D2A
:2014E000100C000801DB082110C60008019C3F0B105400080186700A100000000000000081
:201500000000000000000000000000000000000000000000000000000000000000000000CB
:2015200000D900000013FAD3200000000000000000000000000000000000000000000000D2
:2015400000360000000860D4291A000000086C3B29000000000000000000000000000000FE
:2015600000000000000000000000000000000000002575202020202020202020202020252C
:20158000352E3166202020202020202020002575202020202020202020204B65696E65204B
:2015A0006B6F722E20416E74772E0025303278202530327820253032782025303278202528
:2015C000303278202530327820253032782025303278202530327800202020536C6176655A
:2015E0002D4E722E202020202054656D70657261747572202020202020202020536372615E
:201600007463682D5061642028427974652038202E2E2E2E20427974652030290044656DFA
:201620006F206C6165756674202E2E2E2020202841626272756368206475726368205461A6
:201640007374656E647275636B290A0A0A003D3D3D3D3D3D3D3D3D3D3D3D3D3D3D3D3D3D26
:201660003D3D3D3D3D3D3D3D3D3D3D3D3D3D3D3D3D3D3D3D3D3D3D3D3D3D0A0A00312D576F
:201680006972652D4275732D44656D6F2066756572206D61782E2035204453313853323071
:2016A00065722D536C617665730A000A0A0A556562657274726167756E67206F2E6B2E2C23
:2016C000202054617374652064727565636B656E202E2E2E20000A0A0A5565626572747297
:2016E0006167756E6720696E7320536372617463682050616420647572636820546173745F
:20170000656E647275636B202E2E2E20000A0A202057657274206675657220427974652077
:201720003320696D2053637261746368205061642028544C2D5265676973746572293A2086
:20174000200020205765727420667565722042797465203220696D205363726174636820B1
:20176000506164202854482D5265676973746572293A20200042697474652062656964654A
:20178000205765727465202830202E2E2E2032353529206E616368666F6C67656E642065FD
:2017A000696E7A656C6E2065696E676562656E3A0A0A0A003D3D3D3D3D3D3D3D3D3D3D3D08
:2017C0003D3D3D3D3D3D3D3D3D3D3D3D3D3D3D3D3D3D3D3D3D3D3D3D3D3D3D3D3D3D3D3D69
:2017E0003D3D3D3D3D3D3D3D0A0A0053696E676C6520436869703A2032204279746520285F
:2018000054482C544C2920696E2053637261746368205061642073636872656962656E0A46
:201820000025352E31660025303278202020202530327820202020253032782020202025E7
:2018400030327820202020253032782020202025303278202020202530327820202020258C
:20186000303278202020202530327800416262727563682064757263682054617374656E93
:20188000647275636B202E2E2E00416B7475656C6C652054656D706572617475723A20208B
:2018A000202020202020202020204300284845582900427974653A20202020203820202069
:2018C00020203720202020203620202020203520202020203420202020203320202020209F
:2018E0003220202020203120202020203000496E68616C7420646573205363726174636871
:2019000020506164733A00426974746520416266726167652D496E74657276616C6C2069BE
:201920006E206D732065696E676562656E2028313030202E2E2E2036352E303030206D7310
:20194000293A2020003D3D3D3D3D3D3D3D3D3D3D3D3D3D3D3D3D3D3D3D3D3D3D3D3D3D3D75
:201960003D3D3D3D3D3D3D3D3D3D3D3D3D3D3D3D3D3D3D3D3D3D3D3D3D3D3D3D3D3D0A0A2D
:201980000053696E676C6520436869703A2054656D706572617475726D657373756E67209C
:2019A000756E64204C6573656E20646573205363726174636820506164730A000A0A0A0AAB
:2019C0004665727469672C2054617374652064727565636B656E202E2E2E2000202020209E
:2019E0002025303278202020202020202020202025303278202530327820253032782025E6
:201A00003032782025303278202530327820202020202020202020202020202025303278CF
:201A20002020202020202020202020202028484558290A000A0A0A2020382D426974204381
:201A4000524320202020202034382D4269742053657269616C204E756D62657220202020F0
:201A60002020382D4269742046616D696C697920436F64650A0A00416266726167652064DC
:201A80007572636820447275636B206175662054617374652C20204265656E64656E20645D
:201AA000757263682045696E6761626520766F6E202765273A2020003D3D3D3D3D3D3D3D01
:201AC0003D3D3D3D3D3D3D3D3D3D3D3D3D3D3D3D3D3D3D3D3D3D3D3D3D3D3D3D3D3D3D3D66
:201AE0003D3D3D3D3D0A0053696E676C6520436869703A204C6573656E206465732036346E
:201B00002042697420524F4D2D4964656E746966696572730A000A0A576569746572202DFA
:201B20002054617374652064727565636B656E202E2E2E200020205465737420504F53490E
:201B40005449563A20204D696E64657374656E732045494E455220646120210A00202054A7
:201B6000657374204E4547415449563A20204B65696E657220646120210A00202020202043
:201B8000202020202020202020202020202020202020202020202020202020202020202045
:201BA00020000A0A5374617274206465732054657374733A20205461737465206472756509
:201BC000636B656E202E2E2E2000284265656E64656E2064757263682045696E67616265C0
:201BE00020766F6E202765272900312D576972652D52657365743A20546573742C206F623A
:201C0000204A454D414E4420616D2042757320616E67657363686C6F7373656E20697374C0
:201C20000A000A0A54657374206C61657566742C20776569746572206D6974205461737443
:201C400065202E2E2E200042697474652044656C61792D57657274202846756E6B74696F57
:201C60006E732D5565626572676162652D57657274292065696E676562656E202830202EB9
:201C80002E2E20323534293A200028527565636B737072756E672064757263682045696E77
:201CA0006761626520766F6E20323535290A0A003D3D3D3D3D3D3D3D3D3D3D3D3D3D3D3D59
:201CC0003D3D3D3D3D3D3D3D3D3D3D3D3D3D3D3D3D3D3D3D3D3D3D3D3D3D3D3D3D3D3D3D64
:201CE0003D3D3D3D3D3D0A0054657374204D6574686F646520323A205A6569747665727AD7
:201D00006F65676572756E672064757263682046756E6B74696F6E736175667275660A00BD
:201D20000A0A54657374206C6165756674202E2E2E200028527565636B737072756E6720A3
:201D40006475726368205265736574202E2E2E20290A0A003D3D3D3D3D3D3D3D3D3D3D3D67
:201D60003D3D3D3D3D3D3D3D3D3D3D3D3D3D3D3D3D3D3D3D3D3D3D3D3D3D3D3D3D3D3D3DC3
:201D80003D3D3D3D3D3D3D3D3D3D3D3D3D3D3D3D3D3D3D3D3D3D3D3D3D3D3D3D3D3D3D3DA3
:201DA0003D0A0054657374204D6574686F646520313A205A6569747665727A6F6567657236
:201DC000756E6720642E207265696E6520666F722D5363686C6569666520646972656B747A
:201DE00020696D2050726F67616D6D2D436F64650A004175737761686C2C20776173206755
:201E0000657465737465742077657264656E20736F6C6C2028312C2032206F64657220273D
:201E200065272028456E646529293A202000646965204D6574686F6465203220667565724A
:201E40002067726F657373657265205665727A6F65676572756E67656E2076657277656EE6
:201E60006465742E0A0A00446965204D6574686F646520312077697264207A75722045726C
:201E80007A657567756E672073656872206B6C65696E6572205A6569747665727A6F6567A3
:201EA0006572756E67656E20283C203230207573292C0A002020322E2044757263682041AA
:201EC00075667275662065696E65722046756E6B74696F6E2C206469652065696E65206674
:201EE0006F722D5363686C6569666520656E746861656C742E0A0A002020312E204D697411
:201F00002065696E6572207265696E656E20666F722D5363686C6569666520646972656B07
:201F20007420696D2050726F6772616D6D2D436F64652E0A007A752065727A657567656E7E
:201F40003A0A0A0045732067696274206E756E207A776569204D6F65676C6963686B6569E4
:201F600074656E2C20646965206E6F7477656E646967656E205A6569747665727A6F65671C
:201F80006572756E67656E0A00564F522064656D20546573742064656E204453313853323A
:201FA000302061626B6C656D6D656E20210A0A003D3D3D3D3D3D3D3D3D3D3D3D3D3D3D3D00
:201FC0003D3D3D3D3D3D3D3D3D3D3D3D3D3D3D3D3D3D3D3D3D3D3D3D3D0A0A005465737458
:201FE000207A75722075432D7370657A696669736368656E2044656C61792D466573746C16
:202000006567756E670A000A0A0A0A49687265205761686C3A2020000A0A2020392E20549B
:20202000657374207A75722075432D7370657A696669736368656E2044656C61792D4665DC
:2020400073746C6567756E67002020352E2044656D6F202D204275732D426574726965624E
:20206000206D6974206D61782E20352053656E736F72656E0A0A002020342E2053696E6739
:202080006C6520436869703A20322042797465202854482C544C2920696E2053637261749E
:2020A0006368205061642073636872656962656E0A0A002020332E2044656D6F202D205333
:2020C000696E676C6520436869703A2054656D706572617475726D657373756E6720756EC5
:2020E00064204C6573656E20646573205363726174636820506164730A0A002020322E20A5
:2021000053696E676C6520436869703A204C6573656E206465732036342042697420524F82
:202120004D2D4964656E746966696572730A0A002020312E20312D576972652D526573652B
:20214000743A20546573742C206F62204A454D414E4420616D2042757320616E676573635C
:20216000686C6F7373656E206973740A0A00426974746520776165686C656E205369653A68
:202180000A0A0A003D3D3D3D3D3D3D3D3D3D3D3D3D3D3D3D3D3D3D3D3D3D3D3D3D3D3D3D75
:2021A0003D3D3D3D3D3D3D3D3D0A0A004461732067726F73736520312D57697265202D2099
:2021C0004453313853323065722D50726F6A656B740A000A0A20205265736574206472759B
:2021E00065636B656E202E2E2E20000A0A0A0A20204665686C6572206265696D204C657350
:20220000656E2064657320524F4D2D4964656E746966696572733A204B45494E2050726516
:2022200073656E636520766F6D20536C6176652021000A0A53797374656D20616E67656806
:20224000616C74656E20210A0A0700556E6775656C74696765204665686C65726E756D6DC2
:20226000657220617566676574726574656E2021004453313832303A204B65696E20507267
:20228000657320626569206473313832305F77725F745F726567004453313832303A204B95
:2022A00065696E205072657320626569206473313832305F72645F74656D702829202D200E
:2022C00032004453313832303A204B65696E205072657320626569206473313832305F72EC
:2022E000645F74656D702829202D2031000A0A2533753A20001B5925632563001B481B4AEF
:2023000000322BCC7733D6BF95358637BD3727C5AC38D1B7173A83126F3C23D70A3DCCCC18
:20232000CD3F8000004120000042C80000447A0000461C400047C35000497424004B189612
:20234000804CBEBC204E6E6B28501502F951BA43B75368D4A5551184E756B5E62158635F32
:20236000A95A0E1BCA5BB1A2BC5D5E0B6B5F0AC72360AD78EC6258D7276407867865A96871
:20238000166753C21C690459516AA56FA66C4ECB8F6E013F396FA18F087149F2CA72FC6F5F
:2023A0007C749DC5AE7645371977F684DF799A130C7B4097CE7CF0BDC27E967699000000E2
:2023C0000A00000064000003E800002710000186A0000F424000000005000000320000017D
:2023E000F4000013880000C3500000C350EC6830E702EC22C3EC98700DED997009EE9A70F2
:2024000005EF9B700122500474FF8002740188F030F70264802222AB07E4FF80010FC3EF3C
:202420009B40FA22120084AC00AD01AE02AF03EC4D4E4F7007E4FCFDFEFF800AEBFFEAFED0
:20244000E9FDE86480FC22E4FFFE53058053047F7B1712267374822FFF228F301224E5EFD1
:202460006005AF30121474221200B9E4F8120996E4FFFE53058053047F7B17122673A90788
:20248000E97008E4FCFDFEFF0224E4120996E4FFFEFD530480EC4D4E4F600278011209962F
:2024A00053057F7C004305801200B9800C7B011209961226731200B9097F96C3E99F40ED71
:2024C000800C7B011209961227111200B9197F96D3E99F50EDE8600912099612133F1200F0
:2024E000B912099622C2B47F49122417D2B47F07122417A2B4E433FF8F317F3E122417AF87
:202500003122EC6EC0E0EE30E707E4C39FFFE49EFEEC30E707E4C39DFDE49CFC1225F6D0D9
:20252000E030E707E4C39FFFE49EFE227F0A12245A12283C7F4412134D7E037F2012109C14
:202540007F0B12245A12283C7FBE12134DE4F530121384AD07AF307E0074002FF5827400EB
:202560003EF583EDF005307409653070E3900001E0FF7023900000E0FF7E00EE3395E0FDAB
:20258000FC1213C11200847C3FE4FDFEFF1228BA7430120B978032900000E0FFF4FF7E004C
:2025A0000FEF70010EEE3395E0FDFC1213C178BF7980E4FAFB1228BA1200847C3FE4FDFEFC
:2025C1001228BA7430120B97E4FCFD7B09900000E0FF7E00EF2DFDEE3CFCA3DBF3BDF70FED
:2025E100BC080C75304475310A7532C075330074301200A222C000C001C002C003C083C0DF
:2026010082AA04AB05A806A90775F000EA4B7006E4FEFF02266605F0EA54807017EB2BF5B7
:2026210082EA33F583D3E58299E583985006AA83AB8280E2E4F583F582E5822582F582E560
:202641008333F583C3E99BE89A4008C3E99BF9E89AF8A3EAC313FAEB13FBD5F0DCAE83AFA9
:2026610082AC00AD01D082D083D003D002D001D00022EB600FECC313FCED13FDEE13FEEF6D
:2026810013FFDBF122C008C009C00AC00BEF8BF0A4F50B85F00AEF8AF0A4250AF50AE5F076
:2026A1003400F509EF89F0A42509F509E5F03400F508EF88F0A42508F508EE8BF0A4250A38
:2026C100F50AE5F03509F509E5083400F508EE8AF0A42509F509E5F03508F508EE89F0A479
:2026E1002508F508ED8BF0A42509F509E5F03508F508ED8AF0A42508F508EC8BF0A42508FB
:20270100FCAD09AE0AAF0BD00BD00AD009D00822EB600EEF2FFFEE3EFEED3DFDEC3CFCDB46
:20272100F222C000C001ED8FF0A4F9A8F0ED8EF0A428F8EC8FF0A428FEAF01D001D000228B
:202741001200037E217FAC7C011213B37E217F847C011213B37E217F6E7C011213B37E21CD
:202761007F307C011213B37E207FFB7C011213B37E207FB37C011213B37E207F777C01129F
:2027810013B37E207F497C011213B37E207F187C011213B37E207F077C011213B322759885
:2027A10052438920758DFDD28ED299221224E5EF60147E217FEB7C011213B37E217FD37CA5
:2027C100011213B380FE7F3312134DE4F528121384AD07AF287E0074092FF58274003EF500
:2027E10083EDF005287408652870E322EF9BF5F0EE9A42F0ED9942F0EC9845F022C3EF9BC4
:20280200EE9AFEED99FDEC98FC228F2C8D2D7F0C12245A12283C7F4E12134DAF2C12134D79
:20282200AF2D12134D7F0C12245A12283C7F4812134D7E007F0F12109C22900011E0FFBF53
:20284300087FCC12134D0228A67F5512134DE4F530900011E0FFAD077C007F03ED8FF005EE
:20286300F08005C333CC33CCD5F0F8FD7E147FD1EF2DFBEE3CFAAF30AD07E4FCFE7F07C38E
:20288300EF9DFFEE9CFEEB2FFFEA3EFE850683850782E493FF12134D053074086530600336
:2028A30002285422BF0A083099FDC29975990D3099FDC2998F992212103C1200B0E4F58282
:2028C30012007BEC4D4E4F6009120996EC4D4E4F7008E4FCFDFEFF022A4512007BE4FFFE71
:2028E300FD530480EC4D4E4F6003758201120996E4FFFEFD530480EC4D4E4F60036382014B
:20290300120996E4FFFE53058053047F7B17122673A90712007BE4FFFE53058053047F7BF0
:2029230017122673E92FFF74822FFF8F8312007B53057F7C004305801200B0120996530512
:202943007F7C004305807420120B977B0874201200A21226731200B97B0812007B1226736D
:2029630012099F1226861200B97B0874201200A212267312008412007BE4FEFDFC122686DF
:202983007B0812267312099F1210FD1200B97B0812007B12267312008474201200A2E4FEE7
:2029A300FDFC1226867B0812267312099F1210FD1200B0E4FFFEFD530480EC4D4E4F601198
:2029C300E4F8F9FA7B8012007B1210FD1200B9800FE4F8F9FA7B4012007B1210FD1200B923
:2029E300120996E4FFFEFD530480EC4D4E4F600D7B081209961226731200B0800D7B071269
:202A030009961226731200B0158312007B53057F7C001200B9AF83E4FEFDFC7B171227117B
:202A230012099F120B10120084E582600DEBFFEAFEE9FDE84480FC120084AC00AD01AE0242
:0D2A4300AF03223098FDAF99C2987E0022AB
:00000001FF
