:200000000210BFE6088601088602088603F82212266D7E1A7F2B7C0112272A7E197FFC7C0A
:200020000112272A7E197FCB7C0112272A7E197F867C0112272A02014FE4F528AF28900065
:2000400000EFF0122C0574291209D37D24AF28EF2FFF74082FFF1229D1900015E0FF7E00A6
:200060008E448F45900016E0FF7E008E428F43900017E0FF7E008E408F41900018E0FF7E8E
:1F008000008E3E8F3F900019E0FF7E008E3C8F3D90001AE0FF7E008E3A8F3B90001BE007
:2000A0007E008E388F3990001CE0FF7E008E368F3790001DE0FF7E008E348F357E197F59A2
:2000C0007C0112272A7844790A7AC07B0074291201D312292A70227D06AF28EF2FFF7408DF
:2000E0002FFF1229D18528357534007E197F3C7C0112272A752D028003E4F52DE52D702931
:200100007D06AF28EF2FFF74082FFF1229D1852936852A37852B38852C398528357534008B
:200120007E197F1F7C0112272A121134EF6005752D0180157E007F321210DA05287D05AF3E
:2001400028C3EF9D500302003C7401652D600302003922A804A905AA06AB0722AC0CAD0D80
:20016000AE0EAF0F22122BF790000074FFF00201BE120FA2122BBDAD077F31C3ED9F403E0D
:200180007F39D3ED9F503790015FED2D500205832582F58250020583740193C0E0E493C006
:2001A000E022120F318017120BD48012120DF4800D1201E1800812000F8003120A9F020153
:2001C0007101A201A701AC01B101B601BE01BE01BE01BBC88604088605088606088607C87E
:2001E0002212266D7E1B7F997C0112272A7E1B7F627C0112272A7E1B7F237C0112272A7EB4
:200200001A7FF07C0112272A7B047F287C02120C857F287C021210008F2C7E1A7FBB7C01DD
:2002200012272A7B047F287C02120C857F287C021210008F2D7E1A7F847C0112272A122B59
:20024000BD90000074FFF0AD2DAF2C122BC77E1A7F597C0112272A122BBD228E478F4874A9
:20026000491209E1E4F54DF54E74491201D3120A818F50054CE54C700E054BE54B700805B4
:200280004AE54A70020549E5507007AE4DAF4E0209A8742565506003020992E4F551E4F57D
:2002A00052755301E4F554E4F555E4F55674491201D3120A818F50054CE54C700E054BE545
:2002C0004B7008054AE54A70020549AF50EF6463700302071DAF50EF6466700302034A7DD8
:2002E00066AF50D3EF9D50357D2EAF50C3EF9D50030209927D39AF50D3EF9D4003020992D8
:20030000AF5090094DEF2F500205832582F58250020583740193C0E0E493C0E022AF50EF39
:20032000646C70030206A27D6CAF50C3EF9D5003020992AF50EF64757003020655AF50EF24
:200340006478700302065202099243511074042546F546AF46AB0778027CFF7DFF7EFF7F81
:20036000FC121127120A0974571209D3EC30E71074571201D312290774571209D343510204
:2003800074571201D3EC4D4E4F7006E4F54F02047974571201D312138CAD07ED30E7047427
:2003A000FD2DFDEDFF3395E0FE7C007D0312139F7C007D0A122A661F8F4F7D0EAF4FD3EFD7
:2003C00064806305809D402F7F4F8547838548821210B17F568547838548821210B17F4CF5
:2003E0008547838548821210B17403254EF54EE4354DF54D0202ADAF4FEFF404FFFF33955B
:20040000E0FE740E2FFFE43EFE7E00EF2FFDEE33FCED2DFDEC33FC7E257F81EF2DFFEE3C5E
:20042000FE8E838F8212111774571201D3122D161201537C3FE4FDFEFF12117F74571209D5
:20044000D3784C79BE7ABC7B2074571201D312292A20E725783D79CC7ACC7BCD7457120155
:20046000D3122D161201537C3E7DE67E667F6612117F74571209D3054F74571201D312296D
:200480005474571209D3780079987A967B8074571201D3C3122CF74015E4F8F9FA7B0A74F5
:2004A000571201D3120CF774571209D3054F755B00755C0F755D42755E407556017D07AF07
:2004C0004FC3EF64806305809D4003435108AF51530708EF6003020546AF4FEF20E70302D9
:1F04E00005407DF8AF4FD3EF64806305809D4045AF4FEFFD3395E0FC7E007F08C3EF9DB3
:20050000EE9CFEEF2FFDEE33FCED2DFDEC33FC7E257F81EF2DFFEE3CFE8E838F82121107B7
:2005200012295412015374571201D3120CF774571209D38011E4F557F558F559F55A800616
:200540007401254FF556755308AF52530702EF70030207AAAD567F06C3EF9DFDAF54C3ED9E
:200560009FFF8F0CAF0CEF30E7030207AAAF0CEF3395E0FEEF2FFDEE33FCED2DFDEC33FC11
:200580007E267F55EF2DFFEE3CFE8E838F8212111774571201D3121127120A0078007998A4
:2005A0007A967B801209F7C3122CF74030AF51530708EF6013054FE4F8F9FA7B0A1209F738
:2005C000120CF7120A0080150556E4F8F9FA7B0A745B1201D3122A90745B1209D3AF0CEFBE
:2005E0003395E0FEEF2FFDEE33FCED2DFDEC33FC7E267F3DEF2DFFEE3CFE8E838F82121103
:2006000017745B1201D3120CF7745B1209D3AF0CEF3395E0FEEF2FFDEE33FCED2DFDEC337E
:20062000FC7E267F3DEF2DFFEE3CFE8E838F821211171209F7120CF774571209D3AD56AF2D
:2006400054ED2FFF8F53E55470030207AA05530207AA435101AF51530704EF6022740425DE
:2006600046F546AF46AB0778027CFF7DFF7EFF7FFC121127120A0974571209D302073A0579
:20068000460546AF46AB0778027CFF7DFF7EFF7FFE121127120A45E4FDFC74571209D30274
:2006A000073A4351040202AD4352800202ADAF52530780EF70064352040202ADAF5074D01D
:2006C0002FF980297F0AE98FF0A4FB74491201D3120A8174D02FFF2BF9054CE54C700E05DE
:2006E0004BE54B7008054AE54A7002054974491201D3120A81AD077F30C3ED9F40077F39D8
:20070000D3ED9F40BFAF52530780EF600889544352020202AD89554352010202AD054605AF
:2007200046AF46AB0778027CFF7DFF7EFF7FFE121127120A458F50020992755B00755C0099
:20074000755D00755E01AF51530701EF604380117B04745B1201D3122BAB745B1209D30597
:2007600053785B12000374571201D3120CF7E4F8F9FA7B0FD3122CF750D6802EE4F8F9FA74
:200780007B0A745B1201D3122A90745B1209D30553785B12000374571201D3120CF7E4F8B4
:2007A000F9FA7B09D3122CF750D2AF51530762EF60020553AF52530701EF6028AF52530705
:2007C00014EF7020801515557F208547838548821210B1054EE54E7002054DAD55AF53C366
:2007E000EF9D40E2AF51530702EF60047D2D8002E4FDED6013AF058547838548821210B10A
:20080000054EE54E7002054DAF52530701EF70030208E4AF52530704EF70030208E480159E
:2008200015557F308547838548821210B1054EE54E7002054DAD55AF53C3EF9D40E2020865
:20084000E4AF51530710EF6019E55670137F2E8547838548821210B1054EE54E7002054DBC
:200860001556785B12000374571201D3120CF78F82AF827E00AB07AA06E4F9F8745B120186
:20088000D3122A9012015374571201D3122D0874571209D3AF8274302FFD7F39D3ED9F404A
:2008A0000474272DFDAF058547838548821210B1054EE54E7002054DAF51530701EF601145
:2008C0007B04745B1201D3122B98745B1209D38013E4F8F9FA7B0A745B1201D3120CF7742D
:2008E0005B1209D3745B1201D3EC4D4E4F6003020841AF51530708EF7003020964AF5153F0
:2009000007958F547F658547838548821210B1054EE54E7002054DAF544307208F51AF4F6E
:20092000EF30E70D435102AF4FEFF404FF8F4F80137F2B8547838548821210B1054EE54E18
:200940007002054DAF4FEF3395E0FE3395E0FDFC74571209D3755B00755C00755D00755EA0
:200960000A0207AAAF52530701EF7003020269801515557F208547838548821210B1054E2D
:20098000E54E7002054DAD55AF53C3EF9D40E2020269AF508547838548821210B1054EE5D6
:2009A0004E7002054D0202692206A8099206AE06BC06BC06BC06BC06BC06BC06BC06BC0683
:2009C000BC8C0C8D0D8E0E8F0F22A808A909AA0AAB0B22C8A60408A60508A60608A607C889
:2009E00022C8F608A60108A60208A603C822A80CA90DAA0EAB0F22AC08AD09AE0AAF0B2221
:200A00008C088D098E0A8F0B22EC70108F828E83E0FCA3E0FDA3E0FEA3E0FF22D5E0138FF2
:200A2000828E8393FC740193FD740293FE740393FF22D5E00FC88F00860408860508860691
:200A4000088607C822EC700A8F828E83E0FEA3E0FF22D5E00B8F828E8393FE740193FF2271
:200A6000D5E009C88F008606088607C822EC70078F828E83EBF022B40206C88F00A603C850
:200A800022EC70078F828E83E0FF22D5E0078F828E8393FF22D5E006C88F008607C8220291
:200AA0000BBA12266D7E237F8A7C0112272A7E237F5E7C0112272A7E237F377C0112272AAD
:200AC0007E227FF27C0112272A7E227FE37C0112272A7E227FA67C0112272A7E227F627CA1
:200AE0000112272A7E227F157C0112272A7E217FDC7C0112272A7E217FA07C0112272A12F4
:200B00002BBDEF64316008EF64326003020BBDBF31028003020BB7803A12266D7E217F5148
:200B20007C0112272A7E217F027C0112272A7E207FE17C0112272A7E207FCE7C0112272A2C
:200B4000800FC2B47F08DFFED2B47E007F0A1210DA80EF80C412266D7E207F967C011227E2
:200B60002A7E207F5E7C0112272A7E207F387C0112272A7E1F7FF57C0112272A7B047F28A4
:200B80007C02120C857F287C021210008F2C74FF652C60267E1F7FD07C0112272A8016C284
:200BA000B4AF2C1228FAD2B4121134EF70097E007F0A1210DA80E8020B55020AA222EF4B56
:200BC100EE4AFEED49FDEC48FC22880C890D8A0E8B0F22020C8112266D7E1E7F957C011268
:200BE100272A7E1E7F667C0112272A7E1E7F257C0112272A7F08900015E4F0A3DFFB122B68
:200C0100BDBF6503020C84122EE47E1D7FE27C0112272A900003E0FF7E008E428F4390003B
:200C210004E0FF7E008E408F41900005E0FF7E008E3E8F3F900006E0FF7E008E3C8F3D900F
:200C41000007E0FF7E008E3A8F3B900008E0FF7E008E388F39900009E0FF7E008E368F379A
:200C610090000AE0FF7E008E348F357E1D7F8A7C0112272A7E1D7F6A7C0112272A122BBD14
:200C8100020BD722742E1209D3E4F532AF031F8F33122BBD8F34740865347017E53260F15E
:200CA10015327F08122ED17F20122ED17F08122ED180DEAF34EF640A6006740D6534700579
:200CC100E4F534800DAD33AF32EF6D60C4AF34122ED1AF327E00AB07AA06E4F9F8742E12FA
:200CE10001D3121127AB34120A6DE53460050532020C92AF3222C008C009C00AC00BC00C23
:200D0100C00DC00EC00FC020C021C022C023880C890D8A0E8B0F8C088D098E0A8F0B758233
:200D210000E50C450D450E450F7008E4FCFDFEFF020DDB0582E50C548070267B01AC0CADC9
:200D41000DAE0EAF0F122BABA808A909AA0AAB0B122CF76002500A8C0C8D0D8E0E8F0F807A
:200D6100D2E4F520F521F522F5237B01AC20AD21AE22AF23122BAB8C208D218E228F23A85E
:200D81000CA90DAA0EAB0FAC08AD09AE0AAF0B122CF7401EA80CA90DAA0EAB0FAC08AD0969
:200DA100AE0AAF0B122D088C088D098E0A8F0B4323017B01AC0CAD0DAE0EAF0F122B988CED
:200DC1000C8D0D8E0E8F0FD582A0AC20AD21AE22AF23A808A909AA0AAB0BD023D022D0215D
:200DE100D020D00FD00ED00DD00CD00BD00AD009D0082212266D7E1D7F2F7C0112272A7EB8
:200E01001C7FF37C0112272A7E1C7FB57C0112272A7B067F287C02120C857F287C02121025
:200E2100008E2E8F2F7D027F061229D17E1C7F9C7C0112272A7D047F081229D17E1C7F6005
:200E41007C0112272A7D047F0A1229D17E1C7F5A7C0112272A7D027F0E1229D17E1C7F38DF
:200E61007C0112272AE4FD7F121229D17E1C7F1A7C0112272A7F09900015E4F0A3DFFB90F2
:200E8100000074FFF0020F2D122C0574301209D37D0E7F0A1229D1900015E0FF7E008E44E7
:200EA1008F45900016E0FF7E008E428F43900017E0FF7E008E408F41900018E0FF7E008E83
:200EC1003E8F3F900019E0FF7E008E3C8F3D90001AE0FF7E008E3A8F3B90001BE0FF7E00C8
:200EE1008E388F3990001CE0FF7E008E368F3790001DE0FF7E008E348F357E1B7FD57C01D6
:200F010012272A7D1A7F0E1229D18530348531358532368533377E1B7FCF7C0112272A12B4
:200F21001134EF700AAE2EAF2F1210DA020E892212266D7E1F7F987C0112272A7E207F5EDD
:200F41007C0112272A7E1F7F787C0112272A7E1F7F507C0112272A80457D027F071229D11A
:200F61007E1F7F297C0112272A7D027F071229D1122BBDBF65028028121153EF600B7E1F05
:200F81007F0B7C0112272A80097E1E7FE37C0112272A7E1E7FC47C0112272A122BBD80B98D
:200FA1002212266D7E257F5A7C0112272A7E257F327C0112272A7E257F1C7C0112272A7E3D
:200FC100247FDE7C0112272A7E247FA97C0112272A7E247F617C0112272A7E247F257C01E0
:200FE10012272A7E237FF77C0112272A7E237FC67C0112272A7E237FB57C0112272A227485
:201001002E1209D3E4F50EF50FE4F50C852E08852F0985300A85310BE4F8F9FA7B01120985
:20102100F7121127742E1209D31209F7120A81AB07E50C700DEB64206003BB090280CD75B5
:201041000C017401650C7010BB2D05750C8080BC750C02BB2B0280B47F30C3EB9F40077F91
:2010610039D3EB9F400280287E007F0AAC0EAD0F12139FAC06AD07AF037E0074D02FFF7432
:201082003EFEEF2DFFEE3CFE8E0E8F0F02100DAF0C7E00EF64804E700DAE0EAF0FC3E49FDF
:2010A200FDE49EFC8004AC0EAD0FAE04AF0522C082C08322880889098A0A8B0B22E5A8C2CD
:2010C200AF549075815EA881760018B81FFAC0E0121103D0A8020165EF60010E90FF67A302
:2010E200E583458270F9DFF4DEF2227800791E900000E849600AE4F0A3E91970F51880F2EF
:20110200221210ED22E493FC740193FD740293FE740393FF22E493F8740193F9740293FA5D
:20112200740393FB22EF2BFFEE3AFEED39FDEC38FC22E4FDA298E433FFBF0104C298AD994D
:20114200AF05228F30121153EF6005AF3012273822C2B47F491228FAD2B47F071228FAA268
:20116200B4E433FF8F317F3E1228FAAF3122C2B4EF6002D2B47F0D1228FAD2B422120A001F
:20118200120BCBE4F81209F7E4FFFE53058053047F7B17122B988FF012015CE4FFFE53055A
:2011A2008053047F7B17122B98A907AF017E0074192FFDE43EFCAFF07E00D3EF9DEE64806D
:2011C2006304809C5003E970061209F702138BAFF07E0074192FFDE43EFCAF017E00D3EF42
:2011E2009DEE64806304809C400612015C02138B1209F7E4FFFEFD530480EC4D4E4F6002A7
:20120200780112015CE4FFFEFD530480EC4D4E4F60034300021209F753057F7C0043058084
:20122200120A0012015C53057F7C004305801209C17B061209F7122BAB120A007B061201FF
:201242005C122BAB1209C1AFF0D3EF99401CAD017C00AFF07E00C3EF9DFFEE9CFEAB071235
:20126200015C122B981209C18027AFF0C3E5079501501EAFF0AD077C00AF017E00C3EF9D19
:20128300EE9CFEAB071209F7122B98120A0089F0E85401FF60091209F71213BD120A00E8F8
:2012A3005402FF600912015C1213BD1209C11209EE1209F7121127120A00E4F5821209F752
:2012C300E4FFFEFD530480EC4D4E4F600E1209F71213BD120A00758201801E1209F7EC4D21
:2012E3004E4F7015E4FCFDFEFF02138B7B011209F7122BAB120A0015F01209F7E4FFFEFDC8
:20130300530440EC4D4E4F60E3E4F8F9FA7B401209F7121127120A00E4FFFEFD530480EC77
:201323004D4E4F700D7B011209F7122BAB120A0015F0AFF0A90709097B081209F7122B98E1
:20134300120A00EC4D4E4F7007E4FCFDFEFF80381209F753057F7C00120A00AF01E4FEFD7F
:20136300FC7B17122BAB1209CA120BBE120153E582600DEBFFEAFEE9FDE84480FC12015334
:20138300AC00AD01AE02AF0322E4FFFE53058053047F7B17122B9874822FFF22C000C001AF
:2013A300ED8FF0A4F9A8F0ED8EF0A428F8EC8FF0A428FEAF01D001D00022E4C39FFFE49EEB
:2013C300FEE49DFDE49CFC221B5925632563001B481B4A000000000000000000FE0008019D
:2013E3009C0E6D100C000801DB082110C60008019C3F0B105400080186700A100000000068
:201403000000000000000000000000000000000000000000000000000000000000000000C9
:2014230000000000D900000013FAD3200000000000000000000000000000000000000000D0
:2014430000000000360000000860D4291A000000086C3B29000000000000000000000000FC
:2014630000000000000000000000000000000000000000000A0A202052657365742064721C
:201483007565636B656E202E2E2E20000A0A0A0A20204665686C6572206265696D204C65B8
:2014A30073656E2064657320524F4D2D4964656E746966696572733A204B45494E20507273
:2014C3006573656E636520766F6D20536C6176652021000A0A53797374656D20616E676574
:2014E30068616C74656E20210A0A0700556E6775656C74696765204665686C65726E756D32
:201503006D657220617566676574726574656E2021004453323430383A204B65696E2050D3
:2015230072657320626569206473323430385F666C615F636C2829004453323430383A2079
:201543004B65696E205072657320626569206473323430385F72645F666C61282900445383
:20156300323430383A204B65696E205072657320626569206473323430385F72645F7A7567
:201583007374616E642829004453323430383A20436F6E6669726D6174696F6E2D427974D9
:2015A300652066616C73636820696E206473323430385F77725F6279746528290044533201
:2015C3003430383A204B65696E205072657320626569206473323430385F77725F627974C6
:2015E300652829004453323430383A204665686C657220626569206473323430385F696ED2
:2016030069742829004453323430383A204B65696E205072657320626569206473323430BC
:20162300385F696E69742829004B65696E2050726573656E6365206265696D2053636872C2
:20164300656962656E20696E205061676520332028496E69742D456E6465292021004B65FE
:20166300696E2050726573656E6365206265696D20537461727420436F6E76657274202807
:20168300456E6465292021004B65696E2050726573656E6365206265696D2053746172749A
:2016A30020436F6E766572742028416E66616E67292021004665686C6572206265696D20F6
:2016C30052FC636B6C6573656E20766F6E205061676520332028496E6974292021004B657B
:2016E300696E2050726573656E6365206265696D2053636872656962656E20696E20506183
:20170300676520332028496E69742D416E662E292021004B65696E2050726573656E636515
:20172300206265696D204C6573656E206175732065696E6572205365697465202832292059
:2017430021004B65696E2050726573656E6365206265696D204C6573656E206175732065C7
:20176300696E6572205365697465202831292021004B65696E2050726573656E636520625D
:2017830065696D2053636872656962656E20696E2065696E652053656974652028322920C3
:2017A30021004665686C6572206265696D2053636872656962656E202D20527565636B6C6C
:2017C3006573656E2021004B65696E2050726573656E6365206265696D2053636872656903
:2017E30062656E20696E2065696E65205365697465202831292021004453313832303A2040
:201803004B65696E205072657320626569206473313832305F77725F745F72656700445323
:20182300313832303A204B65696E205072657320626569206473313832305F72645F7465C0
:201843006D702829202D2032004453313832303A204B65696E2050726573206265692064E7
:2018630073313832305F72645F74656D702829202D2031000A0A2533753A200000000000B3
:2018830000000000FE0008019C0E6D100C000801DB082110C60008019C3F0B1054000801CC
:2018A30086700A100000000000000000000000000000000000000000000000000000000015
:2018C300000000000000000000000000D900000013FAD3200000000000000000000000002C
:2018E300000000000000000000000000360000000860D4291A000000086C3B290000000058
:201903000000000000000000000000000000000000000000000000000000000025752020EA
:201923002020202020202020202025352E31662020202020202020200025752020202020EB
:2019430020202020204B65696E65206B6F722E20416E74772E002530327820253032782038
:20196300253032782025303278202530327820253032782025303278202530327820253055
:20198300327800202020536C6176652D4E722E202020202054656D7065726174757220201B
:2019A30020202020202020536372617463682D5061642028427974652038202E2E2E2E200E
:2019C300427974652030290044656D6F206C6165756674202E2E2E202020284162627275B3
:2019E30063682064757263682054617374656E647275636B290A0A0A003D3D3D3D3D3D3D49
:201A03003D3D3D3D3D3D3D3D3D3D3D3D3D3D3D3D3D3D3D3D3D3D3D3D3D3D3D3D3D3D3D3D23
:201A23003D3D3D3D3D0A0A00312D576972652D4275732D44656D6F2066756572206D617828
:201A43002E2035204453313853323065722D536C617665730A000A0A0A55656265727472B8
:201A63006167756E67206F2E6B2E2C202054617374652064727565636B656E202E2E2E2053
:201A8300000A0A0A556562657274726167756E6720696E73205363726174636820506164B3
:201AA3002064757263682054617374656E647275636B202E2E2E20000A0A20205765727485
:201AC30020667565722042797465203320696D2053637261746368205061642028544C2D02
:201AE3005265676973746572293A2020002020576572742066756572204279746520322021
:201B0300696D205363726174636820506164202854482D5265676973746572293A202000D6
:201B23004269747465206265696465205765727465202830202E2E2E2032353529206E6174
:201B43006368666F6C67656E642065696E7A656C6E2065696E676562656E3A0A0A0A003DD1
:201B63003D3D3D3D3D3D3D3D3D3D3D3D3D3D3D3D3D3D3D3D3D3D3D3D3D3D3D3D3D3D3D3DC2
:201B83003D3D3D3D3D3D3D3D3D3D3D3D3D3D3D3D3D3D3D0A0A0053696E676C652043686911
:201BA300703A20322042797465202854482C544C2920696E20536372617463682050616485
:201BC3002073636872656962656E0A0025352E316600253032782020202025303278202048
:201BE3002020253032782020202025303278202020202530327820202020253032782020E6
:201C0300202025303278202020202530327820202020253032780041626272756368206449
:201C2300757263682054617374656E647275636B202E2E2E00416B7475656C6C652054658D
:201C43006D706572617475723A2020202020202020202020204300284845582900427974AF
:201C6300653A20202020203820202020203720202020203620202020203520202020203494
:201C830020202020203320202020203220202020203120202020203000496E68616C74207B
:201CA300646573205363726174636820506164733A00426974746520416266726167652D2E
:201CC300496E74657276616C6C20696E206D732065696E676562656E2028313030202E2EA7
:201CE3002E2036352E303030206D73293A2020003D3D3D3D3D3D3D3D3D3D3D3D3D3D3D3DF7
:201D03003D3D3D3D3D3D3D3D3D3D3D3D3D3D3D3D3D3D3D3D3D3D3D3D3D3D3D3D3D3D3D3D20
:201D23003D3D3D3D3D3D3D3D3D0A0A0053696E676C6520436869703A2054656D7065726139
:201D43007475726D657373756E6720756E64204C6573656E20646573205363726174636861
:201D630020506164730A000A0A0A0A4665727469672C2054617374652064727565636B65D5
:201D83006E202E2E2E200020202020202530327820202020202020202020202530327820EA
:201DA3002530327820253032782025303278202530327820253032782020202020202020A5
:201DC30020202020202020253032782020202020202020202020202028484558290A000A37
:201DE3000A0A2020382D4269742043524320202020202034382D4269742053657269616C18
:201E0300204E756D626572202020202020382D4269742046616D696C697920436F64650A62
:201E23000A004162667261676520647572636820447275636B206175662054617374652CF5
:201E430020204265656E64656E2064757263682045696E6761626520766F6E202765273A0D
:201E63002020003D3D3D3D3D3D3D3D3D3D3D3D3D3D3D3D3D3D3D3D3D3D3D3D3D3D3D3D3D36
:201E83003D3D3D3D3D3D3D3D3D3D3D3D3D3D3D3D0A0053696E676C6520436869703A204CB9
:201EA3006573656E206465732036342042697420524F4D2D4964656E746966696572730A94
:201EC300000A0A576569746572202D2054617374652064727565636B656E202E2E2E2000D2
:201EE30020205465737420504F53495449563A20204D696E64657374656E732045494E45DC
:201F03005220646120210A00202054657374204E4547415449563A20204B65696E65722036
:201F2300646120210A0020202020202020202020202020202020202020202020202020204E
:201F4300202020202020202020202020000A0A5374617274206465732054657374733A20F3
:201F63002054617374652064727565636B656E202E2E2E2000284265656E64656E20647530
:201F83007263682045696E6761626520766F6E202765272900312D576972652D5265736516
:201FA300743A20546573742C206F62204A454D414E4420616D2042757320616E67657363FB
:201FC300686C6F7373656E206973740A000A0A54657374206C61657566742C20776569742E
:201FE3006572206D6974205461737465202E2E2E200042697474652044656C61792D5765C2
:202003007274202846756E6B74696F6E732D5565626572676162652D576572742920656939
:202023006E676562656E202830202E2E2E20323534293A200028527565636B737072756E74
:20204300672064757263682045696E6761626520766F6E20323535290A0A003D3D3D3D3D78
:202063003D3D3D3D3D3D3D3D3D3D3D3D3D3D3D3D3D3D3D3D3D3D3D3D3D3D3D3D3D3D3D3DBD
:202083003D3D3D3D3D3D3D3D3D3D3D3D3D3D3D3D3D0A0054657374204D6574686F64652080
:2020A300323A205A6569747665727A6F65676572756E672064757263682046756E6B74690B
:2020C3006F6E736175667275660A000A0A54657374206C6165756674202E2E2E2000285281
:2020E3007565636B737072756E67206475726368205265736574202E2E2E20290A0A003DF9
:202103003D3D3D3D3D3D3D3D3D3D3D3D3D3D3D3D3D3D3D3D3D3D3D3D3D3D3D3D3D3D3D3D1C
:202123003D3D3D3D3D3D3D3D3D3D3D3D3D3D3D3D3D3D3D3D3D3D3D3D3D3D3D3D3D3D3D3DFC
:202143003D3D3D3D3D3D3D3D3D3D3D3D0A0054657374204D6574686F646520313A205A65A6
:2021630069747665727A6F65676572756E6720642E207265696E6520666F722D5363686C59
:202183006569666520646972656B7420696D2050726F67616D6D2D436F64650A004175733C
:2021A3007761686C2C207761732067657465737465742077657264656E20736F6C6C20288D
:2021C300312C2032206F646572202765272028456E646529293A202000646965204D6574A8
:2021E300686F6465203220667565722067726F657373657265205665727A6F6567657275DB
:202203006E67656E2076657277656E6465742E0A0A00446965204D6574686F646520312074
:2022230077697264207A75722045727A657567756E672073656872206B6C65696E6572208C
:202243005A6569747665727A6F65676572756E67656E20283C203230207573292C0A00205C
:2022630020322E204475726368204175667275662065696E65722046756E6B74696F6E2C6F
:20228300206469652065696E6520666F722D5363686C6569666520656E746861656C742ECE
:2022A3000A0A002020312E204D69742065696E6572207265696E656E20666F722D53636898
:2022C3006C6569666520646972656B7420696D2050726F6772616D6D2D436F64652E0A0018
:2022E3007A752065727A657567656E3A0A0A0045732067696274206E756E207A776569202B
:202303004D6F65676C6963686B656974656E2C20646965206E6F7477656E646967656E20B2
:202323005A6569747665727A6F65676572756E67656E0A00564F522064656D2054657374F1
:202343002064656E20445331385332302061626B6C656D6D656E20210A0A003D3D3D3D3DFC
:202363003D3D3D3D3D3D3D3D3D3D3D3D3D3D3D3D3D3D3D3D3D3D3D3D3D3D3D3D3D3D3D3DBA
:202383003D3D3D3D0A0A0054657374207A75722075432D7370657A696669736368656E20E1
:2023A30044656C61792D466573746C6567756E670A000A0A0A0A49687265205761686C3A4A
:2023C3002020000A0A2020392E2054657374207A75722075432D7370657A69666973636881
:2023E300656E2044656C61792D466573746C6567756E67002020352E2044656D6F202D2002
:202403004275732D42657472696562206D6974206D61782E20352053656E736F72656E0ADB
:202423000A002020342E2053696E676C6520436869703A20322042797465202854482C5423
:202443004C2920696E2053637261746368205061642073636872656962656E0A0A002020C9
:20246300332E2044656D6F202D2053696E676C6520436869703A2054656D706572617475CF
:20248300726D657373756E6720756E64204C6573656E206465732053637261746368205093
:2024A3006164730A0A002020322E2053696E676C6520436869703A204C6573656E206465CD
:2024C300732036342042697420524F4D2D4964656E746966696572730A0A002020312E2039
:2024E300312D576972652D52657365743A20546573742C206F62204A454D414E4420616DE0
:202503002042757320616E67657363686C6F7373656E206973740A0A0042697474652077CE
:202523006165686C656E205369653A0A0A0A003D3D3D3D3D3D3D3D3D3D3D3D3D3D3D3D3D85
:202543003D3D3D3D3D3D3D3D3D3D3D3D3D3D3D3D3D3D3D3D0A0A004461732067726F73733A
:202563006520312D57697265202D204453313853323065722D50726F6A656B740A00322B72
:20258300CC7733D6BF95358637BD3727C5AC38D1B7173A83126F3C23D70A3DCCCCCD3F8064
:2025A30000004120000042C80000447A0000461C400047C35000497424004B1896804CBE8F
:2025C300BC204E6E6B28501502F951BA43B75368D4A5551184E756B5E62158635FA95A0E26
:2025E3001BCA5BB1A2BC5D5E0B6B5F0AC72360AD78EC6258D7276407867865A9681667532D
:20260300C21C690459516AA56FA66C4ECB8F6E013F396FA18F087149F2CA72FC6F7C749D1C
:20262300C5AE7645371977F684DF799A130C7B4097CE7CF0BDC27E9676990000000A0000DF
:202643000064000003E800002710000186A0000F42400000000500000032000001F400000D
:2026630013880000C3500000C3507E137FD27C0112272A22120153AC00AD01AE02AF03ECA4
:202683004D4E4F7008E4FCFDFEFF022729AC00AD01AE02AF03EC30E71375F001AC00AD0117
:2026A300AE02AF031213BD120A008006E4F5F01210B67996800C097B011209F7122B981277
:2026C3000A001209F7E4FFFEFDEC4D4E4F70E7800C7B011209F7122BAB120A00191209F787
:2026E300E4FFFE5305807C00EC4D4E4F60E31209F753057F7C00120A00AF01E4FEFDFC7B02
:2027030017122BAB1209CA120BBE120153E5F0600DEBFFEAFEE9FDE84480FC120153AC00DD
:20272300AD01AE02AF03227546341201537E2E7FD112025B228F308530357534007E187F1B
:20274300777C0112272A7D0AAF30C3EF9D50030228997D1DAF30D3EF9D501DAF30902899DF
:20276300EF2F500205832582F58250020583740193C0E0E493C0E0227D32AF30C3EF9D5058
:20278300030228997D38AF30D3EF9D4003022899AF30902871EF2F500205832582F5825009
:2027A300020583740193C0E0E493C0E0227E187F4C7C0112272A0228A27E187F217C0112D9
:2027C300272A0228A27E177FFB7C0112272A0228A27E177FCA7C0112272A0228A27E177F80
:2027E300A57C0112272A0228A27E177F747C0112272A0228A27E177F457C0112272A0228EE
:20280300A27E177F167C0112272A0228A27E167FE17C0112272A0228A27E167FB77C011244
:20282300272A0228A27E167F8B7C0112272A0228A27E167F617C0112272A0228A27E167FFB
:202843002C7C0112272A0228A27E167F087C0112272A804B7E157FE77C0112272A80407EC0
:20286300157FC07C0112272A80357E157F8B7C0112272A802A7E157F617C0112272A801F53
:202883007E157F3B7C0112272A80147E157F157C0112272A80097E147FEF7C0112272A7E86
:2028A300147FD67C0112272A80FE27B027BC27C8289928992899289928992899289927D463
:2028C30027E027EC27F828042810281C282828342840284C28572862286D28782883288EED
:2028E300C2B4D2B47F06DFFEA2B4E433FF8F337F0D1228FAAF3322AB07E4FF80010FC3EFAE
:202903009B40FA22120153AC00AD01AE02AF03EC4D4E4F7007E4FCFDFEFF800AEBFFEAFE18
:20292300E9FDE86480FC22EC6830E702EC22C3EC98700DED997009EE9A7005EF9B7001226C
:20294300500474FF8002740188F030F70264802222120A00E4F81209F7E4FFFE53058053D7
:20296300047F7B17122B98A907E97008E4FCFDFEFF0229D01209F7E4FFFEFD530480EC4D84
:202983004E4F600278011209F753057F7C00430580120A00800C7B011209F7122B98120A68
:2029A30000097F96C3E99F40ED800C7B011209F7122BAB120A00197F96D3E99F50EDE86052
:2029C300091209F71213BD120A001209F722EDAD07FF7E0074202FFFE43EFE8E368F37AF6E
:2029E300057E0074202FFFE43EFE8E348F357E137FCB7C0112272A22900000E0FFBFFF08D7
:202A03007FCC122CCF022A657F55122CCFE4F530900000E0FFAD077C007F03ED8FF005F05E
:202A23008005C333CC33CCD5F0F8FD7E137FD7EF2DFBEE3CFAAF30AD07E4FCFE7F07C3EFC8
:202A43009DFFEE9CFEEB2FFFEA3EFE850683850782E493FF122CCF053074086530600302C6
:202A63002A1322EC6EC0E0EE30E707E4C39FFFE49EFEEC30E707E4C39DFDE49CFC122B1B0A
:202A8300D0E030E707E4C39FFFE49EFE22C008C009C00AC00BEF8BF0A4F50B85F00AEF8A52
:202AA300F0A4250AF50AE5F03400F509EF89F0A42509F509E5F03400F508EF88F0A42508D4
:202AC300F508EE8BF0A4250AF50AE5F03509F509E5083400F508EE8AF0A42509F509E5F07F
:202AE3003508F508EE89F0A42508F508ED8BF0A42509F509E5F03508F508ED8AF0A42508E5
:202B0300F508EC8BF0A42508FCAD09AE0AAF0BD00BD00AD009D00822C000C001C002C003CB
:202B2300C083C082AA04AB05A806A90775F000EA4B7006E4FEFF022B8B05F0EA548070176E
:202B4300EB2BF582EA33F583D3E58299E583985006AA83AB8280E2E4F583F582E58225828A
:202B6300F582E58333F583C3E99BE89A4008C3E99BF9E89AF8A3EAC313FAEB13FBD5F0DC06
:202B8300AE83AF82AC00AD01D082D083D003D002D001D00022EB600FECC313FCED13FDEE66
:202BA30013FEEF13FFDBF122EB600EEF2FFFEE3EFEED3DFDEC3CFCDBF2223098FDAF99C269
:202BC300987E00228F2C8D2D7F0C1211451229FB7F4E122CCFAF2C122CCFAF2D122CCF7FF2
:202BE3000C1211451229FB7F48122CCF7E007F0F1210DA22759852438920758DFDD28ED2AE
:202C030099227F0A1211451229FB7F44122CCF7E037F201210DA7F0B1211451229FB7FBE7E
:202C2300122CCFE4F530122EA2AD07AF307E0074152FF58274003EF583EDF005307409653B
:202C43003070E3900016E0FF7023900015E0FF7E00EE3395E0FDFC1226771201537C3FE491
:202C6300FDFEFF122D1674301209D38032900015E0FFF4FF7E000FEF70010EEE3395E0FDB9
:202C8300FC12267778BF7980E4FAFB122D161201537C3FE4FDFEFF122D1674301209D3E45E
:202CA300FCFD7B09900015E0FF7E00EF2DFDEE3CFCA3DBF3BDF70FBC080C75304475310AB6
:202CC3007532C075330074301201D3228F31753201753308AD32AF31EF5DFF60077F01121B
:202CE30011708005E4FF121170AF32EF2FFF8F32D533E122EF9BF5F0EE9A42F0ED9942F0AA
:202D0300EC9845F022C3EF9BFFEE9AFEED99FDEC98FC221210B61209C1E4F58212015CEC74
:202D23004D4E4F60091209F7EC4D4E4F7008E4FCFDFEFF022EA112015CE4FFFEFD5304800E
:202D4300EC4D4E4F60037582011209F7E4FFFEFD530480EC4D4E4F60036382011209F7E463
:202D6400FE53058053047F7B17122B98A90712015CE4FFFE53058053047F7B17122B98E93E
:202D84002FFF74822FFF8F8312015C53057F7C004305801209C11209F753057F7C004305B8
:202DA4008074241209D37B0874241201D3122B98120A007B0812015C122B981209CA122A2F
:202DC40090120A007B0874241201D3122B9812015312015CE4FEFDFC122A907B08122B9899
:202DE4001209CA121127120A007B0812015C122B9812015374241201D3E4FEFDFC122A9032
:202E04007B08122B981209CA1211271209C1E4FFFEFD530480EC4D4E4F6011E4F8F9FA7B05
:1F2E24008012015C121127120A00800FE4F8F9FA7B4012015C121127120A001209F7E456
:202E4400FEFD530480EC4D4E4F600D7B081209F7122B981209C1800D7B071209F7122B981D
:202E64001209C1158312015C53057F7C00120A00AF83E4FEFDFC7B17122BAB1209CA120B73
:202E8400BE120153E582600DEBFFEAFEE9FDE84480FC120153AC00AD01AE02AF0322E4F5B9
:1F2EA40031E4F5321228E3EF6018AD327F01EF8DF005F08002C333D5F0FBFDAF31EF4D3E
:202EC4008F3105327408653270DAAF3122BF0A083099FDC29975990D3099FDC2998F992220
:202EE400121153EF60147E147F8F7C0112272A7E147F777C0112272A80FE7F33122CCFE4EC
:202F0400F528122EA2AD07AF287E0074032FF58274003EF583EDF005287408652870E322D6
:00000001FF
