:100000000C9472000C949A000C949A000C949A0030
:100010000C949A000C949A000C949A000C949A00F8
:100020000C949A000C949A000C949A000C949A00E8
:100030000C949A000C949A000C949A000C949A00D8
:100040000C9414040C949A000C949A000C949A004A
:100050000C949A000C949A000C949A000C949A00B8
:100060000C949A000C949A0020202020002000205C
:1000700020003A0020002020002020002000202026
:10008000003A00200020200000000000240027008B
:100090002A0000000000250028002B0000000000BE
:1000A00023002600290004040404040404040202BA
:1000B00002020202030303030303010204081020E7
:1000C00040800102040810200102040810200000F2
:1000D0000007000201000003040600000000000009
:1000E00000009C0011241FBECFEFD8E0DEBFCDBFC3
:1000F00011E0A0E0B1E0EAE6FEE002C005900D925A
:10010000AE32B107D9F711E0AEE2B1E001C01D9205
:10011000AC34B107E1F710E0C4EED0E004C02297A0
:10012000FE010E942F07C23ED107C9F70E94560563
:100130000C9433070C940000CF92EF920F938EE251
:1001400091E068E049E024E005E056E0E52E37E084
:10015000C32E0E94DB030F91EF90CF900895AF92D2
:10016000BF92CF92DF92EF92FF920F931F938EE296
:1001700091E060E041E00E94EE0280910D010E945A
:10018000A10400D000D0AA2797FDA095BA2F20E0A7
:1001900032E040E050E0EDB7FEB721833283438385
:1001A0005483BC01CD0120E030E040E050E0BFEFDF
:1001B000EB2EB3E0FB2E012D112DAA24BB246501EB
:1001C0000E94880670931201609311010F900F90A6
:1001D0000F900F906A3071052CF48EE291E065E883
:1001E00070E007C06436710534F48EE291E063E894
:1001F00070E00E948F0560911101709112018EE2F2
:1002000091E04AE050E00E9472068EE291E061E8DF
:1002100070E00E948F0580910F010E94A10400D020
:1002200000D0AA2797FDA095BA2F20E032E040E049
:1002300050E0EDB7FEB72183328343835483BC0182
:10024000CD0120E030E040E050E0AFEFEA2EA3E047
:10025000FA2E012D112DAA24BB2465010E948806C7
:1002600070931401609313010F900F900F900F90F3
:100270006A3071052CF48EE291E06EE770E007C001
:100280006436710534F48EE291E06CE770E00E9410
:100290008F0560911301709114018EE291E04AE0A4
:1002A00050E00E9472068EE291E069E770E00E94E1
:1002B0008F05809115010E94A10400D000D0AA27CB
:1002C00097FDA095BA2F20E032E040E050E0EDB776
:1002D000FEB72183328343835483BC01CD0120E0E8
:1002E00030E040E050E0FFEFEF2EF3E0FF2E012D75
:1002F000112DAA24BB2465010E94880670931A015F
:10030000609319010F900F900F900F906A30710554
:100310002CF48EE291E066E770E007C06436710568
:1003200034F48EE291E064E770E00E948F05609102
:10033000190170911A018EE291E04AE050E00E94AA
:1003400072068EE291E062E770E00E948F05809174
:1003500017010E94A10400D000D0AA2797FDA09504
:10036000BA2F20E032E040E050E0EDB7FEB7218345
:10037000328343835483BC01CD0120E030E040E070
:1003800050E0EFEFEE2EE3E0FE2E012D112DAA241A
:10039000BB2465010E94880670931C0160931B01B9
:1003A0000F900F900F900F906A3071052CF48EE231
:1003B00091E06FE670E007C06436710534F48EE2B8
:1003C00091E06DE670E00E948F0560911B017091D5
:1003D0001C018EE291E04AE050E00E9472068EE23B
:1003E00091E068E670E00E948F051F910F91FF90E9
:1003F000EF90DF90CF90BF90AF9008950F931F9331
:100400000EE211E0C80160E142E020E00E94250315
:10041000C80160E071E00E94850680910D0160E0F6
:100420000E94C30480910F0160E00E94C304809188
:10043000150160E00E94C3048091170160E00E94F2
:10044000C3041F910F9108950F931F938C01FC011A
:10045000868160E00E94020581E090E00E945C04D9
:10046000F801868161E00E94020581E090E00E942F
:100470005C04F801868160E00E94020584E690E059
:100480000E945C041F910F910895CF92DF92EF922A
:10049000FF920F931F93CF93DF93D82EC92E282F4F
:1004A000392FC9018C01C0E0D0E0E62EFF24F8010D
:1004B000878161E00E94C304B7010C2E02C07595CC
:1004C00067950A94E2F76170F80187810E9402053E
:1004D00021960F5F1F4FC830D10549F78D2D9C2DF8
:1004E0000E942402DF91CF911F910F91FF90EF9016
:1004F000DF90CF900895CF92DF92EF92FF920F930B
:100500001F93CF93DF93D82EC92E282F392FC901DF
:100510008C01C0E0D0E0E62EFF24F801878161E085
:100520000E94C304B7010C2E02C0759567950A940A
:10053000E2F76170F80187810E94020521960F5F42
:100540001F4FC430D10549F78D2D9C2D0E942402E8
:10055000DF91CF911F910F91FF90EF90DF90CF909F
:1005600008951F93CF93DF93EC01162F8C81642F96
:100570000E9402058D818F3F19F060E00E94020504
:100580008F8584FF05C0CE01612F0E9445020EC0F9
:10059000612F70E084E0759567958A95E1F7CE014B
:1005A0000E947B02CE01612F0E947B02DF91CF91DE
:1005B0001F91089541E00E94B10281E090E008950A
:1005C00040E00E94B1020895FC016089862F84609A
:1005D000808B6C60CF010E94E0020895DF93CF937F
:1005E000CDB7DEB728970FB6F894DEBF0FBECDBFEC
:1005F0009C01FE013196A6E2B1E088E00D900192E7
:100600008150E1F7F9018389481710F0482F4150D4
:10061000E42FF0E0EE0FFF1FEC0FFD1F8181680F4C
:100620006068C9010E94E00228960FB6F894DEBF08
:100630000FBECDBFCF91DF91089561E00E94E0022F
:1006400080ED97E00E945C040895CF93DF93EC0166
:10065000423018F08F8588608F874B8B1C8A22234D
:1006600029F0413019F48F8584608F8780E593EC01
:100670000E945C048C8160E00E9402058E8160E033
:100680000E9402058D818F3F19F060E00E940205F3
:100690006F8564FD1DC0CE0163E00E947B0284E98A
:1006A00091E10E945C04CE0163E00E947B0284E938
:1006B00091E10E945C04CE0163E00E947B0286E926
:1006C00090E00E945C04CE0162E00E947B0216C0B2
:1006D0006062CE010E94E00284E991E10E945C0424
:1006E0006F856062CE010E94E00286E990E00E9480
:1006F0005C046F856062CE010E94E0026F856062DB
:10070000CE010E94E00284E0888BCE010E94E402C8
:10071000CE010E941D0382E0898BCE0166E00E941B
:10072000E002DF91CF9108956F927F928F92AF9206
:10073000CF92EF920F931F93DF93CF93CDB7DEB796
:100740003C01162F842FF301448325830683E7821F
:10075000C086A18682869D8593879E8594879F8586
:1007600095879889968761E00E94C304F30185818B
:100770008F3F19F061E00E94C304F301868161E0BC
:100780000E94C304112319F0F301178603C080E10E
:10079000F3018787C30160E141E020E00E94250367
:1007A000CF91DF911F910F91EF90CF90AF908F90ED
:1007B0007F906F9008958F92AF92CF92EF920F93A8
:1007C0001F93CF93DF93DC01362F542F722F102FFE
:1007D000AE2C8C2C13961C921E92129782E291E002
:1007E00011969C938E9300D000D0EDB7FEB7319652
:1007F000CDB7DEB71982118212821382CD0161E07A
:10080000432F2FEF052FE72EC12E0E9494030F9048
:100810000F900F900F90DF91CF911F910F91EF905C
:10082000CF90AF908F9008951F920F920FB60F92B6
:1008300011242F933F938F939F93AF93BF938091F6
:10084000470190914801A0914901B0914A0130912E
:100850004B010196A11DB11D232F2D5F2D3720F0D7
:100860002D570196A11DB11D20934B018093470187
:1008700090934801A0934901B0934A0180914301AC
:1008800090914401A0914501B09146010196A11DAE
:10089000B11D8093430190934401A0934501B0930F
:1008A0004601BF91AF919F918F913F912F910F90F2
:1008B0000FBE0F901F901895019739F0880F991F60
:1008C000880F991F02970197F1F70895789484B5DE
:1008D000826084BD84B5816084BD85B5826085BD3C
:1008E00085B5816085BDEEE6F0E080818160808322
:1008F000E1E8F0E010828081826080838081816005
:100900008083E0E8F0E0808181608083E1EBF0E0CB
:10091000808184608083E0EBF0E08081816080836F
:10092000EAE7F0E080818460808380818260808358
:100930008081816080838081806880831092C10083
:100940000895982F8E3008F09E50977080911D0169
:100950008295880F880F807C892B80937C00809102
:100960007A00806480937A0080917A0086FDFCCFC3
:100970002091780040917900942F80E030E0282B7E
:10098000392BC9010895CF93DF93482F50E0CA0156
:1009900086549F4FFC0134914A555F4FFA01849170
:1009A000882369F190E0880F991FFC01E857FF4FF9
:1009B000A591B491FC01EE56FF4FC591D4916623E9
:1009C00051F42FB7F8948C91932F909589238C93A1
:1009D000888189230BC0623061F42FB7F8948C9121
:1009E000932F909589238C938881832B88832FBFA5
:1009F00006C09FB7F8948C91832B8C939FBFDF9197
:100A0000CF910895482F50E0CA0182539F4FFC01B7
:100A10002491CA0186549F4FFC0194914A555F4F1F
:100A2000FA013491332309F440C0222351F12330D9
:100A300071F0243028F42130A1F0223011F514C0D7
:100A40002630B1F02730C1F02430D9F404C08091B1
:100A500080008F7703C0809180008F7D809380001D
:100A600010C084B58F7702C084B58F7D84BD09C066
:100A70008091B0008F7703C08091B0008F7D80930C
:100A8000B000E32FF0E0EE0FFF1FEE56FF4FA591F1
:100A9000B4912FB7F894662321F48C919095892313
:100AA00002C08C91892B8C932FBF0895CF93DF9335
:100AB0000E9466040E94FE01C0E0D0E00E94AF00E8
:100AC0002097E1F30E940000F9CFCF92DF92EF92DE
:100AD000FF920F931F93CF93DF937C016B018A01E9
:100AE000C0E0D0E00FC0D6016D916D01D701ED914E
:100AF000FC910190F081E02DC7010995C80FD91F25
:100B0000015010400115110571F7CE01DF91CF9111
:100B10001F910F91FF90EF90DF90CF900895EF928B
:100B2000FF920F931F93CF93DF937C018B01C0E063
:100B3000D0E0F8010F5F1F4F6491662359F0D70191
:100B4000ED91FC910190F081E02DC7010995C80F4E
:100B5000D91FEFCFCE01DF91CF911F910F91FF9061
:100B6000EF900895CF93DF93EC016115710519F4AF
:100B700020E030E00FC0DB010D900020E9F7119775
:100B8000A61BB70BE881F9810280F381E02DAD014E
:100B900009959C01C901DF91CF9108954F925F9211
:100BA0007F928F929F92AF92BF92CF92DF92EF92FD
:100BB000FF920F931F93DF93CF93CDB7DEB7A1972B
:100BC0000FB6F894DEBF0FBECDBF2C01742ECB0143
:100BD000223008F42AE019A231E2C32ED12CCC0E27
:100BE000DD1E822E9924AA24BB24672D752FA50112
:100BF00094010E94F00679018A01C801B701A5019C
:100C000094010E94D106472D461B0894C108D108C3
:100C10004A3014F4405D01C0495CF6014083E114A0
:100C2000F1040105110521F07E2C5F2DC801DDCFF7
:100C3000C201B6010E94B205A1960FB6F894DEBFBC
:100C40000FBECDBFCF91DF911F910F91FF90EF901D
:100C5000DF90CF90BF90AF909F908F907F905F90EC
:100C60004F900895CF92DF92EF92FF920F931F93D0
:100C7000CF93DF93EC016A017B012115310541F42B
:100C8000E881F9810190F081E02D642F09951FC062
:100C90002A303105D1F477FF17C0E881F98101903E
:100CA000F081E02D6DE209958C0144275527BA01AA
:100CB0004C195D096E097F09CE012AE00E94CE051C
:100CC0009801280F391F04C02AE00E94CE059C011C
:100CD000C901DF91CF911F910F91FF90EF90DF90AD
:100CE000CF900895EF92FF920F931F937B019A018B
:100CF0000027F7FC0095102FB801A7010E943206CB
:100D00001F910F91FF90EF9008950E94B2050895F2
:100D10002F923F924F925F926F927F928F929F920B
:100D2000AF92BF92CF92DF92EF92FF920F931F93F9
:100D3000DF93CF93CDB7DEB73B014C0119012A01F8
:100D40006D897E898F89988D6A197B098C099D0927
:100D5000621A730A840A950AA40193010E94D106BB
:100D6000E218F30804091509A80197010E94120767
:100D70002A0D3B1D4C1D5D1DB901CA01CF91DF91AC
:100D80001F910F91FF90EF90DF90CF90BF90AF90A9
:100D90009F908F907F906F905F904F903F902F909B
:100DA0000895629FD001739FF001829FE00DF11DB5
:100DB000649FE00DF11D929FF00D839FF00D749FD5
:100DC000F00D659FF00D9927729FB00DE11DF91F81
:100DD000639FB00DE11DF91FBD01CF0111240895DE
:100DE000A1E21A2EAA1BBB1BFD010DC0AA1FBB1F2F
:100DF000EE1FFF1FA217B307E407F50720F0A21BA1
:100E0000B30BE40BF50B661F771F881F991F1A940D
:100E100069F760957095809590959B01AC01BD0137
:100E2000CF01089597FB092E05260ED057FD04D05B
:100E3000D7DF0AD0001C38F45095409530952195A5
:100E40003F4F4F4F5F4F0895F6F7909580957095FF
:100E500061957F4F8F4F9F4F0895EE0FFF1F0590B5
:0A0E6000F491E02D0994F894FFCFFF
:100E6A0048616C6C6F2C204D616D6121000F001080
:100E7A00000201FE00110012000201FE0001000042
:0E0E8A000000DA02650500004000140054006C
:00000001FF
