:20000000020B2DEDAD07FF7E0074202FFFE43EFE8E388F39AF057E0074202FFFE43EFE8E76
:20002000368F377E177FF67C01120BCB227E177FFD7C01120BCB22A804A905AA06AB0722BD
:20004000E6088601088602088603F822AC0CAD0DAE0EAF0F22C886040886050886060886DB
:1F00600007C82290001CE0FFBFFF087FCC1209450200CD7F55120945E4F53190001CE0FB
:20008000AD077C007F03ED8FF005F08005C333CC33CCD5F0F8FD7E0D7F67EF2DFBEE3CFAA1
:2000A000AF31AD07E4FCFE7F07C3EF9DFFEE9CFEEB2FFFEA3EFE850683850782E493FF128F
:2000C0000945053174086531600302007B22A808A909AA0AAB0B22AC08AD09AE0AAF0B229C
:2000E000C8A60408A60508A60608A607C822C8F608A60108A60208A603C822A80CA90DAABC
:200100000EAB0F228E478F4874491200EEE4F54DF54E74491200551208E58F50054CE54C9F
:20012000700E054BE54B7008054AE54A70020549E5507007AE4DAF4E02085174256550605E
:200140000302083BE4F551E4F552755301E4F554E4F555E4F55674491200551208E58F50AD
:20016000054CE54C700E054BE54B7008054AE54A70020549AF50EF646370030205C6AF5055
:20018000EF646670030201F37D66AF50D3EF9D50357D2EAF50C3EF9D500302083B7D39AF81
:2001A00050D3EF9D400302083BAF509007F6EF2F500205832582F58250020583740193C0C4
:2001C000E0E493C0E022AF50EF646C700302054B7D6CAF50C3EF9D500302083BAF50EF6462
:2001E0007570030204FEAF50EF647870030204FB02083B43511074042546F546AF46AB0727
:2002000078027CFF7DFF7EFF7FFC120B1B1208A974571200E0EC30E710745712005512184E
:20022000EE74571200E04351027457120055EC4D4E4F7006E4F54F0203227457120055126C
:200240001911AD07ED30E70474FD2DFDEDFF3395E0FE7C007D03122AEA7C007D0A1224D957
:200260001F8F4F7D0EAF4FD3EF64806305809D402F7F4F854783854882120B287F5685470C
:2002800083854882120B287F4C854783854882120B287403254EF54EE4354DF54D0201566B
:2002A000AF4FEFF404FFFF3395E0FE740E2FFFE43EFE7E00EF2FFDEE33FCED2DFDEC33FCFD
:2002C0007E187F02EF2DFFEE3CFE8E838F82120B8874571200551225151200377C3FE4FD9A
:2002E000FEFF1219DF74571200E0784C79BE7ABC7B207457120055120BA120E725783D7924
:20030000CC7ACC7BCD74571200551225151200377C3E7DE67E667F661219DF74571200E00F
:20032000054F7457120055120BD974571200E0780079987A967B807457120055C31219B21E
:200340004015E4F8F9FA7B0A745712005512099C74571200E0054F755B00755C0F755D4236
:20036000755E407556017D07AF4FC3EF64806305809D4003435108AF51530708EF6003026C
:2003800003EFAF4FEF20E7030203E97DF8AF4FD3EF64806305809D4045AF4FEFFD3395E0D1
:2003A000FC7E007F08C3EF9DFFEE9CFEEF2FFDEE33FCED2DFDEC33FC7E187F02EF2DFFEEDC
:2003C0003CFE8E838F82120B78120BD9120037745712005512099C74571200E08011E4F5DD
:2003E00057F558F559F55A80067401254FF556755308AF52530702EF7003020653AD567F96
:2004000006C3EF9DFDAF54C3ED9FFF8F0CAF0CEF30E703020653AF0CEF3395E0FEEF2FFD14
:20042000EE33FCED2DFDEC33FC7E187FD6EF2DFFEE3CFE8E838F82120B8874571200551234
:200440000B1B120AF0780079987A967B801200D7C31219B24030AF51530708EF6013054FC5
:20046000E4F8F9FA7B0A1200D712099C120AF080150556E4F8F9FA7B0A745B1200551221CF
:1F048000B2745B1200E0AF0CEF3395E0FEEF2FFDEE33FCED2DFDEC33FC7E187FBEEF2D41
:2004A000EE3CFE8E838F82120B88745B12005512099C745B1200E0AF0CEF3395E0FEEF2F31
:2004C000FDEE33FCED2DFDEC33FC7E187FBEEF2DFFEE3CFE8E838F82120B881200D71209EF
:2004E0009C74571200E0AD56AF54ED2FFF8F53E55470030206530553020653435101AF5151
:20050000530704EF602274042546F546AF46AB0778027CFF7DFF7EFF7FFC120B1B1208A9E3
:2005200074571200E00205E305460546AF46AB0778027CFF7DFF7EFF7FFE120B1B12088199
:20054000E4FDFC74571200E00205E3435104020156435280020156AF52530780EF70064335
:1F0560005204020156AF5074D02FF980297F0AE98FF0A4FB74491200551208E574D02F93
:200580002BF9054CE54C700E054BE54B7008054AE54A7002054974491200551208E5AD072A
:2005A0007F30C3ED9F40077F39D3ED9F40BFAF52530780EF60088954435202020156895503
:2005C00043520102015605460546AF46AB0778027CFF7DFF7EFF7FFE120B1B1208818F50D2
:2005E00002083B755B00755C00755D00755E01AF51530701EF604380117B04745B1200553C
:20060000122503745B1200E00553785B120040745712005512099CE4F8F9FA7B0FD3121922
:20062000B250D6802EE4F8F9FA7B0A745B1200551221B2745B1200E00553785B1200407413
:200640005712005512099CE4F8F9FA7B09D31219B250D2AF51530762EF60020553AF525347
:200660000701EF6028AF52530714EF7020801515557F20854783854882120B28054EE54E06
:200680007002054DAD55AF53C3EF9D40E2AF51530702EF60047D2D8002E4FDED6013AF0551
:2006A000854783854882120B28054EE54E7002054DAF52530701EF700302078DAF5253075E
:2006C00004EF700302078D801515557F30854783854882120B28054EE54E7002054DAD5541
:2006E000AF53C3EF9D40E202078DAF51530710EF6019E55670137F2E854783854882120BF9
:2007000028054EE54E7002054D1556785B120040745712005512099C8F82AF827E00AB077C
:20072000AA06E4F9F8745B1200551221B212003774571200551219C374571200E0AF82744E
:20074000302FFD7F39D3ED9F400474272DFDAF05854783854882120B28054EE54E70020589
:200760004DAF51530701EF60117B04745B12005512223D745B1200E08013E4F8F9FA7B0AA3
:20078000745B12005512099C745B1200E0745B120055EC4D4E4F60030206EAAF51530708E8
:2007A000EF700302080DAF515307958F547F65854783854882120B28054EE54E7002054DDD
:2007C000AF544307208F51AF4FEF30E70D435102AF4FEFF404FF8F4F80137F2B8547838552
:2007E0004882120B28054EE54E7002054DAF4FEF3395E0FE3395E0FDFC74571200E0755BDF
:2008000000755C00755D00755E0A020653AF52530701EF7003020112801515557F208547C0
:2008200083854882120B28054EE54E7002054DAD55AF53C3EF9D40E2020112AF508547837F
:20084000854882120B28054EE54E7002054D020112220551083B05570565056505650565E6
:20086000056505650565056505658C0C8D0D8E0E8F0F228F31120912EF6005AF311228B7C6
:2008800022EC700A8F828E83E0FEA3E0FF22D5E00B8F828E8393FE740193FF22D5E009C80A
:2008A0008F008606088607C822EC70108F828E83E0FCA3E0FDA3E0FEA3E0FF22D5E0138F38
:2008C000828E8393FC740193FD740293FE740393FF22D5E00FC88F008604088605088606F3
:2008E000088607C822EC70078F828E83E0FF22D5E0078F828E8393FF22D5E006C88F0086C9
:2009000007C822C2B4EF6002D2B47F0D120B6BD2B422C2B47F49120B6BD2B47F07120B6B83
:20092000A2B4E433FF8F327F3E120B6BAF322278007927900000E849600AE4F0A3E9197016
:20094000F51880F2228F32753301753408AD33AF32EF5DFF60077F011209038005E4FF1250
:200960000903AF33EF2FFF8F33D534E122E4F531E4F532120AD9EF6018AD327F01EF8DF062
:2009800005F08002C333D5F0FBFDAF31EF4DFF8F3105327408653270DAAF3122C008C0092B
:2009A000C00AC00BC00CC00DC00EC00FC02CC02DC02EC02F880C890D8A0E8B0F8C088D0930
:2009C0008E0A8F0B758200E50C450D450E450F7008E4FCFDFEFF020A800582E50C5480706A
:2009E000267B01AC0CAD0DAE0EAF0F122503A808A909AA0AAB0B1219B26002500A8C0C8DA5
:200A00000D8E0E8F0F80D2E4F52CF52DF52EF52F7B01AC2CAD2DAE2EAF2F1225038C2C8D68
:200A20002D8E2E8F2FA80CA90DAA0EAB0FAC08AD09AE0AAF0B1219B2401EA80CA90DAA0EFA
:200A4000AB0FAC08AD09AE0AAF0B1219C38C088D098E0A8F0B432F017B01AC0CAD0DAE0E99
:200A6000AF0F12223D8C0C8D0D8E0E8F0FD582A0AC2CAD2DAE2EAF2FA808A909AA0AAB0BAC
:200A8000D02FD02ED02DD02CD00FD00ED00DD00CD00BD00AD009D00822120912EF60147E54
:200AA000137FEE7C01120BCB7E137FD67C01120BCB80FE7F33120945E4F53012096DAD0731
:200AC000AF307E00741F2FF58274003EF583EDF005307408653070E322C2B4D2B47F06DF5E
:200AE000FEA2B4E433FF8F337F0D120B6BAF33228C088D098E0A8F0B22ECF0A3EDF0A3EE47
:200B0000F0A3EFF022EF4BFFEE4AFEED49FDEC48FC22880889098A0A8B0B22EF2BFFEE3A9E
:200B2000FEED39FDEC38FC22C082C08322E5A8C2AF549075815EA881760018B81FFAC0E04D
:200B4000120B5BD0A80226D9EF60010E90FF67A3E583458270F9DFF4DEF22212092F22E004
:200B6000FCA3E0FDA3E0FEA3E0FF22AB07E4FF80010FC3EF9B40FA22E493FC740193FD741A
:200B80000293FE740393FF22E493F8740193F9740293FA740393FB22880C890D8A0E8B0FA1
:200BA00022EC6830E702EC22C3EC98700DED997009EE9A7005EF9B700122500474FF800272
:200BC000740188F030F702648022227546361200377E197F9F12010422120AF0E4F81200B5
:200BE000D7E4FFFE53058053047F7B1712223DA907E97008E4FCFDFEFF020C551200D7E471
:200C0100FEFD530480EC4D4E4F600278011200D753057F7C00430580120AF0800C7B011226
:200C210000D712223D120AF0097F96C3E99F40ED800C7B011200D7122503120AF0197F9664
:200C4100D3E99F50EDE860091200D7121BEC120AF01200D722120037AC00AD01AE02AF038C
:200C6100EC4D4E4F7008E4FCFDFEFF020D08AC00AD01AE02AF03EC30E71375F001AC00ADA3
:200C810001AE02AF03121BEC120AF08006E4F5F0120B127996800C097B011200D712223DD3
:200CA100120AF01200D7E4FFFEFDEC4D4E4F70E7800C7B011200D7122503120AF0191200D1
:200CC100D7E4FFFE5305807C00EC4D4E4F60E31200D753057F7C00120AF0AF01E4FEFDFC1B
:200CE1007B171225031200CE120B05120037E5F0600DEBFFEAFEE9FDE84480FC120037AC45
:200D010000AD01AE02AF032212002D7E137F107C01120BCB7E127FE87C01120BCB7E127F71
:200D2100D27C01120BCB7E127F947C01120BCB7E127F5F7C01120BCB7E127F3D7C01120BBA
:200D4100CB7E127F357C01120BCB7E127F2D7C01120BCB7E127F257C01120BCB7E127F14C1
:200D61007C01120BCB220000000000000000FE0008019C0E6D100C000801DB082110C600CE
:200D810008019C3F0B105400080186700A10000000000000000000000000000000000000E6
:200DA10000000000000000000000000000000000000000000000D900000013FAD320000059
:200DC100000000000000000000000000000000000000000000000000000000000000000012
:200DE1000000000000000000000000000000000000000000000000000000000000000000F2
:200E0100000000000000080808080101010108080A0A010101010A0A0A0A01010101020354
:200E210004050101010110101010010101010808080800000000000000010000000200003D
:200E4100000400000008000000100000002000000040000000800000010000000200000092
:200E6100040000000800000010000000200000004000000080000001000025327520202048
:200E810020202025342E3266202020202020202025337520202020202025337520202020F8
:200EA100202020253575202020202020202020202025382E3366000A20202044000A202086
:200EC10020430A000A202020420A000A202020410A0020204B616E616C2020202041756676
:200EE1006C2E20202055726566202F2056202020204D53427974652020204C534279746559
:200F01002020204469672E576572742864657A2920202020416E616C6F67202F206D560AEA
:200F2100003D3D3D3D3D3D3D3D3D3D3D3D3D3D3D3D3D3D3D3D3D3D3D3D3D3D3D3D3D3D3D4D
:200F41003D3D3D3D3D3D3D3D0A0A0A0044656D6F2D4265747269656220667565722065695B
:200F61006E656E20445332343530657220616D204275730A000A0A0A0A4665727469672CDF
:200F81002054617374652064727565636B656E202E2E2E2000202020202025303278202015
:200FA10020202020202020202025303278202530327820253032782025303278202530320D
:200FC1007820253032782020202020202020202020202020202530327820202020202020BA
:200FE10020202020202028484558290A000A0A0A2020382D42697420435243202020202076
:201001002034382D4269742053657269616C204E756D626572202020202020382D426974AA
:201021002046616D696C697920436F64650A0A004162667261676520647572636820447261
:2010410075636B206175662054617374652C20204265656E64656E206475726368204569AE
:201061006E6761626520766F6E202765273A2020003D3D3D3D3D3D3D3D3D3D3D3D3D3D3D1F
:201081003D3D3D3D3D3D3D3D3D3D3D3D3D3D3D3D3D3D3D3D3D3D3D3D3D3D3D3D3D3D0A001F
:2010A10053696E676C6520436869703A204C6573656E206465732036342042697420524FF2
:2010C1004D2D4964656E746966696572730A000A0A576569746572202D2054617374652003
:2010E10064727565636B656E202E2E2E200020205465737420504F53495449563A20204DDF
:20110100696E64657374656E732045494E455220646120210A00202054657374204E454764
:20112100415449563A20204B65696E657220646120210A00202020202020202020202020F2
:201141002020202020202020202020202020202020202020202020202020000A0A53746112
:201161007274206465732054657374733A202054617374652064727565636B656E202E2E91
:201181002E2000284265656E64656E2064757263682045696E6761626520766F6E20276507
:2011A1002729003D3D3D3D3D3D3D3D3D3D3D3D3D3D3D3D3D3D3D3D3D3D3D3D3D3D3D3D3DF5
:2011C1003D3D3D3D3D3D3D3D3D3D3D3D3D3D3D3D3D3D3D3D3D3D3D3D3D0A00312D5769727F
:2011E100652D52657365743A20546573742C206F62204A454D414E4420616D20427573201B
:20120100616E67657363686C6F7373656E206973740A000A0A0A0A49687265205761686C8A
:201221003A2020000A0A2020392E20002020352E200A0A002020342E200A0A002020332E0A
:201241002053696E676C652043686970202D2044656D6F2D426574726965620A0A00202037
:20126100322E2053696E676C6520436869703A204C6573656E206465732036342042697471
:2012810020524F4D2D4964656E746966696572730A0A002020312E20312D576972652D5255
:2012A100657365743A20546573742C206F62204A454D414E4420616D2042757320616E6708
:2012C100657363686C6F7373656E206973740A0A00426974746520776165686C656E2053E3
:2012E10069653A0A0A0A003D3D3D3D3D3D3D3D3D3D3D3D3D3D3D3D3D3D3D3D3D3D3D3D3DD2
:201301003D3D3D3D3D3D3D3D3D3D3D3D0A0A004461732067726F73736520312D57697265FC
:20132100202D2044533234353065722D50726F6A656B740A000000000000000000FE0008EA
:20134100019C0E6D100C000801DB082110C60008019C3F0B105400080186700A1000000009
:2013610000000000000000000000000000000000000000000000000000000000000000006C
:201381000000000000D900000013FAD3200000000000000000000000000000000000000073
:2013A10000000000000000000000000000000000000000000000000000000000000000002C
:2013C1000000000000000000000000000000000000000000000A0A20205265736574206431
:2013E100727565636B656E202E2E2E20000A0A0A0A20204665686C6572206265696D204C4E
:201401006573656E2064657320524F4D2D4964656E746966696572733A204B45494E205022
:20142100726573656E636520766F6D20536C6176652021000A0A53797374656D20616E6709
:201441006568616C74656E20210A0A0700556E6775656C74696765204665686C65726E75DC
:201461006D6D657220617566676574726574656E2021004453323430383A204B65696E2059
:201481005072657320626569206473323430385F666C615F636C2829004453323430383AEC
:2014A100204B65696E205072657320626569206473323430385F72645F666C612829004459
:2014C10053323430383A204B65696E205072657320626569206473323430385F72645F7A2C
:2014E100757374616E642829004453323430383A20436F6E6669726D6174696F6E2D42797B
:2015010074652066616C73636820696E206473323430385F77725F62797465282900445361
:20152100323430383A204B65696E205072657320626569206473323430385F77725F6279AA
:2015410074652829004453323430383A204665686C657220626569206473323430385F696E
:201561006E69742829004453323430383A204B65696E205072657320626569206473323421
:2015810030385F696E69742829004453323435303A204B65696E20507265732E3A20536343
:2015A1006872656962656E20696E205061676520332028496E69742D456E64652920210077
:2015C1004453323435303A204B65696E20507265732E3A20537461727420436F6E766572EA
:2015E100742028456E6465292021004453323435303A204B65696E20507265732E3A205370
:201601007461727420436F6E766572742028416E66616E67292021004453323435303A2054
:201621004665686C6572206265696D2052FC636B6C6573656E20766F6E20506167652033E0
:201641002028496E6974292021004453323435303A204B65696E20507265732E3A20536308
:201661006872656962656E20696E205061676520332028496E69742D416E662E29202100EF
:201681004453323435303A204B65696E20507265732E3A204C6573656E2061757320656976
:2016A1006E6572205365697465202832292021004453323435303A204B65696E205072655C
:2016C100732E3A204C6573656E206175732065696E6572205365697465202831292021007E
:2016E1004453323435303A204B65696E20507265732E3A2053636872656962656E20696EDA
:201701002065696E65205365697465202832292021004453323435303A204665686C6572F7
:20172100206265696D2053636872656962656E202D20527565636B6C6573656E2021004435
:2017410053323435303A204B65696E20507265732E3A2053636872656962656E20696E209D
:2017610065696E65205365697465202831292021004453313832303A204B65696E205072A5
:20178100657320626569206473313832305F77725F745F726567004453313832303A204B9F
:2017A10065696E205072657320626569206473313832305F72645F74656D702829202D2018
:2017C10032004453313832303A204B65696E205072657320626569206473313832305F72F6
:2017E100645F74656D702829202D2031000A0A2533753A20001B5925632563001B481B4AF9
:2018010000322BCC7733D6BF95358637BD3727C5AC38D1B7173A83126F3C23D70A3DCCCC22
:20182100CD3F8000004120000042C80000447A0000461C400047C35000497424004B18961C
:20184100804CBEBC204E6E6B28501502F951BA43B75368D4A5551184E756B5E62158635F3C
:20186100A95A0E1BCA5BB1A2BC5D5E0B6B5F0AC72360AD78EC6258D7276407867865A9687B
:20188100166753C21C690459516AA56FA66C4ECB8F6E013F396FA18F087149F2CA72FC6F69
:2018A1007C749DC5AE7645371977F684DF799A130C7B4097CE7CF0BDC27E967699000000EC
:2018C1000A00000064000003E800002710000186A0000F4240000000050000003200000187
:2018E100F4000013880000C3500000C350120037AC00AD01AE02AF03EC4D4E4F7007E4FC00
:20190100FDFEFF800AEBFFEAFEE9FDE86480FC22E4FFFE53058053047F7B1712223D748218
:201921002FFF2212002D7E117FDC7C01120BCB7E117FA47C01120BCB7E117F847C01120B85
:20194100CB7E117F5C7C01120BCB80457D027F071200037E117F357C01120BCB7D027F0760
:20196100120003121995BF65028028120912EF600B7E117F177C01120BCB80097E107FEF2D
:201981007C01120BCB7E107FD07C01120BCB12199580B9223098FDAF99C2987E0022BF0AB4
:2019A100083099FDC29975990D3099FDC2998F9922EF9BF5F0EE9A42F0ED9942F0EC9845CD
:2019C100F022C3EF9BFFEE9AFEED99FDEC98FC22759852438920758DFDD28ED29922120AAA
:2019E100F0120B98E4F81200D7E4FFFE53058053047F7B1712223D8FF012004CE4FFFE53D9
:201A0100058053047F7B1712223DA907AF017E0074192FFDE43EFCAFF07E00D3EF9DEE64E4
:201A2100806304809C5003E970061200D7021BEBAFF07E0074192FFDE43EFCAF017E00D30A
:201A4100EF9DEE64806304809C400612004C021BEB1200D7E4FFFEFD530480EC4D4E4F6024
:201A610002780112004CE4FFFEFD530480EC4D4E4F60034300021200D753057F7C004305D5
:201A810080120AF012004C53057F7C0043058012086A7B061200D7122503120AF07B061279
:201AA100004C12250312086AAFF0D3EF99401CAD017C00AFF07E00C3EF9DFFEE9CFEAB07F6
:201AC10012004C12223D12086A8027AFF0C3E5079501501EAFF0AD077C00AF017E00C3EF0A
:201AE1009DFFEE9CFEAB071200D712223D120AF089F0E85401FF60091200D7121BEC120A6D
:201B0100F0E85402FF600912004C121BEC12086A1200FB1200D7120B1B120AF0E4F582128C
:201B210000D7E4FFFEFD530480EC4D4E4F600E1200D7121BEC120AF0758201801E1200D747
:1F1B4100EC4D4E4F7015E4FCFDFEFF021BEB7B011200D7122503120AF015F01200D7E4CB
:201B6100FEFD530440EC4D4E4F60E3E4F8F9FA7B401200D7120B1B120AF0E4FFFEFD5304CD
:201B810080EC4D4E4F700D7B011200D7122503120AF015F0AFF0A90709097B081200D712E2
:201BA100223D120AF0EC4D4E4F7007E4FCFDFEFF80381200D753057F7C00120AF0AF01E4FE
:201BC100FEFDFC7B171225031200CE120B05120037E582600DEBFFEAFEE9FDE84480FC12B0
:201BE1000037AC00AD01AE02AF0322E4C39FFFE49EFEE49DFDE49CFC22021C9D12002D7E76
:201C0100107FA17C01120BCB7E107F727C01120BCB7E107F317C01120BCB121995BF6503C0
:201C2100021CA0120A997E0F7FEE7C01120BCB90001FE0FF7E008E448F45900020E0FF7E12
:1F1C4100008E428F43900021E0FF7E008E408F41900022E0FF7E008E3E8F3F900023E0FA
:201C61007E008E3C8F3D900024E0FF7E008E3A8F3B900025E0FF7E008E388F39900026E076
:201C82007E008E368F377E0F7F967C01120BCB7E0F7F767C01120BCB121995021BFD22123E
:201CA200002D7E0F7F4D7C01120BCB7E0F7F227C01120BCB7E0E7FD37C01120BCB7E0E7F56
:201CC200CC7C01120BCB7E0E7FC57C01120BCB7E0E7FBE7C01120BCB7E0E7FB87C01120B11
:201CE200CB0220DC1226A1900001E0FFAD077C007F08ED8FF005F08005C333CC33CCD5F0AD
:201D0200F8FD900000E0FF7E00EF2DFBEE3CFA90001BE0FFAD07E4FCFE7F10C3EF9DFFEEBD
:201D22009CFEAE02EB8FF005F08005CEC313CE13D5F0F8FF8E308F3190001BE0FF7E00EFBD
:201D42002FFDEE33FCED2DFDEC33FC7E0E7F37EF2DFFEE3CFE8E838F82120B78120C561244
:201D62000037900014120B5F12274274321200E0AE30AF31E4FCFD120C56783212004012DA
:201D820025157844797AE4FAFB12251574321200E07D0C7F061200038532428533438534CB
:201DA20044853545853040853141900000E0FF7E008E3E8F3F900001E0FF7E008E3C8F3DE7
:201DC200900014120B5F8C388D398E3A8F3B90001BE0FF7E008E368F377E0E7F7B7C01121E
:201DE2000BCB900003E0FFAD077C007F08ED8FF005F08005C333CC33CCD5F0F8FD900002EF
:201E0200E0FF7E00EF2DFBEE3CFA90001AE0FFAD07E4FCFE7F10C3EF9DFFEE9CFEAE02EB0D
:201E22008FF005F08005CEC313CE13D5F0F8FF8E308F3190001AE0FF7E00EF2FFDEE33FCA9
:201E4200ED2DFDEC33FC7E0E7F37EF2DFFEE3CFE8E838F82120B78120C56120037900010B5
:201E6200120B5F12274274321200E0AE30AF31E4FCFD120C56783212004012251578447945
:201E82007AE4FAFB12251574321200E07D0C7F08120003853242853343853444853545856F
:201EA2003040853141900002E0FF7E008E3E8F3F900003E0FF7E008E3C8F3D900010120BED
:201EC2005F8C388D398E3A8F3B90001AE0FF7E008E368F377E0E7F7B7C01120BCB90000574
:201EE200E0FFAD077C007F08ED8FF005F08005C333CC33CCD5F0F8FD900004E0FF7E00EF09
:201F02002DFBEE3CFA900019E0FFAD07E4FCFE7F10C3EF9DFFEE9CFEAE02EB8FF005F08065
:201F220005CEC313CE13D5F0F8FF8E308F31900019E0FF7E00EF2FFDEE33FCED2DFDEC3367
:201F4200FC7E0E7F37EF2DFFEE3CFE8E838F82120B78120C5612003790000C120B5F122739
:201F62004274321200E0AE30AF31E4FCFD120C5678321200401225157844797AE4FAFB1294
:201F8200251574321200E07D0C7F0A1200038532428533438534448535458530408531416A
:201FA200900004E0FF7E008E3E8F3F900005E0FF7E008E3C8F3D90000C120B5F8C388D396A
:201FC2008E3A8F3B900019E0FF7E008E368F377E0E7F7B7C01120BCB900007E0FFAD077C4C
:201FE200007F08ED8FF005F08005C333CC33CCD5F0F8FD900006E0FF7E00EF2DFBEE3CFAC9
:20200200900018E0FFAD07E4FCFE7F10C3EF9DFFEE9CFEAE02EB8FF005F08005CEC313CE3A
:2020220013D5F0F8FF8E308F31900018E0FF7E00EF2FFDEE33FCED2DFDEC33FC7E0E7F37A0
:20204200EF2DFFEE3CFE8E838F82120B78120C56120037900008120B5F1227427432120080
:20206200E0AE30AF31E4FCFD120C5678321200401225157844797AE4FAFB1225157432129B
:1F20820000E07D0C7F0C120003853242853343853444853545853040853141900006E0E4
:2020A2007E008E3E8F3F900007E0FF7E008E3C8F3D900008120B5F8C388D398E3A8F3B90BC
:2020C2000018E0FF7E008E368F377E0E7F7B7C01120BCB7E017F90120B48021CE68F307FDF
:2020E200171208731200637FAA120945AF30EF2F25E025E0FF120945E4FF120945E4F5308A
:2021020012096DAD07AF307E0074002FF58274003EF583EDF005307408653070E312096DE2
:2021220090001EEFF012096D90001DEFF07F1812087322C000C001C002C003C083C082AA81
:2021420004AB05A806A90775F000EA4B7006E4FEFF0221A505F0EA54807017EB2BF582EA01
:2021620033F583D3E58299E583985006AA83AB8280E2E4F583F582E5822582F582E58333DA
:20218200F583C3E99BE89A4008C3E99BF9E89AF8A3EAC313FAEB13FBD5F0DCAE83AF82ACF5
:2021A20000AD01D082D083D003D002D001D00022C008C009C00AC00BEF8BF0A4F50B85F0B9
:2021C2000AEF8AF0A4250AF50AE5F03400F509EF89F0A42509F509E5F03400F508EF88F00C
:2021E200A42508F508EE8BF0A4250AF50AE5F03509F509E5083400F508EE8AF0A42509F576
:2022020009E5F03508F508EE89F0A42508F508ED8BF0A42509F509E5F03508F508ED8AF0C1
:20222200A42508F508EC8BF0A42508FCAD09AE0AAF0BD00BD00AD009D00822EB600FECC3E1
:2022420013FCED13FDEE13FEEF13FFDBF12274301200E01208E590001BEFF0743012005558
:202262001208E5BF1007900000E4F0800D74301200551208E5900000EFF0E4F8F9FA7B01D2
:202282007430120055120B1B1208E590001AEFF0E4F8F9FA7B017430120055120B1B1208C9
:2022A200E5BF1007900002E4F08016E4F8F9FA7B017430120055120B1B1208E5900002EF57
:2022C200F0E4F8F9FA7B027430120055120B1B1208E5900019EFF0E4F8F9FA7B02743012F4
:2022E2000055120B1B1208E5BF1007900004E4F08016E4F8F9FA7B027430120055120B1BED
:202302001208E5900004EFF0E4F8F9FA7B037430120055120B1B1208E5900018EFF0E4F857
:20232200F9FA7B037430120055120B1B1208E5BF1007900006E4F08016E4F8F9FA7B037451
:2023420030120055120B1B1208E5900006EFF0E4F8F9FA7B047430120055120B1B1208E5A8
:20236200900001EFF0E4F8F9FA7B047430120055120B1B1208E57E00EE3395E0FDFC120C30
:20238200561200377C407D237ED77F0A122515784079237AD77B0A1219DF900014120AF929
:2023A200E4F8F9FA7B057430120055120B1B1208E57E00EE3395E0FDFC120C561200377C44
:2023C200407D237ED77F0A122515784079237AD77B0A1219DF900010120AF9E4F8F9FA7BBE
:2023E200057430120055120B1B1208E5900003EFF0E4F8F9FA7B067430120055120B1B127D
:2024020008E57E00EE3395E0FDFC120C561200377C407D237ED77F0A122515784079237AAF
:20242200D77B0A1219DF90000C120AF9E4F8F9FA7B067430120055120B1B1208E59000055C
:20244200EFF0E4F8F9FA7B077430120055120B1B1208E57E00EE3395E0FDFC120C56120075
:20246200377C407D237ED77F0A122515784079237AD77B0A1219DF900008120AF9E4F8F9E7
:20248200FA7B077430120055120B1B1208E5900007EFF07F01122A627F191208731200634E
:2024A2007F551209457F1C120945E4FF1209457F4012094512096D90001EEFF012096D905C
:2024C200001DEFF012096DEF644060057F1A1228B77F1D12087322EC6EC0E0EE30E707E4BF
:2024E200C39FFFE49EFEEC30E707E4C39DFDE49CFC122135D0E030E707E4C39FFFE49EFE37
:2025020022EB600EEF2FFFEE3EFEED3DFDEC3CFCDBF222120B1212086AE4F58212004CEC65
:202522004D4E4F60091200D7EC4D4E4F7008E4FCFDFEFF0226A012004CE4FFFEFD5304805A
:20254200EC4D4E4F60037582011200D7E4FFFEFD530480EC4D4E4F60036382011200D7E4BE
:20256300FE53058053047F7B1712223DA90712004CE4FFFE53058053047F7B1712223DE920
:202583002FFF74822FFF8F8312004C53057F7C0043058012086A1200D753057F7C00430553
:2025A3008074281200E07B08742812005512223D120AF07B0812004C12223D1200CE1221A2
:2025C300B2120AF07B08742812005512223D12003712004CE4FEFDFC1221B27B0812223DE8
:2025E3001200CE120B1B120AF07B0812004C12223D1200377428120055E4FEFDFC1221B256
:202603007B0812223D1200CE120B1B12086AE4FFFEFD530480EC4D4E4F6011E4F8F9FA7BE1
:1F2623008012004C120B1B120AF0800FE4F8F9FA7B4012004C120B1B120AF01200D7E4EE
:20264300FEFD530480EC4D4E4F600D7B081200D712223D12086A800D7B071200D712223D98
:2026630012086A158312004C53057F7C00120AF0AF83E4FEFDFC7B171225031200CE120BA8
:2026830005120037E582600DEBFFEAFEE9FDE84480FC120037AC00AD01AE02AF03227F1BF4
:2026A3001208731200637F3C1209457F0F120945E4FF12094512096D90001EEFF012096D2C
:2026C30090001DEFF012096DBFFFFA7F1C120873E4FF1220DF221219D112002D90001C7492
:2026E3000AF07E0E7F177C01122250803E120D09121995AD077F31C3ED9F402F7F39D3ED7A
:202703009F50289026CEED2D500205832582F58250020583740193C0E0E493C0E022121923
:20272300248008121BFA8003121CA180C027212726272B272E272E272E272E272E272E74D8
:20274300201200EE120AF0E4F5827420120055EC4D4E4F7008E4FCFDFEFF0228B61200D703
:20276300EC4D4E4F7008E4FCFDFEFF0228B61200D7E4FFFEFD530480EC4D4E4F6003758280
:20278300017420120055E4FFFEFD530480EC4D4E4F60036382017420120055E4FFFE530532
:1F27A3008053047F7B1712223DA9071200D7E4FFFE53058053047F7B1712223DC3EF9948
:2027C300747E2FFF8F831200D753057F7C0043058012086A742012005553057F7C004305A6
:2027E3008074201200E0782012004012004CC31219B2500D7B0112004C12250312086A15DE
:2028030083750801E4F509F50AF50BF524F525F526F5278042782012004012004CC3121971
:20282300B2401E1200CE7424120055120B0574241200E0782012004012004C1219C31208AA
:202843006A7B0112004C12250312086A7B011200D712223D120AF01200D7EC4D4E4F70B5AD
:20286300E4F8F9FA7B017424120055120B1B120AF0AF83A907097B011200D712223D5305AE
:1F2883007F7C00120AF0AF01E4FEFDFC7B171225031200CE120B05120037E582600DEBCE
:2028A300EAFEE9FDE84480FC120037AC00AD01AE02AF03228F318531377536007E177FEE1E
:2028C3007C01120BCB7D0AAF31C3EF9D5003022A187D1DAF31D3EF9D501DAF31902A18EF5C
:2028E3002F500205832582F58250020583740193C0E0E493C0E0227D32AF31C3EF9D5003C2
:20290300022A187D38AF31D3EF9D4003022A18AF319029F0EF2F500205832582F582500204
:202923000583740193C0E0E493C0E0227E177FC37C01120BCB022A217E177F987C01120B5C
:20294300CB022A217E177F727C01120BCB022A217E177F407C01120BCB022A217E177F13F7
:202963007C01120BCB022A217E167FE17C01120BCB022A217E167FB17C01120BCB022A2186
:202983007E167F817C01120BCB022A217E167F4B7C01120BCB022A217E167F197C01120B18
:2029A300CB022A217E157FEC7C01120BCB022A217E157FC17C01120BCB022A217E157F8B2A
:2029C3007C01120BCB022A217E157F677C01120BCB804B7E157F467C01120BCB80407E1589
:2029E3007F1F7C01120BCB80357E147FEA7C01120BCB802A7E147FC07C01120BCB801F7EBF
:202A0300147F9A7C01120BCB80147E147F747C01120BCB80097E147F4E7C01120BCB7E14C4
:202A23007F357C01120BCB80FE292F293B29472A182A182A182A182A182A182A182953295D
:202A43005F296B29772983298F299B29A729B329BF29CB29D629E129EC29F72A022A0D8F00
:202A6300307F141208731200637F55120945AF30EF2F25E025E0FF120945E4FF120945E4CD
:202A8300F530AF30AD077C007E007F00EF2DFFEE3CFE850683850782E0FF12094512096DDC
:202AA30090001EEFF012096D90001DEFF012096DAB07AF30AD077C007E007F00EF2DFFEE23
:202AC3003CFE850683850782E0FFEB6F60057F151228B705307D08AF30C3EF9D5003022A13
:202AE300857F1612087322C000C001ED8FF0A4F9A8F0ED8EF0A428F8EC8FF0A428FEAF01D4
:052B0300D001D000220A
:00000001FF
