:200000000212937F1B1222E41224BC7F3C1225277F0F1225277F5512252712258F90000206
:20002000EFF012258F900001EFF012258FBFFFFA7F1C1222E4E4FF1202F022743012035860
:20004000121238900026EFF074301202E2121238BF100790000BE4F0800D74301202E2123B
:20006000123890000BEFF0E4F8F9FA7B0174301202E2121281121238900025EFF0E4F8F96D
:20008000FA7B0174301202E2121281121238BF100790000DE4F08016E4F8F9FA7B01743083
:2000A0001202E212128112123890000DEFF0E4F8F9FA7B0274301202E21212811212389056
:2000C0000024EFF0E4F8F9FA7B0274301202E2121281121238BF100790000FE4F08016E473
:2000E000F8F9FA7B0274301202E212128112123890000FEFF0E4F8F9FA7B0374301202E298
:20010000121281121238900023EFF0E4F8F9FA7B0374301202E2121281121238BF100790FE
:200120000011E4F08016E4F8F9FA7B0374301202E2121281121238900011EFF0E4F8F9FA0D
:200140007B0474301202E212128112123890000CEFF0E4F8F9FA7B0474301202E21212817D
:200160001212387E00EE3395E0FDFC1213C91202C47C407D237ED77F0A1226527840792338
:200180007AD77B0A1228FB90001F12125FE4F8F9FA7B0574301202E21212811212387E00BA
:2001A000EE3395E0FDFC1213C91202C47C407D237ED77F0A122652784079237AD77B0A12EA
:2001C00028FB90001B12125FE4F8F9FA7B0574301202E212128112123890000EEFF0E4F88B
:2001E000F9FA7B0674301202E21212811212387E00EE3395E0FDFC1213C91202C47C407DE4
:20020000237ED77F0A122652784079237AD77B0A1228FB90001712125FE4F8F9FA7B067406
:20022000301202E2121281121238900010EFF0E4F8F9FA7B0774301202E21212811212382C
:200240007E00EE3395E0FDFC1213C91202C47C407D237ED77F0A122652784079237AD77BE7
:200260000A1228FB90001312125FE4F8F9FA7B0774301202E2121281121238900012EFF0AC
:200280007F011211B07F191222E41224BC7F551225277F1C122527E4FF1225277F40122507
:2002A0002712258F900002EFF012258F900001EFF012258FEF644060057F1A1220CF7F1DB6
:2002C0001222E422A804A905AA06AB0722E6088601088602088603F822AC0CAD0DAE0EAF79
:2002E0000F22C88604088605088606088607C8228F307F171222E41224BC7FAA122527AF40
:2003000030EF2F25E025E0FF122527E4FF122527E4F53012258FAD07AF307E00740B2FF564
:200320008274003EF583EDF005307408653070E312258F900002EFF012258F900001EFF02E
:200340007F181222E422A808A909AA0AAB0B22AC08AD09AE0AAF0B22C8A60408A60508A60D
:200360000608A607C822C8F608A60108A60208A603C822A80CA90DAA0EAB0F228E478F4876
:200380007449120366E4F54DF54E74491202E21212388F50054CE54C700E054BE54B7008D6
:2003A000054AE54A70020549E5507007AE4DAF4E020AC9742565506003020AB3E4F551E408
:2003C000F552755301E4F554E4F555E4F55674491202E21212388F50054CE54C700E054B45
:2003E000E54B7008054AE54A70020549AF50EF6463700302083EAF50EF6466700302046B0B
:200400007D66AF50D3EF9D50357D2EAF50C3EF9D5003020AB37D39AF50D3EF9D4003020AA8
:20042000B3AF50900A6EEF2F500205832582F58250020583740193C0E0E493C0E022AF5032
:20044000EF646C70030207C37D6CAF50C3EF9D5003020AB3AF50EF64757003020776AF509D
:1F046000EF64787003020773020AB343511074042546F546AF46AB0778027CFF7DFF7EAC
:200480007FFC121281120AEB7457120358EC30E71074571202E2122011745712035843511A
:2004A0000274571202E2EC4D4E4F7006E4F54F02059A74571202E21222D1AD07ED30E704E2
:2004C00074FD2DFDEDFF3395E0FE7C007D031212D17C007D0A12231D1F8F4F7D0EAF4FD350
:2004E000EF64806305809D402F7F4F85478385488212128E7F5685478385488212128E7F73
:200500004C85478385488212128E7403254EF54EE4354DF54D0203CEAF4FEFF404FFFF3381
:2005200095E0FE740E2FFFE43EFE7E00EF2FFDEE33FCED2DFDEC33FC7E1F7F17EF2DFFEE54
:200540003CFE8E838F821212FF74571202E21226521202C47C3FE4FDFEFF1228FB7457124E
:200560000358784C79BE7ABC7B2074571202E21220A520E725783D79CC7ACC7BCD7457122B
:2005800002E21226521202C47C3E7DE67E667F661228FB7457120358054F74571202E2129B
:2005A00013227457120358780079987A967B8074571202E2C31222A84015E4F8F9FA7B0A31
:2005C00074571202E21210B37457120358054F755B00755C0F755D42755E407556017D07D2
:2005E000AF4FC3EF64806305809D4003435108AF51530708EF6003020667AF4FEF20E703E9
:200600000206617DF8AF4FD3EF64806305809D4045AF4FEFFD3395E0FC7E007F08C3EF9D6C
:20062100EE9CFEEF2FFDEE33FCED2DFDEC33FC7E1F7F17EF2DFFEE3CFE8E838F821212EF1C
:200641001213221202C474571202E21210B374571203588011E4F557F558F559F55A80067B
:200661007401254FF556755308AF52530702EF70030208CBAD567F06C3EF9DFDAF54C3ED5A
:200681009FFF8F0CAF0CEF30E7030208CBAF0CEF3395E0FEEF2FFDEE33FCED2DFDEC33FCCD
:2006A1007E1F7FEBEF2DFFEE3CFE8E838F821212FF74571202E21212811212567800799841
:2006C1007A967B8012034FC31222A84030AF51530708EF6013054FE4F8F9FA7B0A12034FCB
:2006E1001210B312125680150556E4F8F9FA7B0A745B1202E2122870745B120358AF0CEF11
:200701003395E0FEEF2FFDEE33FCED2DFDEC33FC7E1F7FD3EF2DFFEE3CFE8E838F82121250
:20072200745B1202E21210B3745B120358AF0CEF3395E0FEEF2FFDEE33FCED2DFDEC33FC27
:200742007E1F7FD3EF2DFFEE3CFE8E838F821212FF12034F1210B37457120358AD56AF54A9
:20076200ED2FFF8F53E55470030208CB05530208CB435101AF51530704EF60227404254685
:20078200F546AF46AB0778027CFF7DFF7EFF7FFC121281120AEB745712035802085B054678
:2007A2000546AF46AB0778027CFF7DFF7EFF7FFE121281120B27E4FDFC74571203580208D2
:2007C2005B4351040203CE4352800203CEAF52530780EF70064352040203CEAF5074D02F4B
:2007E200F980297F0AE98FF0A4FB74491202E212123874D02FFF2BF9054CE54C700E054BD0
:20080200E54B7008054AE54A7002054974491202E2121238AD077F30C3ED9F40077F39D35D
:20082200ED9F40BFAF52530780EF600889544352020203CE89554352010203CE05460546D5
:20084200AF46AB0778027CFF7DFF7EFF7FFE121281120B278F50020AB3755B00755C0075E7
:200862005D00755E01AF51530701EF604380117B04745B1202E21227F1745B1203580553C5
:20088200785B1202CD74571202E21210B3E4F8F9FA7B0FD31222A850D6802EE4F8F9FA7BE6
:2008A2000A745B1202E2122870745B1203580553785B1202CD74571202E21210B3E4F8F90A
:2008C200FA7B09D31222A850D2AF51530762EF60020553AF52530701EF6028AF5253071420
:2008E200EF7020801515557F2085478385488212128E054EE54E7002054DAD55AF53C3EF89
:200902009D40E2AF51530702EF60047D2D8002E4FDED6013AF0585478385488212128E05F1
:200922004EE54E7002054DAF52530701EF7003020A05AF52530704EF7003020A0580151525
:20094200557F3085478385488212128E054EE54E7002054DAD55AF53C3EF9D40E2020A0571
:20096200AF51530710EF6019E55670137F2E85478385488212128E054EE54E7002054D1589
:2009820056785B1202CD74571202E21210B38F82AF827E00AB07AA06E4F9F8745B1202E2F9
:2009A2001228701202C474571202E212229A7457120358AF8274302FFD7F39D3ED9F400490
:2009C20074272DFDAF0585478385488212128E054EE54E7002054DAF51530701EF60117BCC
:2009E20004745B1202E21227DE745B1203588013E4F8F9FA7B0A745B1202E21210B3745B89
:200A0200120358745B1202E2EC4D4E4F6003020962AF51530708EF7003020A85AF5153074D
:200A2200958F547F6585478385488212128E054EE54E7002054DAF544307208F51AF4FEF84
:200A420030E70D435102AF4FEFF404FF8F4F80137F2B85478385488212128E054EE54E7095
:200A620002054DAF4FEF3395E0FE3395E0FDFC7457120358755B00755C00755D00755E0A64
:200A82000208CBAF52530701EF700302038A801515557F2085478385488212128E054EE50C
:200AA2004E7002054DAD55AF53C3EF9D40E202038AAF5085478385488212128E054EE54E49
:200AC2007002054D02038A2207C90AB307CF07DD07DD07DD07DD07DD07DD07DD07DD07DD38
:200AE2008C0C8D0D8E0E8F0F22EC70108F828E83E0FCA3E0FDA3E0FEA3E0FF22D5E0138F00
:200B0200828E8393FC740193FD740293FE740393FF22D5E00FC88F008604088605088606AE
:200B2200088607C822EC700A8F828E83E0FEA3E0FF22D5E00B8F828E8393FE740193FF228E
:200B4200D5E009C88F008606088607C8221213187E1B7F2E7C011220037E1B7F037C011294
:200B620020037E1A7FB47C011220037E1A7FAD7C011220037E1A7FA67C011220037E1A7FD7
:200B82009F7C011220037E1A7F997C01122003020F8A12000390000CE0FFAD077C007F08BE
:200BA200ED8FF005F08005C333CC33CCD5F0F8FD90000BE0FF7E00EF2DFBEE3CFA900026E9
:200BC200E0FFAD07E4FCFE7F10C3EF9DFFEE9CFEAE02EB8FF005F08005CEC313CE13D5F05F
:1F0BE200F8FF8E308F31900026E0FF7E00EF2FFDEE33FCED2DFDEC33FC7E1A7F18EF2DB7
:200C0200EE3CFE8E838F821212EF1213C91202C490001F1212C51223477432120358AE30AA
:200C2200AF31E4FCFD1213C978321202CD1226527844797AE4FAFB12265274321203587D50
:200C42000C7F0612139F85324285334385344485354585304085314190000BE0FF7E008EDB
:200C62003E8F3F90000CE0FF7E008E3C8F3D90001F1212C58C388D398E3A8F3B900026E08D
:200C83007E008E368F377E1A7F5C7C0112200390000EE0FFAD077C007F08ED8FF005F0800F
:200CA30005C333CC33CCD5F0F8FD90000DE0FF7E00EF2DFBEE3CFA900025E0FFAD07E4FC54
:200CC300FE7F10C3EF9DFFEE9CFEAE02EB8FF005F08005CEC313CE13D5F0F8FF8E308F315B
:200CE300900025E0FF7E00EF2FFDEE33FCED2DFDEC33FC7E1A7F18EF2DFFEE3CFE8E838F63
:200D0300821212EF1213C91202C490001B1212C51223477432120358AE30AF31E4FCFD12A5
:200D230013C978321202CD1226527844797AE4FAFB12265274321203587D0C7F0812139FC6
:200D430085324285334385344485354585304085314190000DE0FF7E008E3E8F3F90000E82
:200D6300E0FF7E008E3C8F3D90001B1212C58C388D398E3A8F3B900025E0FF7E008E368F68
:200D8300377E1A7F5C7C01122003900010E0FFAD077C007F08ED8FF005F08005C333CC33E3
:200DA300CCD5F0F8FD90000FE0FF7E00EF2DFBEE3CFA900024E0FFAD07E4FCFE7F10C3EF0D
:1F0DC3009DFFEE9CFEAE02EB8FF005F08005CEC313CE13D5F0F8FF8E308F31900024E006
:200DE3007E00EF2FFDEE33FCED2DFDEC33FC7E1A7F18EF2DFFEE3CFE8E838F821212EF124F
:200E030013C91202C49000171212C51223477432120358AE30AF31E4FCFD1213C9783212B7
:200E230002CD1226527844797AE4FAFB12265274321203587D0C7F0A12139F8532428533AA
:200E43004385344485354585304085314190000FE0FF7E008E3E8F3F900010E0FF7E008E43
:200E63003C8F3D9000171212C58C388D398E3A8F3B900024E0FF7E008E368F377E1A7F5CAD
:200E83007C01122003900012E0FFAD077C007F08ED8FF005F08005C333CC33CCD5F0F8FD04
:200EA300900011E0FF7E00EF2DFBEE3CFA900023E0FFAD07E4FCFE7F10C3EF9DFFEE9CFE6D
:200EC300AE02EB8FF005F08005CEC313CE13D5F0F8FF8E308F31900023E0FF7E00EF2FFD91
:200EE300EE33FCED2DFDEC33FC7E1A7F18EF2DFFEE3CFE8E838F821212EF1213C91202C433
:200F03009000131212C51223477432120358AE30AF31E4FCFD1213C978321202CD12265215
:200F23007844797AE4FAFB12265274321203587D0C7F0C12139F853242853343853444853B
:200F43003545853040853141900011E0FF7E008E3E8F3F900012E0FF7E008E3C8F3D90006B
:200F6300131212C58C388D398E3A8F3B900023E0FF7E008E368F377E1A7F5C7C0112200397
:200F83007E017F901212AE020B940210301213187E1C7F827C011220037E1C7F537C011286
:200FA30020037E1C7F127C011220031222B9BF650302103312254F7E1B7FCF7C01122003B6
:200FC300900003E0FF7E008E448F45900004E0FF7E008E428F43900005E0FF7E008E408F96
:200FE30041900006E0FF7E008E3E8F3F900007E0FF7E008E3C8F3D900008E0FF7E008E3AD9
:201003008F3B900009E0FF7E008E388F3990000AE0FF7E008E368F377E1B7F777C011220C0
:20102300037E1B7F577C011220031222B9020F902278007932900000E849600AE4F0A3E92B
:201043001970F51880F2221222C3121318900000740AF07E197FE87C0112003B803E122871
:20106300121222B9AD077F31C3ED9F402F7F39D3ED9F502890103FED2D500205832582F54E
:201083008250020583740193C0E0E493C0E0221220348008120F8D8003120B4F80C01092A3
:2010A3001097109C109F109F109F109F109F109FC008C009C00AC00BC00CC00DC00EC00F64
:2010C300C020C021C022C023880C890D8A0E8B0F8C088D098E0A8F0B758200E50C450D4550
:2010E3000E450F7008E4FCFDFEFF0211970582E50C548070267B01AC0CAD0DAE0EAF0F1233
:2011030027F1A808A909AA0AAB0B1222A86002500A8C0C8D0D8E0E8F0F80D2E4F520F52183
:20112300F522F5237B01AC20AD21AE22AF231227F18C208D218E228F23A80CA90DAA0EAB12
:201143000FAC08AD09AE0AAF0B1222A8401EA80CA90DAA0EAB0FAC08AD09AE0AAF0B12227B
:201163009A8C088D098E0A8F0B4323017B01AC0CAD0DAE0EAF0F1227DE8C0C8D0D8E0E8F33
:201183000FD582A0AC20AD21AE22AF23A808A909AA0AAB0BD023D022D021D020D00FD00EBB
:2011A300D00DD00CD00BD00AD009D008228F307F141222E41224BC7F55122527AF30EF2F60
:2011C30025E025E0FF122527E4FF122527E4F530AF30AD077C007E007F0BEF2DFFEE3CFE01
:2011E300850683850782E0FF12252712258F900002EFF012258F900001EFF012258FAB07AE
:20120300AF30AD077C007E007F0BEF2DFFEE3CFE850683850782E0FFEB6F60057F151220F1
:20122300CF05307D08AF30C3EF9D50030211D37F161222E422EC70078F828E83E0FF22D591
:20124300E0078F828E8393FF22D5E006C88F008607C8228C088D098E0A8F0B22ECF0A3ED5B
:20126300F0A3EEF0A3EFF022EF4BFFEE4AFEED49FDEC48FC22880889098A0A8B0B22EF2BDA
:20128400EE3AFEED39FDEC38FC22C082C08322E5A8C2AF549075815EA881760018B81FFA5A
:2012A400C0E01212C1D0A802104AEF60010E90FF67A3E583458270F9DFF4DEF22212103427
:2012C40022E0FCA3E0FDA3E0FEA3E0FF22C000C001ED8FF0A4F9A8F0ED8EF0A428F8EC8F9B
:2012E400F0A428FEAF01D001D00022E493FC740193FD740293FE740393FF22E493F874012F
:2013040093F9740293FA740393FB22880C890D8A0E8B0F227E147F837C0112200322121209
:2013240056E4F812034FE4FFFE53058053047F7B171227DEA907E97008E4FCFDFEFF0213DB
:201344009E12034FE4FFFEFD530480EC4D4E4F6002780112034F53057F7C0043058012127E
:2013640056800C7B0112034F1227DE121256097F96C3E99F40ED800C7B0112034F1227F1EA
:20138400121256197F96D3E99F50EDE8600912034F1222F212125612034F22EDAD07FF7E10
:2013A4000074202FFFE43EFE8E388F39AF057E0074202FFFE43EFE8E368F377E147F7C7C12
:2013C40001122003221202C4AC00AD01AE02AF03EC4D4E4F7008E4FCFDFEFF02147BAC00B8
:2013E400AD01AE02AF03EC30E71375F001AC00AD01AE02AF031222F21212568006E4F5F0B2
:201404001212787996800C097B0112034F1227DE12125612034FE4FFFEFDEC4D4E4F70E7A8
:20142400800C7B0112034F1227F11212561912034FE4FFFE5305807C00EC4D4E4F60E312BB
:20144400034F53057F7C00121256AF01E4FEFDFC7B171227F112034612126B1202C4E5F08B
:20146400600DEBFFEAFEE9FDE84480FC1202C4AC00AD01AE02AF03221B5925632563001B46
:20148400481B4A000000000000000000FE0008019C0E6D100C000801DB082110C600080175
:2014A4009C3F0B105400080186700A100000000000000000000000000000000000000000C5
:2014C4000000000000000000000000000000000000000000D900000013FAD320000000002F
:2014E4000000000000000000000000000000000000000000000000000000000000000000E8
:201504000000000000000000000000000000000000000000000000000000000000000000C7
:20152400000000000A0A202052657365742064727565636B656E202E2E2E20000A0A0A0AED
:2015440020204665686C6572206265696D204C6573656E2064657320524F4D2D4964656E06
:20156400746966696572733A204B45494E2050726573656E636520766F6D20536C6176650E
:201584002021000A0A53797374656D20616E676568616C74656E20210A0A0700556E67753B
:2015A400656C74696765204665686C65726E756D6D657220617566676574726574656E20C9
:2015C40021004453323430383A204B65696E205072657320626569206473323430385F660C
:2015E4006C615F636C2829004453323430383A204B65696E20507265732062656920647354
:20160400323430385F72645F666C612829004453323430383A204B65696E205072657320C0
:20162400626569206473323430385F72645F7A757374616E642829004453323430383A2004
:20164400436F6E6669726D6174696F6E2D427974652066616C73636820696E2064733234F7
:2016640030385F77725F627974652829004453323430383A204B65696E20507265732062D0
:201684006569206473323430385F77725F627974652829004453323430383A204665686CC9
:2016A400657220626569206473323430385F696E69742829004453323430383A204B6569FE
:2016C4006E205072657320626569206473323430385F696E69742829004453323435303AC9
:2016E400204B65696E20507265732E3A2053636872656962656E20696E2050616765203383
:201704002028496E69742D456E6465292021004453323435303A204B65696E2050726573D9
:201724002E3A20537461727420436F6E766572742028456E6465292021004453323435307E
:201744003A204B65696E20507265732E3A20537461727420436F6E766572742028416E66F6
:20176400616E67292021004453323435303A204665686C6572206265696D2052FC636B6C4E
:201784006573656E20766F6E205061676520332028496E6974292021004453323435303A55
:2017A400204B65696E20507265732E3A2053636872656962656E20696E20506167652033C2
:2017C4002028496E69742D416E662E292021004453323435303A204B65696E205072657352
:2017E4002E3A204C6573656E206175732065696E6572205365697465202832292021004488
:2018040053323435303A204B65696E20507265732E3A204C6573656E206175732065696EC7
:201824006572205365697465202831292021004453323435303A204B65696E2050726573D3
:201844002E3A2053636872656962656E20696E2065696E65205365697465202832292021B3
:20186400004453323435303A204665686C6572206265696D2053636872656962656E202D95
:2018840020527565636B6C6573656E2021004453323435303A204B65696E20507265732EA7
:2018A4003A2053636872656962656E20696E2065696E652053656974652028312920210082
:2018C4004453313832303A204B65696E205072657320626569206473313832305F77725F4E
:2018E400745F726567004453313832303A204B65696E205072657320626569206473313826
:2019040032305F72645F74656D702829202D2032004453313832303A204B65696E20507202
:20192400657320626569206473313832305F72645F74656D702829202D2031000A0A253314
:20194400753A20000000000000000000FE0008019C0E6D100C000801DB082110C60008018E
:201964009C3F0B105400080186700A10000000000000000000000000000000000000000000
:201984000000000000000000000000000000000000000000D900000013FAD320000000006A
:2019A400000000000000000000000000000000000000000000000000000000000000000023
:2019C400000000000000000000000000000000000000000000000000000000000000000003
:2019E40000000000080808080101010108080A0A010101010A0A0A0A01010101020304055D
:201A0400010101011010101001010101080808080000000000000001000000020000000453
:201A24000000000800000010000000200000004000000080000001000000020000000400A3
:201A440000000800000010000000200000004000000080000001000025327520202020201D
:201A64002025342E3266202020202020202025337520202020202025337520202020202009
:201A840020253575202020202020202020202025382E3366000A20202044000A2020204374
:201AA4000A000A202020420A000A202020410A0020204B616E616C202020204175666C2E50
:201AC40020202055726566202F2056202020204D53427974652020204C53427974652020C4
:201AE400204469672E576572742864657A2920202020416E616C6F67202F206D560A003DFF
:201B04003D3D3D3D3D3D3D3D3D3D3D3D3D3D3D3D3D3D3D3D3D3D3D3D3D3D3D3D3D3D3D3D21
:201B24003D3D3D3D3D3D0A0A0A0044656D6F2D4265747269656220667565722065696E6513
:201B44006E20445332343530657220616D204275730A000A0A0A0A4665727469672C20544F
:201B6400617374652064727565636B656E202E2E2E2000202020202025303278202020205A
:201B84002020202020202025303278202530327820253032782025303278202530327820C6
:201BA400253032782020202020202020202020202020202530327820202020202020202023
:201BC4002020202028484558290A000A0A0A2020382D426974204352432020202020203473
:201BE400382D4269742053657269616C204E756D626572202020202020382D4269742046AA
:201C0400616D696C697920436F64650A0A0041626672616765206475726368204472756300
:201C24006B206175662054617374652C20204265656E64656E2064757263682045696E67C2
:201C440061626520766F6E202765273A2020003D3D3D3D3D3D3D3D3D3D3D3D3D3D3D3D3D8B
:201C64003D3D3D3D3D3D3D3D3D3D3D3D3D3D3D3D3D3D3D3D3D3D3D3D3D3D3D3D0A005369EE
:201C84006E676C6520436869703A204C6573656E206465732036342042697420524F4D2D45
:201CA4004964656E746966696572730A000A0A576569746572202D205461737465206472B8
:201CC4007565636B656E202E2E2E200020205465737420504F53495449563A20204D696EEF
:201CE40064657374656E732045494E455220646120210A00202054657374204E45474154B8
:201D040049563A20204B65696E657220646120210A00202020202020202020202020202058
:201D2400202020202020202020202020202020202020202020202020000A0A53746172747D
:201D4400206465732054657374733A202054617374652064727565636B656E202E2E2E203A
:201D640000284265656E64656E2064757263682045696E6761626520766F6E202765272916
:201D8400003D3D3D3D3D3D3D3D3D3D3D3D3D3D3D3D3D3D3D3D3D3D3D3D3D3D3D3D3D3D3DDC
:201DA4003D3D3D3D3D3D3D3D3D3D3D3D3D3D3D3D3D3D3D3D3D3D3D0A00312D576972652D78
:201DC40052657365743A20546573742C206F62204A454D414E4420616D2042757320616EEF
:201DE40067657363686C6F7373656E206973740A000A0A0A0A49687265205761686C3A2011
:201E040020000A0A2020392E20002020352E200A0A002020342E200A0A002020332E205302
:201E2400696E676C652043686970202D2044656D6F2D426574726965620A0A002020322E5B
:201E44002053696E676C6520436869703A204C6573656E2064657320363420426974205270
:201E64004F4D2D4964656E746966696572730A0A002020312E20312D576972652D52657300
:201E840065743A20546573742C206F62204A454D414E4420616D2042757320616E67657319
:201EA40063686C6F7373656E206973740A0A00426974746520776165686C656E20536965FE
:201EC4003A0A0A0A003D3D3D3D3D3D3D3D3D3D3D3D3D3D3D3D3D3D3D3D3D3D3D3D3D3D3D37
:201EE4003D3D3D3D3D3D3D3D3D3D0A0A004461732067726F73736520312D57697265202D3B
:201F04002044533234353065722D50726F6A656B740A00322BCC7733D6BF95358637BD376B
:201F240027C5AC38D1B7173A83126F3C23D70A3DCCCCCD3F8000004120000042C8000044A0
:201F44007A0000461C400047C35000497424004B1896804CBEBC204E6E6B28501502F951C7
:201F6400BA43B75368D4A5551184E756B5E62158635FA95A0E1BCA5BB1A2BC5D5E0B6B5F88
:201F84000AC72360AD78EC6258D7276407867865A968166753C21C690459516AA56FA66CEC
:201FA4004ECB8F6E013F396FA18F087149F2CA72FC6F7C749DC5AE7645371977F684DF7940
:201FC4009A130C7B4097CE7CF0BDC27E9676990000000A00000064000003E8000027100086
:201FE4000186A0000F42400000000500000032000001F4000013880000C3500000C35075C3
:2020040046361202C47E227F8712037C221202C4AC00AD01AE02AF03EC4D4E4F7007E4FC4E
:20202400FDFEFF800AEBFFEAFEE9FDE86480FC221213187E1D7FBD7C011220037E1D7F8511
:202044007C011220037E1D7F657C011220037E1D7F3D7C0112200380457D027F0712139F02
:202064007E1D7F167C011220037D027F0712139F1222B9BF65028028122300EF600B7E1CCD
:202084007FF87C0112200380097E1C7FD07C011220037E1C7FB17C011220031222B980B94D
:2020A40022EC6830E702EC22C3EC98700DED997009EE9A7005EF9B700122500474FF800259
:2020C400740188F030F702648022228F318531377536007E197F407C011220037D0AAF31F7
:2020E400C3EF9D50030222307D1DAF31D3EF9D501DAF31902230EF2F500205832582F582C8
:2021040050020583740193C0E0E493C0E0227D32AF31C3EF9D50030222307D38AF31D3EF24
:202124009D4003022230AF31902208EF2F500205832582F58250020583740193C0E0E493BE
:20214400C0E0227E197F157C011220030222397E187FEA7C011220030222397E187FC47C1C
:20216400011220030222397E187F927C011220030222397E187F657C011220030222397E0B
:20218400187F337C011220030222397E187F037C011220030222397E177FD37C01122003A2
:2021A4000222397E177F9D7C011220030222397E177F6B7C011220030222397E177F3E7CA2
:2021C400011220030222397E177F137C011220030222397E167FDD7C011220030222397EB5
:2021E400167FB97C01122003804B7E167F987C0112200380407E167F717C01122003803508
:202204007E167F3C7C01122003802A7E167F127C01122003801F7E157FEC7C011220038069
:20222400147E157FC67C0112200380097E157FA07C011220037E157F877C0112200380FE46
:2022440021472153215F2230223022302230223022302230216B21772183218F219B21A7E4
:2022640021B321BF21CB21D721E321EE21F92204220F221A2225AB07E4FF80010FC3EF9B49
:2022840040FA22BF0A083099FDC29975990D3099FDC2998F9922C3EF9BFFEE9AFEED99FD11
:2022A400EC98FC22EF9BF5F0EE9A42F0ED9942F0EC9845F0223098FDAF99C2987E00227540
:2022C4009852438920758DFDD28ED29922E4FFFE53058053047F7B171227DE74822FFF22BA
:2022E4008F31122300EF6005AF311220CF22E4C39FFFE49EFEE49DFDE49CFC22C2B47F496F
:2023040012227AD2B47F0712227AA2B4E433FF8F327F3E12227AAF3222EC6EC0E0EE30E7B7
:2023240007E4C39FFFE49EFEEC30E707E4C39DFDE49CFC1225D5D0E030E707E4C39FFFE403
:202344009EFE227428120366121256E4F58274281202E2EC4D4E4F7008E4FCFDFEFF0224EF
:20236400BB12034FEC4D4E4F7008E4FCFDFEFF0224BB12034FE4FFFEFD530480EC4D4E4F42
:20238400600375820174281202E2E4FFFEFD530480EC4D4E4F600363820174281202E2E402
:2023A500FE53058053047F7B171227DEA90712034FE4FFFE53058053047F7B171227DEC3B4
:2023C500EF99FF747E2FFF8F8312034F53057F7C00430580120AE274281202E253057F7CDD
:2023E50000430580742812035878281202CD1202D9C31222A8500D7B011202D91227F112F8
:202405000AE21583750801E4F509F50AF50BF52CF52DF52EF52F804278281202CD1202D91A
:20242500C31222A8401E120346742C1202E212126B742C12035878281202CD1202D912226B
:202445009A120AE27B011202D91227F1120AE27B0112034F1227DE12125612034FEC4D4EF2
:202465004F70B5E4F8F9FA7B01742C1202E2121281121256AF83A907097B0112034F1227DF
:20248500DE53057F7C00121256AF01E4FEFDFC7B171227F112034612126B1202C4E58260BC
:2024A5000DEBFFEAFEE9FDE84480FC1202C4AC00AD01AE02AF0322900000E0FFBFFF087F40
:2024C500CC1225270225267F55122527E4F531900000E0FFAD077C007F03ED8FF005F08042
:2024E50005C333CC33CCD5F0F8FD7E147F88EF2DFBEE3CFAAF31AD07E4FCFE7F07C3EF9D3C
:20250600EE9CFEEB2FFFEA3EFE850683850782E493FF12252705317408653160030224D459
:20252600228F32753301753408AD33AF32EF5DFF60077F011228038005E4FF122803AF33A1
:20254600EF2FFF8F33D534E122122300EF60147E157F407C011220037E157F287C01122005
:202566000380FE7F33122527E4F53012258FAD07AF307E0074032FF58274003EF583EDF0C0
:2025860005307408653070E322E4F531E4F5321225BEEF6018AD327F01EF8DF005F08002C7
:2025A600C333D5F0FBFDAF31EF4DFF8F3105327408653270DAAF3122C2B4D2B47F06DFFE93
:2025C600A2B4E433FF8F337F0D12227AAF3322C000C001C002C003C083C082AA04AB05A8F8
:2025E60006A90775F000EA4B7006E4FEFF02264505F0EA54807017EB2BF582EA33F583D392
:20260600E58299E583985006AA83AB8280E2E4F583F582E5822582F582E58333F583C3E98B
:202626009BE89A4008C3E99BF9E89AF8A3EAC313FAEB13FBD5F0DCAE83AF82AC00AD01D0F2
:2026460082D083D003D002D001D00022121278120AE2E4F5821202D9EC4D4E4F6009120301
:202666004FEC4D4E4F7008E4FCFDFEFF0227DD1202D9E4FFFEFD530480EC4D4E4F60037587
:20268600820112034FE4FFFEFD530480EC4D4E4F600363820112034FE4FFFE530580530405
:1F26A6007F7B171227DEA9071202D9E4FFFE53058053047F7B171227DEE92FFF74822FDC
:2026C6008F831202D953057F7C00430580120AE212034F53057F7C00430580742412035858
:2026E6007B0874241202E21227DE1212567B081202D91227DE1203461228701212567B08A9
:2027060074241202E21227DE1202C41202D9E4FEFDFC1228707B081227DE1203461212812A
:202726001212567B081202D91227DE1202C474241202E2E4FEFDFC1228707B081227DE12FB
:202746000346121281120AE2E4FFFEFD530480EC4D4E4F6011E4F8F9FA7B801202D91212B0
:2027660081121256800FE4F8F9FA7B401202D912128112125612034FE4FFFEFD530480EC2E
:202786004D4E4F600D7B0812034F1227DE120AE2800D7B0712034F1227DE120AE2158312AE
:2027A60002D953057F7C00121256AF83E4FEFDFC7B171227F112034612126B1202C4E58279
:2027C600600DEBFFEAFEE9FDE84480FC1202C4AC00AD01AE02AF0322EB600FECC313FCED6B
:2027E60013FDEE13FEEF13FFDBF122EB600EEF2FFFEE3EFEED3DFDEC3CFCDBF222C2B4EF96
:202806006002D2B47F0D12227AD2B4221213187E1E7FF17C011220037E1E7FC97C0112205A
:20282600037E1E7FB37C011220037E1E7F757C011220037E1E7F407C011220037E1E7F1E87
:202846007C011220037E1E7F167C011220037E1E7F0E7C011220037E1E7F067C011220032F
:202866007E1D7FF57C0112200322C008C009C00AC00BEF8BF0A4F50B85F00AEF8AF0A4258A
:202886000AF50AE5F03400F509EF89F0A42509F509E5F03400F508EF88F0A42508F508EEC1
:2028A6008BF0A4250AF50AE5F03509F509E5083400F508EE8AF0A42509F509E5F03508F557
:2028C60008EE89F0A42508F508ED8BF0A42509F509E5F03508F508ED8AF0A42508F508EC4D
:2028E6008BF0A42508FCAD09AE0AAF0BD00BD00AD009D0082212125612130FE4F812034FEC
:20290600E4FFFE53058053047F7B171227DE8FF01202D9E4FFFE53058053047F7B171227B3
:20292600DEA907AF017E0074192FFDE43EFCAFF07E00D3EF9DEE64806304809C5003E97081
:202946000612034F022B07AFF07E0074192FFDE43EFCAF017E00D3EF9DEE64806304809CFD
:2029660040061202D9022B0712034FE4FFFEFD530480EC4D4E4F600278011202D9E4FFFE52
:20298600FD530480EC4D4E4F600343000212034F53057F7C004305801212561202D95305A1
:2029A6007F7C00430580120AE27B0612034F1227F11212567B061202D91227F1120AE2AF82
:2029C600F0D3EF99401CAD017C00AFF07E00C3EF9DFFEE9CFEAB071202D91227DE120AE279
:2029E6008027AFF0C3E5079501501EAFF0AD077C00AF017E00C3EF9DFFEE9CFEAB0712033E
:202A06004F1227DE12125689F0E85401FF600912034F1222F2121256E85402FF60091202F4
:202A2600D91222F2120AE212037312034F121281121256E4F58212034FE4FFFEFD53048014
:202A4600EC4D4E4F600E12034F1222F2121256758201801E12034FEC4D4E4F7015E4FCFDF6
:202A6600FEFF022B077B0112034F1227F112125615F012034FE4FFFEFD530440EC4D4E4FE7
:202A860060E3E4F8F9FA7B4012034F121281121256E4FFFEFD530480EC4D4E4F700D7B015C
:202AA60012034F1227F112125615F0AFF0A90709097B0812034F1227DE121256EC4D4E4F54
:202AC6007007E4FCFDFEFF803812034F53057F7C00121256AF01E4FEFDFC7B171227F1125D
:202AE600034612126B1202C4E582600DEBFFEAFEE9FDE84480FC1202C4AC00AD01AE02AF5B
:022B06000322A8
:00000001FF
