:1000000019C00AC432C031C030C02FC02EC02DC0AC
:100010002CC02BC02AC029C028C027C026C025C09C
:1000200040C423C022C021C020C01FC01EC01DC0AC
:100030001CC01BC011241FBECFEFD2E0DEBFCDBF5E
:1000400011E0A0E0B1E0E0ECFFE002C005900D920D
:10005000A830B107D9F711E0A8E0B1E001C01D92C6
:10006000A833B107E1F7FDD5A9C7CACFBC0180917C
:10007000B9008E7F8093B9008091B9008D7F809305
:10008000B90080ED97E049D7603128F070E0605109
:100090007040759567956093B800089588E290E088
:1000A000E5DFECEBF0E080818460808308953C9A8A
:1000B00084EA8093BC00089584E98093BC0008958D
:1000C0008091BC0087FD09C08AE590E002C00197DD
:1000D00021F02091BC0027FFFACF0895EFECF7E064
:1000E0003197F1F700C000003C9A8093BB0084E890
:1000F0008093BC000895882339F48091BC008F70F0
:1001000080688093BC0008958091BC008F70806CE3
:100110008093BC0008958091BB0008958091B90040
:1001200008951F93182F3C9A84EA8093BC00809115
:10013000BC0087FD0AC02AE530E003C021503040F2
:1001400021F08091BC0087FFF9CF8EEEC7DF809150
:10015000BC0087FD0AC02AE530E003C021503040D2
:1001600021F08091BC0087FFF9CF812FB7DF80910C
:10017000BC0087FD09C08AE590E002C0019721F02C
:100180002091BC0027FFFACF3C9A84EA8093BC0000
:100190008FEEA4DF8091BC0087FD09C08AE590E066
:1001A00002C0019721F02091BC0027FFFACF809177
:1001B000BC008F70806C8093BC008091BC0087FD78
:1001C00009C08AE590E002C0019721F02091BC00AF
:1001D00027FFFACF4091BB008091BC0087FD09C08A
:1001E0008AE590E002C0019721F02091BC0027FF32
:1001F000FACF8091BC008F7080688093BC008091A2
:10020000BC0087FD0BC080E090E004C001968A35F9
:10021000910521F02091BC0027FFF8CF2091BB0071
:100220008091BC0087FD0BC080E090E004C0019687
:100230008A35910521F03091BC0037FFF8CF84E971
:100240008093BC00942F80E030E0282B392BC9012B
:100250001F9108958AEA65DF909315018093140138
:100260008CEA5FDF90931701809316018EEA59DFC5
:10027000909319018093180180EB53DF90931B0139
:1002800080931A0182EB4DDF90931D0180931C0136
:1002900084EB47DF90931F0180931E0186EB41DFC3
:1002A000909321018093200188EB3BDF9093230101
:1002B000809322018AEB35DF9093250180932401FE
:1002C0008CEB2FDF90932701809326018EEB29DFA3
:1002D000909329018093280108953C9A84EA8093A1
:1002E000BC008091BC0087FD09C08AE590E002C097
:1002F000019721F02091BC0027FFFACF8EEEEEDEB1
:100300008091BC0087FD09C08AE590E002C001979A
:1003100021F02091BC0027FFFACF84EFDFDE80912F
:10032000BC0087FD09C08AE590E002C0019721F07A
:100330002091BC0027FFFACF8EE2D0DE8091BC0076
:1003400087FD0BC080E090E004C001968A359105DE
:1003500021F02091BC0027FFF8CF84E98093BC00F6
:100360008FED9EE20197F1F700C0000086EFD9DE25
:100370009C01442737FD4095542FB901CA010895C7
:10038000DF92EF92FF920F931F93D82E3C9A84EA4C
:100390008093BC008091BC0087FD09C08AE590E095
:1003A00002C0019721F02091BC0027FFFACF8EEE0A
:1003B00095DE8091BC0087FD09C08AE590E002C00F
:1003C000019721F02091BC0027FFFACF84EF86DE51
:1003D0008091BC0087FD09C08AE590E002C00197CA
:1003E00021F02091BC0027FFFACF8D2D8295880F38
:1003F000880F807C8C5C72DE8091BC0087FD0AC017
:100400002AE530E003C02150304021F08091BC004B
:1004100087FFF9CF84E98093BC00DD2071F18FE57F
:100420009AEE0197F1F700C0000086EF7ADE7C01BA
:100430000027F7FC0095102F87EF73DEA8019701C6
:1004400040705070542F432F322F2227280F311D18
:10045000411D511D88E090E08D19910904C055950A
:100460004795379527958A95D2F7B901CA011F910B
:100470000F91FF90EF90DF9008958FED9EE201972E
:10048000F1F700C00000D1CF2F923F924F925F92C0
:100490006F927F928F929F92AF92BF92CF92DF9294
:1004A000EF92FF920F931F93DF93CF93CDB7DEB7F9
:1004B00027970FB6F894DEBF0FBECDBF5C017F83D8
:1004C0006E8349830ADF09DF7B018C01898158DF54
:1004D000898156DF6A837B838C839D8380911E0193
:1004E00090911F01A0E0B0E0A8019701281B390BF3
:1004F0004A0B5B0BCA01B90120911C0130911D010F
:1005000040E050E0EBD47B018C013FE0159507956E
:10051000F794E7943A95D1F76091260170912701FD
:10052000882777FD8095982F2BE0660F771F881F0F
:10053000991F2A95D1F7209128013091290144274C
:1005400037FD4095542F2E0D3F1D401F511F1BD5C9
:100550002E0D3F1D401F511FDA01C9010896A11D34
:10056000B11D14E0B595A795979587951A95D1F784
:10057000F50180839183A283B383B0E6AB2EB0EF05
:10058000BB2EBFEFCB2EBFEFDB2EA20EB31EC41EC1
:10059000D51EC601B501A6019501A0D41B012C01F1
:1005A000ACE05594479437942794AA95D1F72091BD
:1005B000180130911901442737FD4095542FC60189
:1005C000B5018CD47B018C01FDE015950795F7945E
:1005D000E794FA95D1F722E030E040E050E0E20EF7
:1005E000F31E041F151F2091200130912101442783
:1005F00037FD4095542FC201B10170D4BC01992739
:1006000077FD9095892FE60EF71E081F191F159587
:100610000795F794E79415950795F794E79480E08C
:1006200090E8A0E0B0E0E80EF91E0A1F1B1F209121
:100630001A0130911B0140E050E0C801B7014ED4CF
:100640003B014C014FE096948794779467944A95C8
:10065000D1F72091160130911701442737FD4095BD
:10066000542FC601B5013AD47B018C013BE01595AE
:100670000795F794E7943A95D1F7809114019091FA
:100680001501AA2797FDA095BA2F880F991FAA1FB9
:10069000BB1F880F991FAA1FBB1FE80EF91E0A1F58
:1006A0001B1F2091220130912301442737FD4095E3
:1006B000542FC201B10112D4ABE09595879577957F
:1006C0006795AA95D1F7E60EF71E081F191F098036
:1006D00004C0EE0CFF1C001F111F0A94D2F722E089
:1006E00030E040E050E0E20EF31E041F151F1595A8
:1006F0000795F794E79415950795F794E7948A8101
:100700009B81AC81BD818E199F09A00BB10B8A839F
:100710009B83AC83BD8320E533EC40E050E009804F
:1007200004C055954795379527950A94D2F7BC0193
:10073000CD01D4D397FD5DC0660F771F881F991F29
:10074000A4019301FED379018A01552717FD5A951B
:10075000412F302F2F2DCA01B901C0D32EED3BE020
:1007600040E050E0BBD35B016C01C801B70123E45A
:1007700033EE4FEF5FEFB2D3BC01992777FD909531
:10078000892F6153714F8F4F9F4F5601DD24B7FC66
:10079000D094CD2C6A0D7B1D8C1D9D1D24E095955C
:1007A0008795779567952A95D1F76E0D7F1D801FE8
:1007B000911FAE81BF816D937D938D939C93139711
:1007C00027960FB6F894DEBF0FBECDBFCF91DF9155
:1007D0001F910F91FF90EF90DF90CF90BF90AF905F
:1007E0009F908F907F906F905F904F903F902F9051
:1007F0000895A4019301A5D379018A01EE0CFF1C91
:10080000001F111FA2CF80E684B980E187B98EEF67
:100810008AB980E388B908951F920F920FB60F929C
:1008200011242F938F939F93209112018091340173
:10083000222319F4529A5A9822E0E898853031F030
:100840008630C0F0873011F0873010F59CEF96BDF0
:1008500090916E00916090936E00A89A80933401FD
:10086000209312019F918F912F910F900FBE0F90A7
:100870001F901895833051F3843038F4882341F762
:1008800092ED96BDE89AE09AE3CF90913301DECFE6
:100890008830F1F682E0809369008BEF86BD81E0BD
:1008A000D7CF1F920F920FB60F9211241F932F9341
:1008B0003F934F935F936F937F938F939F93AF93E8
:1008C000BF93EF93FF931091120160913401409117
:1008D0003501A091320170913301B0911301509113
:1008E000370121E04A9B20E0E89B38C0222309F42D
:1008F00058C080916E008E7F80936E00662359F5FC
:1009000080916E008E7F80936E0060E085ED86BDE5
:10091000E89AE09A609334011093120140933501F4
:10092000A093320170933301B093130150933701B8
:10093000FF91EF91BF91AF919F918F917F916F91B7
:100940005F914F913F912F911F910F900FBE0F908C
:100950001F901895A1E06230C9F6DCCF6430A9F190
:10096000653020F1663009F498C0663008F478C02C
:10097000673021F6222339F0E42FF0E0E85FFE4FE4
:1009800080818A2B8083AA0F09F0C0CF4F5F41304E
:1009900009F4E2C0E42FF0E0E85FFE4F1082A1E02E
:1009A000B5CF83E08093690068E0A3CF623009F49B
:1009B00051C0633078F5613009F0A0CF529A5A984F
:1009C0008BEE86BDE89862E0A5CF52987F5F7130CC
:1009D00009F47EC0733009F099CF30E081E090E0F7
:1009E000B13011F080E090E02817390709F088CF86
:1009F000AA0F21F44F5F483058F5A1E0E42FF0E052
:100A0000E050FF4F80818A23B1E08A13B0E01B2FB2
:100A100070E07CCF222329F0809136018A2B8093CD
:100A20003601AA0F09F097CF80913601853509F478
:100A3000FEC0863508F054C0883409F4D2C0893429
:100A400008F0C4C0843409F4F6C0873409F454C0F3
:100A5000A1E056CF529810923601A1E063E056CF44
:100A600030E0E42FF0E0E050FF4FE081EA2381E046
:100A700090E0EA1711F080E090E02817390709F0BC
:100A80003FCFAA0F09F067CF4F5F483008F462CF1D
:100A900010923601A1E063E039CF5298852F90E0A3
:100AA000817090702B2F30E082179307B9F0569524
:100AB0008CE85827AA0F09F445C0E42FF0E0E85F5E
:100AC000FE4F80818A23B1E08A13B0E01B2F1ECF36
:100AD00011E0BB2309F41ACF10E018CF5695EACFE6
:100AE000883609F47EC0893608F045C0843609F49A
:100AF000A2C0873609F0ACCF8091080182FDA8CF53
:100B0000809114019091150190930A01809309013D
:100B1000809116019091170190930C0180930B0125
:100B2000809118019091190190930E0180930D010D
:100B300080911A0190911B019093100180930F01F5
:100B4000A1E0DECE4F5F4A3008F082CF493069F035
:100B5000E42FF0E0A1E0B3CF8091080182FF78CFCD
:100B6000886080930801A1E0CBCE50931101E9E0A9
:100B7000F0E0A1E0A4CF8E3B09F46AC0803F09F405
:100B800060C0893609F064CF8091080182FD60CF92
:100B9000809124019091250190930A01809309018D
:100BA000809126019091270190930C0180930B0175
:100BB000809128019091290190930E0180930D015D
:100BC0001092100110920F01A1E09ACE8934E1F247
:100BD0008E3409F03DCF10920801A1E040E067E0BB
:100BE00095CE8091080182FD33CF80911C019091B8
:100BF0001D0190930A018093090180911E0190913B
:100C00001F0190930C0180930B0180912001909122
:100C1000210190930E0180930D018091220190910A
:100C200023019093100180930F01A1E069CEA1E010
:100C300040E065E06BCE8091080182FF91CFA1E09A
:100C40005FCEB0E070E0A1E040E064E010E05ECE96
:100C5000B0910801B1701B2F50E0A1E040E066E0C8
:100C600055CE4F925F926F927F928F929F92AF92EA
:100C7000BF92CF92DF92EF92FF920F931F93DF9379
:100C8000CF93CDB7DEB728970FB6F894DEBF0FBE6F
:100C9000CDBF80E684B980E187B98EEF8AB980E361
:100CA00088B9FCD98FEF90E7A2E081509040A04036
:100CB000E1F700C000001092340182E0809312013D
:100CC00052988093690080E88093610010926100DF
:100CD00010926E0081E08DBB83E085BD80916E0037
:100CE0008E7F80936E00B6DA1092080178946624A5
:100CF00077244301F5E0AF2EB12CAC0EBD1E6E0182
:100D00000894C11CD11CECE04E2EE7E15E2E61146C
:100D100071048104910409F4C3C020910801822F59
:100D200083FFADC081FFD6C070E1E72EF12C109299
:100D30002A0110922B0110922C0110922D01109279
:100D40002E0110922F01109230011092310100E01B
:100D500010E03CC043E0C601B50196DB80912A015A
:100D600090912B01A0912C01B0912D0129813A8104
:100D70004B815C81820F931FA41FB51F80932A01B2
:100D800090932B01A0932C01B0932D0180912E0103
:100D900090912F01A0913001B09131012D813E81C0
:100DA0004F815885820F931FA41FB51F80932E017A
:100DB00090932F01A0933001B09331010F5F1F4F2B
:100DC0000E151F053CF420910801822F80FDC2CF33
:100DD00040E0C1CF2091080121FF2EC080912A015F
:100DE00090912B01A0912C01B0912D0154E0B5956B
:100DF000A795979587955A95D1F780932A01909357
:100E00002B01A0932C01B0932D0180912E01909184
:100E10002F01A0913001B091310144E0B595A79523
:100E2000979587954A95D1F780932E0190932F013E
:100E3000A0933001B093310180912A0190912B0150
:100E4000A0912C01B0912D018093090190930A018A
:100E5000A0930B01B0930C0180912E0190912F0172
:100E6000A0913001B091310180930D0190930E015A
:100E7000A0930F01B0931001277F209308010894DD
:100E80006108710881089108AFE1BEE41197F1F79C
:100E900000C00000611471048104910409F03DCF89
:100EA00020910801822F82958F7090E00196849D99
:100EB0003001859D700C949D700C1124882477FC62
:100EC0008094982C822F22FF2BCF2860209308013A
:100ED000822F26CF61E0E62EF12C29CF629FD00130
:100EE000739FF001829FE00DF11D649FE00DF11DE5
:100EF000929FF00D839FF00D749FF00D659FF00D94
:100F00009927729FB00DE11DF91F639FB00DE11D80
:100F1000F91FBD01CF0111240895AA1BBB1B51E18C
:100F200007C0AA1FBB1FA617B70710F0A61BB70B59
:100F3000881F991F5A95A9F780959095BC01CD01FE
:100F40000895A1E21A2EAA1BBB1BFD010DC0AA1F0A
:100F5000BB1FEE1FFF1FA217B307E407F50720F022
:100F6000A21BB30BE40BF50B661F771F881F991F9D
:100F70001A9469F760957095809590959B01AC01E6
:100F8000BD01CF01089597FB092E05260ED057FD10
:100F900004D0D7DF0AD0001C38F450954095309526
:100FA00021953F4F4F4F5F4F0895F6F790958095ED
:100FB000709561957F4F8F4F9F4F0895F894FFCFA5
:080FC000A2A21084000001C58B
:00000001FF
