:020000020000FC
:0200000097C6A1
:10001E00FFB68F939F93B29920C023FD21E020FD60
:10002E001BC021FD19C02B7F286026FF14C025FFA1
:10003E0003C080916A000AC080916D0090916E009D
:10004E00913029F0933011F091E0892780FD03C0A3
:10005E00BA9A28600FC013C017C021FD06C08827AA
:10006E0083BF9F918F91FFBE18958AED82BF82E06C
:10007E0083BF0FC08CE982BF82E083BF0AC08CE9C8
:10008E0082BF82E083BF05C088E882BF83E083BF62
:10009E0003C08BB78F7B8BBF82E088BF89B782602E
:1000AE0089BFDFCFFFB68F939F9320FD05C021FD43
:1000BE0005C022FD0AC019C022E028C024E0BA9A69
:1000CE008AED82BF83E083BF23C0BA982B7F8BB7A4
:1000DE0080648BBF88E080936C00882780936B00D0
:1000EE008093700080E48ABF09C0BA988BB7806491
:1000FE008BBF23FD02C022E009C00ED0277FB2992C
:10010E0005C088E882BF83E083BF02C0882783BF13
:10011E009F918F91FFBE189580917300806280939E
:10012E007300B29B02C081E001C088278795809141
:10013E006A00879580936A0025FD02C024FD0BD0CE
:10014E0080916C008A9580936C0021F488E08093F6
:10015E006C002ED0089580916B00853521F0809132
:10016E006E00813099F480916A00881F881F9091EB
:10017E006D008927817041F4979590936D00809161
:10018E006B008535A1F002C021E0089590916C00BE
:10019E00939590936C0080916E008A9580936E007B
:1001AE0031F483E080936E009A9590936C000895DD
:1001BE00AF93BF93809173008F7D80937300A09156
:1001CE006800B091690025FD2DC0809170008030CF
:1001DE0009F01AC080917000839580937000809111
:1001EE006A0080936B0020618C3C31F0853551F0B4
:1001FE00803F21F021E03BC020623FC083E080932E
:10020E006E002064A0E6B0E0A83641F480916B0049
:10021E00853511F4206231C021E031C08D9180937B
:10022E006D002DC0809170008130B1F480916A0014
:10023E0080936F008827809397008093960080911B
:10024E006F001FD280916F008A3A89F480917000FE
:10025E008395809370001AC080916F008F30C9F023
:10026E008A3AA1F0853599F0803F91F0FBC48091D8
:10027E00700083958093700002C0A4E7B0E0A09355
:10028E006800B0936900BF91AF9108953DC065C0FD
:10029E00B1C080917000823009F1833031F1A539FF
:1002AE0041F48091960080936A008FEF80939600C0
:1002BE00E6CF80916A008D93E4D1809170008430F6
:1002CE0029F080917300839580937300A53929F4EA
:1002DE0020648091970080936A00C9CF80916A0054
:1002EE008F7F80937100CDD1C2CF80916A008070D4
:1002FE0080937200C6D1809171008F7180937300CC
:10030E009927A80FB91FB3CF206480917000823057
:10031E0079F0833091F08430A9F08C91A53921F4D5
:10032E008FEF80936A00ABCF80936A0011969FCFB8
:10033E008091710080936A009ACF809172008093B1
:10034E006A0095CF8091730080936A00809171004E
:10035E008F719927A80FB91F8ACF90916A0080914B
:10036E007000823041F0833049F0843051F085E5E1
:10037E0080936A0084CF8091710005C080917200D5
:10038E0002C080917300891333C080917000843055
:10039E0071F580917300806880937300CF93DF9323
:1003AE00A0917100B0917200C4E7D0E08A2F8F71D6
:1003BE009927C80FD91F909173009F71981B939521
:1003CE00E199FECF80E08CBBBFBBAEBB119689918D
:1003DE008DBBE29AE19A9A9599F7DF91CF9180E4DD
:1003EE008ABF82E088BF206485E580936A003FCF94
:1003FE0021E045CF809170008230A1F08330B1F0C2
:10040E00AF3F31F4B03021F48FEF80936A0037CFD5
:10041E00E199FECFBFBBAEBBE09A8DB380936A006D
:10042E0011962DCFA0916A00AF7F21CFB0916A00B7
:10043E00B070206480917000839580937000E0CF3F
:10044E0080936000C0E6D0E097E05BD2809195008B
:10045E00809367000895A0E6B0E088278D93A539B4
:10046E00E9F78BB780648BBF85B7816085BF21E0CC
:10047E00C298A5D3789434D2DDD2E4E5F5E0ECD37E
:10048E00812F8C7F49F0ECE0F5E0E6D3312EC2D31C
:10049E0080E2382EB6D3D7D381E0689431D3CC2303
:1004AE0019F4DD2309F408C0A0E6B0E098E08991C4
:1004BE008D939A95E1F710C0E0E2F5E0CDD3E4E03C
:1004CE00F5E0A0E6B0E097E035903D929A95E1F721
:1004DE0080916000B5DF03C0E8E1F5E0BDD3A0E692
:1004EE00B0E098E080E2382E8CD33D9093D39A956D
:1004FE00C9F7A9D30895726C33010000000077315B
:10050E002D6572726F723A20000077312D69643A50
:10051E000000636F6E6E6563742077312D69642001
:10052E0044533234303120746F20504234212C2009
:10053E007573696E672064656661756C74207731BA
:10054E002D69643A0000415454696E793435207730
:0A055E00312D736C6176650D0A0003
:020002000DC02F
:02000A0053C0E1
:10056800EF93FF939F938F93909195008927E0E9EC
:10057800F5E09927E80FF91F8491809395008F91F2
:100588009F91FF91EF910895005EBCE2613FDD838A
:10059800C29C7E20A3FD1F419DC3217FFCA2401E5B
:1005A8005F01E3BD3E6082DC237D9FC1421CFEA04B
:1005B800E1BF5D0380DE3C62BEE0025CDF81633D3B
:1005C8007C22C09E1D43A1FF4618FAA427799BC52B
:1005D80084DA3866E5BB5907DB856739BAE406581B
:1005E8001947A5FB7826C49A653BD987045AB8E60B
:1005F800A7F91B45C6987A24F8A6441A99C7257BFB
:100608003A6486D85B05E7B98CD2306EEDB3510FEA
:100618004E10F2AC2F7193CD114FADF3702ECC92DA
:10062800D38D6F31B2EC0E50AFF1134DCE90722CCA
:100638006D33D18F0C52B0EE326C8ED0530DEFB1BA
:10064800F0AE4C1291CF2D73CA947628ABF51749AA
:100658000856B4EA6937D58B5709EBB536688AD49A
:1006680095CB2977F4AA4816E9B7550B88D6346A8A
:100678002B7597C94A14F6A8742AC896154BA9F77A
:10068800B6E80A54D7896B35EF93FF939F938F93FE
:100698009091960089278F93E2EDF6E09927E80F6D
:1006A800F91F849190919700892780939600E2ED35
:1006B800F7E08F919927E80FF91F849180939700AD
:1006C8008F919F91FF91EF91089500C1814001C0E2
:1006D800804101C0804100C1814001C0804100C10A
:1006E800814000C1814001C0804101C0804100C1FA
:1006F800814000C1814001C0804100C1814001C0EA
:10070800804101C0804100C1814001C0804100C1D9
:10071800814000C1814001C0804100C1814001C0C9
:10072800804101C0804100C1814000C1814001C0B9
:10073800804101C0804100C1814001C0804100C1A9
:10074800814000C1814001C0804101C0804100C199
:10075800814000C1814001C0804100C1814001C089
:10076800804101C0804100C1814000C1814001C079
:10077800804101C0804100C1814001C0804100C169
:10078800814000C1814001C0804100C1814001C059
:10079800804101C0804100C1814001C0804100C149
:1007A800814000C1814001C0804101C0804100C139
:1007B800814000C1814001C0804100C1814001C029
:1007C800804101C0804100C1814000C0C101C30314
:1007D80002C2C60607C705C5C404CC0C0DCD0FCF91
:1007E800CE0E0ACACB0BC90908C8D81819D91BDB01
:1007F800DA1A1EDEDF1FDD1D1CDC14D4D515D71751
:1008080016D6D21213D311D1D010F03031F133F300
:10081800F23236F6F737F53534F43CFCFD3DFF3F50
:100828003EFEFA3A3BFB39F9F83828E8E929EB2B80
:100838002AEAEE2E2FEF2DEDEC2CE42425E527E710
:10084800E62622E2E323E12120E0A06061A163A380
:10085800A26266A6A767A56564A46CACAD6DAF6F10
:100868006EAEAA6A6BAB69A9A86878B8B979BB7B80
:100878007ABABE7E7FBF7DBDBC7CB47475B577B7D0
:10088800B67672B2B373B17170B050909151935300
:10089800529296565797559594549C5C5D9D5F9FD0
:1008A8009E5E5A9A9B5B99595898884849894B8B00
:1008B8008A4A4E8E8F4F8D4D4C8C44848545874790
:1008C80046868242438341818040000000009F9316
:1008D80093E09150F1F79F91815090408823A9F7B8
:1008E8009923A9F708958F939F931127C49A689421
:1008F80017D09FE080EAE9DFE89412D08827809338
:1009080020019F918F910895EF93FF9388278093FB
:100918009500899125DE9A95E1F7FF91EF91089569
:100928008F939F93137FC498BC9A92ED9F9391E005
:1009380080EECBDF9F9116F49150C1F7C49ABC9812
:1009480090E08BE4C2DFB499146091E085E9BDDFE3
:10095800B49B18609F918F9108958F939F93C4982B
:10096800BC9A992783E0B1DF16F4C49ABC989927FA
:100978008AE0ABDFB49BE894B499689499278FE236
:10098800A4DFC49ABC98992781E09FDF9F918F913B
:1009980008959F9398E080FB8F939F93DEDF9F914C
:1009A8008F9188940EF4089487959A95A1F79F9152
:1009B8000895C49ABC9A0895C49ABC9808958F93D0
:1009C8009F93E894ADDF8CE08123A1F580EFE1DF10
:1009D80098E09F9390E89F936894BFDF10F968941C
:1009E800BCDF11F9812F837071F0833021F410611D
:1009F8009F919F911FC08C919F919095892390956D
:100A08008C9310FB06C08C919F918923E89409F47C
:100A180068949F93888188940EF4089487958883B6
:100A28009CDF9F9188949795B1F6219611969F9196
:100A38009A9579F69F918F9108958F939F93AF938D
:100A4800BF93CF93DF93C0EAD0E0A8E9B0E098E085
:100A58008FEF8D939A95E9F70AC08F939927089499
:100A6800991F88948795D8F78F9198279C93A8E920
:100A7800B0E0A5DF8CE08123E1F4C850D04097E0D6
:100A880043DF809195009991891721F01062C85031
:100A9800D04007C080912001839580932001803148
:100AA80041F098E08E918823C1F68FEF8C939A9548
:100AB800C9F7DF91CF91BF91AF919F918F91089521
:100AC8008F939F93CF93DF938F93E89429DF8CE0E4
:100AD800812311F08F9112C0CC2329F4DD2319F45E
:100AE8008CEC57DF09C085E554DF98E09F93899126
:100AF80050DF9F919A95D1F78F914BDFDF91CF917E
:100B08009F918F9108958F939F932EF4C0EAD0E020
:100B18009091200102C09A952896992331F09F93CD
:100B2800988189179F9119F0F6CFCC27DD279F91DF
:100B38008F910895B0991895FFB65FB55B560AF482
:100B480052555EBD016050E458BF59B7506459BF53
:100B58005BB75F7D5BBF50E0152E59E0252EFFBEC9
:100B68001895FFB600FF05C05FB55EBD0E7FFFBEDE
:100B780018958894B099089417942A9431F051E004
:100B8800251659F40260012C08C059B75F7B59BF7C
:100B980050E25ABF5BB750625BBFFFBE1895FFB605
:100BA8000894479410F0C19801C0C19A5A9429F04A
:100BB80051E0551629F40B7F03C059B75F7D59BF23
:100BC800FFBE18958F930027C098C19AB898B99A14
:100BD8008EEA8DBD81E880BF81E085BB8BB78062DE
:100BE8008BBF8F9108958F938FB58BBD0460432C75
:100BF8008AE0582E80E288BFF89489B7806289BF5E
:100C08007894C1988F9108958F9302FDFECF8EE15D
:100C18008A95F1F7E8DF8F9108958F933F9280E3EB
:100C2800382EF2DF88E7382EEFDF8F918F93829589
:100C380004D08F9102D08F9108958F708A3010F070
:100C4800895A01C0805D382EDFDF08958F938DE0CB
:100C5800382EDADF8AE0382ED7DF8F910895359065
:0A0C6800332011F0D1DFFBCF089517
:040004009BC5B1C522
:02001200C9C55E
:100C720080917000823079F48827809321018091DD
:100C82006A0005DD813208F081E28B5F80932201E8
:100C9200853029F1F2CA90912201981B99F1933083
:100CA200D1F0923011F1913001F18091210181FD59
:100CB20005C080916A008D93EADCDFCA943031F47A
:100CC200909122019A959093220109C08D9180936F
:100CD2006A00DDDCD2CA80916A008C93D8DC206481
:100CE2008091960080936A00C8CA80919700809391
:100CF2006A008FEF8093970080917000909122019B
:100D02008913BBCA80912101816080932101809166
:100D12006F008B3A19F0863F09F007C080912101DC
:100D220081FFB3CA88278093210121E0AECA80E8FF
:100D320086BD882786BD95DB82E788DBD3DB8827E3
:100D420080932101809121018E7F80932101A895BA
:100D52008091210180FFFBCF8E7F80932101882724
:100D620083BF8BB78F7B8BBF80916F008F3159F020
:100D7200863569F0863FC9F0863169F08B3A99F081
:100D82008A3669F0DFCF39D032D094D0DBCF3DD074
:100D92002ED090D0D7CF68D02AD08CD0D3CF64D0E9
:100DA20026D088D0CFCF48D001C057D020D082D013
:100DB20099279093970090939600809121018260E9
:100DC20080932101F8949091700080912201890F03
:100DD2008D5F80932201A4E7B0E08D9180936A0039
:100DE200A0936800B0936900789451DCABCF80E4A3
:100DF2008ABF8BB780648BBF089541D0882747DCB8
:100E02008827382E04DF49D0089539D080912201F5
:100E12008550809322018F933ADC382EF8DEA4E7C6
:100E2200B0E08F918F938D9132DC382EF0DE8F916E
:100E32008A95C1F732D0089522D082E028DC382E7C
:100E4200E6DEA4E7B0E08D9122DC382EE0DE8D9163
:100E52001EDC382EDCDE21D0089511D080E017DCB4
:100E6200382ED5DE1AD008950AD081E010DC382E53
:100E7200CEDE8C910CDC382ECADE0FD0089582E0D3
:100E8200382EC5DE88278093960080939700809144
:100E92006F00FDDB382EBBDE089580919600382E60
:100EA200B6DE80919700382EB2DE83E0382EAFDEB8
:100EB200089508952223E9F301FFFCCF0D7F82E01C
:100EC2000812F8CF2223A9F301FFFCCF0D7F992747
:100ED200909397009093960080916F00081237C00C
:100EE200D6DB2223A1F101FFFCCF0D7F802DCFDBCA
:100EF200813268F5A4E7B0E0982F909322019923FC
:100F020051F0222321F101FFFCCF0D7F802DBFDBA9
:100F12008D939A95B1F72223D1F001FFFCCF0D7F7B
:100F2200802D90919600891312C0222381F001FF37
:100F3200FCCF0D7F802D90919700891308C022234A
:100F420031F001FFFCCF0D7F83E0081200C008954D
:00000001FF
