:200000000212937F1B12206D1222457F3C1222B07F0F1222B07F551222B012231890000AD7
:20002000EFF0122318900009EFF0122318BFFFFA7F1C12206DE4FF1202F0227430120358C3
:20004000121238900026EFF074301202E2121238BF100790000BE4F0800D74301202E2123B
:20006000123890000BEFF0E4F8F9FA7B0174301202E2121281121238900025EFF0E4F8F96D
:20008000FA7B0174301202E2121281121238BF100790000DE4F08016E4F8F9FA7B01743083
:2000A0001202E212128112123890000DEFF0E4F8F9FA7B0274301202E21212811212389056
:2000C0000024EFF0E4F8F9FA7B0274301202E2121281121238BF100790000FE4F08016E473
:2000E000F8F9FA7B0274301202E212128112123890000FEFF0E4F8F9FA7B0374301202E298
:20010000121281121238900023EFF0E4F8F9FA7B0374301202E2121281121238BF100790FE
:200120000011E4F08016E4F8F9FA7B0374301202E2121281121238900011EFF0E4F8F9FA0D
:200140007B0474301202E212128112123890000CEFF0E4F8F9FA7B0474301202E21212817D
:200160001212387E00EE3395E0FDFC1213C91202C47C407D237ED77F0A1223DB78407923B2
:200180007AD77B0A12268490001F12125FE4F8F9FA7B0574301202E21212811212387E0033
:2001A000EE3395E0FDFC1213C91202C47C407D237ED77F0A1223DB784079237AD77B0A1264
:2001C000268490001B12125FE4F8F9FA7B0574301202E212128112123890000EEFF0E4F804
:2001E000F9FA7B0674301202E21212811212387E00EE3395E0FDFC1213C91202C47C407DE4
:20020000237ED77F0A1223DB784079237AD77B0A12268490001712125FE4F8F9FA7B0674F9
:20022000301202E2121281121238900010EFF0E4F8F9FA7B0774301202E21212811212382C
:200240007E00EE3395E0FDFC1213C91202C47C407D237ED77F0A1223DB784079237AD77B61
:200260000A12268490001312125FE4F8F9FA7B0774301202E2121281121238900012EFF025
:200280007F011211B07F1912206D1222457F551222B07F1C1222B0E4FF1222B07F4012226A
:2002A000B012231890000AEFF0122318900009EFF0122318EF644060057F1A121F247F1D34
:2002C00012206D22A804A905AA06AB0722E6088601088602088603F822AC0CAD0DAE0EAFF2
:2002E0000F22C88604088605088606088607C8228F307F1712206D1222457FAA1222B0AFAC
:2003000030EF2F25E025E0FF1222B0E4FF1222B0E4F530122318AD07AF307E00740B2FF5D1
:200320008274003EF583EDF005307408653070E312231890000AEFF0122318900009EFF010
:200340007F1812206D22A808A909AA0AAB0B22AC08AD09AE0AAF0B22C8A60408A60508A686
:200360000608A607C822C8F608A60108A60208A603C822A80CA90DAA0EAB0F228E478F4876
:200380007449120366E4F54DF54E74491202E21212388F50054CE54C700E054BE54B7008D6
:2003A000054AE54A70020549E5507007AE4DAF4E020AC9742565506003020AB3E4F551E408
:2003C000F552755301E4F554E4F555E4F55674491202E21212388F50054CE54C700E054B45
:2003E000E54B7008054AE54A70020549AF50EF6463700302083EAF50EF6466700302046B0B
:200400007D66AF50D3EF9D50357D2EAF50C3EF9D5003020AB37D39AF50D3EF9D4003020AA8
:20042000B3AF50900A6EEF2F500205832582F58250020583740193C0E0E493C0E022AF5032
:20044000EF646C70030207C37D6CAF50C3EF9D5003020AB3AF50EF64757003020776AF509D
:1F046000EF64787003020773020AB343511074042546F546AF46AB0778027CFF7DFF7EAC
:200480007FFC121281120AEB7457120358EC30E71074571202E2121E6674571203584351C7
:2004A0000274571202E2EC4D4E4F7006E4F54F02059A74571202E212205AAD07ED30E7045B
:2004C00074FD2DFDEDFF3395E0FE7C007D031212D17C007D0A1220A61F8F4F7D0EAF4FD3CA
:2004E000EF64806305809D402F7F4F85478385488212128E7F5685478385488212128E7F73
:200500004C85478385488212128E7403254EF54EE4354DF54D0203CEAF4FEFF404FFFF3381
:2005200095E0FE740E2FFFE43EFE7E00EF2FFDEE33FCED2DFDEC33FC7E1D7F6CEF2DFFEE01
:200540003CFE8E838F821212FF74571202E21223DB1202C47C3FE4FDFEFF12268474571241
:200560000358784C79BE7ABC7B2074571202E2121EFA20E725783D79CC7ACC7BCD745712D8
:2005800002E21223DB1202C47C3E7DE67E667F661226847457120358054F74571202E2128E
:2005A00013227457120358780079987A967B8074571202E2C31220314015E4F8F9FA7B0AAA
:2005C00074571202E21210B37457120358054F755B00755C0F755D42755E407556017D07D2
:2005E000AF4FC3EF64806305809D4003435108AF51530708EF6003020667AF4FEF20E703E9
:200600000206617DF8AF4FD3EF64806305809D4045AF4FEFFD3395E0FC7E007F08C3EF9D6C
:20062100EE9CFEEF2FFDEE33FCED2DFDEC33FC7E1D7F6CEF2DFFEE3CFE8E838F821212EFC9
:200641001213221202C474571202E21210B374571203588011E4F557F558F559F55A80067B
:200661007401254FF556755308AF52530702EF70030208CBAD567F06C3EF9DFDAF54C3ED5A
:200681009FFF8F0CAF0CEF30E7030208CBAF0CEF3395E0FEEF2FFDEE33FCED2DFDEC33FCCD
:2006A1007E1E7F40EF2DFFEE3CFE8E838F821212FF74571202E212128112125678007998ED
:2006C1007A967B8012034FC31220314030AF51530708EF6013054FE4F8F9FA7B0A12034F44
:2006E1001210B312125680150556E4F8F9FA7B0A745B1202E21225F9745B120358AF0CEF8B
:200701003395E0FEEF2FFDEE33FCED2DFDEC33FC7E1E7F28EF2DFFEE3CFE8E838F821212FC
:20072200745B1202E21210B3745B120358AF0CEF3395E0FEEF2FFDEE33FCED2DFDEC33FC27
:200742007E1E7F28EF2DFFEE3CFE8E838F821212FF12034F1210B37457120358AD56AF5455
:20076200ED2FFF8F53E55470030208CB05530208CB435101AF51530704EF60227404254685
:20078200F546AF46AB0778027CFF7DFF7EFF7FFC121281120AEB745712035802085B054678
:2007A2000546AF46AB0778027CFF7DFF7EFF7FFE121281120B27E4FDFC74571203580208D2
:2007C2005B4351040203CE4352800203CEAF52530780EF70064352040203CEAF5074D02F4B
:2007E200F980297F0AE98FF0A4FB74491202E212123874D02FFF2BF9054CE54C700E054BD0
:20080200E54B7008054AE54A7002054974491202E2121238AD077F30C3ED9F40077F39D35D
:20082200ED9F40BFAF52530780EF600889544352020203CE89554352010203CE05460546D5
:20084200AF46AB0778027CFF7DFF7EFF7FFE121281120B278F50020AB3755B00755C0075E7
:200862005D00755E01AF51530701EF604380117B04745B1202E212257A745B12035805533E
:20088200785B1202CD74571202E21210B3E4F8F9FA7B0FD312203150D6802EE4F8F9FA7B5F
:2008A2000A745B1202E21225F9745B1203580553785B1202CD74571202E21210B3E4F8F984
:2008C200FA7B09D312203150D2AF51530762EF60020553AF52530701EF6028AF5253071499
:2008E200EF7020801515557F2085478385488212128E054EE54E7002054DAD55AF53C3EF89
:200902009D40E2AF51530702EF60047D2D8002E4FDED6013AF0585478385488212128E05F1
:200922004EE54E7002054DAF52530701EF7003020A05AF52530704EF7003020A0580151525
:20094200557F3085478385488212128E054EE54E7002054DAD55AF53C3EF9D40E2020A0571
:20096200AF51530710EF6019E55670137F2E85478385488212128E054EE54E7002054D1589
:2009820056785B1202CD74571202E21210B38F82AF827E00AB07AA06E4F9F8745B1202E2F9
:2009A2001225F91202C474571202E21220237457120358AF8274302FFD7F39D3ED9F400483
:2009C20074272DFDAF0585478385488212128E054EE54E7002054DAF51530701EF60117BCC
:2009E20004745B1202E2122567745B1203588013E4F8F9FA7B0A745B1202E21210B3745B02
:200A0200120358745B1202E2EC4D4E4F6003020962AF51530708EF7003020A85AF5153074D
:200A2200958F547F6585478385488212128E054EE54E7002054DAF544307208F51AF4FEF84
:200A420030E70D435102AF4FEFF404FF8F4F80137F2B85478385488212128E054EE54E7095
:200A620002054DAF4FEF3395E0FE3395E0FDFC7457120358755B00755C00755D00755E0A64
:200A82000208CBAF52530701EF700302038A801515557F2085478385488212128E054EE50C
:200AA2004E7002054DAD55AF53C3EF9D40E202038AAF5085478385488212128E054EE54E49
:200AC2007002054D02038A2207C90AB307CF07DD07DD07DD07DD07DD07DD07DD07DD07DD38
:200AE2008C0C8D0D8E0E8F0F22EC70108F828E83E0FCA3E0FDA3E0FEA3E0FF22D5E0138F00
:200B0200828E8393FC740193FD740293FE740393FF22D5E00FC88F008604088605088606AE
:200B2200088607C822EC700A8F828E83E0FEA3E0FF22D5E00B8F828E8393FE740193FF228E
:200B4200D5E009C88F008606088607C8221213187E197F837C01121E587E197F587C01129B
:200B62001E587E197F097C01121E587E197F027C01121E587E187FFB7C01121E587E187F92
:200B8200F47C01121E587E187FEE7C01121E58020F8A12000390000CE0FFAD077C007F0870
:200BA200ED8FF005F08005C333CC33CCD5F0F8FD90000BE0FF7E00EF2DFBEE3CFA900026E9
:200BC200E0FFAD07E4FCFE7F10C3EF9DFFEE9CFEAE02EB8FF005F08005CEC313CE13D5F05F
:1F0BE200F8FF8E308F31900026E0FF7E00EF2FFDEE33FCED2DFDEC33FC7E187F6DEF2D64
:200C0200EE3CFE8E838F821212EF1213C91202C490001F1212C51220D07432120358AE3024
:200C2200AF31E4FCFD1213C978321202CD1223DB7844797AE4FAFB1223DB74321203587D44
:200C42000C7F0612139F85324285334385344485354585304085314190000BE0FF7E008EDB
:200C62003E8F3F90000CE0FF7E008E3C8F3D90001F1212C58C388D398E3A8F3B900026E08D
:200C83007E008E368F377E187FB17C01121E5890000EE0FFAD077C007F08ED8FF005F08069
:200CA30005C333CC33CCD5F0F8FD90000DE0FF7E00EF2DFBEE3CFA900025E0FFAD07E4FC54
:200CC300FE7F10C3EF9DFFEE9CFEAE02EB8FF005F08005CEC313CE13D5F0F8FF8E308F315B
:200CE300900025E0FF7E00EF2FFDEE33FCED2DFDEC33FC7E187F6DEF2DFFEE3CFE8E838F10
:200D0300821212EF1213C91202C490001B1212C51220D07432120358AE30AF31E4FCFD121F
:200D230013C978321202CD1223DB7844797AE4FAFB1223DB74321203587D0C7F0812139FBA
:200D430085324285334385344485354585304085314190000DE0FF7E008E3E8F3F90000E82
:200D6300E0FF7E008E3C8F3D90001B1212C58C388D398E3A8F3B900025E0FF7E008E368F68
:200D8300377E187FB17C01121E58900010E0FFAD077C007F08ED8FF005F08005C333CC333D
:200DA300CCD5F0F8FD90000FE0FF7E00EF2DFBEE3CFA900024E0FFAD07E4FCFE7F10C3EF0D
:1F0DC3009DFFEE9CFEAE02EB8FF005F08005CEC313CE13D5F0F8FF8E308F31900024E006
:200DE3007E00EF2FFDEE33FCED2DFDEC33FC7E187F6DEF2DFFEE3CFE8E838F821212EF12FC
:200E030013C91202C49000171212C51220D07432120358AE30AF31E4FCFD1213C978321231
:200E230002CD1223DB7844797AE4FAFB1223DB74321203587D0C7F0A12139F85324285339E
:200E43004385344485354585304085314190000FE0FF7E008E3E8F3F900010E0FF7E008E43
:200E63003C8F3D9000171212C58C388D398E3A8F3B900024E0FF7E008E368F377E187FB15A
:200E83007C01121E58900012E0FFAD077C007F08ED8FF005F08005C333CC33CCD5F0F8FDB1
:200EA300900011E0FF7E00EF2DFBEE3CFA900023E0FFAD07E4FCFE7F10C3EF9DFFEE9CFE6D
:200EC300AE02EB8FF005F08005CEC313CE13D5F0F8FF8E308F31900023E0FF7E00EF2FFD91
:200EE300EE33FCED2DFDEC33FC7E187F6DEF2DFFEE3CFE8E838F821212EF1213C91202C4E0
:200F03009000131212C51220D07432120358AE30AF31E4FCFD1213C978321202CD1223DB09
:200F23007844797AE4FAFB1223DB74321203587D0C7F0C12139F85324285334385344485B5
:200F43003545853040853141900011E0FF7E008E3E8F3F900012E0FF7E008E3C8F3D90006B
:200F6300131212C58C388D398E3A8F3B900023E0FF7E008E368F377E187FB17C01121E58F1
:200F83007E017F901212AE020B940210301213187E1A7FD77C01121E587E1A7FA87C01128D
:200FA3001E587E1A7F677C01121E58122042BF65030210331222D87E1A7F247C01121E5809
:200FC300900001E0FF7E008E448F45900002E0FF7E008E428F43900003E0FF7E008E408F9C
:200FE30041900004E0FF7E008E3E8F3F900005E0FF7E008E3C8F3D900006E0FF7E008E3ADF
:201003008F3B900007E0FF7E008E388F39900008E0FF7E008E368F377E197FCC7C01121E73
:20102300587E197FAC7C01121E58122042020F902278007930900000E849600AE4F0A3E9AB
:201043001970F51880F22212204C121318900000740AF07E187F3D7C0112003B803E122599
:201063009B122042AD077F31C3ED9F402F7F39D3ED9F502890103FED2D500205832582F53E
:201083008250020583740193C0E0E493C0E022121E898008120F8D8003120B4F80C0109250
:2010A3001097109C109F109F109F109F109F109FC008C009C00AC00BC00CC00DC00EC00F64
:2010C300C020C021C022C023880C890D8A0E8B0F8C088D098E0A8F0B758200E50C450D4550
:2010E3000E450F7008E4FCFDFEFF0211970582E50C548070267B01AC0CAD0DAE0EAF0F1233
:20110300257AA808A909AA0AAB0B1220316002500A8C0C8D0D8E0E8F0F80D2E4F520F52175
:20112300F522F5237B01AC20AD21AE22AF2312257A8C208D218E228F23A80CA90DAA0EAB8B
:201143000FAC08AD09AE0AAF0B122031401EA80CA90DAA0EAB0FAC08AD09AE0AAF0B1220F6
:20116300238C088D098E0A8F0B4323017B01AC0CAD0DAE0EAF0F1225678C0C8D0D8E0E8F23
:201183000FD582A0AC20AD21AE22AF23A808A909AA0AAB0BD023D022D021D020D00FD00EBB
:2011A300D00DD00CD00BD00AD009D008228F307F1412206D1222457F551222B0AF30EF2FCC
:2011C30025E025E0FF1222B0E4FF1222B0E4F530AF30AD077C007E007F0BEF2DFFEE3CFEF5
:2011E300850683850782E0FF1222B012231890000AEFF0122318900009EFF0122318AB0783
:20120300AF30AD077C007E007F0BEF2DFFEE3CFE850683850782E0FFEB6F60057F15121FF2
:201223002405307D08AF30C3EF9D50030211D37F1612206D22EC70078F828E83E0FF22D5B5
:20124300E0078F828E8393FF22D5E006C88F008607C8228C088D098E0A8F0B22ECF0A3ED5B
:20126300F0A3EEF0A3EFF022EF4BFFEE4AFEED49FDEC48FC22880889098A0A8B0B22EF2BDA
:20128400EE3AFEED39FDEC38FC22C082C08322E5A8C2AF549075815EA881760018B81FFA5A
:2012A400C0E01212C1D0A802104AEF60010E90FF67A3E583458270F9DFF4DEF22212103427
:2012C40022E0FCA3E0FDA3E0FEA3E0FF22C000C001ED8FF0A4F9A8F0ED8EF0A428F8EC8F9B
:2012E400F0A428FEAF01D001D00022E493FC740193FD740293FE740393FF22E493F874012F
:2013040093F9740293FA740393FB22880C890D8A0E8B0F227E147F837C01121E58221212B6
:2013240056E4F812034FE4FFFE53058053047F7B17122567A907E97008E4FCFDFEFF021354
:201344009E12034FE4FFFEFD530480EC4D4E4F6002780112034F53057F7C0043058012127E
:2013640056800C7B0112034F122567121256097F96C3E99F40ED800C7B0112034F12257ADC
:20138400121256197F96D3E99F50EDE8600912034F12207B12125612034F22EDAD07FF7E89
:2013A4000074202FFFE43EFE8E388F39AF057E0074202FFFE43EFE8E368F377E147F7C7C12
:2013C40001121E58221202C4AC00AD01AE02AF03EC4D4E4F7008E4FCFDFEFF02147BAC0065
:2013E400AD01AE02AF03EC30E71375F001AC00AD01AE02AF0312207B1212568006E4F5F02B
:201404001212787996800C097B0112034F12256712125612034FE4FFFEFDEC4D4E4F70E721
:20142400800C7B0112034F12257A1212561912034FE4FFFE5305807C00EC4D4E4F60E31234
:20144400034F53057F7C00121256AF01E4FEFDFC7B1712257A12034612126B1202C4E5F004
:20146400600DEBFFEAFEE9FDE84480FC1202C4AC00AD01AE02AF03221B5925632563001B46
:20148400481B4A000000000000000000FE0008019C0E6D100C000801DB082110C600080175
:2014A4009C3F0B105400080186700A100000000000000000000000000000000000000000C5
:2014C4000000000000000000000000000000000000000000D900000013FAD320000000002F
:2014E4000000000000000000000000000000000000000000000000000000000000000000E8
:201504000000000000000000000000000000000000000000000000000000000000000000C7
:20152400000000000A0A202052657365742064727565636B656E202E2E2E20000A0A0A0AED
:2015440020204665686C6572206265696D204C6573656E2064657320524F4D2D4964656E06
:20156400746966696572733A204B45494E2050726573656E636520766F6D20536C6176650E
:201584002021000A0A53797374656D20616E676568616C74656E20210A0A0700556E67753B
:2015A400656C74696765204665686C65726E756D6D657220617566676574726574656E20C9
:2015C40021004B65696E2050726573656E6365206265696D2053636872656962656E206911
:2015E4006E205061676520332028496E69742D456E6465292021004B65696E205072657359
:20160400656E6365206265696D20537461727420436F6E766572742028456E646529202111
:20162400004B65696E2050726573656E6365206265696D20537461727420436F6E76657252
:20164400742028416E66616E67292021004665686C6572206265696D2052FC636B6C657382
:20166400656E20766F6E205061676520332028496E6974292021004B65696E2050726573A9
:20168400656E6365206265696D2053636872656962656E20696E20506167652033202849C3
:2016A4006E69742D416E662E292021004B65696E2050726573656E6365206265696D204CFC
:2016C4006573656E206175732065696E6572205365697465202832292021004B65696E201A
:2016E40050726573656E6365206265696D204C6573656E206175732065696E657220536569
:20170400697465202831292021004B65696E2050726573656E6365206265696D20536368C9
:2017240072656962656E20696E2065696E65205365697465202832292021004665686C6596
:2017440072206265696D2053636872656962656E202D20527565636B6C6573656E202100E4
:201764004B65696E2050726573656E6365206265696D2053636872656962656E20696E2002
:2017840065696E65205365697465202831292021000A0A2533753A2000000000000000006C
:2017A40000FE0008019C0E6D100C000801DB082110C60008019C3F0B105400080186700AAC
:2017C4001000000000000000000000000000000000000000000000000000000000000000F5
:2017E400000000000000000000D900000013FAD3200000000000000000000000000000000C
:201804000000000000000000000000000000000000000000000000000000000000000000C4
:20182400000000000000000000000000000000000000000000000000000808080801010181
:201844000108080A0A010101010A0A0A0A01010101020304050101010110101010010101DA
:20186400010808080800000000000000010000000200000004000000080000001000000024
:20188400200000004000000080000001000000020000000400000008000000100000002025
:2018A4000000004000000080000001000025327520202020202025342E3266202020202018
:2018C4002020202533752020202020202533752020202020202025357520202020202020BB
:2018E4002020202025382E3366000A20202044000A202020430A000A202020420A000A20FB
:201904002020410A0020204B616E616C202020204175666C2E20202055726566202F205624
:20192400202020204D53427974652020204C53427974652020204469672E5765727428648C
:20194400657A2920202020416E616C6F67202F206D560A003D3D3D3D3D3D3D3D3D3D3D3D91
:201964003D3D3D3D3D3D3D3D3D3D3D3D3D3D3D3D3D3D3D3D3D3D3D3D3D3D3D0A0A0A004492
:20198400656D6F2D4265747269656220667565722065696E656E204453323435306572209E
:2019A400616D204275730A000A0A0A0A4665727469672C2054617374652064727565636B8D
:2019C400656E202E2E2E200020202020202530327820202020202020202020202530327868
:2019E400202530327820253032782025303278202530327820253032782020202020202068
:201A04002020202020202020253032782020202020202020202020202028484558290A00E3
:201A24000A0A0A2020382D4269742043524320202020202034382D4269742053657269613C
:201A44006C204E756D626572202020202020382D4269742046616D696C697920436F6465C3
:201A64000A0A004162667261676520647572636820447275636B20617566205461737465DA
:201A84002C20204265656E64656E2064757263682045696E6761626520766F6E20276527DE
:201AA4003A2020003D3D3D3D3D3D3D3D3D3D3D3D3D3D3D3D3D3D3D3D3D3D3D3D3D3D3D3DFC
:201AC4003D3D3D3D3D3D3D3D3D3D3D3D3D3D3D3D3D0A0053696E676C6520436869703A208B
:201AE4004C6573656E206465732036342042697420524F4D2D4964656E7469666965727315
:201B04000A000A0A576569746572202D2054617374652064727565636B656E202E2E2E208A
:201B24000020205465737420504F53495449563A20204D696E64657374656E732045494EE3
:201B4400455220646120210A00202054657374204E4547415449563A20204B65696E6572D4
:201B640020646120210A002020202020202020202020202020202020202020202020202011
:201B840020202020202020202020202020000A0A5374617274206465732054657374733AB6
:201BA400202054617374652064727565636B656E202E2E2E2000284265656E64656E206448
:201BC400757263682045696E6761626520766F6E2027652729003D3D3D3D3D3D3D3D3D3DB3
:201BE4003D3D3D3D3D3D3D3D3D3D3D3D3D3D3D3D3D3D3D3D3D3D3D3D3D3D3D3D3D3D3D3D41
:201C04003D3D3D3D3D3D3D3D3D3D3D3D0A00312D576972652D52657365743A2054657374BB
:201C24002C206F62204A454D414E4420616D2042757320616E67657363686C6F7373656EEF
:201C4400206973740A000A0A0A0A49687265205761686C3A2020000A0A2020392E20002035
:201C640020352E200A0A002020342E200A0A002020332E2053696E676C65204368697020EC
:201C84002D2044656D6F2D426574726965620A0A002020322E2053696E676C65204368691A
:201CA400703A204C6573656E206465732036342042697420524F4D2D4964656E74696669D3
:201CC4006572730A0A002020312E20312D576972652D52657365743A20546573742C206F09
:201CE40062204A454D414E4420616D2042757320616E67657363686C6F7373656E206973EE
:201D0400740A0A00426974746520776165686C656E205369653A0A0A0A003D3D3D3D3D3D34
:201D24003D3D3D3D3D3D3D3D3D3D3D3D3D3D3D3D3D3D3D3D3D3D3D3D3D3D3D3D3D3D3D0A32
:201D44000A004461732067726F73736520312D57697265202D2044533234353065722D5072
:201D6400726F6A656B740A00322BCC7733D6BF95358637BD3727C5AC38D1B7173A83126F36
:201D84003C23D70A3DCCCCCD3F8000004120000042C80000447A0000461C400047C3500079
:201DA400497424004B1896804CBEBC204E6E6B28501502F951BA43B75368D4A5551184E726
:201DC40056B5E62158635FA95A0E1BCA5BB1A2BC5D5E0B6B5F0AC72360AD78EC6258D727C6
:201DE4006407867865A968166753C21C690459516AA56FA66C4ECB8F6E013F396FA18F0875
:201E04007149F2CA72FC6F7C749DC5AE7645371977F684DF799A130C7B4097CE7CF0BDC253
:201E24007E9676990000000A00000064000003E800002710000186A0000F4240000000052E
:201E440000000032000001F4000013880000C3500000C3507546361202C47E207F1012038B
:201E64007C221202C4AC00AD01AE02AF03EC4D4E4F7007E4FCFDFEFF800AEBFFEAFEE9FDC3
:201E8400E86480FC221213187E1C7F127C01121E587E1B7FDA7C01121E587E1B7FBA7C01A1
:201EA400121E587E1B7F927C01121E5880457D027F0712139F7E1B7F6B7C01121E587D0252
:201EC4007F0712139F122042BF65028028122089EF600B7E1B7F4D7C01121E5880097E1BD1
:201EE4007F257C01121E587E1B7F067C01121E5812204280B922EC6830E702EC22C3EC9881
:201F0400700DED997009EE9A7005EF9B700122500474FF8002740188F030F70264802222A0
:201F24008F318531377536007E177F957C01121E587D14AF31C3EF9D5003021FDB7D1DAF3F
:201F440031D3EF9D4003021FDBAF31901FC7EF2F500205832582F58250020583740193C0A0
:201F6400E0E493C0E0227E177F647C01121E58021FE47E177F3F7C01121E58021FE47E17D0
:201F84007F0E7C01121E58021FE47E167FDF7C01121E58804B7E167FB07C01121E5880405C
:201FA4007E167F7B7C01121E5880357E167F517C01121E58802A7E167F257C01121E588005
:201FC4001F7E157FFB7C01121E5880147E157FC67C01121E5880097E157FA07C01121E581B
:201FE4007E157F877C01121E5880FE1F6A1F761F821F8E1F991FA41FAF1FBA1FC51FD0ABB5
:2020040007E4FF80010FC3EF9B40FA22BF0A083099FDC29975990D3099FDC2998F9922C35E
:20202400EF9BFFEE9AFEED99FDEC98FC22EF9BF5F0EE9A42F0ED9942F0EC9845F0223098E4
:20204400FDAF99C2987E0022759852438920758DFDD28ED29922E4FFFE53058053047F7BFC
:202064001712256774822FFF228F31122089EF6005AF31121F2422E4C39FFFE49EFEE49DF5
:20208400FDE49CFC22C2B47F49122003D2B47F07122003A2B4E433FF8F327F3E122003AF1F
:2020A4003222EC6EC0E0EE30E707E4C39FFFE49EFEEC30E707E4C39DFDE49CFC12235ED0D3
:2020C400E030E707E4C39FFFE49EFE227428120366121256E4F58274281202E2EC4D4E4FC3
:1F20E4007008E4FCFDFEFF02224412034FEC4D4E4F7008E4FCFDFEFF02224412034FE4E7
:20210400FEFD530480EC4D4E4F600375820174281202E2E4FFFEFD530480EC4D4E4F600338
:2021240063820174281202E2E4FFFE53058053047F7B17122567A90712034FE4FFFE530517
:202144008053047F7B17122567C3EF99FF747E2FFF8F8312034F53057F7C00430580120ADE
:20216400E274281202E253057F7C00430580742812035878281202CD1202D9C312203150DF
:202184000D7B011202D912257A120AE21583750801E4F509F50AF50BF52CF52DF52EF52F95
:2021A400804278281202CD1202D9C3122031401E120346742C1202E212126B742C120358DA
:2021C40078281202CD1202D9122023120AE27B011202D912257A120AE27B0112034F12250B
:2021E4006712125612034FEC4D4E4F70B5E4F8F9FA7B01742C1202E2121281121256AF8369
:20220400A907097B0112034F12256753057F7C00121256AF01E4FEFDFC7B1712257A1203D3
:202224004612126B1202C4E582600DEBFFEAFEE9FDE84480FC1202C4AC00AD01AE02AF0325
:2022440022900000E0FFBFFF087FCC1222B00222AF7F551222B0E4F531900000E0FFAD073C
:202264007C007F03ED8FF005F08005C333CC33CCD5F0F8FD7E147F88EF2DFBEE3CFAAF3147
:20228400AD07E4FCFE7F07C3EF9DFFEE9CFEEB2FFFEA3EFE850683850782E493FF1222B097
:2022A400053174086531600302225D228F32753301753408AD33AF32EF5DFF60077F0112AC
:2022C400258C8005E4FF12258CAF33EF2FFF8F33D534E122122089EF60147E157F407C0164
:2022E400121E587E157F287C01121E5880FE7F331222B0E4F530122318AD07AF307E007424
:20230400012FF58274003EF583EDF005307408653070E322E4F531E4F532122347EF601858
:20232400AD327F01EF8DF005F08002C333D5F0FBFDAF31EF4DFF8F3105327408653270DA35
:20234400AF3122C2B4D2B47F06DFFEA2B4E433FF8F337F0D122003AF3322C000C001C002E3
:20236400C003C083C082AA04AB05A806A90775F000EA4B7006E4FEFF0223CE05F0EA5480BE
:202384007017EB2BF582EA33F583D3E58299E583985006AA83AB8280E2E4F583F582E58271
:2023A4002582F582E58333F583C3E99BE89A4008C3E99BF9E89AF8A3EAC313FAEB13FBD5F2
:2023C400F0DCAE83AF82AC00AD01D082D083D003D002D001D00022121278120AE2E4F5826F
:2023E4001202D9EC4D4E4F600912034FEC4D4E4F7008E4FCFDFEFF0225661202D9E4FFFEC6
:20240400FD530480EC4D4E4F600375820112034FE4FFFEFD530480EC4D4E4F60036382017B
:2024240012034FE4FFFE53058053047F7B17122567A9071202D9E4FFFE53058053047F7BCE
:2024440017122567E92FFF74822FFF8F831202D953057F7C00430580120AE212034F5305B4
:202464007F7C0043058074241203587B0874241202E21225671212567B081202D912256759
:202484001203461225F91212567B0874241202E21225671202C41202D9E4FEFDFC1225F9B4
:2024A4007B081225671203461212811212567B081202D91225671202C474241202E2E4FE27
:2024C400FDFC1225F97B08122567120346121281120AE2E4FFFEFD530480EC4D4E4F6011B4
:2024E400E4F8F9FA7B801202D9121281121256800FE4F8F9FA7B401202D9121281121256DD
:2025040012034FE4FFFEFD530480EC4D4E4F600D7B0812034F122567120AE2800D7B0712B7
:20252400034F122567120AE215831202D953057F7C00121256AF83E4FEFDFC7B1712257A07
:2025440012034612126B1202C4E582600DEBFFEAFEE9FDE84480FC1202C4AC00AD01AE029F
:20256400AF0322EB600FECC313FCED13FDEE13FEEF13FFDBF122EB600EEF2FFFEE3EFEEDF3
:202584003DFDEC3CFCDBF222C2B4EF6002D2B47F0D122003D2B4221213187E1D7F467C011A
:2025A400121E587E1D7F1E7C01121E587E1D7F087C01121E587E1C7FCA7C01121E587E1CA9
:2025C4007F957C01121E587E1C7F737C01121E587E1C7F6B7C01121E587E1C7F637C0112B9
:2025E4001E587E1C7F5B7C01121E587E1C7F4A7C01121E5822C008C009C00AC00BEF8BF0CE
:20260400A4F50B85F00AEF8AF0A4250AF50AE5F03400F509EF89F0A42509F509E5F0340010
:20262400F508EF88F0A42508F508EE8BF0A4250AF50AE5F03509F509E5083400F508EE8A82
:20264400F0A42509F509E5F03508F508EE89F0A42508F508ED8BF0A42509F509E5F0350828
:20266400F508ED8AF0A42508F508EC8BF0A42508FCAD09AE0AAF0BD00BD00AD009D0082240
:1F26840012125612130FE4F812034FE4FFFE53058053047F7B171225678FF01202D9E43A
:2026A400FE53058053047F7B17122567A907AF017E0074192FFDE43EFCAFF07E00D3EF9D09
:2026C400EE64806304809C5003E9700612034F022890AFF07E0074192FFDE43EFCAF017EAF
:2026E40000D3EF9DEE64806304809C40061202D902289012034FE4FFFEFD530480EC4D4E95
:202704004F600278011202D9E4FFFEFD530480EC4D4E4F600343000212034F53057F7C00B4
:202724004305801212561202D953057F7C00430580120AE27B0612034F12257A1212567BC2
:20274400061202D912257A120AE2AFF0D3EF99401CAD017C00AFF07E00C3EF9DFFEE9CFE60
:20276400AB071202D9122567120AE28027AFF0C3E5079501501EAFF0AD077C00AF017E0024
:20278400C3EF9DFFEE9CFEAB0712034F12256712125689F0E85401FF600912034F12207B02
:2027A400121256E85402FF60091202D912207B120AE212037312034F121281121256E4F579
:2027C4008212034FE4FFFEFD530480EC4D4E4F600E12034F12207B121256758201801E12E3
:2027E400034FEC4D4E4F7015E4FCFDFEFF0228907B0112034F12257A12125615F012034F20
:20280400E4FFFEFD530440EC4D4E4F60E3E4F8F9FA7B4012034F121281121256E4FFFEFD3B
:20282400530480EC4D4E4F700D7B0112034F12257A12125615F0AFF0A90709097B08120361
:202844004F122567121256EC4D4E4F7007E4FCFDFEFF803812034F53057F7C00121256AF4E
:2028640001E4FEFDFC7B1712257A12034612126B1202C4E582600DEBFFEAFEE9FDE844803B
:0D288400FC1202C4AC00AD01AE02AF032295
:00000001FF
