:20000000020B2DEDAD07FF7E0074202FFFE43EFE8E388F39AF057E0074202FFFE43EFE8E76
:20002000368F377E167F4B7C01120BCB227E167F527C01120BCB22A804A905AA06AB072215
:20004000E6088601088602088603F822AC0CAD0DAE0EAF0F22C886040886050886060886DB
:1F00600007C82290001EE0FFBFFF087FCC1209450200CD7F55120945E4F53190001EE0F7
:20008000AD077C007F03ED8FF005F08005C333CC33CCD5F0F8FD7E0D7F67EF2DFBEE3CFAA1
:2000A000AF31AD07E4FCFE7F07C3EF9DFFEE9CFEEB2FFFEA3EFE850683850782E493FF128F
:2000C0000945053174086531600302007B22A808A909AA0AAB0B22AC08AD09AE0AAF0B229C
:2000E000C8A60408A60508A60608A607C822C8F608A60108A60208A603C822A80CA90DAABC
:200100000EAB0F228E478F4874491200EEE4F54DF54E74491200551208E58F50054CE54C9F
:20012000700E054BE54B7008054AE54A70020549E5507007AE4DAF4E02085174256550605E
:200140000302083BE4F551E4F552755301E4F554E4F555E4F55674491200551208E58F50AD
:20016000054CE54C700E054BE54B7008054AE54A70020549AF50EF646370030205C6AF5055
:20018000EF646670030201F37D66AF50D3EF9D50357D2EAF50C3EF9D500302083B7D39AF81
:2001A00050D3EF9D400302083BAF509007F6EF2F500205832582F58250020583740193C0C4
:2001C000E0E493C0E022AF50EF646C700302054B7D6CAF50C3EF9D500302083BAF50EF6462
:2001E0007570030204FEAF50EF647870030204FB02083B43511074042546F546AF46AB0727
:2002000078027CFF7DFF7EFF7FFC120B1B1208A974571200E0EC30E710745712005512174F
:200220004374571200E04351027457120055EC4D4E4F7006E4F54F02032274571200551217
:200240001766AD07ED30E70474FD2DFDEDFF3395E0FE7C007D031228737C007D0A12232E29
:200260001F8F4F7D0EAF4FD3EF64806305809D402F7F4F854783854882120B287F5685470C
:2002800083854882120B287F4C854783854882120B287403254EF54EE4354DF54D0201566B
:2002A000AF4FEFF404FFFF3395E0FE740E2FFFE43EFE7E00EF2FFDEE33FCED2DFDEC33FCFD
:2002C0007E167F57EF2DFFEE3CFE8E838F82120B88745712005512236A1200377C3FE4FDF4
:2002E000FEFF12183474571200E0784C79BE7ABC7B207457120055120BA120E725783D79D0
:20030000CC7ACC7BCD745712005512236A1200377C3E7DE67E667F6612183474571200E068
:20032000054F7457120055120BD974571200E0780079987A967B807457120055C3121807CA
:200340004015E4F8F9FA7B0A745712005512099C74571200E0054F755B00755C0F755D4236
:20036000755E407556017D07AF4FC3EF64806305809D4003435108AF51530708EF6003026C
:2003800003EFAF4FEF20E7030203E97DF8AF4FD3EF64806305809D4045AF4FEFFD3395E0D1
:2003A000FC7E007F08C3EF9DFFEE9CFEEF2FFDEE33FCED2DFDEC33FC7E167F57EF2DFFEE89
:2003C0003CFE8E838F82120B78120BD9120037745712005512099C74571200E08011E4F5DD
:2003E00057F558F559F55A80067401254FF556755308AF52530702EF7003020653AD567F96
:2004000006C3EF9DFDAF54C3ED9FFF8F0CAF0CEF30E703020653AF0CEF3395E0FEEF2FFD14
:20042000EE33FCED2DFDEC33FC7E177F2BEF2DFFEE3CFE8E838F82120B88745712005512E0
:200440000B1B120AF0780079987A967B801200D7C31218074030AF51530708EF6013054F71
:20046000E4F8F9FA7B0A1200D712099C120AF080150556E4F8F9FA7B0A745B1200551220D0
:1F04800007745B1200E0AF0CEF3395E0FEEF2FFDEE33FCED2DFDEC33FC7E177F13EF2D98
:2004A000EE3CFE8E838F82120B88745B12005512099C745B1200E0AF0CEF3395E0FEEF2F31
:2004C000FDEE33FCED2DFDEC33FC7E177F13EF2DFFEE3CFE8E838F82120B881200D712099B
:2004E0009C74571200E0AD56AF54ED2FFF8F53E55470030206530553020653435101AF5151
:20050000530704EF602274042546F546AF46AB0778027CFF7DFF7EFF7FFC120B1B1208A9E3
:2005200074571200E00205E305460546AF46AB0778027CFF7DFF7EFF7FFE120B1B12088199
:20054000E4FDFC74571200E00205E3435104020156435280020156AF52530780EF70064335
:1F0560005204020156AF5074D02FF980297F0AE98FF0A4FB74491200551208E574D02F93
:200580002BF9054CE54C700E054BE54B7008054AE54A7002054974491200551208E5AD072A
:2005A0007F30C3ED9F40077F39D3ED9F40BFAF52530780EF60088954435202020156895503
:2005C00043520102015605460546AF46AB0778027CFF7DFF7EFF7FFE120B1B1208818F50D2
:2005E00002083B755B00755C00755D00755E01AF51530701EF604380117B04745B1200553C
:20060000122358745B1200E00553785B120040745712005512099CE4F8F9FA7B0FD31218D0
:200620000750D6802EE4F8F9FA7B0A745B120055122007745B1200E00553785B120040746A
:200640005712005512099CE4F8F9FA7B09D312180750D2AF51530762EF60020553AF5253F3
:200660000701EF6028AF52530714EF7020801515557F20854783854882120B28054EE54E06
:200680007002054DAD55AF53C3EF9D40E2AF51530702EF60047D2D8002E4FDED6013AF0551
:2006A000854783854882120B28054EE54E7002054DAF52530701EF700302078DAF5253075E
:2006C00004EF700302078D801515557F30854783854882120B28054EE54E7002054DAD5541
:2006E000AF53C3EF9D40E202078DAF51530710EF6019E55670137F2E854783854882120BF9
:2007000028054EE54E7002054D1556785B120040745712005512099C8F82AF827E00AB077C
:20072000AA06E4F9F8745B120055122007120037745712005512181874571200E0AF8274A6
:20074000302FFD7F39D3ED9F400474272DFDAF05854783854882120B28054EE54E70020589
:200760004DAF51530701EF60117B04745B120055122092745B1200E08013E4F8F9FA7B0A50
:20078000745B12005512099C745B1200E0745B120055EC4D4E4F60030206EAAF51530708E8
:2007A000EF700302080DAF515307958F547F65854783854882120B28054EE54E7002054DDD
:2007C000AF544307208F51AF4FEF30E70D435102AF4FEFF404FF8F4F80137F2B8547838552
:2007E0004882120B28054EE54E7002054DAF4FEF3395E0FE3395E0FDFC74571200E0755BDF
:2008000000755C00755D00755E0A020653AF52530701EF7003020112801515557F208547C0
:2008200083854882120B28054EE54E7002054DAD55AF53C3EF9D40E2020112AF508547837F
:20084000854882120B28054EE54E7002054D020112220551083B05570565056505650565E6
:20086000056505650565056505658C0C8D0D8E0E8F0F228F31120912EF6005AF3112270C72
:2008800022EC700A8F828E83E0FEA3E0FF22D5E00B8F828E8393FE740193FF22D5E009C80A
:2008A0008F008606088607C822EC70108F828E83E0FCA3E0FDA3E0FEA3E0FF22D5E0138F38
:2008C000828E8393FC740193FD740293FE740393FF22D5E00FC88F008604088605088606F3
:2008E000088607C822EC70078F828E83E0FF22D5E0078F828E8393FF22D5E006C88F0086C9
:2009000007C822C2B4EF6002D2B47F0D120B6BD2B422C2B47F49120B6BD2B47F07120B6B83
:20092000A2B4E433FF8F327F3E120B6BAF322278007927900000E849600AE4F0A3E9197016
:20094000F51880F2228F32753301753408AD33AF32EF5DFF60077F011209038005E4FF1250
:200960000903AF33EF2FFF8F33D534E122E4F531E4F532120AD9EF6018AD327F01EF8DF062
:2009800005F08002C333D5F0FBFDAF31EF4DFF8F3105327408653270DAAF3122C008C0092B
:2009A000C00AC00BC00CC00DC00EC00FC02CC02DC02EC02F880C890D8A0E8B0F8C088D0930
:2009C0008E0A8F0B758200E50C450D450E450F7008E4FCFDFEFF020A800582E50C5480706A
:2009E000267B01AC0CAD0DAE0EAF0F122358A808A909AA0AAB0B1218076002500A8C0C8DFE
:200A00000D8E0E8F0F80D2E4F52CF52DF52EF52F7B01AC2CAD2DAE2EAF2F1223588C2C8D15
:200A20002D8E2E8F2FA80CA90DAA0EAB0FAC08AD09AE0AAF0B121807401EA80CA90DAA0EA6
:200A4000AB0FAC08AD09AE0AAF0B1218188C088D098E0A8F0B432F017B01AC0CAD0DAE0E45
:200A6000AF0F1220928C0C8D0D8E0E8F0FD582A0AC2CAD2DAE2EAF2FA808A909AA0AAB0B59
:200A8000D02FD02ED02DD02CD00FD00ED00DD00CD00BD00AD009D00822120912EF60147E54
:200AA000137FEE7C01120BCB7E137FD67C01120BCB80FE7F33120945E4F53012096DAD0731
:200AC000AF307E00741F2FF58274003EF583EDF005307408653070E322C2B4D2B47F06DF5E
:200AE000FEA2B4E433FF8F337F0D120B6BAF33228C088D098E0A8F0B22ECF0A3EDF0A3EE47
:200B0000F0A3EFF022EF4BFFEE4AFEED49FDEC48FC22880889098A0A8B0B22EF2BFFEE3A9E
:200B2000FEED39FDEC38FC22C082C08322E5A8C2AF549075815EA881760018B81FFAC0E04D
:200B4000120B5BD0A802252EEF60010E90FF67A3E583458270F9DFF4DEF22212092F22E0B0
:200B6000FCA3E0FDA3E0FEA3E0FF22AB07E4FF80010FC3EF9B40FA22E493FC740193FD741A
:200B80000293FE740393FF22E493F8740193F9740293FA740393FB22880C890D8A0E8B0FA1
:200BA00022EC6830E702EC22C3EC98700DED997009EE9A7005EF9B700122500474FF800272
:200BC000740188F030F702648022227546361200377E177FF412010422120AF0E4F8120062
:200BE000D7E4FFFE53058053047F7B17122092A907E97008E4FCFDFEFF020C551200D7E41E
:200C0100FEFD530480EC4D4E4F600278011200D753057F7C00430580120AF0800C7B011226
:200C210000D7122092120AF0097F96C3E99F40ED800C7B011200D7122358120AF0197F96BE
:200C4100D3E99F50EDE860091200D7121A41120AF01200D722120037AC00AD01AE02AF0338
:200C6100EC4D4E4F7008E4FCFDFEFF020D08AC00AD01AE02AF03EC30E71375F001AC00ADA3
:200C810001AE02AF03121A41120AF08006E4F5F0120B127996800C097B011200D71220922C
:200CA100120AF01200D7E4FFFEFDEC4D4E4F70E7800C7B011200D7122358120AF01912007E
:200CC100D7E4FFFE5305807C00EC4D4E4F60E31200D753057F7C00120AF0AF01E4FEFDFC1B
:200CE1007B171223581200CE120B05120037E5F0600DEBFFEAFEE9FDE84480FC120037ACF2
:200D010000AD01AE02AF032212002D7E137F107C01120BCB7E127FE87C01120BCB7E127F71
:200D2100D27C01120BCB7E127F947C01120BCB7E127F5F7C01120BCB7E127F3D7C01120BBA
:200D4100CB7E127F357C01120BCB7E127F2D7C01120BCB7E127F257C01120BCB7E127F14C1
:200D61007C01120BCB220000000000000000FE0008019C0E6D100C000801DB082110C600CE
:200D810008019C3F0B105400080186700A10000000000000000000000000000000000000E6
:200DA10000000000000000000000000000000000000000000000D900000013FAD320000059
:200DC100000000000000000000000000000000000000000000000000000000000000000012
:200DE1000000000000000000000000000000000000000000000000000000000000000000F2
:200E0100000000000000080808080101010108080A0A010101010A0A0A0A01010101020354
:200E210004050101010110101010010101010808080800000000000000010000000200003D
:200E4100000400000008000000100000002000000040000000800000010000000200000092
:200E6100040000000800000010000000200000004000000080000001000025327520202048
:200E810020202025342E3266202020202020202025337520202020202025337520202020F8
:200EA100202020253575202020202020202020202025382E3366000A20202044000A202086
:200EC10020430A000A202020420A000A202020410A0020204B616E616C2020202041756676
:200EE1006C2E20202055726566202F2056202020204D53427974652020204C534279746559
:200F01002020204469672E576572742864657A2920202020416E616C6F67202F206D560AEA
:200F2100003D3D3D3D3D3D3D3D3D3D3D3D3D3D3D3D3D3D3D3D3D3D3D3D3D3D3D3D3D3D3D4D
:200F41003D3D3D3D3D3D3D3D0A0A0A0044656D6F2D4265747269656220667565722065695B
:200F61006E656E20445332343530657220616D204275730A000A0A0A0A4665727469672CDF
:200F81002054617374652064727565636B656E202E2E2E2000202020202025303278202015
:200FA10020202020202020202025303278202530327820253032782025303278202530320D
:200FC1007820253032782020202020202020202020202020202530327820202020202020BA
:200FE10020202020202028484558290A000A0A0A2020382D42697420435243202020202076
:201001002034382D4269742053657269616C204E756D626572202020202020382D426974AA
:201021002046616D696C697920436F64650A0A004162667261676520647572636820447261
:2010410075636B206175662054617374652C20204265656E64656E206475726368204569AE
:201061006E6761626520766F6E202765273A2020003D3D3D3D3D3D3D3D3D3D3D3D3D3D3D1F
:201081003D3D3D3D3D3D3D3D3D3D3D3D3D3D3D3D3D3D3D3D3D3D3D3D3D3D3D3D3D3D0A001F
:2010A10053696E676C6520436869703A204C6573656E206465732036342042697420524FF2
:2010C1004D2D4964656E746966696572730A000A0A576569746572202D2054617374652003
:2010E10064727565636B656E202E2E2E200020205465737420504F53495449563A20204DDF
:20110100696E64657374656E732045494E455220646120210A00202054657374204E454764
:20112100415449563A20204B65696E657220646120210A00202020202020202020202020F2
:201141002020202020202020202020202020202020202020202020202020000A0A53746112
:201161007274206465732054657374733A202054617374652064727565636B656E202E2E91
:201181002E2000284265656E64656E2064757263682045696E6761626520766F6E20276507
:2011A1002729003D3D3D3D3D3D3D3D3D3D3D3D3D3D3D3D3D3D3D3D3D3D3D3D3D3D3D3D3DF5
:2011C1003D3D3D3D3D3D3D3D3D3D3D3D3D3D3D3D3D3D3D3D3D3D3D3D3D0A00312D5769727F
:2011E100652D52657365743A20546573742C206F62204A454D414E4420616D20427573201B
:20120100616E67657363686C6F7373656E206973740A000A0A0A0A49687265205761686C8A
:201221003A2020000A0A2020392E20002020352E200A0A002020342E200A0A002020332E0A
:201241002053696E676C652043686970202D2044656D6F2D426574726965620A0A00202037
:20126100322E2053696E676C6520436869703A204C6573656E206465732036342042697471
:2012810020524F4D2D4964656E746966696572730A0A002020312E20312D576972652D5255
:2012A100657365743A20546573742C206F62204A454D414E4420616D2042757320616E6708
:2012C100657363686C6F7373656E206973740A0A00426974746520776165686C656E2053E3
:2012E10069653A0A0A0A003D3D3D3D3D3D3D3D3D3D3D3D3D3D3D3D3D3D3D3D3D3D3D3D3DD2
:201301003D3D3D3D3D3D3D3D3D3D3D3D0A0A004461732067726F73736520312D57697265FC
:20132100202D2044533234353065722D50726F6A656B740A000000000000000000FE0008EA
:20134100019C0E6D100C000801DB082110C60008019C3F0B105400080186700A1000000009
:2013610000000000000000000000000000000000000000000000000000000000000000006C
:201381000000000000D900000013FAD3200000000000000000000000000000000000000073
:2013A10000000000000000000000000000000000000000000000000000000000000000002C
:2013C1000000000000000000000000000000000000000000000A0A20205265736574206431
:2013E100727565636B656E202E2E2E20000A0A0A0A20204665686C6572206265696D204C4E
:201401006573656E2064657320524F4D2D4964656E746966696572733A204B45494E205022
:20142100726573656E636520766F6D20536C6176652021000A0A53797374656D20616E6709
:201441006568616C74656E20210A0A0700556E6775656C74696765204665686C65726E75DC
:201461006D6D657220617566676574726574656E2021004B65696E2050726573656E6365E3
:20148100206265696D2053636872656962656E20696E205061676520332028496E69742DEB
:2014A100456E6465292021004B65696E2050726573656E6365206265696D2053746172747E
:2014C10020436F6E766572742028456E6465292021004B65696E2050726573656E636520E0
:2014E1006265696D20537461727420436F6E766572742028416E66616E6729202100466577
:20150100686C6572206265696D2052FC636B6C6573656E20766F6E20506167652033202864
:20152100496E6974292021004B65696E2050726573656E6365206265696D205363687265FE
:201541006962656E20696E205061676520332028496E69742D416E662E292021004B656936
:201561006E2050726573656E6365206265696D204C6573656E206175732065696E65722017
:201581005365697465202832292021004B65696E2050726573656E6365206265696D204C67
:2015A1006573656E206175732065696E6572205365697465202831292021004B65696E203F
:2015C10050726573656E6365206265696D2053636872656962656E20696E2065696E65208D
:2015E1005365697465202832292021004665686C6572206265696D205363687265696265B4
:201601006E202D20527565636B6C6573656E2021004B65696E2050726573656E636520623E
:2016210065696D2053636872656962656E20696E2065696E65205365697465202831292027
:2016410021000A0A2533753A20001B5925632563001B481B4A00322BCC7733D6BF95358629
:2016610037BD3727C5AC38D1B7173A83126F3C23D70A3DCCCCCD3F8000004120000042C885
:201681000000447A0000461C400047C35000497424004B1896804CBEBC204E6E6B2850159B
:2016A10002F951BA43B75368D4A5551184E756B5E62158635FA95A0E1BCA5BB1A2BC5D5EDD
:2016C1000B6B5F0AC72360AD78EC6258D7276407867865A968166753C21C690459516AA564
:2016E1006FA66C4ECB8F6E013F396FA18F087149F2CA72FC6F7C749DC5AE7645371977F667
:2017010084DF799A130C7B4097CE7CF0BDC27E9676990000000A00000064000003E80000AC
:201721002710000186A0000F42400000000500000032000001F4000013880000C3500000DF
:20174100C350120037AC00AD01AE02AF03EC4D4E4F7007E4FCFDFEFF800AEBFFEAFEE9FD07
:20176100E86480FC22E4FFFE53058053047F7B1712209274822FFF2212002D7E117FDC7CAE
:2017810001120BCB7E117FA47C01120BCB7E117F847C01120BCB7E117F5C7C01120BCB8002
:2017A100457D027F071200037E117F357C01120BCB7D027F071200031217EABF6502802826
:2017C100120912EF600B7E117F177C01120BCB80097E107FEF7C01120BCB7E107FD07C01B3
:2017E100120BCB1217EA80B9223098FDAF99C2987E0022BF0A083099FDC29975990D3099B5
:20180100FDC2998F9922EF9BF5F0EE9A42F0ED9942F0EC9845F022C3EF9BFFEE9AFEED9911
:1F182100FDEC98FC22759852438920758DFDD28ED29922120AF0120B98E4F81200D7E468
:20184100FE53058053047F7B171220928FF012004CE4FFFE53058053047F7B17122092A91A
:2018610007AF017E0074192FFDE43EFCAFF07E00D3EF9DEE64806304809C5003E9700612C6
:2018810000D7021A40AFF07E0074192FFDE43EFCAF017E00D3EF9DEE64806304809C4006F8
:2018A10012004C021A401200D7E4FFFEFD530480EC4D4E4F6002780112004CE4FFFEFD538F
:2018C1000480EC4D4E4F60034300021200D753057F7C00430580120AF012004C53057F7C44
:2018E1000043058012086A7B061200D7122358120AF07B0612004C12235812086AAFF0D336
:20190100EF99401CAD017C00AFF07E00C3EF9DFFEE9CFEAB0712004C12209212086A8027C6
:20192100AFF0C3E5079501501EAFF0AD077C00AF017E00C3EF9DFFEE9CFEAB071200D712D4
:201941002092120AF089F0E85401FF60091200D7121A41120AF0E85402FF600912004C1232
:201961001A4112086A1200FB1200D7120B1B120AF0E4F5821200D7E4FFFEFD530480EC4D1B
:1F1981004E4F600E1200D7121A41120AF0758201801E1200D7EC4D4E4F7015E4FCFDFE25
:2019A100021A407B011200D7122358120AF015F01200D7E4FFFEFD530440EC4D4E4F60E350
:2019C100E4F8F9FA7B401200D7120B1B120AF0E4FFFEFD530480EC4D4E4F700D7B011200B9
:2019E100D7122358120AF015F0AFF0A90709097B081200D7122092120AF0EC4D4E4F700787
:201A0100E4FCFDFEFF80381200D753057F7C00120AF0AF01E4FEFDFC7B171223581200CE61
:201A2100120B05120037E582600DEBFFEAFEE9FDE84480FC120037AC00AD01AE02AF0322DF
:201A4100E4C39FFFE49EFEE49DFDE49CFC22021AF212002D7E107FA17C01120BCB7E107F37
:201A6100727C01120BCB7E107F317C01120BCB1217EABF6503021AF5120A997E0F7FEE7C75
:201A810001120BCB90001FE0FF7E008E448F45900020E0FF7E008E428F43900021E0FF7EED
:1F1AA100008E408F41900022E0FF7E008E3E8F3F900023E0FF7E008E3C8F3D900024E0A5
:201AC1007E008E3A8F3B900025E0FF7E008E388F39900026E0FF7E008E368F377E0F7F9616
:201AE1007C01120BCB7E0F7F767C01120BCB1217EA021A522212002D7E0F7F4D7C01120BC4
:201B0100CB7E0F7F227C01120BCB7E0E7FD37C01120BCB7E0E7FCC7C01120BCB7E0E7FC517
:201B21007C01120BCB7E0E7FBE7C01120BCB7E0E7FB87C01120BCB021F311224F6900003D8
:201B4100E0FFAD077C007F08ED8FF005F08005C333CC33CCD5F0F8FD900002E0FF7E00EFAF
:201B61002DFBEE3CFA90001DE0FFAD07E4FCFE7F10C3EF9DFFEE9CFEAE02EB8FF005F08006
:201B810005CEC313CE13D5F0F8FF8E308F3190001DE0FF7E00EF2FFDEE33FCED2DFDEC3308
:201BA100FC7E0E7F37EF2DFFEE3CFE8E838F82120B78120C56120037900016120B5F1225D6
:201BC1009774321200E0AE30AF31E4FCFD120C56783212004012236A7844797AE4FAFB1291
:201BE100236A74321200E07D0C7F06120003853242853343853444853545853040853141C0
:201C0100900002E0FF7E008E3E8F3F900003E0FF7E008E3C8F3D900016120B5F8C388D3908
:201C21008E3A8F3B90001DE0FF7E008E368F377E0E7F7B7C01120BCB900005E0FFAD077CEE
:201C4100007F08ED8FF005F08005C333CC33CCD5F0F8FD900004E0FF7E00EF2DFBEE3CFA6F
:201C610090001CE0FFAD07E4FCFE7F10C3EF9DFFEE9CFEAE02EB8FF005F08005CEC313CEDB
:201C810013D5F0F8FF8E308F3190001CE0FF7E00EF2FFDEE33FCED2DFDEC33FC7E0E7F3741
:201CA100EF2DFFEE3CFE8E838F82120B78120C56120037900012120B5F12259774321200C8
:201CC100E0AE30AF31E4FCFD120C56783212004012236A7844797AE4FAFB12236A7432129A
:1F1CE10000E07D0C7F08120003853242853343853444853545853040853141900004E08F
:201D01007E008E3E8F3F900005E0FF7E008E3C8F3D900012120B5F8C388D398E3A8F3B9058
:201D2100001CE0FF7E008E368F377E0E7F7B7C01120BCB900007E0FFAD077C007F08ED8F0B
:1F1D4100F005F08005C333CC33CCD5F0F8FD900006E0FF7E00EF2DFBEE3CFA90001BE0E5
:1F1D6100AD07E4FCFE7F10C3EF9DFFEE9CFEAE02EB8FF005F08005CEC313CE13D5F0F896
:201D81008E308F3190001BE0FF7E00EF2FFDEE33FCED2DFDEC33FC7E0E7F37EF2DFFEE3CCB
:201DA100FE8E838F82120B78120C5612003790000E120B5F12259774321200E0AE30AF3172
:201DC100E4FCFD120C56783212004012236A7844797AE4FAFB12236A74321200E07D0C7F4F
:201DE1000A120003853242853343853444853545853040853141900006E0FF7E008E3E8F99
:201E01003F900007E0FF7E008E3C8F3D90000E120B5F8C388D398E3A8F3B90001BE0FF7EBA
:201E2100008E368F377E0E7F7B7C01120BCB900009E0FFAD077C007F08ED8FF005F0800517
:201E4100C333CC33CCD5F0F8FD900008E0FF7E00EF2DFBEE3CFA90001AE0FFAD07E4FCFEBB
:201E61007F10C3EF9DFFEE9CFEAE02EB8FF005F08005CEC313CE13D5F0F8FF8E308F319019
:201E8100001AE0FF7E00EF2FFDEE33FCED2DFDEC33FC7E0E7F37EF2DFFEE3CFE8E838F82B9
:201EA100120B78120C5612003790000A120B5F12259774321200E0AE30AF31E4FCFD120C9A
:201EC10056783212004012236A7844797AE4FAFB12236A74321200E07D0C7F0C12000385A3
:201EE1003242853343853444853545853040853141900008E0FF7E008E3E8F3F900009E082
:201F02007E008E3C8F3D90000A120B5F8C388D398E3A8F3B90001AE0FF7E008E368F377E6A
:201F22000E7F7B7C01120BCB7E017F90120B48021B3B8F307F171208731200637FAA12094C
:201F420045AF30EF2F25E025E0FF120945E4FF120945E4F53012096DAD07AF307E00740279
:201F62002FF58274003EF583EDF005307408653070E312096D900001EFF012096D90000009
:201F8200EFF07F1812087322C000C001C002C003C083C082AA04AB05A806A90775F000EA84
:201FA2004B7006E4FEFF021FFA05F0EA54807017EB2BF582EA33F583D3E58299E5839850E3
:201FC20006AA83AB8280E2E4F583F582E5822582F582E58333F583C3E99BE89A4008C3E915
:201FE2009BF9E89AF8A3EAC313FAEB13FBD5F0DCAE83AF82AC00AD01D082D083D003D002D4
:20200200D001D00022C008C009C00AC00BEF8BF0A4F50B85F00AEF8AF0A4250AF50AE5F038
:202022003400F509EF89F0A42509F509E5F03400F508EF88F0A42508F508EE8BF0A4250ABD
:20204200F50AE5F03509F509E5083400F508EE8AF0A42509F509E5F03508F508EE89F0A4FE
:202062002508F508ED8BF0A42509F509E5F03508F508ED8AF0A42508F508EC8BF0A4250880
:1F208200FCAD09AE0AAF0BD00BD00AD009D00822EB600FECC313FCED13FDEE13FEEF137D
:2020A200DBF12274301200E01208E590001DEFF074301200551208E5BF1007900002E4F0C9
:2020C200800D74301200551208E5900002EFF0E4F8F9FA7B017430120055120B1B1208E569
:2020E20090001CEFF0E4F8F9FA7B017430120055120B1B1208E5BF1007900004E4F08016F2
:20210200E4F8F9FA7B017430120055120B1B1208E5900004EFF0E4F8F9FA7B0274301200BB
:2021220055120B1B1208E590001BEFF0E4F8F9FA7B027430120055120B1B1208E5BF100723
:20214200900006E4F08016E4F8F9FA7B027430120055120B1B1208E5900006EFF0E4F8F9A5
:20216200FA7B037430120055120B1B1208E590001AEFF0E4F8F9FA7B037430120055120BA5
:202182001B1208E5BF1007900008E4F08016E4F8F9FA7B037430120055120B1B1208E5902C
:2021A2000008EFF0E4F8F9FA7B047430120055120B1B1208E5900003EFF0E4F8F9FA7B04E6
:2021C2007430120055120B1B1208E57E00EE3395E0FDFC120C561200377C407D237ED77FC1
:2021E2000A12236A784079237AD77B0A121834900016120AF9E4F8F9FA7B05743012005597
:20220200120B1B1208E57E00EE3395E0FDFC120C561200377C407D237ED77F0A12236A786A
:202222004079237AD77B0A121834900012120AF9E4F8F9FA7B057430120055120B1B120829
:20224200E5900005EFF0E4F8F9FA7B067430120055120B1B1208E57E00EE3395E0FDFC1272
:202262000C561200377C407D237ED77F0A12236A784079237AD77B0A12183490000E120A96
:20228200F9E4F8F9FA7B067430120055120B1B1208E5900007EFF0E4F8F9FA7B0774301234
:2022A2000055120B1B1208E57E00EE3395E0FDFC120C561200377C407D237ED77F0A122357
:2022C2006A784079237AD77B0A12183490000A120AF9E4F8F9FA7B077430120055120B1BC7
:2022E2001208E5900009EFF07F011227EB7F191208731200637F551209457F1C120945E414
:202303001209457F4012094512096D900001EFF012096D900000EFF012096DEF64406005CC
:202323007F1A12270C7F1D12087322EC6EC0E0EE30E707E4C39FFFE49EFEEC30E707E4C3F5
:202343009DFDE49CFC121F8AD0E030E707E4C39FFFE49EFE22EB600EEF2FFFEE3EFEED3D2A
:20236300FDEC3CFCDBF222120B1212086AE4F58212004CEC4D4E4F60091200D7EC4D4E4FE0
:202383007008E4FCFDFEFF0224F512004CE4FFFEFD530480EC4D4E4F60037582011200D7A0
:2023A300E4FFFEFD530480EC4D4E4F60036382011200D7E4FFFE53058053047F7B1712200A
:2023C30092A90712004CE4FFFE53058053047F7B17122092E92FFF74822FFF8F8312004CCA
:2023E30053057F7C0043058012086A1200D753057F7C0043058074281200E07B0874281278
:202403000055122092120AF07B0812004C1220921200CE122007120AF07B08742812005544
:2024230012209212003712004CE4FEFDFC1220077B081220921200CE120B1B120AF07B082C
:2024430012004C1220921200377428120055E4FEFDFC1220077B081220921200CE120B1B98
:2024630012086AE4FFFEFD530480EC4D4E4F6011E4F8F9FA7B8012004C120B1B120AF080ED
:202483000FE4F8F9FA7B4012004C120B1B120AF01200D7E4FFFEFD530480EC4D4E4F600D1D
:2024A3007B081200D712209212086A800D7B071200D712209212086A158312004C53057F58
:2024C3007C00120AF0AF83E4FEFDFC7B171223581200CE120B05120037E582600DEBFFEA52
:2024E300FEE9FDE84480FC120037AC00AD01AE02AF03227F1B1208731200637F3C1209456F
:202503007F0F120945E4FF12094512096D900001EFF012096D900000EFF012096DBFFFFA58
:202523007F1C120873E4FF121F342212182612002D90001E740AF07E0E7F177C011220A5E5
:20254300803E120D091217EAAD077F31C3ED9F402F7F39D3ED9F5028902523ED2D50020585
:20256300832582F58250020583740193C0E0E493C0E0221217798008121A4F8003121AF6B2
:2025830080C02576257B258025832583258325832583258374201200EE120AF0E4F58274B9
:1F25A30020120055EC4D4E4F7008E4FCFDFEFF02270B1200D7EC4D4E4F7008E4FCFDFE24
:2025C30002270B1200D7E4FFFEFD530480EC4D4E4F60037582017420120055E4FFFEFD53C9
:2025E3000480EC4D4E4F60036382017420120055E4FFFE53058053047F7B17122092A907A5
:202603001200D7E4FFFE53058053047F7B17122092C3EF99FF747E2FFF8F831200D753052C
:202623007F7C0043058012086A742012005553057F7C0043058074201200E07820120040CA
:2026430012004CC3121807500D7B0112004C12235812086A1583750801E4F509F50AF50BE6
:20266300F524F525F526F5278042782012004012004CC3121807401E1200CE7424120055B2
:20268300120B0574241200E0782012004012004C12181812086A7B0112004C1223581208FC
:2026A3006A7B011200D7122092120AF01200D7EC4D4E4F70B5E4F8F9FA7B0174241200554A
:2026C300120B1B120AF0AF83A907097B011200D712209253057F7C00120AF0AF01E4FEFDB1
:2026E300FC7B171223581200CE120B05120037E582600DEBFFEAFEE9FDE84480FC120037F4
:20270300AC00AD01AE02AF03228F318531377536007E167F437C01120BCB7D14AF31C3EFA2
:202723009D50030227C37D1DAF31D3EF9D40030227C3AF319027AFEF2F500205832582F5D8
:202743008250020583740193C0E0E493C0E0227E167F127C01120BCB0227CC7E157FED7C3F
:2027630001120BCB0227CC7E157FBC7C01120BCB0227CC7E157F8D7C01120BCB804B7E15EE
:202783007F5E7C01120BCB80407E157F297C01120BCB80357E147FFF7C01120BCB802A7E42
:2027A300147FD37C01120BCB801F7E147FA97C01120BCB80147E147F747C01120BCB800986
:2027C3007E147F4E7C01120BCB7E147F357C01120BCB80FE2752275E276A27762781278C82
:1F27E300279727A227AD27B88F307F141208731200637F55120945AF30EF2F25E025E00E
:20280300120945E4FF120945E4F530AF30AD077C007E007F02EF2DFFEE3CFE85068385071E
:2028230082E0FF12094512096D900001EFF012096D900000EFF012096DAB07AF30AD077C9C
:20284300007E007F02EF2DFFEE3CFE850683850782E0FFEB6F60057F1512270C05307D08E6
:20286300AF30C3EF9D500302280E7F1612087322C000C001ED8FF0A4F9A8F0ED8EF0A428FF
:0E288300F8EC8FF0A428FEAF01D001D00022A7
:00000001FF
