:20000000020100742A121005E4F50EF50FE4F50C852A08852B09852C0A852D0BE4F8F9FA91
:200020007B011201711200D8742A1210051201711211F0AB07E50C700DEB64206003BB09C4
:200040000280CD750C017401650C7010BB2D05750C8080BC750C02BB2B0280B47F30C3EB43
:200060009F40077F39D3EB9F400280287E007F0AAC0EAD0F12115BAC06AD07AF037E007496
:20008000D02FFF74FF3EFEEF2DFFEE3CFE8E0E8F0F020010AF0C7E00EF64804E700DAE0E91
:2000A000AF0FC3E49FFDE49EFC8004AC0EAD0FAE04AF05228C0C8D0D8E0E8F0F228C088D90
:2000C000098E0A8F0B22880889098A0A8B0B22880C890D8A0E8B0F22EF2BFFEE3AFEED3972
:2000E000FDEC38FC22C082C08322EF4BFFEE4AFEED49FDEC48FC22A808A909AA0AAB0B2238
:20010000E5A8C2AF549075815EA881760018B81FFAC0E012016DD0A80217A178007911903D
:200120000000E849600AE4F0A3E91970F51880F222EF60010E90FF67A3E583458270F9DF2C
:20014000F4DEF222A80CA90DAA0EAB0F22E493FC740193FD740293FE740393FF22E493F8A2
:20016000740193F9740293FA740393FB2212011B22AC08AD09AE0AAF0B228E438F447445A9
:20018000121021E4F549F54A74451210131211F08F4C0548E548700E0547E54770080546AC
:2001A000E54670020545E54C7007AE49AF4A0208C77425654C60030208B1E4F54DE4F54E3A
:2001C000754F01E4F550E4F551E4F55274451210131211F08F4C0548E548700E0547E54790
:2001E00070080546E54670020545AF4CEF6463700302063CAF4CEF646670030202697D6676
:20020000AF4CD3EF9D50357D2EAF4CC3EF9D50030208B17D39AF4CD3EF9D40030208B1AF3F
:200220004C90086CEF2F500205832582F58250020583740193C0E0E493C0E022AF4CEF644F
:200240006C70030205C17D6CAF4CC3EF9D50030208B1AF4CEF64757003020574AF4CEF64B7
:200260007870030205710208B1434D1074042542F542AF42AB0778027CFF7DFF7EFF7FFC9E
:200280001200D812118C7453121005EC30E71074531210131208E07453121005434D0274DA
:2002A00053121013EC4D4E4F7006E4F54B0203987453121013120ECFAD07ED30E70474FD91
:2002C0002DFDEDFF3395E0FE7C007D0312115B7C007D0A120DDA1F8F4B7D0EAF4BD3EF6448
:2002E000806305809D402F7F4F8543838544821200E57F568543838544821200E57F4C857D
:2003000043838544821200E57403254AF54AE43549F5490201CCAF4BEFF404FFFF3395E0BA
:20032000FE740E2FFFE43EFE7E00EF2FFDEE33FCED2DFDEC33FC7E277FCEEF2DFFEE3CFED2
:200340008E838F8212015D7453121013120BD112112B7C3FE4FDFEFF12090374531210052E
:20036000784C79BE7ABC7B207453121013120EE220E725783D79CC7ACC7BCD745312101303
:20038000120BD112112B7C3E7DE67E667F661209037453121005054B7453121013120D5D67
:2003A0007453121005780079987A967B807453121013C3120E334015E4F8F9FA7B0A745339
:2003C00012101312102E7453121005054B75570075580F755942755A407552017D07AF4B4D
:2003E000C3EF64806305809D4003434D08AF4D530708EF6003020465AF4BEF20E7030204F3
:200400005F7DF8AF4BD3EF64806305809D4045AF4BEFFD3395E0FC7E007F08C3EF9DFFEE93
:200420009CFEEF2FFDEE33FCED2DFDEC33FC7E277FCEEF2DFFEE3CFE8E838F8212014D12EF
:200440000D5D12112B745312101312102E74531210058011E4F553F554F555F55680067415
:2004600001254BF552754F08AF4E530702EF70030206C9AD527F06C3EF9DFDAF50C3ED9F4E
:200481008F0CAF0CEF30E7030206C9AF0CEF3395E0FEEF2FFDEE33FCED2DFDEC33FC7E28CB
:2004A1007FA2EF2DFFEE3CFE8E838F8212015D74531210131200D81200BD780079987A96F7
:2004C1007B80120171C3120E334030AF4D530708EF6013054BE4F8F9FA7B0A12017112100C
:2004E1002E1200BD80150552E4F8F9FA7B0A7457121013120E447457121005AF0CEF3395F6
:20050100E0FEEF2FFDEE33FCED2DFDEC33FC7E287F8AEF2DFFEE3CFE8E838F8212015D749A
:200521005712101312102E7457121005AF0CEF3395E0FEEF2FFDEE33FCED2DFDEC33FC7EB4
:20054100287F8AEF2DFFEE3CFE8E838F8212015D12017112102E7453121005AD52AF50EDE7
:200561002FFF8F4FE55070030206C9054F0206C9434D01AF4D530704EF602274042542F5A0
:2005810042AF42AB0778027CFF7DFF7EFF7FFC1200D812118C7453121005020659054205D8
:2005A10042AF42AB0778027CFF7DFF7EFF7FFE1200D81211C8E4FDFC7453121005020659E9
:2005C100434D040201CC434E800201CCAF4E530780EF7006434E040201CCAF4C74D02FF9D0
:2005E10080297F0AE98FF0A4FB74451210131211F074D02FFF2BF90548E548700E0547E501
:200601004770080546E5467002054574451210131211F0AD077F30C3ED9F40077F39D3ED76
:200621009F40BFAF4E530780EF60088950434E020201CC8951434E010201CC05420542AF3A
:2006410042AB0778027CFF7DFF7EFF7FFE1200D81211C88F4C0208B1755700755800755968
:2006610000755A01AF4D530701EF604380117B0474571210131211497457121005054F7886
:2006810057121134745312101312102EE4F8F9FA7B0FD3120E3350D6802EE4F8F9FA7B0AB8
:2006A1007457121013120E447457121005054F7857121134745312101312102EE4F8F9FA4E
:2006C1007B09D3120E3350D2AF4D530762EF6002054FAF4E530701EF6028AF4E530714EFC7
:2006E1007020801515517F208543838544821200E5054AE54A70020549AD51AF4FC3EF9DB9
:2007010040E2AF4D530702EF60047D2D8002E4FDED6013AF058543838544821200E5054A0E
:20072100E54A70020549AF4E530701EF7003020803AF4E530704EF7003020803801515513D
:200741007F308543838544821200E5054AE54A70020549AD51AF4FC3EF9D40E2020803AFF5
:200761004D530710EF6019E55270137F2E8543838544821200E5054AE54A700205491552C0
:200781007857121134745312101312102E8F82AF827E00AB07AA06E4F9F8745712101312DD
:2007A1000E4412112B7453121013120E177453121005AF8274302FFD7F39D3ED9F400474A7
:2007C100272DFDAF058543838544821200E5054AE54A70020549AF4D530701EF60117B0412
:2007E100745712101312117974571210058013E4F8F9FA7B0A745712101312102E74571256
:2008010010057457121013EC4D4E4F6003020760AF4D530708EF7003020883AF4D530795E8
:200821008F507F658543838544821200E5054AE54A70020549AF504307208F4DAF4BEF30CB
:20084100E70D434D02AF4BEFF404FF8F4B80137F2B8543838544821200E5054AE54A70029D
:200861000549AF4BEF3395E0FE3395E0FDFC7453121005755700755800755900755A0A02C9
:2008810006C9AF4E530701EF7003020188801515517F208543838544821200E5054AE54A9E
:2008A10070020549AD51AF4FC3EF9D40E2020188AF4C8543838544821200E5054AE54A7009
:2008C1000205490201882205C708B105CD05DB05DB05DB05DB05DB05DB05DB05DB05DB12D1
:2008E100112BAC00AD01AE02AF03EC4D4E4F7007E4FCFDFEFF800AEBFFEAFEE9FDE86480CA
:20090100FC221200BD1200CFE4F8120171E4FFFE53058053047F7B171211798FF012114009
:20092100E4FFFE53058053047F7B17121179A907AF017E0074192FFDE43EFCAFF07E00D354
:20094100EF9DEE64806304809C5003E97006120171020B0FAFF07E0074192FFDE43EFCAFC0
:20096100017E00D3EF9DEE64806304809C4006121140020B0F120171E4FFFEFD530480EC59
:200981004D4E4F60027801121140E4FFFEFD530480EC4D4E4F600343000212017153057FA0
:2009A1007C004305801200BD12114053057F7C004305801200B47B0612017112114912005C
:2009C100BD7B061211401211491200B4AFF0D3EF99401CAD017C00AFF07E00C3EF9DFFEE6A
:2009E1009CFEAB071211401211791200B48027AFF0C3E5079501501EAFF0AD077C00AF016D
:200A01007E00C3EF9DFFEE9CFEAB071201711211791200BD89F0E85401FF6009120171122C
:200A21000E251200BDE85402FF6009121140120E251200B41201441201711200D81200BD0B
:200A4100E4F582120171E4FFFEFD530480EC4D4E4F600E120171120E251200BD75820180AD
:200A61001E120171EC4D4E4F7015E4FCFDFEFF020B0F7B011201711211491200BD15F01230
:1F0A81000171E4FFFEFD530440EC4D4E4F60E3E4F8F9FA7B401201711200D81200BDE4AB
:200AA100FEFD530480EC4D4E4F700D7B011201711211491200BD15F0AFF0A90709097B08EC
:200AC1001201711211791200BDEC4D4E4F7007E4FCFDFEFF803812017153057F7C0012005E
:200AE100BDAF01E4FEFDFC7B171211491200F71200EA12112BE582600DEBFFEAFEE9FDE8E8
:200B01004480FC12112BAC00AD01AE02AF032212112BAC00AD01AE02AF03EC4D4E4F700890
:200B2100E4FCFDFEFF020BC2AC00AD01AE02AF03EC30E71375F001AC00AD01AE02AF031205
:200B41000E251200BD8006E4F5F01200C67996800C097B011201711211791200BD120171D8
:200B6100E4FFFEFDEC4D4E4F70E7800C7B011201711211491200BD19120171E4FFFE5305CC
:200B8100807C00EC4D4E4F60E312017153057F7C001200BDAF01E4FEFDFC7B1712114912FE
:200BA10000F71200EA12112BE5F0600DEBFFEAFEE9FDE84480FC12112BAC00AD01AE02AF4A
:200BC100032275423012112B7E0E7F0412017A221200C61200B4E4F582121140EC4D4E4FCA
:200BE1006009120171EC4D4E4F7008E4FCFDFEFF020D5C121140E4FFFEFD530480EC4D4ED5
:200C01004F6003758201120171E4FFFEFD530480EC4D4E4F6003638201120171E4FFFE5319
:1F0C2100058053047F7B17121179A907121140E4FFFE53058053047F7B17121179E92F43
:200C410074822FFF8F8312114053057F7C004305801200B412017153057F7C004305807406
:200C6100201210057B0874201210131211791200BD7B081211401211791200F7120E441274
:200C810000BD7B08742012101312117912112B121140E4FEFDFC120E447B0812117912008D
:200CA100F71200D81200BD7B0812114012117912112B7420121013E4FEFDFC120E447B0828
:200CC1001211791200F71200D81200B4E4FFFEFD530480EC4D4E4F6011E4F8F9FA7B8012E6
:200CE10011401200D81200BD800FE4F8F9FA7B401211401200D81200BD120171E4FFFEFD52
:200D0100530480EC4D4E4F600D7B081201711211791200B4800D7B0712017112117912000E
:200D2100B4158312114053057F7C001200BDAF83E4FEFDFC7B171211491200F71200EA12BF
:200D4100112BE582600DEBFFEAFEE9FDE84480FC12112BAC00AD01AE02AF03221200BDE443
:200D6100F8120171E4FFFE53058053047F7B17121179A907E97008E4FCFDFEFF020DD91254
:200D81000171E4FFFEFD530480EC4D4E4F6002780112017153057F7C004305801200BD808C
:200DA1000C7B011201711211791200BD097F96C3E99F40ED800C7B0112017112114912001B
:200DC100BD197F96D3E99F50EDE86009120171120E251200BD12017122EC6EC0E0EE30E701
:200DE10007E4C39FFFE49EFEEC30E707E4C39DFDE49CFC120F0CD0E030E707E4C39FFFE43B
:200E01009EFE22BF0A083099FDC29975990D3099FDC2998F9922C3EF9BFFEE9AFEED99FD46
:200E2100EC98FC22E4C39FFFE49EFEE49DFDE49CFC22EF9BF5F0EE9A42F0ED9942F0EC98C9
:200E410045F022C008C009C00AC00BEF8BF0A4F50B85F00AEF8AF0A4250AF50AE5F0340043
:200E6100F509EF89F0A42509F509E5F03400F508EF88F0A42508F508EE8BF0A4250AF50AC5
:200E8100E5F03509F509E5083400F508EE8AF0A42509F509E5F03508F508EE89F0A42508A3
:200EA100F508ED8BF0A42509F509E5F03508F508ED8AF0A42508F508EC8BF0A42508FCADD7
:1F0EC10009AE0AAF0BD00BD00AD009D00822E4FFFE53058053047F7B1712117974822F2D
:200EE10022EC6830E702EC22C3EC98700DED997009EE9A7005EF9B700122500474FF80022E
:200F0100740188F030F70264802222C000C001C002C003C083C082AA04AB05A806A90775D6
:200F2100F000EA4B7006E4FEFF020F7C05F0EA54807017EB2BF582EA33F583D3E58299E593
:200F410083985006AA83AB8280E2E4F583F582E5822582F582E58333F583C3E99BE89A40EF
:200F610008C3E99BF9E89AF8A3EAC313FAEB13FBD5F0DCAE83AF82AC00AD01D082D083D086
:200F810003D002D001D000223098FDAF99C2987E0022742A121005E4F52EAF031F8F2F1244
:200FA1000F898F30740865307017E52E60F1152E7F08120E047F20120E047F08120E048001
:200FC100DEAF30EF640A6006740D65307005E4F530800DAD2FAF2EEF6D60C4AF30120E0433
:200FE100AF2E7E00AB07AA06E4F9F8742A1210131200D8AB3012120EE5306005052E020FD6
:20100100A0AF2E22C8A60408A60508A60608A607C822C88604088605088606088607C822C0
:20102100C8F608A60108A60208A603C822C008C009C00AC00BC00CC00DC00EC00FC05BC0C0
:201041005CC05DC05E880C890D8A0E8B0F8C088D098E0A8F0B758200E50C450D450E450F5F
:201061007008E4FCFDFEFF0211120582E50C548070267B01AC0CAD0DAE0EAF0F121149A89A
:2010810008A909AA0AAB0B120E336002500A8C0C8D0D8E0E8F0F80D2E4F55BF55CF55DF592
:2010A1005E7B01AC5BAD5CAE5DAF5E1211498C5B8D5C8E5D8F5EA80CA90DAA0EAB0FAC0889
:2010C100AD09AE0AAF0B120E33401EA80CA90DAA0EAB0FAC08AD09AE0AAF0B120E178C08B3
:2010E1008D098E0A8F0B435E017B01AC0CAD0DAE0EAF0F1211798C0C8D0D8E0E8F0FD582BE
:20110100A0AC5BAD5CAE5DAF5EA808A909AA0AAB0BD05ED05DD05CD05BD00FD00ED00DD01E
:201121000CD00BD00AD009D00822A804A905AA06AB0722E6088601088602088603F822ACE0
:201141000CAD0DAE0EAF0F22EB600EEF2FFFEE3EFEED3DFDEC3CFCDBF222C000C001ED8F55
:20116100F0A4F9A8F0ED8EF0A428F8EC8FF0A428FEAF01D001D00022EB600FECC313FCED6D
:2011810013FDEE13FEEF13FFDBF122EC70108F828E83E0FCA3E0FDA3E0FEA3E0FF22D5E08C
:2011A100138F828E8393FC740193FD740293FE740393FF22D5E00FC88F00860408860508F3
:2011C1008606088607C822EC700A8F828E83E0FEA3E0FF22D5E00B8F828E8393FE7401937E
:2011E20022D5E009C88F008606088607C822EC70078F828E83E0FF22D5E0078F828E8393B4
:2012030022D5E006C88F008607C822EC70078F828E83EBF022B40206C88F00A603C8228F69
:201223002C121448EF60147E267FEC7C01120BC37E277F6C7C01120BC380FE74FF652C7063
:20124300087FCC1219050212A37F55121905E4F52DAF2CAD077C007F03ED8FF005F08005D4
:1F126300C333CC33CCD5F0F8FD7E197F99EF2DFBEE3CFAAF2DAD07E4FCFE7F07C3EF9DC4
:20128300EE9CFEEB2FFFEA3EFE850683850782E493FF121905052D7408652D6003021254B7
:2012A3007F441219057E037F20120131121448EF60147E267FB67C01120BC37E277F6C7CC1
:2012C30001120BC380FE74FF652C70087FCC12190502132E7F55121905E4F52DAF2CAD07D9
:2012E3007C007F03ED8FF005F08005C333CC33CCD5F0F8FD7E197F99EF2DFBEE3CFAAF2DC6
:20130300AD07E4FCFE7F07C3EF9DFFEE9CFEEB2FFFEA3EFE850683850782E493FF121905DB
:20132300052D7408652D60030212DF7FBE121905E4F52C122A37AD07AF2C7E0074002FF58A
:201343008274003EF583EDF0052C7409652C70E3221218FB7E207F3A7C01120BC37E217F56
:20136300007C01120BC37E207F1A7C01120BC37E1F7FF27C01120BC380457D027F0712181A
:20138300207E1F7FCB7C01120BC37D027F07121820120F89BF65028028121448EF600B7ED9
:2013A3001F7FAD7C01120BC380097E1F7F857C01120BC37E1F7F667C01120BC3120F8980F2
:2013C300B922C2B4EF6002D2B47F0D121476D2B4221218FB7E1C7F3B7C01120BC37E1C7F23
:2013E300047C01120BC37E1B7FC57C01120BC37E1B7F927C01120BC37B047F247C02120F87
:20140300937F247C021200038F287E1B7F5D7C01120BC37B047F247C02120F937F247C0202
:201423001200038F297E1B7F267C01120BC3120F89AD29AF281229D97E1A7FFB7C01120B2A
:20144300C3120F8922C2B47F49121476D2B47F07121476A2B4E433FF8F2D7F3E121476AF48
:201463002D22E4FDA298E433FFBF0104C298AD99AF0522AB07E4FF80010FC3EF9B40FA22E1
:201483001218FB7E1D7FD17C01120BC37E1D7F957C01120BC37E1D7F577C01120BC37B0681
:2014A3007F247C02120F937F247C021200038E2A8F2B7D027F061218207E1D7F3E7C011277
:2014C3000BC37D047F081218207E1D7F027C01120BC37D047F0A1218207E1C7FFC7C011278
:2014E3000BC37D027F0E1218207E1C7FDA7C01120BC3E4FD7F121218207E1C7FBC7C011255
:1F1503000BC37F09900000E4F0A3DFFB02160F7FFF1212227D0E7F0A121820900000E0D9
:201523007E008E408F41900001E0FF7E008E3E8F3F900002E0FF7E008E3C8F3D900003E00C
:201544007E008E3A8F3B900004E0FF7E008E388F39900005E0FF7E008E368F37900006E006
:201565007E008E348F35900007E0FF7E008E328F33900008E0FF7E008E308F317E1C7F77E9
:201585007C01120BC3900001E0FF7023900000E0FF7E00EE3395E0FDFC120B1012112B7C73
:2015A5003FE4FDFEFF120BD1742C1210058032900000E0FFF4FF7E000FEF70010EEE33958F
:2015C500E0FDFC120B1078BF7980E4FAFB120BD112112B7C3FE4FDFEFF120BD1742C121072
:2015E500057D1A7F0E121820852C30852D31852E32852F337E1C7F717C01120BC312146571
:20160500EF700AAE2AAF2B120131021512221218FB7E1A7FCD7C01120BC37E1A7F9E7C0183
:20162500120BC37E1A7F6D7C01120BC37E1A7F287C01120BC302179DE4F524AF241212227C
:201645007D24AF24EF2FFF74082FFF121820900000E0FF7E008E408F41900001E0FF7E0087
:201665008E3E8F3F900002E0FF7E008E3C8F3D900003E0FF7E008E3A8F3B900004E0FF7ED3
:1F168500008E388F39900005E0FF7E008E368F37900006E0FF7E008E348F35900007E04C
:2016A5007E008E328F33900008E0FF7E008E308F317E197FFB7C01120BC3AD24900003E000
:2016C6006D60227D06AF24EF2FFF74082FFF1218208524317530007E197FDE7C01120BC3DE
:2016E6007525028003E4F525E5256003021777900001E0FF7020900000E0FF7E00EE339527
:20170600E0FDFC120B10783FE4F9FAFB120BD174261210058032900000E0FFF4FF7E000FE4
:1F172600EF70010EEE3395E0FDFC120B1078BF7980E4FAFB120BD112112B7C3FE4FDFE9B
:20174600120BD174261210057D06AF24EF2FFF74082FFF121820852632852733852834854B
:2017660029358524317530007E197FC17C01120BC3121465EF600575250180157E007F3214
:2017860012013105247D05AF24C3EF9D500302164074016525600302163D2212192D02173D
:2017A600F412193B120F89AD077F31C3ED9F403E7F39D3ED9F5037901795ED2D5002058320
:2017C6002582F58250020583740193C0E0E493C0E022121354801712184A801212148380EB
:2017E6000D1213D4800812161380031228BA0217A717D817DD17E217E717EC17F417F417D9
:20180600F417F1C2B4D2B47F06DFFEA2B4E433FF8F2F7F0D121476AF2F22EDAD07FF7E00F8
:2018260074202FFFE43EFE8E328F33AF057E0074202FFFE43EFE8E308F317E267F237C01E9
:20184600120BC3220218F71218FB7E1F7F377C01120BC37E1F7F087C01120BC37E1E7FC737
:201866007C01120BC37F08900000E4F0A3DFFB120F89BF65030218FA122A667E1E7F847CFB
:2018860001120BC3900009E0FF7E008E3E8F3F90000AE0FF7E008E3C8F3D90000BE0FF7E4C
:1F18A600008E3A8F3B90000CE0FF7E008E388F3990000DE0FF7E008E368F3790000EE008
:2018C6007E008E348F3590000FE0FF7E008E328F33900010E0FF7E008E308F317E1E7F2CBE
:2018E6007C01120BC37E1E7F0C7C01120BC3120F8902184D227E267F2A7C01120BC3228F73
:201906002E752F01753008AD2FAF2EEF5DFF60077F011213C58005E4FF1213C5AF2FEF2F1E
:201927008F2FD530E122759852438920758DFDD28ED299221218FB7E257FFC7C01120BC303
:201947007E257FD47C01120BC37E257FBE7C01120BC37E257F807C01120BC37E257F4B7C08
:2019670001120BC37E257F037C01120BC37E247FC77C01120BC37E247F997C01120BC37E23
:20198700247F687C01120BC37E247F577C01120BC3220000000000000000FE0008019C0E30
:2019A7006D100C000801DB082110C60008019C3F0B105400080186700A102575202020202E
:2019C700202020202020202025352E31662020202020202020200025752020202020202047
:2019E7002020204B65696E65206B6F722E20416E74772E002530327820253032782025307F
:201A070032782025303278202530327820253032782025303278202530327820253032785B
:201A270000202020536C6176652D4E722E202020202054656D7065726174757220202020E0
:201A47002020202020536372617463682D5061642028427974652038202E2E2E2E204279EE
:201A670074652030290044656D6F206C6165756674202E2E2E2020202841626272756368FE
:201A87002064757263682054617374656E647275636B290A0A0A003D3D3D3D3D3D3D3D3DF5
:201AA7003D3D3D3D3D3D3D3D3D3D3D3D3D3D3D3D3D3D3D3D3D3D3D3D3D3D3D3D3D3D3D3D7F
:201AC7003D3D3D0A0A00312D576972652D4275732D44656D6F2066756572206D61782E20B0
:201AE70035204453313853323065722D536C617665730A000A0A0A5565626572747261679A
:201B0700756E67206F2E6B2E2C202054617374652064727565636B656E202E2E2E20000A6C
:201B27000A0A556562657274726167756E6720696E73205363726174636820506164206494
:201B4700757263682054617374656E647275636B202E2E2E20000A0A2020576572742066DE
:201B67007565722042797465203320696D2053637261746368205061642028544C2D52652C
:201B8700676973746572293A20200020205765727420667565722042797465203220696D5D
:201BA700205363726174636820506164202854482D5265676973746572293A20200042695D
:201BC700747465206265696465205765727465202830202E2E2E2032353529206E616368B0
:201BE700666F6C67656E642065696E7A656C6E2065696E676562656E3A0A0A0A003D3D3D7E
:201C07003D3D3D3D3D3D3D3D3D3D3D3D3D3D3D3D3D3D3D3D3D3D3D3D3D3D3D3D3D3D3D3D1D
:201C27003D3D3D3D3D3D3D3D3D3D3D3D3D3D3D3D3D0A0A0053696E676C6520436869703A3C
:201C470020322042797465202854482C544C2920696E2053637261746368205061642073F7
:201C6700636872656962656E0A0025352E31660025303278202020202530327820202020F6
:201C8700253032782020202025303278202020202530327820202020253032782020202041
:201CA7002530327820202020253032782020202025303278004162627275636820647572FE
:201CC70063682054617374656E647275636B202E2E2E00416B7475656C6C652054656D70F3
:201CE7006572617475723A2020202020202020202020204300284845582900427974653A49
:201D070020202020203820202020203720202020203620202020203520202020203420204E
:201D27002020203320202020203220202020203120202020203000496E68616C742064654D
:201D470073205363726174636820506164733A00426974746520416266726167652D496E9B
:201D670074657276616C6C20696E206D732065696E676562656E2028313030202E2E2E206B
:201D870036352E303030206D73293A2020003D3D3D3D3D3D3D3D3D3D3D3D3D3D3D3D3D3D26
:201DA7003D3D3D3D3D3D3D3D3D3D3D3D3D3D3D3D3D3D3D3D3D3D3D3D3D3D3D3D3D3D3D3D7C
:201DC7003D3D3D3D3D3D3D0A0A0053696E676C6520436869703A2054656D70657261747526
:201DE700726D657373756E6720756E64204C6573656E206465732053637261746368205036
:201E07006164730A000A0A0A0A4665727469672C2054617374652064727565636B656E2012
:201E27002E2E2E20002020202020253032782020202020202020202020253032782025307E
:201E4700327820253032782025303278202530327820253032782020202020202020202015
:201E67002020202020253032782020202020202020202020202028484558290A000A0A0ABE
:201E87002020382D4269742043524320202020202034382D4269742053657269616C204E19
:201EA700756D626572202020202020382D4269742046616D696C697920436F64650A0A0022
:201EC7004162667261676520647572636820447275636B206175662054617374652C20201B
:201EE7004265656E64656E2064757263682045696E6761626520766F6E202765273A202069
:201F0700003D3D3D3D3D3D3D3D3D3D3D3D3D3D3D3D3D3D3D3D3D3D3D3D3D3D3D3D3D3D3D57
:201F27003D3D3D3D3D3D3D3D3D3D3D3D3D3D0A0053696E676C6520436869703A204C6573B6
:201F4700656E206465732036342042697420524F4D2D4964656E746966696572730A000ABD
:201F67000A576569746572202D2054617374652064727565636B656E202E2E2E20002020F7
:201F87005465737420504F53495449563A20204D696E64657374656E732045494E45522005
:201FA700646120210A00202054657374204E4547415449563A20204B65696E65722064613F
:201FC70020210A00202020202020202020202020202020202020202020202020202020202F
:201FE70020202020202020202020000A0A5374617274206465732054657374733A2020541B
:20200700617374652064727565636B656E202E2E2E2000284265656E64656E20647572632A
:20202700682045696E6761626520766F6E202765272900312D576972652D52657365743A98
:2020470020546573742C206F62204A454D414E4420616D2042757320616E67657363686C30
:202067006F7373656E206973740A000A0A54657374206C61657566742C2077656974657286
:20208700206D6974205461737465202E2E2E200042697474652044656C61792D576572740E
:2020A700202846756E6B74696F6E732D5565626572676162652D57657274292065696E67A6
:2020C7006562656E202830202E2E2E20323534293A200028527565636B737072756E67201E
:2020E70064757263682045696E6761626520766F6E20323535290A0A003D3D3D3D3D3D3DE1
:202107003D3D3D3D3D3D3D3D3D3D3D3D3D3D3D3D3D3D3D3D3D3D3D3D3D3D3D3D3D3D3D3D18
:202127003D3D3D3D3D3D3D3D3D3D3D3D3D3D3D0A0054657374204D6574686F646520323AE9
:20214700205A6569747665727A6F65676572756E672064757263682046756E6B74696F6EF5
:20216700736175667275660A000A0A54657374206C6165756674202E2E2E200028527565DF
:20218700636B737072756E67206475726368205265736574202E2E2E20290A0A003D3D3DB4
:2021A7003D3D3D3D3D3D3D3D3D3D3D3D3D3D3D3D3D3D3D3D3D3D3D3D3D3D3D3D3D3D3D3D78
:2021C7003D3D3D3D3D3D3D3D3D3D3D3D3D3D3D3D3D3D3D3D3D3D3D3D3D3D3D3D3D3D3D3D58
:2021E7003D3D3D3D3D3D3D3D3D3D0A0054657374204D6574686F646520313A205A6569749F
:202207007665727A6F65676572756E6720642E207265696E6520666F722D5363686C6569C3
:20222700666520646972656B7420696D2050726F67616D6D2D436F64650A0041757377618D
:20224700686C2C207761732067657465737465742077657264656E20736F6C6C2028312C63
:202267002032206F646572202765272028456E646529293A202000646965204D6574686F89
:202287006465203220667565722067726F657373657265205665727A6F65676572756E6738
:2022A700656E2076657277656E6465742E0A0A00446965204D6574686F64652031207769C5
:2022C7007264207A75722045727A657567756E672073656872206B6C65696E6572205A6509
:2022E70069747665727A6F65676572756E67656E20283C203230207573292C0A0020203225
:202307002E204475726368204175667275662065696E65722046756E6B74696F6E2C206498
:2023270069652065696E6520666F722D5363686C6569666520656E746861656C742E0A0A99
:20234700002020312E204D69742065696E6572207265696E656E20666F722D5363686C6536
:2023670069666520646972656B7420696D2050726F6772616D6D2D436F64652E0A007A7555
:202387002065727A657567656E3A0A0A0045732067696274206E756E207A776569204D6FB9
:2023A70065676C6963686B656974656E2C20646965206E6F7477656E646967656E205A650B
:2023C70069747665727A6F65676572756E67656E0A00564F522064656D2054657374206488
:2023E700656E20445331385332302061626B6C656D6D656E20210A0A003D3D3D3D3D3D3D62
:202407003D3D3D3D3D3D3D3D3D3D3D3D3D3D3D3D3D3D3D3D3D3D3D3D3D3D3D3D3D3D3D3D15
:202427003D3D0A0A0054657374207A75722075432D7370657A696669736368656E2044650D
:202447006C61792D466573746C6567756E670A000A0A0A0A49687265205761686C3A20200E
:20246700000A0A2020392E2054657374207A75722075432D7370657A696669736368656E49
:202487002044656C61792D466573746C6567756E67002020352E2044656D6F202D20427579
:2024A700732D42657472696562206D6974206D61782E20352053656E736F72656E0A0A00E4
:2024C7002020342E2053696E676C6520436869703A20322042797465202854482C544C2914
:2024E70020696E2053637261746368205061642073636872656962656E0A0A002020332E39
:202507002044656D6F202D2053696E676C6520436869703A2054656D706572617475726DAC
:20252700657373756E6720756E64204C6573656E2064657320536372617463682050616408
:20254700730A0A002020322E2053696E676C6520436869703A204C6573656E20646573205A
:2025670036342042697420524F4D2D4964656E746966696572730A0A002020312E20312DC9
:20258700576972652D52657365743A20546573742C206F62204A454D414E4420616D204237
:2025A700757320616E67657363686C6F7373656E206973740A0A00426974746520776165C6
:2025C700686C656E205369653A0A0A0A003D3D3D3D3D3D3D3D3D3D3D3D3D3D3D3D3D3D3D2D
:2025E7003D3D3D3D3D3D3D3D3D3D3D3D3D3D3D3D3D3D0A0A004461732067726F737365208B
:20260700312D57697265202D204453313853323065722D50726F6A656B740A001B592563B3
:202627002563001B481B4A000A0A202052657365742064727565636B656E202E2E2E2000B1
:202647000A0A0A0A20204665686C6572206265696D204C6573656E2064657320524F4D2D4A
:202667004964656E746966696572733A204B45494E2050726573656E636520766F6D205322
:202687006C6176652021000000000000000000FE0008019C0E6D100C000801DB082110C62D
:2026A7000008019C3F0B105400080186700A100A0A0A0A20204665686C6572206265696D2C
:2026C70020322E2052657365743A204B45494E2050726573656E636520766F6D20536C61C8
:2026E70076652021000A0A0A0A20204665686C6572206265696D20312E2052657365743A60
:20270700204B45494E2050726573656E636520766F6D20536C6176652021000A0A0A0A2000
:20272700204665686C6572206265696D2053636872656962656E2064657320536372617433
:202747006368205061647320323A204B45494E2050726573656E636520766F6D20536C6125
:2027670076652021000A0A202052657365742064727565636B656E202E2E2E20000A0A0A86
:202787000A20204665686C6572206265696D2053636872656962656E20646573205363727E
:2027A70061746368205061647320313A204B45494E2050726573656E636520766F6D2053BE
:2027C7006C617665202100322BCC7733D6BF95358637BD3727C5AC38D1B7173A83126F3C3D
:2027E70023D70A3DCCCCCD3F8000004120000042C80000447A0000461C400047C3500049FF
:202807007424004B1896804CBEBC204E6E6B28501502F951BA43B75368D4A5551184E756AB
:20282700B5E62158635FA95A0E1BCA5BB1A2BC5D5E0B6B5F0AC72360AD78EC6258D727644A
:2028470007867865A968166753C21C690459516AA56FA66C4ECB8F6E013F396FA18F0871FA
:2028670049F2CA72FC6F7C749DC5AE7645371977F684DF799A130C7B4097CE7CF0BDC27ED9
:202887009676990000000A00000064000003E800002710000186A0000F424000000005003F
:2028A700000032000001F4000013880000C3500000C3500229D51218FB7E247F2C7C011228
:2028C7000BC37E247F007C01120BC37E237FD97C01120BC37E237F947C01120BC37E237F1E
:2028E700857C01120BC37E237F487C01120BC37E237F047C01120BC37E227FB77C01120B39
:20290700C37E227F7E7C01120BC37E227F427C01120BC3120F89EF64316008EF64326003B7
:202927000229D8BF310280030229D2803A1218FB7E217FF37C01120BC37E217FA47C01127D
:202947000BC37E217F837C01120BC37E217F707C01120BC3800FC2B47F08DFFED2B47E004C
:202967007F0A12013180EF80C41218FB7E217F387C01120BC37E217F007C01120BC37E20DF
:202987007FDA7C01120BC37E207F977C01120BC37B047F247C02120F937F247C02120003DF
:2029A7008F2874FF652860267E207F727C01120BC38016C2B4AF28121476D2B4121465EF68
:2029C70070097E007F0A12013180E80229700228BD228D288F29121448EF60147E277F843A
:2029E7007C01120BC37E277F6C7C01120BC380FE7FCC1219057F4E121905AF29121905AFD9
:202A070028121905121448EF60147E277F227C01120BC37E277F6C7C01120BC380FE7FCC2D
:202A27001219057F481219057E007F0F12013122E4F52DE4F52E121809EF6018AD2E7F01F4
:202A4700EF8DF005F08002C333D5F0FBFDAF2DEF4DFF8F2D052E7408652E70DAAF2D22126A
:202A67001448EF60147E267F477C01120BC37E267F2F7C01120BC380FE7F33121905E4F5E1
:1F2A870024122A37AD07AF247E0074092FF58274003EF583EDF005247408652470E322C7
:00000001FF
