:200000000206357800790B900000E849600AE4F0A3E91970F51880F2221209DF7E157FE105
:200020007C011218137E157FA97C011218137E157F897C011218137E157F617C011218130F
:2000400080457D027F0712092D7E157F3A7C011218137D027F0712092D120B0FBF65028069
:2000600028121898EF600B7E157F1C7C0112181380097E147FF47C011218137E147FD57CAA
:2000800001121813120B0F80B92202012D1209DF7E147FA67C011218137E147F777C0112E9
:2000A00018137E147F367C01121813120B0FBF650302013012057B7E137FF37C011218133F
:2000C000900003E0FF7E008E368F37900004E0FF7E008E348F35900005E0FF7E008E328FEE
:2000E00033900006E0FF7E008E308F31900007E0FF7E008E2E8F2F900008E0FF7E008E2C3F
:200100008F2D900009E0FF7E008E2A8F2B90000AE0FF7E008E288F297E137F9B7C01121804
:20012000137E137F7B7C01121813120B0F02008D227800797E9018CB7A007B0BE849601CFB
:20014000E493A3AC83AD828A838B82F0A3AA83AB828C838D82E91970E31880E0228E398FBD
:200160003A743B1218B5E4F53FF540743B12187C120B548F41053EE53E700E053DE53D701C
:2001800008053CE53C7002053BE5417007AE3FAF4002049274256541600302047CE4F542F3
:2001A000E4F543754401E4F545743B12187C120B548F41053EE53E700E053DE53D700805F0
:2001C0003CE53C7002053BAF41EF646370030202A77D63AF41D3EF9D50357D2EAF41C3EF4B
:2001E0009D500302047C7D39AF41D3EF9D400302047CAF41900437EF2F500205832582F574
:200200008250020583740193C0E0E493C0E022AF41EF6475600DAF41EF6478600302047CDC
:2002200043420105380538AF38AB0778027CFF7DFF7EFF7FFE120AD3120B198E468F4702E9
:2002400002C44343800201A9AF43530780EF70064343040201A9AF4174D02FF980297F0A31
:20026000E98FF0A4FB743B12187C120B5474D02FFF2BF9053EE53E700E053DE53D70080556
:200280003CE53C7002053B743B12187C120B54AD077F30C3ED9F40077F39D3ED9F40BF89F1
:2002A000454343010201A905380538AF38AB0778027CFF7DFF7EFF7FFE120AD3120B198F94
:2002C0004102047C754800754901AF42530701EF700302031C801C7D04AE48AF49EF8DF099
:2002E00005F08005C333CE33CED5F0F8FF8E488F490544AC48AD49AE46AF471217787C001B
:200300007D0FD3EF9DEE9C50CE80277E007F0AAC48AD491217F58E488F490544AC48AD49B3
:20032000AE46AF471217787C007D09D3EF9DEE9C50D9AF42530762EF60020544AF4353078B
:2003400001EF6028AF43530714EF7020801515457F20853983853A821206DB0540E5407069
:2003600002053FAD45AF44C3EF9D40E2AF42530702EF60047D2D8002E4FDED6013AF05859B
:200380003983853A821206DB0540E5407002053FAF43530701EF7003020445AF4353070403
:2003A000EF7003020445801515457F30853983853A821206DB0540E5407002053FAD45AFBC
:2003C00044C3EF9D40E2020445AC48AD49AE46AF47121778AB07AF037E00AC48AD491217B3
:2003E000F5AC46AD47C3ED9FFFEC9EFE8E468F4774302BFD7F39D3ED9F400474272DFDAF07
:2004000005853983853A821206DB0540E5407002053FAF42530701EF601C7D04AE48AF491C
:20042000EF8DF005F08005CEC313CE13D5F0F8FF8E488F49800F7C007D0AAE48AF4912173E
:20044000788E488F49E548454960030203C9AF43530701EF700302016B801515457F20855A
:200460003983853A821206DB0540E5407002053FAD45AF44C3EF9D40E202016BAF418539FA
:2004800083853A821206DB0540E5407002053F02016B220242047C024802560256025602DD
:2004A00056025602560256025602561209DF7E177F377C011218137E177F017C0112181360
:2004C0007E167FEB7C011218137E167FAD7C011218137E167F787C011218137E167F577CBF
:2004E000011218137E167F3A7C011218137E167F327C011218137E167F2A7C011218137E43
:20050000167F197C0112181322AB07A905EBC4540FFD53030FB9010874102DFD74102BFB63
:2005200074E02DFD74E02BFF8F25AF0512071DAF2512071D227E007F0F1206C87F0312076E
:200540001D7E007F051206C87F0312071D7E007F011206C87F0312071D7F0212071DE4FDB6
:200560007F28120509E4FD7F08120509E4FD7F01120509E4FD7F0612050922121898EF60F2
:20058000147E0D7FE37C011218137E0D7FCB7C0112181380FE7F33121845E4F520120AE07D
:2005A000AD07AF207E0074032FF58274003EF583EDF005207408652070E322120131120025
:2005C0000322900000E0FFBFFF087FCC12184502062C7F55121845E4F527900000E0FFAD74
:2005E000077C007F03ED8FF005F08005C333CC33CCD5F0F8FD7E0D7F2BEF2DFBEE3CFAAF76
:2006000027AD07E4FCFE7F07C3EF9DFFEE9CFEEB2FFFEA3EFE850683850782E493FF1218CA
:200620004505277408652760030205DA22E4FD7F0112050922E5A8C2AF5490758149A881EE
:20064000760018B81FFAC0E01205BBD0A8020650120B721209DF7E007F641206C89000009F
:20066000740FF07F0412074F120A6612053580431204AB120B0FAD077F31C3ED9F40347FF8
:2006800039D3ED9F502D900654ED2D500205832582F58250020583740193C0E0E493C0E0B0
:2006A00022120019800D12008A80081207AB800312095702067006A106A606AB06B006B398
:2006C00006B306B306B306B3EF60010E90FF67A3E583458270F9DFF4DEF222C082C083223B
:2006E0001208F0EF54E0FD64A060277FA0D3ED9F5007ED6460601F8021ED64C060107FC0DF
:20070000C3ED9F4015ED64E070107FFF800E7F04800A7F0580067F0680027FFF228F267F86
:200720003412188A1205C27F5A121845AF26121845AF26EFF4FF121845120AE0EF64AA60ED
:20074000057F35120B80120AE07F3412188A228F207F3212188A1205C27FCC1218457F8D0B
:20076000121845E4FF121845AF201218457F3212188A1205C27FF01218457F8D121845E4FF
:20078100121845120AE08F217F3212188AAF207E0074802FFDE43EFCAF217E00EF6D70042F
:2007A100EE6C60057F33120B80221209DF7E137F687C011218137E137F547C011218137E40
:2007C100137F317C011218130208ED12062D7F02120A3D7E037FE81206C87D017F4C12055D
:2007E100097D017F431205097D017F441205097E037FE81206C81209E97E037FE81206C89A
:200801007F01120A3D7E037FE81206C812062D7E037FE81206C87E007F74AB07AA067800DE
:20082100E4FDE4FF12099D7D037F021209F17F7B120A7F7F7C120A7F7F7D120A7F7F7E125D
:200841000A7F7E037FE81206C87B307D13E4FF120AC87B317D137F01120AC87B327D137FE8
:2008610002120AC87B337D137F03120AC87E057FDC1206C812062DE4FF120A3D7E007F0BA6
:20088100AB07AA067800E4FDE4FF12099D7E007F20AB07AA067800E4FD7F0112099D7E0073
:2008A1007F35AB07AA067800E4FD7F0212099D7E007F4AAB07AA067800E4FD7F0312099D53
:2008C1007E077FD01206C87520051209E97E027FEE1206C8E4FF120A3D7E027FEE1206C8EF
:2008E100D520E77E137F277C011218130207CC7F3612188A1205C27FF01218457F88121804
:2009010045E4FF121845120AE08F20752107120AE0D521FA120AE0900002EFF0120AE09012
:200921000001EFF07F3612188AAF2022EDAD07FF7E0074202FFFE43EFE8E2A8F2BAF057ED8
:200941000074202FFFE43EFE8E288F297E177F6C7C01121813221209DF7E137F0B7C011246
:2009610018137E127FEE7C011218137E127FC97C011218137E127FA17C01121813801B12EB
:2009810006E08F207D0A7F0A12092D8520297528007E127F8B7C0112181380E37420121889
:2009A100B51209F1E4F524801BAF247E00AB07AA06E4F9F8742012187C120AD3120B5412A9
:2009C1000A7F0524AF247E00AB07AA06E4F9F8742012187C120AD3120B54EF70CC227E1760
:2009E1007F737C0112181322E4FD7F0812050922A905AD077F03D3ED9F502F900A35ED2DD3
:200A0100500205832582F58250020583740193C0E0E493C0E022AB018010744029FB800A84
:200A2100741429FB8004745429FBE4FDEB4480FF120509220A170A1B0A210A27EF600CEFDC
:200A410064016010EF640260148019E4FD7F0C1205098010E4FD7F0E1205098007E4FD7FCD
:200A61000F120509227F3812188A1205C27FC3121845120AE0BFAAFA7F3812188A22AB0791
:200A81007F7BC3EB9F40307F7ED3EB9F50299009CAEB2B500205832582F58250020583740C
:200AA1000193C0E0E493C0E0227BE1800A7BEF80067BF580027BE27D01AF03120509220A27
:200AC100AA0AAE0AB20AB68B201209F1AF20120A7F22EF2BFFEE3AFEED39FDEC38FC22E46C
:200AE100F526E4F52712182EEF6018AD277F01EF8DF005F08002C333D5F0FBFDAF26EF4D20
:200B02008F2605277408652770DAAF26223098FDAF99C2987E0022EC700A8F828E83E0FE3C
:200B2200A3E0FF22D5E00B8F828E8393FE740193FF22D5E009C88F008606088607C822BF94
:200B42000A083099FDC29975990D3099FDC2998F9922EC70078F828E83E0FF22D5E0078F09
:200B6200828E8393FF22D5E006C88F008607C822759852438920758DFDD28ED299228F27B6
:200B82008527297528007E117FE37C011218137D0AAF27C3EF9D5003020CE17D1DAF27D305
:200BA200EF9D501DAF27900CE1EF2F500205832582F58250020583740193C0E0E493C0E038
:200BC200227D32AF27C3EF9D5003020CE17D38AF27D3EF9D4003020CE1AF27900CB9EF2F76
:200BE200500205832582F58250020583740193C0E0E493C0E0227E117FB87C0112181302BE
:200C02000CEA7E117F8D7C01121813020CEA7E117F677C01121813020CEA7E117F357C01A8
:200C2200121813020CEA7E117F087C01121813020CEA7E107FD67C01121813020CEA7E1092
:200C42007FA67C01121813020CEA7E107F767C01121813020CEA7E107F407C01121813027D
:200C62000CEA7E107F0E7C01121813020CEA7E0F7FE17C01121813020CEA7E0F7FB67C01D1
:200C8200121813020CEA7E0F7F807C01121813020CEA7E0F7F5C7C01121813804B7E0F7FE6
:200CA2003B7C0112181380407E0F7F147C0112181380357E0E7FDF7C01121813802A7E0E14
:200CC2007FB57C01121813801F7E0E7F8F7C0112181380147E0E7F697C0112181380097E68
:200CE2000E7F437C011218137E0E7F2A7C0112181380FE0BF80C040C100CE10CE10CE10CF9
:200D0200E10CE10CE10CE10C1C0C280C340C400C4C0C580C640C700C7C0C880C940C9F0C26
:200D2200AA0CB50CC00CCB0CD60000000000000000FE0008019C0E6D100C000801DB08217A
:200D420010C60008019C3F0B105400080186700A100000000000000000000000000000004F
:200D620000000000000000000000000000000000000000000000000000D900000013FAD3B8
:200D820020000000000000000000000000000000000000000000000000360000000860D4BF
:200DA200291A000000086C3B29000000000000000000000000000000000000000000000016
:200DC2000000000000000000000A0A202052657365742064727565636B656E202E2E2E207F
:200DE200000A0A0A0A20204665686C6572206265696D204C6573656E2064657320524F4DF5
:200E02002D4964656E746966696572733A204B45494E2050726573656E636520766F6D20C5
:200E2200536C6176652021000A0A53797374656D20616E676568616C74656E20210A0A0748
:200E420000556E6775656C74696765204665686C65726E756D6D657220617566676574725F
:200E62006574656E2021004453323430383A204B65696E205072657320626569206473320A
:200E82003430385F666C615F636C2829004453323430383A204B65696E2050726573206221
:200EA2006569206473323430385F72645F666C612829004453323430383A204B65696E201F
:200EC2005072657320626569206473323430385F72645F7A757374616E64282900445332AA
:200EE2003430383A20436F6E6669726D6174696F6E2D427974652066616C73636820696EC8
:200F0200206473323430385F77725F627974652829004453323430383A204B65696E2050A8
:200F220072657320626569206473323430385F77725F627974652829004453323430383A05
:200F4200204665686C657220626569206473323430385F696E69742829004453323430383B
:200F62003A204B65696E205072657320626569206473323430385F696E69742829004453C4
:200F8200323435303A204B65696E20507265732E3A2053636872656962656E20696E205067
:200FA20061676520332028496E69742D456E6465292021004453323435303A204B65696E7D
:200FC20020507265732E3A20537461727420436F6E766572742028456E646529202100444C
:200FE20053323435303A204B65696E20507265732E3A20537461727420436F6E766572749F
:201002002028416E66616E67292021004453323435303A204665686C6572206265696D20E2
:2010220052FC636B6C6573656E20766F6E205061676520332028496E69742920210044533B
:20104200323435303A204B65696E20507265732E3A2053636872656962656E20696E2050A6
:2010620061676520332028496E69742D416E662E292021004453323435303A204B65696EF5
:2010820020507265732E3A204C6573656E206175732065696E6572205365697465202832E5
:2010A200292021004453323435303A204B65696E20507265732E3A204C6573656E20617552
:2010C200732065696E6572205365697465202831292021004453323435303A204B65696E28
:2010E20020507265732E3A2053636872656962656E20696E2065696E652053656974652027
:201102002832292021004453323435303A204665686C6572206265696D20536368726569BC
:2011220062656E202D20527565636B6C6573656E2021004453323435303A204B65696E2056
:20114200507265732E3A2053636872656962656E20696E2065696E652053656974652028BE
:2011620031292021004453313832303A204B65696E205072657320626569206473313832F3
:20118200305F77725F745F726567004453313832303A204B65696E20507265732062656918
:2011A200206473313832305F72645F74656D702829202D2032004453313832303A204B65C5
:2011C200696E205072657320626569206473313832305F72645F74656D702829202D203131
:2011E200000A0A2533753A20000000000000000000FE0008019C0E6D100C000801DB08216B
:2012020010C60008019C3F0B105400080186700A100000000000000000000000000000008A
:2012220000000000000000000000000000000000000000000000000000D900000013FAD3F3
:2012420020000000000000000000000000000000000000000000000000360000000860D4FA
:20126200291A000000086C3B29000000000000000000000000000000000000000000000051
:20128200000000000000000000476564727565636B74652054617374653A202532780042BD
:2012A200697474652065696E652054617374652064727565636B656E20285434202D205492
:2012C20036293A202020004C616575667420202D2D202041626272756368206D6974205245
:2012E20065736574202E2E2E200A0A003D3D3D3D3D3D3D3D3D3D3D3D3D3D3D3D3D3D3D3D99
:201302003D3D3D3D3D3D0A0A004C43442D20546173746572202D44656D6F2D4265747269C1
:2013220065623A0A000A4665727469672021004C616575667420202D2D20204162627275CD
:201342006368206D6974205265736574202E2E2E20003D3D3D3D3D3D3D3D3D3D3D3D3D3D13
:201362003D3D3D0A0A004C43442D44656D6F2D426574726965623A0A000A0A0A0A466572A8
:201382007469672C2054617374652064727565636B656E202E2E2E2000202020202025308A
:2013A2003278202020202020202020202025303278202530327820253032782025303278C5
:2013C20020253032782025303278202020202020202020202020202020253032782020208E
:2013E2002020202020202020202028484558290A000A0A0A2020382D426974204352432071
:20140200202020202034382D4269742053657269616C204E756D6265722020202020203871
:201422002D4269742046616D696C697920436F64650A0A004162667261676520647572634E
:201442006820447275636B206175662054617374652C20204265656E64656E2064757263A1
:20146200682045696E6761626520766F6E202765273A2020003D3D3D3D3D3D3D3D3D3D3DD8
:201482003D3D3D3D3D3D3D3D3D3D3D3D3D3D3D3D3D3D3D3D3D3D3D3D3D3D3D3D3D3D3D3DAA
:2014A2003D3D0A0053696E676C6520436869703A204C6573656E206465732036342042699E
:2014C2007420524F4D2D4964656E746966696572730A000A0A576569746572202D20546135
:2014E2007374652064727565636B656E202E2E2E200020205465737420504F534954495635
:201502003A20204D696E64657374656E732045494E455220646120210A0020205465737492
:20152200204E4547415449563A20204B65696E657220646120210A00202020202020202073
:20154200202020202020202020202020202020202020202020202020202020202020000ABF
:201562000A5374617274206465732054657374733A202054617374652064727565636B6544
:201582006E202E2E2E2000284265656E64656E2064757263682045696E6761626520766F32
:2015A2006E2027652729003D3D3D3D3D3D3D3D3D3D3D3D3D3D3D3D3D3D3D3D3D3D3D3D3DCA
:2015C2003D3D3D3D3D3D3D3D3D3D3D3D3D3D3D3D3D3D3D3D3D3D3D3D3D3D3D3D3D0A0031E5
:2015E2002D576972652D52657365743A20546573742C206F62204A454D414E4420616D2001
:2016020042757320616E67657363686C6F7373656E206973740A000A0A0A0A4968726520C7
:201622005761686C3A2020000A0A2020392E20002020352E200A0A002020342E2054617306
:20164200746572202D2044656D6F2D426574726965620A0A002020332E204C432D446973B0
:20166200706C6179202D2044656D6F2D426574726965620A0A002020322E2053696E676C05
:201682006520436869703A204C6573656E206465732036342042697420524F4D2D4964657C
:2016A2006E746966696572730A0A002020312E20312D576972652D52657365743A205465B9
:2016C20073742C206F62204A454D414E4420616D2042757320616E67657363686C6F737343
:2016E200656E206973740A0A00426974746520776165686C656E205369653A0A0A0A003DBF
:201702003D3D3D3D3D3D3D3D3D3D3D3D3D3D3D3D3D3D3D3D3D3D3D3D3D3D3D3D3D3D3D3D27
:201722003D3D3D3D3D3D3D3D3D3D3D3D3D3D3D3D3D3D0A0A004461732067726F737365205E
:20174200312D57697265202D204453323430386572202D204C432D446973706C6179202D9D
:201762002050726F6A656B740A001B5925632563001B481B4A00C000C001C002C003C083C9
:20178200C082AA04AB05A806A90775F000EA4B7006E4FEFF0217E805F0EA54807017EB2B07
:2017A200F582EA33F583D3E58299E583985006AA83AB8280E2E4F583F582E5822582F582DE
:2017C200E58333F583C3E99BE89A4008C3E99BF9E89AF8A3EAC313FAEB13FBD5F0DCAE8301
:2017E200AF82AC00AD01D082D083D003D002D001D00022C000C001ED8FF0A4F9A8F0ED8EB2
:20180200F0A428F8EC8FF0A428FEAF01D001D000227538281218C27E0B7F4112015D22AB23
:2018220007E4FF80010FC3EF9B40FA22C2B4D2B47F06DFFEA2B4E433FF8F287F0D1218212B
:20184200AF28228F28752901752A08AD29AF28EF5DFF60077F0112186D8005E4FF12186D1B
:20186200AF29EF2FFF8F29D52AE122C2B4EF6002D2B47F0D121821D2B422C8860408860506
:20188200088606088607C8228F27121898EF6005AF27120B8022C2B47F49121821D2B47F44
:2018A20007121821A2B4E433FF8F287F3E121821AF2822C8F608A60108A60208A603C822F8
:2018C200A804A905AA06AB07222050542D4D696B726F636F6E74726F6C6C657220002A2A7D
:2018E2002A2A2A2A2A2A2A2A2A2A2A2A2A2A2A2A2A2A00202046756C6C20506F77657220D2
:20190200776974683A20200020202050542D31576972652D4578426F202020200044696569
:201922002065727374656E205A65696368656E3A0000446575747363686520536F6E646586
:07194200727A65692E3A007C
:00000001FF
