:20000000020A88AB077F7BC3EB9F40307F7ED3EB9F502990FF4EEB2B500205832582F58225
:2000200050020583740193C0E0E493C0E0227BE1800A7BEF80067BF580027BE27D01AF03B0
:2000400012083F22002E00320036003A8B22120057AF2212000322A905AD077F03D3ED9FF4
:20006000502F90009BED2D500205832582F58250020583740193C0E0E493C0E022AB0180DD
:2000800010744029FB800A741429FB8004745429FBE4FDEB4480FF12083F22007D008100CA
:2000A00087008D742212098E120057E4F526801BAF267E00AB07AA06E4F9F87422120A5757
:2000C000120A7B1209701200030526AF267E00AB07AA06E4F9F87422120A57120A7B120979
:2000E00070EF70CC22EF600CEF64016010EF640260148019E4FD7F0C12083F8010E4FD7F0D
:200100000E12083F8007E4FD7F0F12083F22E4FD7F0812083F227800797E9019677A007BB0
:2001200000E849601CE493A3AC83AD828A838B82F0A3AA83AB828C838D82E91970E3188088
:20014000E0227800790B90007EE849600AE4F0A3E91970F51880F2228E3B8F3C743D12090E
:200160008EE4F541F542743D120A571209708F430540E540700E053FE53F7008053EE53EF1
:200180007002053DE5437007AE41AF4202048D742565436003020477E4F544E4F545754682
:2001A00001E4F547743D120A571209708F430540E540700E053FE53F7008053EE53E7002FD
:2001C000053DAF43EF646370030202A27D63AF43D3EF9D50357D2EAF43C3EF9D5003020421
:2001E000777D39AF43D3EF9D4003020477AF43900432EF2F500205832582F5825002058319
:20020000740193C0E0E493C0E022AF43EF6475600DAF43EF64786003020477434401053A72
:20022000053AAF3AAB0778027CFF7DFF7EFF7FFE120A7B1209488E488F490202BF43458006
:200240000201A4AF45530780EF70064345040201A4AF4374D02FF980297F0AE98FF0A4FBFA
:20026000743D120A5712097074D02FFF2BF90540E540700E053FE53F7008053EE53E700299
:20028000053D743D120A57120970AD077F30C3ED9F40077F39D3ED9F40BF89474345010203
:2002A00001A4053A053AAF3AAB0778027CFF7DFF7EFF7FFE120A7B1209488F430204777557
:2002C0004A00754B01AF44530701EF7003020317801C7D04AE4AAF4BEF8DF005F08005C38F
:2002E00033CE33CED5F0F8FF8E4A8F4B0546AC4AAD4BAE48AF491209BC7C007D0FD3EF9D29
:20030000EE9C50CE80277E007F0AAC4AAD4B120A398E4A8F4B0546AC4AAD4BAE48AF491259
:2003200009BC7C007D09D3EF9DEE9C50D9AF44530762EF60020546AF45530701EF6028AF24
:2003400045530714EF7020801515477F20853B83853C82120A760542E54270020541AD47A9
:20036000AF46C3EF9D40E2AF44530702EF60047D2D8002E4FDED6013AF05853B83853C82CE
:20038000120A760542E54270020541AF45530701EF7003020440AF45530704EF70030204F4
:2003A00040801515477F30853B83853C82120A760542E54270020541AD47AF46C3EF9D40A7
:2003C000E2020440AC4AAD4BAE48AF491209BCAB07AF037E00AC4AAD4B120A39AC48AD4933
:2003E000C3ED9FFFEC9EFE8E488F4974302BFD7F39D3ED9F400474272DFDAF05853B838511
:200400003C82120A760542E54270020541AF44530701EF601C7D04AE4AAF4BEF8DF005F0D9
:200420008005CEC313CE13D5F0F8FF8E4A8F4B800F7C007D0AAE4AAF4B1209BC8E4A8F4B37
:20044000E54A454B60030203C4AF45530701EF7003020166801515477F20853B83853C8281
:20046000120A760542E54270020541AD47AF46C3EF9D40E2020166AF43853B83853C821277
:200480000A760542E5427002054102016622023D047702430251025102510251025102513A
:2004A0000251025102517E007F0F120AA37F0312188C7E007F05120AA37F0312188C7E00C9
:2004C0007F01120AA37F0312188C7F0212188CE4FD7F2812083FE4FD7F0812083FE4FD7F6C
:2004E0000112083FE4FD7F0612083F22E4FD7F0112083F2212191CEF54E0FD64A060277F74
:1F050000A0D3ED9F5007ED6460601F8021ED64C060107FC0C3ED9F4015ED64E070107F21
:20052000800E7F04800A7F0580067F0680027FFF22AB07E4FF80010FC3EF9B40FA22C2B42B
:200540007F49120531D2B47F07120531A2B4E433FF8F2A7F3E120531AF2A228F2985292B81
:20056000752A007E177FAB7C0112099B7D0AAF29C3EF9D50030206BC7D1DAF29D3EF9D5004
:200580001DAF299006BCEF2F500205832582F58250020583740193C0E0E493C0E0227D3294
:2005A000AF29C3EF9D50030206BC7D38AF29D3EF9D40030206BCAF29900694EF2F50020593
:2005C000832582F58250020583740193C0E0E493C0E0227E177F807C0112099B0206C57EAD
:2005E000177F557C0112099B0206C57E177F2F7C0112099B0206C57E167FFD7C0112099B8A
:200600000206C57E167FD07C0112099B0206C57E167F9E7C0112099B0206C57E167F6E7C7C
:200620000112099B0206C57E167F3E7C0112099B0206C57E167F087C0112099B0206C57E4C
:20064000157FD67C0112099B0206C57E157FA97C0112099B0206C57E157F7E7C0112099BB2
:200660000206C57E157F487C0112099B0206C57E157F247C0112099B804B7E157F037C018D
:2006800012099B80407E147FDC7C0112099B80357E147FA77C0112099B802A7E147F7D7C70
:2006A0000112099B801F7E147F577C0112099B80147E147F317C0112099B80097E147F0B9B
:2006C0007C0112099B7E137FF27C0112099B80FE05D305DF05EB06BC06BC06BC06BC06BCBE
:2006E00006BC06BC05F70603060F061B06270633063F064B06570663066F067A0685069063
:20070000069B06A606B18F2912053EEF6005AF2912055B22C2B4D2B47F06DFFEA2B4E4333D
:200721008F2A7F0D120531AF2A221219591207A07E017F2C120AA390007E740FF07F0412F4
:2007410018301204A680431218BE120A65AD077F31C3ED9F40347F39D3ED9F502D90072CEA
:20076100ED2D500205832582F58250020583740193C0E0E493C0E0221217BF800D120C26F2
:200781008008120ABF80031209020207480779077E07830788078B078B078B078B078B7E8E
:2007A100177FBA7C0112099B22EDAD07FF7E0074202FFFE43EFE8E2C8F2DAF057E00742057
:2007C1002FFFE43EFE8E2A8F2B7E177FB37C0112099B2290007EE0FFBFFF087FCC12089A8A
:2007E10002083E7F5512089AE4F52990007EE0FFAD077C007F03ED8FF005F08005C333CCDF
:2008010033CCD5F0F8FD7E0C7FCDEF2DFBEE3CFAAF29AD07E4FCFE7F07C3EF9DFFEE9CFE47
:20082100EB2FFFEA3EFE850683850782E493FF12089A05297408652960030207EC22AB07CE
:20084100A905EBC4540FFD53030FB9010874102DFD74102BFB74E02DFD74E02BFF8F27AFFA
:200861000512188CAF2712188C22E4F528E4F529120714EF6018AD297F01EF8DF005F08040
:2008810002C333D5F0FBFDAF28EF4DFF8F2805297408652970DAAF28228F2A752B01752C63
:2008A10008AD2BAF2AEF5DFF60077F01120C178005E4FF120C17AF2BEF2FFF8F2BD52CE1E7
:2008C1002212053EEF60147E137FAB7C0112099B7E137F937C0112099B80FE7F3312089A95
:2008E100E4F52012086BAD07AF207E0074812FF58274003EF583EDF005207408652070E35D
:20090100221207A07E0E7F8D7C0112099B7E0E7F707C0112099B7E0E7F4B7C0112099B7E7B
:200921000E7F237C0112099B801B1204F48F207D0A7F0A1207AA85202B752A007E0E7F0D25
:200941007C0112099B80E3EC700A8F828E83E0FEA3E0FF22D5E00B8F828E8393FE7401937B
:2009620022D5E009C88F008606088607C822EC70078F828E83E0FF22D5E0078F828E83933C
:2009830022D5E006C88F008607C822C8F608A60108A60208A603C822753A2A120AB67E09BF
:2009A3007FA912015822BF0A083099FDC29975990D3099FDC2998F9922C000C001C002C004
:2009C30003C083C082AA04AB05A806A90775F000EA4B7006E4FEFF020A2C05F0EA54807084
:2009E30017EB2BF582EA33F583D3E58299E583985006AA83AB8280E2E4F583F582E5822577
:200A030082F582E58333F583C3E99BE89A4008C3E99BF9E89AF8A3EAC313FAEB13FBD5F0E1
:200A2300DCAE83AF82AC00AD01D082D083D003D002D001D00022C000C001ED8FF0A4F9A8DC
:200A4300F0ED8EF0A428F8EC8FF0A428FEAF01D001D00022C88604088605088606088607BE
:200A6300C8223098FDAF99C2987E002212011612014222C082C08322EF2BFFEE3AFEED39D6
:200A8300FDEC38FC22E5A8C2AF549075814BA881760018B81FFAC0E0120A6FD0A802072B92
:200AA300EF60010E90FF67A3E583458270F9DFF4DEF222A804A905AA06AB0722E4F520F513
:200AC300211207A07E0E7FEF7C0112099B7E0E7FDB7C0112099B7E0E7FB87C0112099B02FB
:200AE3000C141204EC7F021200E57E037FE8120AA37D017F4C12083F7D017F4312083F7DFA
:200B0300017F4412083F7E037FE8120AA312010E7E037FE8120AA37F011200E57E037FE8E7
:200B2300120AA31204EC7E037FE8120AA37E007F69AB07AA067800E4FDE4FF1200A37D0311
:200B43007F021200577F7B1200037F7C1200037F7D1200037F7E1200037E037FE8120AA3BF
:200B63007B307D13E4FF12004C7B317D137F0112004C7B327D137F0212004C7B337D137F03
:200B83000312004C7E057FDC120AA31204ECE4FF1200E57E007F00AB07AA067800E4FDE4DC
:200BA4001200A37E007F15AB07AA067800E4FD7F011200A37E007F2AAB07AA067800E4FD98
:200BC4007F021200A37E007F3FAB07AA067800E4FD7F031200A37E077FD0120AA37522057E
:200BE40012010E7E027FEE120AA3E4FF1200E57E027FEE120AA3D522E70521E5217002051D
:200C04002085202A85212B7E0E7FA97C0112099B020AE5C2B4EF6002D2B47F0D120531D245
:200C2400B422020CC91207A07E107F2D7C0112099B7E0F7FFE7C0112099B7E0F7FBD7C015A
:200C440012099B120A65BF6503020CCC1208C27E0F7F7A7C0112099B900081E0FF7E008EC7
:200C6400388F39900082E0FF7E008E368F37900083E0FF7E008E348F35900084E0FF7E0010
:200C84008E328F33900085E0FF7E008E308F31900086E0FF7E008E2E8F2F900087E0FF7E7D
:200CA400008E2C8F2D900088E0FF7E008E2A8F2B7E0F7F227C0112099B7E0F7F027C0112D5
:200CC400099B120A65020C29220000000000000000FE0008019C0E6D100C000801DB08214B
:200CE40010C60008019C3F0B105400080186700A10000000000000000000000000000000AE
:200D040000000000000000000000000000000000000000000000000000D900000013FAD316
:200D240020000000000000000000000000000000000000000000000000360000000860D41D
:200D4400291A000000086C3B29000000000000000000000000000000000000000000000074
:200D64000000000000000000000000000000000000FE0008019C0E6D100C000801DB082128
:200D840010C60008019C3F0B105400080186700A100000000000000000000000000000000D
:200DA40000000000000000000000000000000000000000000000000000D900000013FAD376
:200DC40020000000000000000000000000000000000000000000000000360000000860D47D
:200DE400291A000000086C3B290000000000000000000000000000000000000000000000D4
:200E0400000000000000000000476564727565636B74652054617374653A2025327800423F
:200E2400697474652065696E652054617374652064727565636B656E20285434202D205414
:200E440036293A202020004C616575667420202D2D202041626272756368206D69742052C7
:200E640065736574202E2E2E200A0A003D3D3D3D3D3D3D3D3D3D3D3D3D3D3D3D3D3D3D3D1B
:200E84003D3D3D3D3D3D0A0A004C43442D20546173746572202D44656D6F2D426574726944
:200EA40065623A0A000A2535753A204665727469672021004C616575667420202D2D202013
:200EC40041626272756368206D6974205265736574202E2E2E20003D3D3D3D3D3D3D3D3DDB
:200EE4003D3D3D3D3D3D3D3D0A0A004C43442D44656D6F2D426574726965623A0A000A0A2B
:200F04000A0A4665727469672C2054617374652064727565636B656E202E2E2E2000202090
:200F24002020202530327820202020202020202020202530327820253032782025303278B1
:200F44002025303278202530327820253032782020202020202020202020202020202530FB
:200F640032782020202020202020202020202028484558290A000A0A0A2020382D42697401
:200F84002043524320202020202034382D4269742053657269616C204E756D626572202094
:200FA40020202020382D4269742046616D696C697920436F64650A0A0041626672616765E7
:200FC40020647572636820447275636B206175662054617374652C20204265656E64656E24
:200FE4002064757263682045696E6761626520766F6E202765273A2020003D3D3D3D3D3DBE
:201004003D3D3D3D3D3D3D3D3D3D3D3D3D3D3D3D3D3D3D3D3D3D3D3D3D3D3D3D3D3D3D3D2C
:201024003D3D3D3D3D3D3D0A0053696E676C6520436869703A204C6573656E206465732024
:2010440036342042697420524F4D2D4964656E746966696572730A000A0A576569746572A4
:20106400202D2054617374652064727565636B656E202E2E2E200020205465737420504F24
:2010840053495449563A20204D696E64657374656E732045494E455220646120210A002046
:2010A4002054657374204E4547415449563A20204B65696E657220646120210A00202020D6
:2010C40020202020202020202020202020202020202020202020202020202020202020200C
:2010E400202020000A0A5374617274206465732054657374733A202054617374652064726A
:201104007565636B656E202E2E2E2000284265656E64656E2064757263682045696E676173
:20112400626520766F6E2027652729003D3D3D3D3D3D3D3D3D3D3D3D3D3D3D3D3D3D3D3DB1
:201144003D3D3D3D3D3D3D3D3D3D3D3D3D3D3D3D3D3D3D3D3D3D3D3D3D3D3D3D3D3D3D3DEB
:201164003D3D0A00312D576972652D52657365743A20546573742C206F62204A454D414E20
:201184004420616D2042757320616E67657363686C6F7373656E206973740A000A0A0A0AA0
:2011A40049687265205761686C3A2020000A0A2020392E20002020352E200A0A0020203457
:2011C4002E20546173746572202D2044656D6F2D426574726965620A0A002020332E204C4D
:2011E400432D446973706C6179202D2044656D6F2D426574726965620A0A002020322E20F5
:2012040053696E676C6520436869703A204C6573656E206465732036342042697420524F8D
:201224004D2D4964656E746966696572730A0A002020312E20312D576972652D5265736536
:20124400743A20546573742C206F62204A454D414E4420616D2042757320616E6765736367
:20126400686C6F7373656E206973740A0A00426974746520776165686C656E205369653A73
:201284000A0A0A003D3D3D3D3D3D3D3D3D3D3D3D3D3D3D3D3D3D3D3D3D3D3D3D3D3D3D3D80
:2012A4003D3D3D3D3D3D3D3D3D3D3D3D3D3D3D3D3D3D3D3D3D3D3D0A0A004461732067728A
:2012C4006F73736520312D57697265202D204453323430386572202D204C432D44697370D9
:2012E4006C6179202D2050726F6A656B740A000000000000000000FE0008019C0E6D100C14
:20130400000801DB082110C60008019C3F0B105400080186700A100000000000000000007A
:2013240000000000000000000000000000000000000000000000000000000000000000D9D0
:2013440000000013FAD3200000000000000000000000000000000000000000000000003653
:201364000000000860D4291A000000086C3B29000000000000000000000000000000000012
:201384000000000000000000000000000000000A0A202052657365742064727565636B65EF
:2013A4006E202E2E2E20000A0A0A0A20204665686C6572206265696D204C6573656E2064DB
:2013C400657320524F4D2D4964656E746966696572733A204B45494E2050726573656E630F
:2013E4006520766F6D20536C6176652021000A0A53797374656D20616E676568616C746554
:201404006E20210A0A0700556E6775656C74696765204665686C65726E756D6D657220615A
:201424007566676574726574656E2021004453323430383A204B65696E20507265732062AC
:201444006569206473323430385F666C615F636C2829004453323430383A204B65696E207E
:201464005072657320626569206473323430385F72645F666C612829004453323430383A02
:20148400204B65696E205072657320626569206473323430385F72645F7A757374616E6435
:2014A4002829004453323430383A20436F6E6669726D6174696F6E2D427974652066616C1B
:2014C40073636820696E206473323430385F77725F627974652829004453323430383A20A3
:2014E4004B65696E205072657320626569206473323430385F77725F6279746528290044A2
:2015040053323430383A204665686C657220626569206473323430385F696E69742829007D
:201524004453323430383A204B65696E205072657320626569206473323430385F696E69F3
:20154400742829004453323435303A204B65696E20507265732E3A20536368726569626518
:201564006E20696E205061676520332028496E69742D456E646529202100445332343530C1
:201584003A204B65696E20507265732E3A20537461727420436F6E766572742028456E64B6
:2015A40065292021004453323435303A204B65696E20507265732E3A205374617274204362
:2015C4006F6E766572742028416E66616E67292021004453323435303A204665686C65725A
:2015E400206265696D2052FC636B6C6573656E20766F6E205061676520332028496E697498
:20160400292021004453323435303A204B65696E20507265732E3A205363687265696265B2
:201624006E20696E205061676520332028496E69742D416E662E2920210044533234353039
:201644003A204B65696E20507265732E3A204C6573656E206175732065696E6572205365F8
:20166400697465202832292021004453323435303A204B65696E20507265732E3A204C650A
:2016840073656E206175732065696E65722053656974652028312920210044533234353005
:2016A4003A204B65696E20507265732E3A2053636872656962656E20696E2065696E652098
:2016C4005365697465202832292021004453323435303A204665686C6572206265696D2039
:2016E40053636872656962656E202D20527565636B6C6573656E2021004453323435303AF8
:20170400204B65696E20507265732E3A2053636872656962656E20696E2065696E6520531E
:2017240065697465202831292021004453313832303A204B65696E205072657320626569CE
:20174400206473313832305F77725F745F726567004453313832303A204B65696E205072E6
:20176400657320626569206473313832305F72645F74656D702829202D2032004453313841
:2017840032303A204B65696E205072657320626569206473313832305F72645F74656D70EC
:2017A4002829202D2031000A0A2533753A20001B5925632563001B481B4A001207A07E1167
:2017C4007F687C0112099B7E117F307C0112099B7E117F107C0112099B7E107FE87C0112A5
:2017E400099B80457D027F071207AA7E107FC17C0112099B7D027F071207AA120A65BF6546
:2018040002802812053EEF600B7E107FA37C0112099B80097E107F7B7C0112099B7E107F37
:201824005C7C0112099B120A6580B9228F207F321207061207D47FCC12089A7F8D12089A0E
:20184400E4FF12089AAF2012089A7F321207061207D47FF012089A7F8D12089AE4FF1208CD
:201864009A12086B8F217F32120706AF207E0074802FFDE43EFCAF217E00EF6D7004EE6CC2
:2018840060057F3312055B228F287F341207061207D47F5A12089AAF2812089AAF28EFF451
:2018A50012089A12086BEF64AA60057F3512055B12086B7F34120706221207A07E127FBE63
:2018C5007C0112099B7E127F887C0112099B7E127F727C0112099B7E127F347C0112099BDC
:2018E5007E117FFF7C0112099B7E117FDE7C0112099B7E117FC17C0112099B7E117FB97C3F
:201905000112099B7E117FB17C0112099B7E117FA07C0112099B227F361207061207D47FD6
:20192500F012089A7F8812089AE4FF12089A12086B8F2075210712086BD521FA12086B9051
:201945000080EFF012086B90007FEFF07F36120706AF2022759852438920758DFDD28ED26F
:2019650099222050542D4D696B726F636F6E74726F6C6C657220002A2A2A2A2A2A2A2A2AD6
:201985002A2A2A2A2A2A2A2A2A2A2A00202046756C6C20506F77657220776974683A20201E
:2019A5000020202050542D31576972652D4578426F20202020004469652065727374656E4B
:2019C500205A65696368656E3A0000446575747363686520536F6E6465727A65692E3A0072
:00000001FF
