:200000000223BEC8F608A60108A60208A603C822C2B47F49120189D2B47F07120189A2B46D
:20002000E433FF8F537F3E120189AF53228F52120010EF6005AF521202CC22C88604088611
:2000400005088606088607C822E6088601088602088603F822C8A60408A60508A60608A651
:2000600007C822C2B4D2B47F06DFFEA2B4E433FF8F537F0D120189AF5322A80CA90DAA0E75
:20008000AB0F22AC0CAD0DAE0EAF0F22C008C009C00AC00BC00CC00DC00EC00FC020C02159
:2000A000C022C023880C890D8A0E8B0F8C088D098E0A8F0B758200E50C450D450E450F7072
:2000C00008E4FCFDFEFF0201700582E50C548070267B01AC0CAD0DAE0EAF0F120544A80876
:2000E000A909AA0AAB0B1217056002500A8C0C8D0D8E0E8F0F80D2E4F520F521F522F523FE
:200100007B01AC20AD21AE22AF231205448C208D218E228F23A80CA90DAA0EAB0FAC08ADD3
:2001200009AE0AAF0B121705401EA80CA90DAA0EAB0FAC08AD09AE0AAF0B1216F78C088DC0
:20014000098E0A8F0B4323017B01AC0CAD0DAE0EAF0F120AF88C0C8D0D8E0E8F0FD582A01E
:20016000AC20AD21AE22AF23A808A909AA0AAB0BD023D022D021D020D00FD00ED00DD00C3B
:20018000D00BD00AD009D00822AB07E4FF80010FC3EF9B40FA22C2B4EF6002D2B47F0D121E
:2001A0000189D2B422A804A905AA06AB07228F53755401755508AD54AF53EF5DFF60077F7D
:2001C000011201968005E4FF120196AF54EF2FFF8F54D555E122AB077F7BC3EB9F40307F4C
:2001E0007ED3EB9F5029900121EB2B500205832582F58250020583740193C0E0E493C0E052
:20020000227BE1800A7BEF80067BF580027BE27D01AF0312214B22020102050209020DC0E3
:2002200000C001ED8FF0A4F9A8F0ED8EF0A428F8EC8FF0A428FEAF01D001D00022EC700722
:200240008F828E83EBF022B40206C88F00A603C822A905AD077F03D3ED9F502F900295ED03
:200260002D500205832582F58250020583740193C0E0E493C0E022AB018010744029FB800A
:200280000A741429FB8004745429FBE4FDEB4480FF12214B220277027B02810287E4F551DD
:2002A000E4F552120063EF6018AD527F01EF8DF005F08002C333D5F0FBFDAF51EF4DFF8F58
:2002C0005105527408655270DAAF51228F528552547553007E117F877C01120C217D0AAF7C
:2002E00052C3EF9D500302042D7D1DAF52D3EF9D501DAF5290042DEF2F500205832582F51A
:200300008250020583740193C0E0E493C0E0227D32AF52C3EF9D500302042D7D38AF52D392
:20032000EF9D400302042DAF52900405EF2F500205832582F58250020583740193C0E0E4A5
:2003400093C0E0227E117F5C7C01120C210204367E117F317C01120C210204367E117F0B96
:200360007C01120C210204367E107FD97C01120C210204367E107FAC7C01120C21020436F6
:200380007E107F7A7C01120C210204367E107F4A7C01120C210204367E107F1A7C01120CCD
:2003A000210204367E0F7FE47C01120C210204367E0F7FB27C01120C210204367E0F7F85B1
:2003C0007C01120C210204367E0F7F5A7C01120C210204367E0F7F247C01120C210204369F
:2003E0007E0F7F007C01120C21804B7E0E7FDF7C01120C2180407E0E7FB87C01120C218005
:20040000357E0E7F837C01120C21802A7E0E7F597C01120C21801F7E0E7F337C01120C21FA
:2004200080147E0E7F0D7C01120C2180097E0D7FE77C01120C217E0D7FCE7C01120C21800A
:20044000FE03440350035C042D042D042D042D042D042D042D036803740380038C039803BC
:1F046000A403B003BC03C803D403E003EB03F60401040C04170422EC70078F828E83E040
:2004800022D5E0078F828E8393FF22D5E006C88F008607C822EC700A8F828E83E0FEA3E036
:2004A10022D5E00B8F828E8393FE740193FF22D5E009C88F008606088607C822EC70108F62
:2004C100828E83E0FCA3E0FDA3E0FEA3E0FF22D5E0138F828E8393FC740193FD740293FE82
:2004E100740393FF22D5E00FC88F008604088605088606088607C822744B1200031202514C
:20050100E4F54F801BAF4F7E00AB07AA06E4F9F8744B12003B120B0B1204771201D6054F66
:20052100AF4F7E00AB07AA06E4F9F8744B12003B120B0B120477EF70CC22AC08AD09AE0AD7
:20054100AF0B22EB600EEF2FFFEE3EFEED3DFDEC3CFCDBF2227E147FC27C01120C21221221
:2005610017161205567E147F9C7C01120C217E147F7C7C01120C217E137F677C01120C21FB
:200581001216ED8F32746A65327005120B18800C1205567E137F2A7C01120C219000007472
:2005A1000AF07E127F2F7C01122644900000740FF07F041216701220CD122308E4FF120AB0
:2005C100257E137F15AB07AA067801E4FDE4FF1204F97E137F00AB07AA067801E4FD7F01D6
:2005E1001204F97E127FEBAB07AA067801E4FD7F021204F902090E9000007401F012221E45
:2006010074331200559000007403F012221E7437120055900000740AF012211390000CE0B0
:20062200E4FEFC7D1412021FEE3395E0FDFC121780743B12005590000EE0FFE4FEFC7D14DC
:2006420012021FEE3395E0FDFC121780743F120055900010E0FFE4FEFC7D1412021FEE33D1
:2006620095E0FDFC1217807443120055900012E0FFE4FEFC7D1412021FEE3395E0FDFC127F
:2006820017807447120055900000740FF085334B85344C85354D85364E7E127FE5AB07AA34
:2006A2000678017F2C7C021218337F2CAB0778027D02E4FF1204F985374B85384C85394DD0
:2006C200853A4E7E127FE5AB07AA0678017F2C7C021218337F2CAB0778027D0DE4FF12045C
:2006E200F9783A79837A127B6F743B12003B121F41744B1200557E127FDFAB07AA0678017E
:200702007F2C7C021218337F2CAB0778027D027F011204F9783A79837A127B6F743F120083
:200722003B121F41744B1200557E127FDFAB07AA0678017F2C7C021218337F2CAB077802BE
:200742007D0D7F011204F9783A79837A127B6F744312003B121F41744B1200557E127FDFD0
:20076200AB07AA0678017F2C7C021218337F2CAB0778027D027F021204F9783A79837A12F6
:200782007B6F744712003B121F41744B1200557E127FDFAB07AA0678017F2C7C021218337E
:2007A2007F2CAB0778027D0D7F021204F9746A653260030208607D187F07120911853353B2
:2007C2008534548535558536567E127FE57C01120C217D3C7F07120911853753853854852A
:2007E2003955853A567E127FE57C01120C217D0F7F0E120911853B53853C54853D55853E5D
:20080200567E127FD97C01120C217D337F0E120911853F538540548541558542567E127FFC
:20082200D97C01120C217D0F7F101209118543538544548545558546567E127FD97C0112EB
:200842000C217D337F10120911854753854854854955854A567E127FD97C01120C21784119
:2008620079C8E4FAFB743712003B120BF720E702700280307E127FC7AB07AA067801E4FD93
:200882007F031204F9900000740EF07F011216CC7E017FF41223D9E4FF1216CC9000007474
:2008A2000FF080117E127FB5AB07AA067801E4FD7F031204F97845797AE4FAFB744712003F
:2008C2003B120BF720E702700280307E127FA3AB07AA067801E4FD7F031204F99000007499
:2008E2000EF07F011216CC7E027FEE1223D9E4FF1216CC900000740FF080117E127FB5ABAF
:2009020007AA067801E4FD7F031204F90205F8EDAD07FF7E0074202FFFE43EFE8E558F566C
:20092200AF057E0074202FFFE43EFE8E538F547E147FBB7C01120C21228F3B7F1712002D94
:20094200120A577FAA1201AEAF3BEF2F25E025E0FF1201AEE4FF1201AEE4F53B12029DAD50
:2009620007AF3B7E00740B2FF58274003EF583EDF0053B7408653B70E312029D900002EFF9
:20098200F012029D900001EFF07F1812002D22ECF0A3EDF0A3EEF0A3EFF0228F337F141264
:2009A200002D120A577F551201AEAF33EF2F25E025E0FF1201AEE4FF1201AEE4F533AF33A4
:2009C200AD077C007E007F0BEF2DFFEE3CFE850683850782E0FF1201AE12029D900002EFAC
:2009E200F012029D900001EFF012029DAB07AF33AD077C007E007F0BEF2DFFEE3CFE850699
:200A020083850782E0FFEB6F60057F151202CC05337D08AF33C3EF9D50030209C07F16127E
:200A2200002D22EF600CEF64016010EF640260148019E4FD7F0C12214B8010E4FD7F0E12EA
:200A4200214B8007E4FD7F0F12214B228C088D098E0A8F0B22900000E0FFBFFF087FCC1282
:200A620001AE020AC17F551201AEE4F552900000E0FFAD077C007F03ED8FF005F08005C36E
:200A820033CC33CCD5F0F8FD7E0C7F2FEF2DFBEE3CFAAF52AD07E4FCFE7F07C3EF9DFFEED4
:200AA2009CFEEB2FFFEA3EFE850683850782E493FF1201AE0552740865526003020A6F227E
:200AC200880C890D8A0E8B0F22880889098A0A8B0B22EF4BFFEE4AFEED49FDEC48FC228CA8
:200AE2000C8D0D8E0E8F0F22A808A909AA0AAB0B22C082C08322EB600FECC313FCED13FD48
:200B0200EE13FEEF13FFDBF122EF2BFFEE3AFEED39FDEC38FC221205567E147F9C7C011298
:200B22000C217E147F7C7C01120C217D027F041209117E147F657C01120C217D027F0512C8
:200B420009117E147F4E7C01120C217D047F071209117E147F327C01120C217D287F0712EF
:200B620009117E147F157C01120C217D027F0B1209117E147F007C01120C217D027F0C1259
:200B820009117E137FEB7C01120C217D047F0E1209117E137FD67C01120C217D287F0E1262
:200BA20009117E137FC17C01120C217D047F101209117E137FAC7C01120C217D287F101292
:200BC20009117E137F977C01120C2122E4FFFE53058053047F7B17120AF874822FFF227881
:200BE20000793B900000E849600AE4F0A3E91970F51880F222EC6830E702EC22C3EC987058
:200C02000DED997009EE9A7005EF9B700122500474FF8002740188F030F7026480222275B0
:200C220057531201A57E167FDA121850220000000000000000FE0008019C0E6D100C000885
:200C420001DB082110C60008019C3F0B105400080186700A1000000000000000000000004B
:200C62000000000000000000000000000000000000000000000000000000000000D9000099
:200C82000013FAD3200000000000000000000000000000000000000000000000003600001C
:200CA200000860D4291A000000086C3B2900000000000000000000000000000000000000DB
:200CC200000000000000000000000000000000000000000000FE0008019C0E6D100C0008D0
:200CE20001DB082110C60008019C3F0B105400080186700A100000000000000000000000AB
:200D02000000000000000000000000000000000000000000000000000000000000D90000F8
:200D22000013FAD3200000000000000000000000000000000000000000000000003600007B
:200D4200000860D4291A000000086C3B29000000000000000000000000000000000000003A
:200D6200000000000000000000000000000A0A202052657365742064727565636B656E2089
:200D82002E2E2E20000A0A0A0A20204665686C6572206265696D204C6573656E20646573B9
:200DA20020524F4D2D4964656E746966696572733A204B45494E2050726573656E6365208A
:200DC200766F6D20536C6176652021000A0A53797374656D20616E676568616C74656E2073
:200DE200210A0A0700556E6775656C74696765204665686C65726E756D6D65722061756636
:200E0200676574726574656E2021004453323430383A204B65696E205072657320626569E1
:200E2200206473323430385F666C615F636C2829004453323430383A204B65696E205072B2
:200E4200657320626569206473323430385F72645F666C612829004453323430383A204B81
:200E620065696E205072657320626569206473323430385F72645F7A757374616E64282977
:200E8200004453323430383A20436F6E6669726D6174696F6E2D427974652066616C7363BE
:200EA2006820696E206473323430385F77725F627974652829004453323430383A204B65F1
:200EC200696E205072657320626569206473323430385F77725F62797465282900445332F5
:200EE2003430383A204665686C657220626569206473323430385F696E6974282900445394
:200F0200323430383A204B65696E205072657320626569206473323430385F696E69742816
:200F220029004453323435303A204B65696E20507265732E3A2053636872656962656E204E
:200F4200696E205061676520332028496E69742D456E6465292021004453323435303A201D
:200F62004B65696E20507265732E3A20537461727420436F6E766572742028456E646529AA
:200F82002021004453323435303A204B65696E20507265732E3A20537461727420436F6E3B
:200FA200766572742028416E66616E67292021004453323435303A204665686C65722062DD
:200FC20065696D2052FC636B6C6573656E20766F6E205061676520332028496E69742920F9
:200FE20021004453323435303A204B65696E20507265732E3A2053636872656962656E2096
:20100200696E205061676520332028496E69742D416E662E292021004453323435303A2095
:201022004B65696E20507265732E3A204C6573656E206175732065696E657220536569749D
:2010420065202832292021004453323435303A204B65696E20507265732E3A204C65736537
:201062006E206175732065696E6572205365697465202831292021004453323435303A20AB
:201082004B65696E20507265732E3A2053636872656962656E20696E2065696E6520536562
:2010A200697465202832292021004453323435303A204665686C6572206265696D20536363
:2010C2006872656962656E202D20527565636B6C6573656E2021004453323435303A204B6B
:2010E20065696E20507265732E3A2053636872656962656E20696E2065696E6520536569E4
:201102007465202831292021004453313832303A204B65696E205072657320626569206440
:2011220073313832305F77725F745F726567004453313832303A204B65696E2050726573BA
:2011420020626569206473313832305F72645F74656D702829202D203200445331383230DF
:201162003A204B65696E205072657320626569206473313832305F72645F74656D70282925
:20118200202D2031000A0A2533753A20000000000000000000FE0008019C0E6D100C000832
:2011A20001DB082110C60008019C3F0B105400080186700A100000000000000000000000E6
:2011C2000000000000000000000000000000000000000000000000000000000000D9000034
:2011E2000013FAD320000000000000000000000000000000000000000000000000360000B7
:20120200000860D4291A000000086C3B290000000000000000000000000000000000000075
:2012220000000000000000000000000000080808080101010108080A0A010101010A0A0A42
:201242000A0101010102030405010101011010101001010101080808080000000000000008
:2012620001000000020000000400000008000000100000002000000040000000800000016C
:2012820000000002000000040000000800000010000000200000004000000080000001004D
:2012A200005370672D44207A7520686F63682021212000202020202020202020202020209E
:2012C2002020202000412D54656D70207A7520686F63682021210025362E31660025352EAD
:2012E20033660025352E316600433A202020202020562020443A2020202020205600413A52
:20130200202020202020562020423A2020202020205600493A202020202020432020413AA2
:2013220020202020202043004469652067726F73736520312D576972652D476573616D7440
:201342002D44656D6F206C6165756674206175662064656D204C432D446973706C617920B4
:201362002E2E2E2000417573676162652064657220446174656E2061756368206175662065
:2013820064656D205465726D696E616C20286A2F6E293A20004B616E616C2D443A202020F5
:2013A200202020202020206D56004B616E616C2D433A202020202020202020206D56004BA9
:2013C200616E616C2D423A202020202020202020206D56004B616E616C2D413A20202020B4
:2013E2002020202020206D56003D3D3D3D3D3D3D3D3D3D3D3D3D3D3D3D3D3D3D3D004572ED
:20140200666173737465205370616E6E756E67656E3A0054656D706572617475722D4155E1
:201422005353454E3A202020202020202020430054656D706572617475722D494E4E454E06
:201442003A20202020202020202043003D3D3D3D3D3D3D3D3D3D3D3D3D3D3D3D3D3D3D3D29
:201462003D3D0045726661737374652054656D70657261747572656E3A003D3D3D3D3D3DEF
:201482003D3D3D3D3D3D3D3D3D3D3D3D3D3D3D3D3D3D3D3D3D3D3D0A0A00446965206772B0
:2014A2006F73736520312D576972652D476573616D742D44656D6F0A001B5925632563008D
:2014C2001B481B4A00322BCC7733D6BF95358637BD3727C5AC38D1B7173A83126F3C23D77C
:2014E2000A3DCCCCCD3F8000004120000042C80000447A0000461C400047C3500049742479
:20150200004B1896804CBEBC204E6E6B28501502F951BA43B75368D4A5551184E756B5E6C0
:201522002158635FA95A0E1BCA5BB1A2BC5D5E0B6B5F0AC72360AD78EC6258D72764078670
:201542007865A968166753C21C690459516AA56FA66C4ECB8F6E013F396FA18F087149F264
:20156200CA72FC6F7C749DC5AE7645371977F684DF799A130C7B4097CE7CF0BDC27E967620
:20158200990000000A00000064000003E800002710000186A0000F42400000000500000063
:2015A20032000001F4000013880000C3500000C3508F517F3412002D120A577F5A1201AE62
:2015C200AF511201AEAF51EFF4FF1201AE12029DEF64AA60057F351202CC12029D7F341288
:2015E200002D22120A4EE4F812053BE4FFFE53058053047F7B17120AF8A907E97008E4FCDC
:20160200FDFEFF02166112053BE4FFFEFD530480EC4D4E4F6002780112053B53057F7C00F8
:20162200430580120A4E800C7B0112053B120AF8120A4E097F96C3E99F40ED800C7B0112EE
:20164200053B120544120A4E197F96D3E99F50EDE8600912053B121662120A4E12053B22B2
:20166200E4C39FFFE49EFEE49DFDE49CFC228F337F3212002D120A577FCC1201AE7F8D1238
:1F16820001AEE4FF1201AEAF331201AE7F3212002D120A577FF01201AE7F8D1201AEE40F
:2016A2001201AE12029D8F347F3212002DAF337E0074802FFDE43EFCAF347E00EF6D700434
:2016C200EE6C60057F331202CC22AD077F01C3EF9DFD7F071225FD22BF0A083099FDC29947
:2016E20075990D3099FDC2998F99223098FDAF99C2987E0022C3EF9BFFEE9AFEED99FDEC1A
:2017020098FC22EF9BF5F0EE9A42F0ED9942F0EC9845F022759852438920758DFDD28ED2D9
:2017220099227F3612002D120A577FF01201AE7F881201AEE4FF1201AE12029D8F4D754E99
:201742000712029DD54EFA12029D900002EFF012029D900001EFF07F3612002DAF4D22ABB2
:2017620007742412003B12023D0527E527700E0526E52670080525E52570020524221201C2
:20178200A5AC00AD01AE02AF03EC4D4E4F7008E4FCFDFEFF021832AC00AD01AE02AF03ECCA
:2017A20030E71375F001AC00AD01AE02AF03121662120A4E8006E4F5F0120ACB7996800C16
:2017C200097B0112053B120AF8120A4E12053BE4FFFEFDEC4D4E4F70E7800C7B0112053BFB
:2017E200120544120A4E1912053BE4FFFE5305807C00EC4D4E4F60E312053B53057F7C00C4
:20180200120A4EAF01E4FEFDFC7B17120544120AEA120AD41201A5E5F0600DEBFFEAFEE939
:20182200FDE84480FC1201A5AC00AD01AE02AF0322742412005575574B7E177F6112185066
:201842008E4F8F50E4FF121761AE4FAF50228E588F59745A120003E4F55EF55F745A120023
:201862003B1204778F61055DE55D700E055CE55C7008055BE55B7002055AE5617007AE5E38
:20188200AF5F021F28742565616003021F12E4F562E4F563756401E4F565E4F566E4F567EC
:2018A200745A12003B1204778F61055DE55D700E055CE55C7008055BE55B7002055AAF61D1
:2018C200EF64637003021CF7AF61EF646670030219357D66AF61D3EF9D50357D2EAF61C3E7
:2018E200EF9D5003021F127D39AF61D3EF9D4003021F12AF61901ECDEF2F5002058325820F
:20190200F58250020583740193C0E0E493C0E022AF61EF646C7003021C8A7D6CAF61C3EFFE
:201922009D5003021F12AF61EF64757003021C3D021F1243621074042557F557AF57AB07FC
:2019420078027CFF7DFF7EFF7FFC120B0B1204BD7468120055EC30E710746812003B12236D
:201962009B7468120055436202746812003BEC4D4E4F7006E4F560021A64746812003B1277
:201982000BCEAD07ED30E70474FD2DFDEDFF3395E0FE7C007D0312021F7C007D0A1221F42A
:2019A2001F8F607D0EAF60D3EF64806305809D402F7F4F855883855982120AF37F56855894
:2019C20083855982120AF37F4C855883855982120AF37403255FF55FE4355EF55E0218A2A4
:2019E200AF60EFF404FFFF3395E0FE740E2FFFE43EFE7E00EF2FFDEE33FCED2DFDEC33FC93
:201A02007E147FC7EF2DFFEE3CFE8E838F821222F8746812003B121F411201A57C3FE4FD6C
:201A2200FEFF1223EC7468120055784C79BE7ABC7B20746812003B120BF720E725783D79E0
:201A4200CC7ACC7BCD746812003B121F411201A57C3E7DE67E667F661223EC74681200558D
:201A62000560746812003B1215E57468120055780079987A967B80746812003BC3121705D9
:201A82004015E4F8F9FA7B0A746812003B12008C74681200550560756C00756D0F756E4235
:201AA200756F407567017D07AF60C3EF64806305809D4003436208AF62530708EF600302BE
:201AC2001B31AF60EF20E703021B2B7DF8AF60D3EF64806305809D4045AF60EFFD3395E091
:201AE200FC7E007F08C3EF9DFFEE9CFEEF2FFDEE33FCED2DFDEC33FC7E147FC7EF2DFFEEC2
:201B02003CFE8E838F821222E81215E51201A5746812003B12008C74681200558011E4F513
:201B220068F569F56AF56B800674012560F567756408AF63530702EF7003021D50AD677F8F
:201B420006C3EF9DFDAF65C3ED9FFF8F0CAF0CEF30E703021D50AF0CEF3395E0FEEF2FFD96
:201B6200EE33FCED2DFDEC33FC7E157F9BEF2DFFEE3CFE8E838F821222F8746812003B129B
:201B82000B0B120A4E780079987A967B8012053BC31217054030AF62530708EF6013056042
:201BA200E4F8F9FA7B0A12053B12008C120A4E80150567E4F8F9FA7B0A746C12003B1223BE
:1F1BC20010746C120055AF0CEF3395E0FEEF2FFDEE33FCED2DFDEC33FC7E157F83EF2D42
:201BE200EE3CFE8E838F821222F8746C12003B12008C746C120055AF0CEF3395E0FEEF2FED
:201C0200FDEE33FCED2DFDEC33FC7E157F83EF2DFFEE3CFE8E838F821222F812053B1200EC
:201C22008C7468120055AD67AF65ED2FFF8F64E5657003021D500564021D50AF625307042A
:201C4200EF602274042557F557AF57AB0778027CFF7DFF7EFF7FFC120B0B1204BD746812C7
:201C62000055021D1405570557AF57AB0778027CFF7DFF7EFF7FFE120B0B120495E4FDFC4F
:201C82007468120055021D144362040218A24363800218A2AF6174D02FFB80297F0AEB8F5B
:201CA200F0A4F9745A12003B12047774D02FFF29FB055DE55D700E055CE55C7008055BE5D6
:201CC2005B7002055A745A12003B120477AD077F30C3ED9F40077F39D3ED9F40BFAF6353BA
:201CE2000780EF60088B654363020218A28B664363010218A205570557AF57AB0778027CF6
:201D03007DFF7EFF7FFE120B0B1204958F61021F12756C00756D00756E00756F018015E450
:201D2300F8F9FA7B0A746C12003B122310746C1200550564786C120049746812003B120094
:201D43008CE4F8F9FA7B09D312170550D2AF62530762EF60020564AF63530701EF6028AF64
:201D630063530714EF7020801515667F20855883855982120AF3055FE55F7002055EAD6602
:201D8300AF64C3EF9D40E2AF62530702EF60047D2D8002E4FDED6013AF058558838559821B
:201DA300120AF3055FE55F7002055EAF63530701EF7003021E64AF63530704EF7003021E4F
:201DC30064801515667F30855883855982120AF3055FE55F7002055EAD66AF64C3EF9D40DC
:201DE300E2021E64AF62530710EF6019E56770137F2E855883855982120AF3055FE55F7034
:201E030002055E1567786C120049746812003B12008C8F82AF827E00AB07AA06E4F9F8746D
:201E23006C12003B1223101201A5746812003B1216F77468120055AF8274302FFF855883FB
:201E4300855982120AF3055FE55F7002055EE4F8F9FA7B0A746C12003B12008C746C120082
:201E630055746C12003BEC4D4E4F6003021DE7AF62530708EF7003021EE4AF625307958F36
:201E8300657F65855883855982120AF3055FE55F7002055EAF654307208F62AF60EF30E726
:201EA3000D436202AF60EFF404FF8F6080137F2B855883855982120AF3055FE55F7002055C
:201EC3005EAF60EF3395E0FE3395E0FDFC7468120055756C00756D00756E00756F0A021D66
:201EE30050AF63530701EF700302185E801515667F20855883855982120AF3055FE55F70B2
:201F030002055EAD66AF64C3EF9D40E202185EAF61855883855982120AF3055FE55F700251
:201F2300055E02185E221C901F121F121C961C961C961C961C961C961C961C961C96120A35
:201F4300CB120AE1E4F582120083EC4D4E4F600912053BEC4D4E4F7008E4FCFDFEFF0220EB
:201F6300CC120083E4FFFEFD530480EC4D4E4F600375820112053BE4FFFEFD530480EC4DD7
:201F83004E4F600363820112053BE4FFFE53058053047F7B17120AF8A907120083E4FFFEAB
:201FA30053058053047F7B17120AF8E92FFF74822FFF8F8312008353057F7C0043058012BB
:201FC3000AE112053B53057F7C0043058074281200557B08742812003B120AF8120A4E7B3E
:201FE30008120083120AF8120AEA122310120A4E7B08742812003B120AF81201A5120083AB
:20200300E4FEFDFC1223107B08120AF8120AEA120B0B120A4E7B08120083120AF81201A58A
:20202300742812003BE4FEFDFC1223107B08120AF8120AEA120B0B120AE1E4FFFEFD53049D
:2020430080EC4D4E4F6011E4F8F9FA7B80120083120B0B120A4E800FE4F8F9FA7B4012009A
:2020630083120B0B120A4E12053BE4FFFEFD530480EC4D4E4F600D7B0812053B120AF81203
:202083000AE1800D7B0712053B120AF8120AE1158312008353057F7C00120A4EAF83E4FEE2
:2020A300FDFC7B17120544120AEA120AD41201A5E582600DEBFFEAFEE9FDE84480FC120142
:2020C300A5AC00AD01AE02AF03227E007F0F1223D97F031215B37E007F051223D97F031260
:2020E30015B37E007F011223D97F031215B37F021215B3E4FD7F2812214BE4FD7F081221B1
:202103004BE4FD7F0112214BE4FD7F0612214B227F1B12002D120A577F3C1201AE7F0F1224
:2021230001AE7F551201AE12029D900002EFF012029D900001EFF012029DBFFFFA7F1C12FF
:20214300002DE4FF12093B22AB07A905EBC4540FFD53030FB9010874102DFD74102BFB7492
:20216300E02DFD74E02BFF8F50AF051215B3AF501215B322C000C001C002C003C083C082E1
:20218300AA04AB05A806A90775F000EA4B7006E4FEFF0221E705F0EA54807017EB2BF582BE
:2021A300EA33F583D3E58299E583985006AA83AB8280E2E4F583F582E5822582F582E583E2
:2021C30033F583C3E99BE89A4008C3E99BF9E89AF8A3EAC313FAEB13FBD5F0DCAE83AF822D
:2021E300AC00AD01D082D083D003D002D001D00022EC6EC0E0EE30E707E4C39FFFE49EFEAA
:20220300EC30E707E4C39DFDE49CFC122177D0E030E707E4C39FFFE49EFE227F0A12002DCD
:20222300120A577F441201AE7E037F201223D97F0B12002D120A577FBE1201AEE4F537121A
:20224300029DAD07AF377E0074272FF58274003EF583EDF005377409653770E3900028E03C
:202264007023900027E0FF7E00EE3395E0FDFC1217801201A57C3FE4FDFEFF121F4174370D
:202284001200558032900027E0FFF4FF7E000FEF70010EEE3395E0FDFC12178078BF798035
:2022A400E4FAFB121F411201A57C3FE4FDFEFF121F417437120055E4FCFD7B09900027E002
:2022C5007E00EF2DFDEE3CFCA3DBF3BDF70FBC080C75374475380A7539C0753A00743712B7
:2022E500003B22E493FC740193FD740293FE740393FF22E493F8740193F9740293FA7403E8
:2023050093FB22E4FD7F0112214B22C008C009C00AC00BEF8BF0A4F50B85F00AEF8AF0A447
:20232500250AF50AE5F03400F509EF89F0A42509F509E5F03400F508EF88F0A42508F508F0
:20234500EE8BF0A4250AF50AE5F03509F509E5083400F508EE8AF0A42509F509E5F03508C4
:20236500F508EE89F0A42508F508ED8BF0A42509F509E5F03508F508ED8AF0A42508F508AA
:20238500EC8BF0A42508FCAD09AE0AAF0BD00BD00AD009D008221201A5AC00AD01AE02AFE3
:2023A50003EC4D4E4F7007E4FCFDFEFF800AEBFFEAFEE9FDE86480FC22E5A8C2AF5490756B
:2023C500816FA881760018B81FFAC0E01225F9D0A8020560EF60010E90FF67A3E5834582AB
:2023E50070F9DFF4DEF222120A4E120AC2E4F812053BE4FFFE53058053047F7B17120AF8FF
:202405008FF0120083E4FFFE53058053047F7B17120AF8A907AF017E0074192FFDE43EFCB9
:20242500AFF07E00D3EF9DEE64806304809C5003E9700612053B0225F8AFF07E0074192FCA
:20244500FDE43EFCAF017E00D3EF9DEE64806304809C40061200830225F812053BE4FFFE4D
:20246500FD530480EC4D4E4F60027801120083E4FFFEFD530480EC4D4E4F600343000212F8
:20248500053B53057F7C00430580120A4E12008353057F7C00430580120AE17B0612053BF2
:2024A500120544120A4E7B06120083120544120AE1AFF0D3EF99401CAD017C00AFF07E0047
:2024C500C3EF9DFFEE9CFEAB07120083120AF8120AE18027AFF0C3E5079501501EAFF0AD84
:2024E500077C00AF017E00C3EF9DFFEE9CFEAB0712053B120AF8120A4E89F0E85401FF60B9
:202505000912053B121662120A4EE85402FF6009120083121662120AE112007A12053B12B5
:202525000B0B120A4EE4F58212053BE4FFFEFD530480EC4D4E4F600E12053B121662120A78
:202545004E758201801E12053BEC4D4E4F7015E4FCFDFEFF0225F87B0112053B12054412B1
:202565000A4E15F012053BE4FFFEFD530440EC4D4E4F60E3E4F8F9FA7B4012053B120B0B15
:20258500120A4EE4FFFEFD530480EC4D4E4F700D7B0112053B120544120A4E15F0AFF0A9E4
:2025A5000709097B0812053B120AF8120A4EEC4D4E4F7007E4FCFDFEFF803812053B530521
:1F25C5007F7C00120A4EAF01E4FEFDFC7B17120544120AEA120AD41201A5E582600DEBAD
:2025E500EAFEE9FDE84480FC1201A5AC00AD01AE02AF0322120BE1228D4B8F4C121724ADFD
:2026050007E54B6018AB4C7F01EF8BF005F08002C333D5F0FBFFAB07ED4BF9801AAB4C7F06
:2026250001EF8BF005F08002C333D5F0FBFB7FFFC3EF9BFFED5FF9E9440FFF1215B3227448
:2026450033120055120477900026EFF0743312003B120477BF100790000BE4F0800D7433BF
:2026650012003B12047790000BEFF0E4F8F9FA7B01743312003B120B0B120477900025EF69
:20268500F0E4F8F9FA7B01743312003B120B0B120477BF100790000DE4F08016E4F8F9FAA5
:2026A5007B01743312003B120B0B12047790000DEFF0E4F8F9FA7B02743312003B120B0B0C
:2026C500120477900024EFF0E4F8F9FA7B02743312003B120B0B120477BF100790000FE487
:2026E500F08016E4F8F9FA7B02743312003B120B0B12047790000FEFF0E4F8F9FA7B03741B
:202705003312003B120B0B120477900023EFF0E4F8F9FA7B03743312003B120B0B120477F7
:20272500BF1007900011E4F08016E4F8F9FA7B03743312003B120B0B120477900011EFF03D
:20274500E4F8F9FA7B04743312003B120B0B12047790000CEFF0E4F8F9FA7B0474331200FB
:202765003B120B0B1204777E00EE3395E0FDFC1217801201A57C407D237ED77F0A121F414A
:20278500784079237AD77B0A1223EC90001F120991E4F8F9FA7B05743312003B120B0B1211
:2027A50004777E00EE3395E0FDFC1217801201A57C407D237ED77F0A121F41784079237AB1
:2027C500D77B0A1223EC90001B120991E4F8F9FA7B05743312003B120B0B12047790000E8A
:2027E500EFF0E4F8F9FA7B06743312003B120B0B1204777E00EE3395E0FDFC121780120133
:20280500A57C407D237ED77F0A121F41784079237AD77B0A1223EC900017120991E4F8F9EF
:20282500FA7B06743312003B120B0B120477900010EFF0E4F8F9FA7B07743312003B120B8E
:202845000B1204777E00EE3395E0FDFC1217801201A57C407D237ED77F0A121F4178407990
:20286500237AD77B0A1223EC900013120991E4F8F9FA7B07743312003B120B0B1204779060
:202885000012EFF07F0112099D7F1912002D120A577F551201AE7F1C1201AEE4FF1201AE2B
:2028A5007F401201AE12029D900002EFF012029D900001EFF012029DEF644060057F1A12FC
:0828C50002CC7F1D12002D2240
:00000001FF
