:20000000020100C082C083228C0C8D0D8E0E8F0F228C088D098E0A8F0B22880889098A0A74
:200020008B0B22880C890D8A0E8B0F22EF2BFFEE3AFEED39FDEC38FC22EF4BFFEE4AFEED8A
:2000400049FDEC48FC22742A121005E4F50EF50FE4F50C852A08852B09852C0A852D0BE4A7
:20006000F8F9FA7B0112014D12002C742A12100512014D1211F0AB07E50C700DEB64206054
:2000800003BB090280CD750C017401650C7010BB2D05750C8080BC750C02BB2B0280B47F1A
:2000A00030C3EB9F40077F39D3EB9F400280287E007F0AAC0EAD0F12115BAC06AD07AF036A
:2000C0007E0074D02FFF74FF3EFEEF2DFFEE3CFE8E0E8F0F020053AF0C7E00EF64804E70E5
:2000E0000DAE0EAF0FC3E49FFDE49EFC8004AC0EAD0FAE04AF0522A808A909AA0AAB0B2248
:20010000E5A8C2AF549075815EA881760018B81FFAC0E0120176D0A80229FE7800791190C5
:200120000000E849600AE4F0A3E91970F51880F222EF60010E90FF67A3E583458270F9DF2C
:20014000F4DEF222A80CA90DAA0EAB0F22AC08AD09AE0AAF0B22E493FC740193FD7402933C
:20016000FE740393FF22E493F8740193F9740293FA740393FB2212011B228E438F4474450F
:20018000121021E4F549F54A74451210131211F08F4C0548E548700E0547E54770080546AC
:2001A000E54670020545E54C7007AE49AF4A0208C77425654C60030208B1E4F54DE4F54E3A
:2001C000754F01E4F550E4F551E4F55274451210131211F08F4C0548E548700E0547E54790
:2001E00070080546E54670020545AF4CEF6463700302063CAF4CEF646670030202697D6676
:20020000AF4CD3EF9D50357D2EAF4CC3EF9D50030208B17D39AF4CD3EF9D40030208B1AF3F
:200220004C90086CEF2F500205832582F58250020583740193C0E0E493C0E022AF4CEF644F
:200240006C70030205C17D6CAF4CC3EF9D50030208B1AF4CEF64757003020574AF4CEF64B7
:200260007870030205710208B1434D1074042542F542AF42AB0778027CFF7DFF7EFF7FFC9E
:2002800012002C12118C7453121005EC30E71074531210131208E07453121005434D027486
:2002A00053121013EC4D4E4F7006E4F54B0203987453121013120ECFAD07ED30E70474FD91
:2002C0002DFDEDFF3395E0FE7C007D0312115B7C007D0A120DDA1F8F4B7D0EAF4BD3EF6448
:2002E000806305809D402F7F4F8543838544821200037F568543838544821200037F4C8541
:2003000043838544821200037403254AF54AE43549F5490201CCAF4BEFF404FFFF3395E09C
:20032000FE740E2FFFE43EFE7E00EF2FFDEE33FCED2DFDEC33FC7E217FD1EF2DFFEE3CFED5
:200340008E838F821201667453121013120BD112112B7C3FE4FDFEFF120903745312100525
:20036000784C79BE7ABC7B207453121013120EE220E725783D79CC7ACC7BCD745312101303
:20038000120BD112112B7C3E7DE67E667F661209037453121005054B7453121013120D5D67
:2003A0007453121005780079987A967B807453121013C3120E334015E4F8F9FA7B0A745339
:2003C00012101312102E7453121005054B75570075580F755942755A407552017D07AF4B4D
:2003E000C3EF64806305809D4003434D08AF4D530708EF6003020465AF4BEF20E7030204F3
:200400005F7DF8AF4BD3EF64806305809D4045AF4BEFFD3395E0FC7E007F08C3EF9DFFEE93
:200420009CFEEF2FFDEE33FCED2DFDEC33FC7E217FD1EF2DFFEE3CFE8E838F8212015612E9
:200440000D5D12112B745312101312102E74531210058011E4F553F554F555F55680067415
:2004600001254BF552754F08AF4E530702EF70030206C9AD527F06C3EF9DFDAF50C3ED9F4E
:200481008F0CAF0CEF30E7030206C9AF0CEF3395E0FEEF2FFDEE33FCED2DFDEC33FC7E22D1
:2004A1007FA5EF2DFFEE3CFE8E838F82120166745312101312002C120011780079987A9643
:2004C1007B8012014DC3120E334030AF4D530708EF6013054BE4F8F9FA7B0A12014D121054
:2004E1002E12001180150552E4F8F9FA7B0A7457121013120E447457121005AF0CEF3395A2
:20050100E0FEEF2FFDEE33FCED2DFDEC33FC7E227F8DEF2DFFEE3CFE8E838F821201667494
:200521005712101312102E7457121005AF0CEF3395E0FEEF2FFDEE33FCED2DFDEC33FC7EB4
:20054100227F8DEF2DFFEE3CFE8E838F8212016612014D12102E7453121005AD52AF50ED05
:200561002FFF8F4FE55070030206C9054F0206C9434D01AF4D530704EF602274042542F5A0
:2005810042AF42AB0778027CFF7DFF7EFF7FFC12002C12118C745312100502065905420584
:2005A10042AF42AB0778027CFF7DFF7EFF7FFE12002C1211C8E4FDFC745312100502065995
:2005C100434D040201CC434E800201CCAF4E530780EF7006434E040201CCAF4C74D02FF9D0
:2005E10080297F0AE98FF0A4FB74451210131211F074D02FFF2BF90548E548700E0547E501
:200601004770080546E5467002054574451210131211F0AD077F30C3ED9F40077F39D3ED76
:200621009F40BFAF4E530780EF60088950434E020201CC8951434E010201CC05420542AF3A
:2006410042AB0778027CFF7DFF7EFF7FFE12002C1211C88F4C0208B1755700755800755914
:2006610000755A01AF4D530701EF604380117B0474571210131211497457121005054F7886
:2006810057121134745312101312102EE4F8F9FA7B0FD3120E3350D6802EE4F8F9FA7B0AB8
:2006A1007457121013120E447457121005054F7857121134745312101312102EE4F8F9FA4E
:2006C1007B09D3120E3350D2AF4D530762EF6002054FAF4E530701EF6028AF4E530714EFC7
:2006E1007020801515517F20854383854482120003054AE54A70020549AD51AF4FC3EF9D9B
:2007010040E2AF4D530702EF60047D2D8002E4FDED6013AF05854383854482120003054AF0
:20072100E54A70020549AF4E530701EF7003020803AF4E530704EF7003020803801515513D
:200741007F30854383854482120003054AE54A70020549AD51AF4FC3EF9D40E2020803AFD7
:200761004D530710EF6019E55270137F2E854383854482120003054AE54A700205491552A2
:200781007857121134745312101312102E8F82AF827E00AB07AA06E4F9F8745712101312DD
:2007A1000E4412112B7453121013120E177453121005AF8274302FFD7F39D3ED9F400474A7
:2007C100272DFDAF05854383854482120003054AE54A70020549AF4D530701EF60117B04F4
:2007E100745712101312117974571210058013E4F8F9FA7B0A745712101312102E74571256
:2008010010057457121013EC4D4E4F6003020760AF4D530708EF7003020883AF4D530795E8
:200821008F507F65854383854482120003054AE54A70020549AF504307208F4DAF4BEF30AD
:20084100E70D434D02AF4BEFF404FF8F4B80137F2B854383854482120003054AE54A70027F
:200861000549AF4BEF3395E0FE3395E0FDFC7453121005755700755800755900755A0A02C9
:2008810006C9AF4E530701EF7003020188801515517F20854383854482120003054AE54A80
:2008A10070020549AD51AF4FC3EF9D40E2020188AF4C854383854482120003054AE54A70EB
:2008C1000205490201882205C708B105CD05DB05DB05DB05DB05DB05DB05DB05DB05DB12D1
:2008E100112BAC00AD01AE02AF03EC4D4E4F7007E4FCFDFEFF800AEBFFEAFEE9FDE86480CA
:20090100FC22120011120023E4F812014DE4FFFE53058053047F7B171211798FF012114085
:20092100E4FFFE53058053047F7B17121179A907AF017E0074192FFDE43EFCAFF07E00D354
:20094100EF9DEE64806304809C5003E9700612014D020B0FAFF07E0074192FFDE43EFCAFE4
:20096100017E00D3EF9DEE64806304809C4006121140020B0F12014DE4FFFEFD530480EC7D
:200981004D4E4F60027801121140E4FFFEFD530480EC4D4E4F600343000212014D53057FC4
:2009A1007C0043058012001112114053057F7C004305801200087B0612014D1211491200D8
:2009C100117B06121140121149120008AFF0D3EF99401CAD017C00AFF07E00C3EF9DFFEEC2
:2009E1009CFEAB071211401211791200088027AFF0C3E5079501501EAFF0AD077C00AF0119
:200A01007E00C3EF9DFFEE9CFEAB0712014D12117912001189F0E85401FF600912014D1220
:200A21000E25120011E85402FF6009121140120E2512000812014412014D12002C120011DF
:200A4100E4F58212014DE4FFFEFD530480EC4D4E4F600E12014D120E2512001175820180A1
:200A61001E12014DEC4D4E4F7015E4FCFDFEFF020B0F7B0112014D12114912001115F01224
:1F0A8100014DE4FFFEFD530440EC4D4E4F60E3E4F8F9FA7B4012014D12002C120011E44B
:200AA100FEFD530480EC4D4E4F700D7B0112014D12114912001115F0AFF0A90709097B08BC
:200AC10012014D121179120011EC4D4E4F7007E4FCFDFEFF803812014D53057F7C00120052
:200AE10011AF01E4FEFDFC7B171211491200F712003912112BE582600DEBFFEAFEE9FDE845
:200B01004480FC12112BAC00AD01AE02AF032212112BAC00AD01AE02AF03EC4D4E4F700890
:200B2100E4FCFDFEFF020BC2AC00AD01AE02AF03EC30E71375F001AC00AD01AE02AF031205
:200B41000E251200118006E4F5F012001A7996800C097B0112014D12117912001112014D24
:200B6100E4FFFEFDEC4D4E4F70E7800C7B0112014D1211491200111912014DE4FFFE5305C0
:200B8100807C00EC4D4E4F60E312014D53057F7C00120011AF01E4FEFDFC7B1712114912CE
:200BA10000F712003912112BE5F0600DEBFFEAFEE9FDE84480FC12112BAC00AD01AE02AFFB
:200BC100032275423012112B7E0E7F0412017A2212001A120008E4F582121140EC4D4E4F22
:200BE100600912014DEC4D4E4F7008E4FCFDFEFF020D5C121140E4FFFEFD530480EC4D4EF9
:200C01004F600375820112014DE4FFFEFD530480EC4D4E4F600363820112014DE4FFFE5361
:1F0C2100058053047F7B17121179A907121140E4FFFE53058053047F7B17121179E92F43
:200C410074822FFF8F8312114053057F7C0043058012000812014D53057F7C0043058074D6
:200C6100201210057B0874201210131211791200117B081211401211791200F7120E441220
:200C810000117B08742012101312117912112B121140E4FEFDFC120E447B08121179120039
:200CA100F712002C1200117B0812114012117912112B7420121013E4FEFDFC120E447B0880
:200CC1001211791200F712002C120008E4FFFEFD530480EC4D4E4F6011E4F8F9FA7B80123E
:200CE100114012002C120011800FE4F8F9FA7B4012114012002C12001112014DE4FFFEFD26
:200D0100530480EC4D4E4F600D7B0812014D121179120008800D7B0712014D121179120002
:200D210008158312114053057F7C00120011AF83E4FEFDFC7B171211491200F712003912C8
:200D4100112BE582600DEBFFEAFEE9FDE84480FC12112BAC00AD01AE02AF0322120011E4EF
:200D6100F812014DE4FFFE53058053047F7B17121179A907E97008E4FCFDFEFF020DD91278
:200D8100014DE4FFFEFD530480EC4D4E4F6002780112014D53057F7C004305801200118080
:200DA1000C7B0112014D121179120011097F96C3E99F40ED800C7B0112014D12114912000F
:200DC10011197F96D3E99F50EDE8600912014D120E2512001112014D22EC6EC0E0EE30E7A1
:200DE10007E4C39FFFE49EFEEC30E707E4C39DFDE49CFC120F0CD0E030E707E4C39FFFE43B
:200E01009EFE22BF0A083099FDC29975990D3099FDC2998F9922C3EF9BFFEE9AFEED99FD46
:200E2100EC98FC22E4C39FFFE49EFEE49DFDE49CFC22EF9BF5F0EE9A42F0ED9942F0EC98C9
:200E410045F022C008C009C00AC00BEF8BF0A4F50B85F00AEF8AF0A4250AF50AE5F0340043
:200E6100F509EF89F0A42509F509E5F03400F508EF88F0A42508F508EE8BF0A4250AF50AC5
:200E8100E5F03509F509E5083400F508EE8AF0A42509F509E5F03508F508EE89F0A42508A3
:200EA100F508ED8BF0A42509F509E5F03508F508ED8AF0A42508F508EC8BF0A42508FCADD7
:1F0EC10009AE0AAF0BD00BD00AD009D00822E4FFFE53058053047F7B1712117974822F2D
:200EE10022EC6830E702EC22C3EC98700DED997009EE9A7005EF9B700122500474FF80022E
:200F0100740188F030F70264802222C000C001C002C003C083C082AA04AB05A806A90775D6
:200F2100F000EA4B7006E4FEFF020F7C05F0EA54807017EB2BF582EA33F583D3E58299E593
:200F410083985006AA83AB8280E2E4F583F582E5822582F582E58333F583C3E99BE89A40EF
:200F610008C3E99BF9E89AF8A3EAC313FAEB13FBD5F0DCAE83AF82AC00AD01D082D083D086
:200F810003D002D001D000223098FDAF99C2987E0022742A121005E4F52EAF031F8F2F1244
:200FA1000F898F30740865307017E52E60F1152E7F08120E047F20120E047F08120E048001
:200FC100DEAF30EF640A6006740D65307005E4F530800DAD2FAF2EEF6D60C4AF30120E0433
:200FE100AF2E7E00AB07AA06E4F9F8742A12101312002CAB3012120EE5306005052E020F82
:20100100A0AF2E22C8A60408A60508A60608A607C822C88604088605088606088607C822C0
:20102100C8F608A60108A60208A603C822C008C009C00AC00BC00CC00DC00EC00FC05BC0C0
:201041005CC05DC05E880C890D8A0E8B0F8C088D098E0A8F0B758200E50C450D450E450F5F
:201061007008E4FCFDFEFF0211120582E50C548070267B01AC0CAD0DAE0EAF0F121149A89A
:2010810008A909AA0AAB0B120E336002500A8C0C8D0D8E0E8F0F80D2E4F55BF55CF55DF592
:2010A1005E7B01AC5BAD5CAE5DAF5E1211498C5B8D5C8E5D8F5EA80CA90DAA0EAB0FAC0889
:2010C100AD09AE0AAF0B120E33401EA80CA90DAA0EAB0FAC08AD09AE0AAF0B120E178C08B3
:2010E1008D098E0A8F0B435E017B01AC0CAD0DAE0EAF0F1211798C0C8D0D8E0E8F0FD582BE
:20110100A0AC5BAD5CAE5DAF5EA808A909AA0AAB0BD05ED05DD05CD05BD00FD00ED00DD01E
:201121000CD00BD00AD009D00822A804A905AA06AB0722E6088601088602088603F822ACE0
:201141000CAD0DAE0EAF0F22EB600EEF2FFFEE3EFEED3DFDEC3CFCDBF222C000C001ED8F55
:20116100F0A4F9A8F0ED8EF0A428F8EC8FF0A428FEAF01D001D00022EB600FECC313FCED6D
:2011810013FDEE13FEEF13FFDBF122EC70108F828E83E0FCA3E0FDA3E0FEA3E0FF22D5E08C
:2011A100138F828E8393FC740193FD740293FE740393FF22D5E00FC88F00860408860508F3
:2011C1008606088607C822EC700A8F828E83E0FEA3E0FF22D5E00B8F828E8393FE7401937E
:2011E20022D5E009C88F008606088607C822EC70078F828E83E0FF22D5E0078F828E8393B4
:2012030022D5E006C88F008607C822EC70078F828E83EBF022B40206C88F00A603C822ED0B
:20122300AD07FF7E0074202FFFE43EFE8E328F33AF057E0074202FFFE43EFE8E308F317E06
:20124300217FC57C01120BC3221229F47E187F147C01120BC37E177FD87C01120BC37E1714
:201263007F9A7C01120BC37B067F247C02120F937F247C021200468E2A8F2B7D027F06129E
:2012830012227E177F817C01120BC37D047F081212227E177F457C01120BC37D047F0A1205
:2012A30012227E177F3F7C01120BC37D027F0E1212227E177F1D7C01120BC3E4FD7F1212E3
:2012C30012227E167FFF7C01120BC37F09900000E4F0A3DFFB0213D87FFF12243B7D0E7F19
:2012E3000A121222900000E0FF7E008E408F41900001E0FF7E008E3E8F3F900002E0FF7E99
:1F130300008E3C8F3D900003E0FF7E008E3A8F3B900004E0FF7E008E388F39900005E0BF
:201323007E008E368F37900006E0FF7E008E348F35900007E0FF7E008E328F33900008E03B
:201344007E008E308F317E167FBA7C01120BC3900001E0FF7023900000E0FF7E00EE3395BD
:1F136400E0FDFC120B1012112B7C3FE4FDFEFF120BD1742C1210058032900000E0FFF4B3
:201384007E000FEF70010EEE3395E0FDFC120B1078BF7980E4FAFB120BD112112B7C3FE4AE
:2013A400FDFEFF120BD1742C1210057D1A7F0E121222852C30852D31852E32852F337E16EC
:2013C4007FB47C01120BC312275BEF700AAE2AAF2B1201310212DB223F000801DB136C10C3
:2013E40000000000000000000C000801DB08211000000000000000005400080186700A1053
:20140400257520202020202020202020202025352E316620202020202020202000257520B5
:201424002020202020202020204B65696E65206B6F722E20416E74772E00253032782025D6
:2014440030327820253032782025303278202530327820253032782025303278202530326C
:2014640078202530327800202020536C6176652D4E722E202020202054656D706572617479
:201484007572202020202020202020536372617463682D5061642028427974652038202EB5
:2014A4002E2E2E20427974652030290044656D6F206C6165756674202E2E2E2020202841D8
:2014C4006262727563682064757263682054617374656E647275636B290A0A0A003D3D3DB6
:2014E4003D3D3D3D3D3D3D3D3D3D3D3D3D3D3D3D3D3D3D3D3D3D3D3D3D3D3D3D3D3D3D3D48
:201504003D3D3D3D3D3D3D3D3D0A0A00312D576972652D4275732D44656D6F2066756572BE
:20152400206D61782E2035204453313853323065722D536C617665730A000A0A0A55656233
:20154400657274726167756E67206F2E6B2E2C202054617374652064727565636B656E2064
:201564002E2E2E20000A0A0A556562657274726167756E6720696E73205363726174636862
:20158400205061642064757263682054617374656E647275636B202E2E2E20000A0A202016
:2015A4005765727420667565722042797465203320696D2053637261746368205061642079
:2015C40028544C2D5265676973746572293A20200020205765727420667565722042797427
:2015E40065203220696D205363726174636820506164202854482D5265676973746572299E
:201604003A2020004269747465206265696465205765727465202830202E2E2E2032353536
:2016240029206E616368666F6C67656E642065696E7A656C6E2065696E676562656E3A0A2E
:201644000A0A003D3D3D3D3D3D3D3D3D3D3D3D3D3D3D3D3D3D3D3D3D3D3D3D3D3D3D3D3D89
:201664003D3D3D3D3D3D3D3D3D3D3D3D3D3D3D3D3D3D3D3D3D3D3D0A0A0053696E676C6575
:2016840020436869703A20322042797465202854482C544C2920696E2053637261746368AA
:2016A400205061642073636872656962656E0A0025352E3166002530327820202020253021
:2016C40032782020202025303278202020202530327820202020253032782020202025300A
:2016E4003278202020202530327820202020253032782020202025303278004162627275D3
:2017040063682064757263682054617374656E647275636B202E2E2E00416B7475656C6CA0
:20172400652054656D706572617475723A20202020202020202020202043002848455829C4
:2017440000427974653A20202020203820202020203720202020203620202020203520201D
:201764002020203420202020203320202020203220202020203120202020203000496E686C
:20178400616C7420646573205363726174636820506164733A00426974746520416266724B
:2017A4006167652D496E74657276616C6C20696E206D732065696E676562656E202831301D
:2017C40030202E2E2E2036352E303030206D73293A2020003D3D3D3D3D3D3D3D3D3D3D3D63
:2017E4003D3D3D3D3D3D3D3D3D3D3D3D3D3D3D3D3D3D3D3D3D3D3D3D3D3D3D3D3D3D3D3D45
:201804003D3D3D3D3D3D3D3D3D3D3D3D3D0A0A0053696E676C6520436869703A2054656D11
:20182400706572617475726D657373756E6720756E64204C6573656E20646573205363727D
:201844006174636820506164730A000A0A0A0A4665727469672C20546173746520647275F1
:2018640065636B656E202E2E2E200020202020202530327820202020202020202020202570
:2018840030327820253032782025303278202530327820253032782025303278202020204F
:2018A400202020202020202020202025303278202020202020202020202020202848455818
:2018C400290A000A0A0A2020382D4269742043524320202020202034382D426974205365A7
:2018E4007269616C204E756D626572202020202020382D4269742046616D696C6979204321
:201904006F64650A0A004162667261676520647572636820447275636B206175662054614F
:201924007374652C20204265656E64656E2064757263682045696E6761626520766F6E20A6
:201944002765273A2020003D3D3D3D3D3D3D3D3D3D3D3D3D3D3D3D3D3D3D3D3D3D3D3D3D61
:201964003D3D3D3D3D3D3D3D3D3D3D3D3D3D3D3D3D3D3D3D0A0053696E676C6520436869FF
:20198400703A204C6573656E206465732036342042697420524F4D2D4964656E74696669F6
:2019A4006572730A000A0A576569746572202D2054617374652064727565636B656E202E1E
:2019C4002E2E200020205465737420504F53495449563A20204D696E64657374656E7320A5
:2019E40045494E455220646120210A00202054657374204E4547415449563A20204B65699F
:201A04006E657220646120210A00202020202020202020202020202020202020202020208D
:201A240020202020202020202020202020202020000A0A53746172742064657320546573D8
:201A440074733A202054617374652064727565636B656E202E2E2E2000284265656E64657A
:201A64006E2064757263682045696E6761626520766F6E202765272900312D576972652D62
:201A840052657365743A20546573742C206F62204A454D414E4420616D2042757320616E32
:201AA40067657363686C6F7373656E206973740A000A0A54657374206C61657566742C2069
:201AC400776569746572206D6974205461737465202E2E2E200042697474652044656C618F
:201AE400792D57657274202846756E6B74696F6E732D5565626572676162652D5765727413
:201B0400292065696E676562656E202830202E2E2E20323534293A200028527565636B7346
:201B24007072756E672064757263682045696E6761626520766F6E20323535290A0A003DCB
:201B44003D3D3D3D3D3D3D3D3D3D3D3D3D3D3D3D3D3D3D3D3D3D3D3D3D3D3D3D3D3D3D3DE1
:201B64003D3D3D3D3D3D3D3D3D3D3D3D3D3D3D3D3D3D3D3D3D0A0054657374204D65746808
:201B84006F646520323A205A6569747665727A6F65676572756E672064757263682046758D
:201BA4006E6B74696F6E736175667275660A000A0A54657374206C6165756674202E2E2E89
:201BC400200028527565636B737072756E67206475726368205265736574202E2E2E2029D4
:201BE4000A0A003D3D3D3D3D3D3D3D3D3D3D3D3D3D3D3D3D3D3D3D3D3D3D3D3D3D3D3D3DE4
:201C04003D3D3D3D3D3D3D3D3D3D3D3D3D3D3D3D3D3D3D3D3D3D3D3D3D3D3D3D3D3D3D3D20
:201C24003D3D3D3D3D3D3D3D3D3D3D3D3D3D3D3D0A0054657374204D6574686F64652031EF
:201C44003A205A6569747665727A6F65676572756E6720642E207265696E6520666F722DEE
:201C64005363686C6569666520646972656B7420696D2050726F67616D6D2D436F64650AFF
:201C8400004175737761686C2C207761732067657465737465742077657264656E20736FA8
:201CA4006C6C2028312C2032206F646572202765272028456E646529293A202000646965F2
:201CC400204D6574686F6465203220667565722067726F657373657265205665727A6F656C
:201CE400676572756E67656E2076657277656E6465742E0A0A00446965204D6574686F64BC
:201D04006520312077697264207A75722045727A657567756E672073656872206B6C65693F
:201D24006E6572205A6569747665727A6F65676572756E67656E20283C2032302075732971
:201D44002C0A002020322E204475726368204175667275662065696E65722046756E6B74AF
:201D6400696F6E2C206469652065696E6520666F722D5363686C6569666520656E746861F3
:201D8400656C742E0A0A002020312E204D69742065696E6572207265696E656E20666F7294
:201DA4002D5363686C6569666520646972656B7420696D2050726F6772616D6D2D436F648E
:201DC400652E0A007A752065727A657567656E3A0A0A0045732067696274206E756E207A17
:201DE400776569204D6F65676C6963686B656974656E2C20646965206E6F7477656E6469CC
:201E040067656E205A6569747665727A6F65676572756E67656E0A00564F522064656D205B
:201E2400546573742064656E20445331385332302061626B6C656D6D656E20210A0A003D74
:201E44003D3D3D3D3D3D3D3D3D3D3D3D3D3D3D3D3D3D3D3D3D3D3D3D3D3D3D3D3D3D3D3DDE
:201E64003D3D3D3D3D3D3D3D0A0A0054657374207A75722075432D7370657A69666973636C
:201E840068656E2044656C61792D466573746C6567756E670A000A0A0A0A49687265205782
:201EA40061686C3A2020000A0A2020392E2054657374207A75722075432D7370657A6966DD
:201EC40069736368656E2044656C61792D466573746C6567756E67002020352E2044656D5B
:201EE4006F202D204275732D42657472696562206D6974206D61782E20352053656E736F73
:201F040072656E0A0A002020342E2053696E676C6520436869703A20322042797465202814
:201F240054482C544C2920696E2053637261746368205061642073636872656962656E0A1B
:201F44000A002020332E2044656D6F202D2053696E676C6520436869703A2054656D706565
:201F640072617475726D657373756E6720756E64204C6573656E2064657320536372617436
:201F8400636820506164730A0A002020322E2053696E676C6520436869703A204C6573650D
:201FA4006E206465732036342042697420524F4D2D4964656E746966696572730A0A0020A5
:201FC40020312E20312D576972652D52657365743A20546573742C206F62204A454D414E97
:201FE4004420616D2042757320616E67657363686C6F7373656E206973740A0A0042697431
:20200400746520776165686C656E205369653A0A0A0A003D3D3D3D3D3D3D3D3D3D3D3D3D2D
:202024003D3D3D3D3D3D3D3D3D3D3D3D3D3D3D3D3D3D3D3D3D3D3D3D0A0A00446173206731
:20204400726F73736520312D57697265202D204453313853323065722D50726F6A656B7436
:202064000A000A0A0A0A20204665686C6572206265696D20322E2052657365743A204B454A
:20208400494E2050726573656E636520766F6D20536C6176652021000A0A0A0A202046656F
:2020A400686C6572206265696D20312E2052657365743A204B45494E2050726573656E63A1
:2020C4006520766F6D20536C6176652021000A0A0A0A20204665686C6572206265696D202E
:2020E40053636872656962656E206465732053637261746368205061647320323A204B4521
:20210400494E2050726573656E636520766F6D20536C6176652021000A0A0A0A20204665EE
:20212400686C6572206265696D2053636872656962656E206465732053637261746368201C
:202144005061647320313A204B45494E2050726573656E636520766F6D20536C617665201F
:2021640021000A0A202052657365742064727565636B656E202E2E2E20000A0A0A0A202040
:202184004665686C6572206265696D204C6573656E2064657320524F4D2D4964656E74691D
:2021A40066696572733A204B45494E2050726573656E636520766F6D20536C61766520215E
:2021C400001B5925632563001B481B4A00322BCC7733D6BF95358637BD3727C5AC38D1B774
:2021E400173A83126F3C23D70A3DCCCCCD3F8000004120000042C80000447A0000461C401A
:202204000047C35000497424004B1896804CBEBC204E6E6B28501502F951BA43B75368D4DD
:20222400A5551184E756B5E62158635FA95A0E1BCA5BB1A2BC5D5E0B6B5F0AC72360AD788F
:20224400EC6258D7276407867865A968166753C21C690459516AA56FA66C4ECB8F6E013F4C
:20226400396FA18F087149F2CA72FC6F7C749DC5AE7645371977F684DF799A130C7B4097C8
:20228400CE7CF0BDC27E9676990000000A00000064000003E800002710000186A0000F4256
:2022A400400000000500000032000001F4000013880000C3500000C350E4F52DE4F52E12CE
:2022C40029DDEF6018AD2E7F01EF8DF005F08002C333D5F0FBFDAF2DEF4DFF8F2D052E7422
:2022E40008652E70DAAF2D220223991229F47E197F7A7C01120BC37E197F4B7C01120BC35F
:202304007E197F0A7C01120BC37F08900000E4F0A3DFFB120F89BF650302239C12239D7EF2
:20232400187FC77C01120BC3900009E0FF7E008E3E8F3F90000AE0FF7E008E3C8F3D900031
:202344000BE0FF7E008E3A8F3B90000CE0FF7E008E388F3990000DE0FF7E008E368F3790E4
:20236400000EE0FF7E008E348F3590000FE0FF7E008E328F33900010E0FF7E008E308F316F
:202384007E187F6F7C01120BC37E187F4F7C01120BC3120F890222EF221229C0EF60147EDC
:2023A400217F7E7C01120BC37E217F667C01120BC380FE7F3312298AE4F5241222BDAD0726
:2023C400AF247E0074092FF58274003EF583EDF005247408652470E3228D288F291229C073
:2023E400EF60147E217F1C7C01120BC37E217F667C01120BC380FE7FCC12298A7F4E122968
:202404008AAF2912298AAF2812298A1229C0EF60147E207FD27C01120BC37E217F667C014A
:20242400120BC380FE7FCC12298A7F4812298A7E007F0F120131228F2C1229C0EF60147E95
:20244400207F9C7C01120BC37E217F667C01120BC380FE74FF652C70087FCC12298A0224CF
:20246400BC7F5512298AE4F52DAF2CAD077C007F03ED8FF005F08005C333CC33CCD5F0F80C
:20248400FD7E137FDCEF2DFBEE3CFAAF2DAD07E4FCFE7F07C3EF9DFFEE9CFEEB2FFFEA3E09
:2024A400FE850683850782E493FF12298A052D7408652D600302246D7F4412298A7E037F05
:1F24C400201201311229C0EF60147E207F667C01120BC37E217F667C01120BC380FE7484
:2024E400652C70087FCC12298A0225477F5512298AE4F52DAF2CAD077C007F03ED8FF005B4
:20250400F08005C333CC33CCD5F0F8FD7E137FDCEF2DFBEE3CFAAF2DAD07E4FCFE7F07C3E9
:20252400EF9DFFEE9CFEEB2FFFEA3EFE850683850782E493FF12298A052D7408652D60034B
:202544000224F87FBE12298AE4F52C1222BDAD07AF2C7E0074002FF58274003EF583EDF033
:20256400052C7409652C70E3220226881229F47E1E7F6F7C01120BC37E1E7F437C01120BE5
:20258400C37E1E7F1C7C01120BC37E1D7FD77C01120BC37E1D7FC87C01120BC37E1D7F8BAE
:2025A4007C01120BC37E1D7F477C01120BC37E1C7FFA7C01120BC37E1C7FC17C01120BC355
:2025C4007E1C7F857C01120BC3120F89EF64316008EF6432600302268BBF3102800302262E
:2025E40085803A1229F47E1C7F367C01120BC37E1B7FE77C01120BC37E1B7FC67C01120BE9
:20260400C37E1B7FB37C01120BC3800FC2B47F08DFFED2B47E007F0A12013180EF80C412CC
:2026240029F47E1B7F7B7C01120BC37E1B7F437C01120BC37E1B7F1D7C01120BC37E1A7F28
:20264400DA7C01120BC37B047F247C02120F937F247C021200468F2874FF652860267E1A9D
:202664007FB57C01120BC38016C2B4AF2812297DD2B412275BEF70097E007F0A12013180DD
:20268400E8022623022570221229F47E207F3F7C01120BC37E207F177C01120BC37E207FB4
:2026A400017C01120BC37E1F7FC37C01120BC37E1F7F8E7C01120BC37E1F7F467C01120B79
:2026C400C37E1F7F0A7C01120BC37E1E7FDC7C01120BC37E1E7FAB7C01120BC37E1E7F9A84
:2026E4007C01120BC3221229F47E1A7F7D7C01120BC37E1B7F437C01120BC37E1A7F5D7C8F
:2027040001120BC37E1A7F357C01120BC380457D027F071212227E1A7F0E7C01120BC37D1C
:20272400027F07121222120F89BF650280281229C0EF600B7E197FF07C01120BC380097E90
:20274400197FC87C01120BC37E197FA97C01120BC3120F8980B922E4FDA298E433FFBF01A6
:2027640004C298AD99AF0522C2B4EF6002D2B47F0D12297DD2B4221229F47E157F107C01D4
:20278400120BC37E147FE17C01120BC37E147FB07C01120BC37E147F6B7C01120BC30229E4
:2027A40005E4F524AF2412243B7D24AF24EF2FFF74082FFF121222900000E0FF7E008E4093
:2027C4008F41900001E0FF7E008E3E8F3F900002E0FF7E008E3C8F3D900003E0FF7E008E9A
:2027E4003A8F3B900004E0FF7E008E388F39900005E0FF7E008E368F37900006E0FF7E00E3
:202804008E348F35900007E0FF7E008E328F33900008E0FF7E008E308F317E147F3E7C0179
:20282400120BC3AD24900003E0FF6D60227D06AF24EF2FFF74082FFF1212228524317530A0
:20284400007E147F217C01120BC37525028003E4F525E52560030228DF900001E0FF702052
:20286400900000E0FF7E00EE3395E0FDFC120B10783FE4F9FAFB120BD174261210058032C1
:20288400900000E0FFF4FF7E000FEF70010EEE3395E0FDFC120B1078BF7980E4FAFB120BF5
:2028A400D112112B7C3FE4FDFEFF120BD174261210057D06AF24EF2FFF74082FFF1212224A
:2028C4008526328527338528348529358524317530007E147F047C01120BC312275BEF60A0
:2028E4000575250180157E007F3212013105247D05AF24C3EF9D50030227A87401652560DC
:20290400030227A5221229F47E167F7E7C01120BC37E167F477C01120BC37E167F087C0154
:20292400120BC37E157FD57C01120BC37B047F247C02120F937F247C021200468F287E1558
:202944007FA07C01120BC37B047F247C02120F937F247C021200468F297E157F697C011268
:202964000BC3120F89AD29AF281223DD7E157F3E7C01120BC3120F8922AB07E4FF80010F7E
:1F298400C3EF9B40FA228F2E752F01753008AD2FAF2EEF5DFF60077F0112276C8005E483
:2029A40012276CAF2FEF2FFF8F2FD530E122759852438920758DFDD28ED29922C2B47F4938
:2029C40012297DD2B47F0712297DA2B4E433FF8F2D7F3E12297DAF2D22C2B4D2B47F06DF7C
:2029E400FEA2B4E433FF8F2F7F0D12297DAF2F227E217FCC7C01120BC3221229B2022A5194
:202A040012268C120F89AD077F31C3ED9F403E7F39D3ED9F50379029F2ED2D5002058325B1
:202A240082F58250020583740193C0E0E493C0E0221226EA80171222EC801212124C800D76
:202A4400122909800812277B800312256D022A042A352A3A2A3F2A442A492A512A512A511D
:022A64002A4EF8
:00000001FF
