:100000000C9467000C948F000C948F000C949B044C
:100010000C9471040C9447040C948F000C948F0082
:100020000C948F000C948F000C948F000C948F0014
:100030000C948F000C948F000C948F000C948F0004
:100040000C94C5040C948F000C9482060C94C90681
:100050000C948F000C948F000C948F000C948F00E4
:100060000C948F000C948F00537461727400000024
:100070000000240027002A000000000025002800BE
:100080002B000000000023002600290004040404C3
:100090000404040402020202020203030303030332
:1000A000010204081020408001020408102001020F
:1000B00004081020000000070002010000030406ED
:1000C0000000000000000000AF000808A800112494
:1000D0001FBECFEFD8E0DEBFCDBF11E0A0E0B1E0A2
:1000E000E2E7F4E102C005900D92AE33B107D9F713
:1000F00012E0AEE3B1E001C01D92A838B107E1F70C
:1001000010E0CCECD0E004C02297FE010E94280A47
:10011000C83CD107C9F70E945E080C942C0A0C94C5
:1001200000008130910551F46F5F7F4F81F48EE3C1
:1001300091E06AE04BE00E9482030895892B39F434
:100140006F5F7F4F21F48EE391E00E94EE010895EE
:1001500080E090E06FEF7FEF0E949100089581E0D2
:1001600090E06FEF7FEF0E949100089586EE91E09E
:1001700040E052EC61E070E00E94F90686EE91E00A
:100180000E9406088823D1F386EE91E068E670E0CD
:100190000E94DA088DE061E00E94EE058DE060E0EB
:1001A0000E942D068EE391E00E945B010895DF938B
:1001B000CF9300D000D00F92CDB7DEB78EE391E0A1
:1001C0000E941503892BA9F086EE91E060E071E0B2
:1001D0000E94AA096AE070E080E090E00E94860533
:1001E0008EE391E00E94F701682F86EE91E00E9475
:1001F000CA070E940D052091520130915301409190
:1002000054015091550128513C4F4F4F5F4F2617D5
:1002100037074807590708F040C00E940D05609352
:10022000520170935301809354019093550186EECF
:1002300091E06AE071E00E94A7094091520150915B
:100240005301609154017091550186EE91E02AE0CE
:1002500030E00E948609809156018F5F809356019D
:10026000898388EB98E8A0E0B0E08A839B83AC8325
:10027000BD8386EE91E06EE071E00E94A7098EE3F7
:1002800091E0BE016F5F7F4F45E050E00E946D0836
:1002900086EE91E06EE20E94EE0864E670E080E097
:1002A00090E00E9486050F900F900F900F900F9096
:1002B000CF91DF910895CF93DF93EC014C854631C8
:1002C00008F03DC090916800483010F484E005C00B
:1002D0004E3010F082E001C081E0892B80936800ED
:1002E000483028F4EDE6F0E0ADE6B0E00BC04E306B
:1002F00028F0ECE6F0E0ACE6B0E004C0EBE6F0E0BD
:10030000ABE6B0E05081483040F481E090E002C0BC
:10031000880F991F4A95E2F710C0242F30E04E3025
:1003200018F42850304002C02E50304081E090E058
:1003300002C0880F991F2A95E2F7852B8C93809134
:100340005701909158018C179D0781F08B898E7F02
:100350008B8B9FB7F8941092DB018091DB01809327
:10036000DC01D0935801C09357019FBFDF91CF911B
:100370000895FC014485463180F5483028F4EDE6C7
:10038000F0E0ADE6B0E00BC04E3028F4EBE6F0E074
:10039000ABE6B0E004C0ECE6F0E0ACE6B0E05081E3
:1003A000483040F481E090E002C0880F991F4A95E0
:1003B000E2F710C0242F30E04E3018F428503040BF
:1003C00002C02E50304081E090E002C0880F991F9B
:1003D0002A95E2F7809585238C930895FC0181E2AC
:1003E00091E091838083CF010E94B901089520910B
:1003F0005701309158012817390731F49091DC01E9
:100400008091DB01981719F42FEF3FEF0FC0E091B7
:10041000DC01F0E0E556FE4F20818091DC0190E0A8
:1004200001968F7390708093DC0130E0C9010895CC
:10043000FC018091990120919A0190E001968F73BF
:10044000907030E08217930789F0E0919901F0E015
:10045000E75AFE4F60838091990190E001968F7377
:1004600090708093990121E030E005C0838981601C
:10047000838B20E030E0C90108952091570130912D
:1004800058012817390779F48FB7F8941092990119
:100490009091990190939A011092DB019091DB0168
:1004A0009093DC018FBF089520915701309158013E
:1004B0002817390731F49091DC018091DB019817FE
:1004C00019F42FEF3FEF0AC0E091DC01F0E0E556B0
:1004D000FE4F8081282F332727FD3095C9010895CD
:1004E000CF92DF92EF92FF920F931F93CF93DF9300
:1004F000EC01C62E0E941B057B018C01E989FA895B
:100500009889CC2029F480819095982390830DC000
:100510008081892B808309C0EE85FF8580819D8540
:1005200089238C1521F0DD2402C0DD24D3940E94A0
:100530001B056E197F09800B910B623371058105D4
:10054000910550F38D2DDF91CF911F910F91FF9069
:10055000EF90DF90CF900895CF92DF92EF92FF92CD
:100560000F931F93CF93DF93EC01D62EEFB6F89441
:1005700086EE91E060E171E00E94A7096AE070E018
:1005800080E090E00E948605CE0161E00E9470024A
:10059000882309F440C0CE0161E00E9470028823E4
:1005A000D1F1CE0161E00E9470028823A1F1CE0159
:1005B00060E00E947002882371F1FF24F39400E050
:1005C00010E0CD2CDD248F2D90E08C219D21892BF6
:1005D00049F0CE0161E00E9470028823E1F0CE0173
:1005E00060E008C0CE0160E00E947002882399F0AC
:1005F000CE0161E00E947002882369F0FF0C0F5F5A
:100600001F4F08301105F9F6E989FA898081988928
:10061000892B8083EFBE80E0DF91CF911F910F91F6
:10062000FF90EF90DF90CF9008951F93CF93DF93CB
:10063000EC0186EE91E062E171E00E94A709609111
:100640009A0186EE91E04AE050E00E94950986EE1C
:1006500091E065E171E00E94A7096091990186EE41
:1006600091E04AE050E00E94950990919A018091B2
:100670009901981721F1E0919A01F0E0E75AFE4FB5
:10068000108180919A0190E001968F739070809311
:100690009A0186EE91E068E171E00E94A7096AE0A4
:1006A00070E080E090E00E948605CE01612F0E94FC
:1006B000AC0286EE91E06AE171E00E94A7096AE06F
:1006C00070E080E090E00E94860580915701909153
:1006D0005801C817D90719F020E030E00EC080910A
:1006E000DB012091DC0190E0805C9F4F821B91092F
:1006F00060E470E00E94DD099C01C901DF91CF91A7
:100700001F910895CF92DF92EF92FF920F931F9364
:10071000CF93DF938C01E62ED42EFC01138212823C
:1007200088EE93E0A0E0B0E084839583A683B7834E
:1007300081E291E09183808383898E7F838B842FF4
:1007400061E00E94EE054D2D50E060EAC62E60E0AB
:10075000D62EC601840F951FFC012491F801208B31
:10076000CCE8D0E04C0F5D1FFA014491842F90E05B
:10077000880F991F88589F4FFC01A591B491F801EB
:10078000B28BA18B8C91822B8C938E2D60E00E947A
:10079000EE058E2D61E00E942D06F801E486FF240F
:1007A000CE0CDF1CF6018491F8018587CE0DDF1D8C
:1007B000FE018491E82FF0E0EE0FFF1FEE57FF4F90
:1007C00085919491F80197878687DF91CF911F914A
:1007D0000F91FF90EF90DF90CF900895EF92FF92EE
:1007E0000F931F93CF93DF938C01DC011E96ED9145
:1007F000FC911F9780811D969C91892309F440C02C
:1008000082E390E00E944105EE24FF24F394C0E0CF
:10081000D0E088EC90E00E944105D8011E96ED9151
:10082000FC911F9780811D969C91892311F0EF28E0
:1008300003C08F2D8095E822FF0C2196C830D1058A
:1008400041F78091DB012091DC0190E001968F73EC
:10085000907030E08217930779F0E091DB01F0E0CF
:10086000E556FE4FE0828091DB0190E001968F73A8
:1008700090708093DB0104C0F80183898160838BD1
:10088000DF91CF911F910F91FF90EF9008951F92EC
:100890000F920FB60F9211242F933F934F935F93B4
:1008A0006F937F938F939F93AF93BF93EF93FF9338
:1008B0008091570190915801009711F00E94EE032A
:1008C000FF91EF91BF91AF919F918F917F916F9128
:1008D0005F914F913F912F910F900FBE0F901F90FE
:1008E00018951F920F920FB60F9211242F933F93DA
:1008F0004F935F936F937F938F939F93AF93BF9328
:10090000EF93FF938091570190915801009711F058
:100910000E94EE03FF91EF91BF91AF919F918F9154
:100920007F916F915F914F913F912F910F900FBEEB
:100930000F901F9018951F920F920FB60F921124CF
:100940002F933F934F935F936F937F938F939F93D7
:10095000AF93BF93EF93FF9380915701909158010C
:10096000009711F00E94EE03FF91EF91BF91AF91BC
:100970009F918F917F916F915F914F913F912F91B7
:100980000F900FBE0F901F9018951F920F920FB6E9
:100990000F9211242F933F938F939F93AF93BF9305
:1009A0008091E1019091E201A091E301B091E40115
:1009B0003091E5010196A11DB11D232F2D5F2D372B
:1009C00020F02D570196A11DB11D2093E5018093C4
:1009D000E1019093E201A093E301B093E4018091DF
:1009E000DD019091DE01A091DF01B091E00101965F
:1009F000A11DB11D8093DD019093DE01A093DF0165
:100A0000B093E001BF91AF919F918F913F912F9152
:100A10000F900FBE0F901F9018958FB7F8942091EC
:100A2000E1013091E2014091E3015091E4018FBF77
:100A3000B901CA0108959FB7F8942091DD01309162
:100A4000DE014091DF015091E00186B5A89B06C010
:100A50008F3F21F02F5F3F4F4F4F5F4F9FBF542F6E
:100A6000432F322F2227280F311D411D511D82E0B7
:100A7000220F331F441F551F8A95D1F7B901CA01B0
:100A80000895019739F0880F991F880F991F0297D1
:100A90000197F1F70895789484B5826084BD84B598
:100AA000816084BD85B5826085BD85B5816085BD69
:100AB000EEE6F0E0808181608083E1E8F0E0108282
:100AC000808182608083808181608083E0E8F0E0C3
:100AD000808181608083E1EBF0E0808184608083AD
:100AE000E0EBF0E0808181608083EAE7F0E08081E4
:100AF0008460808380818260808380818160808344
:100B00008081806880831092C1000895EF92FF92E7
:100B10000F931F93CF93DF937B018C013FB7F89422
:100B20008091DD019091DE01A091DF01B091E001A3
:100B300026B5A89B05C02F3F19F00196A11DB11D38
:100B40003FBFBA2FA92F982F8827820F911DA11D73
:100B5000B11D52E0880F991FAA1FBB1F5A95D1F7EC
:100B6000EC0130C00E94BD093FB7F8948091DD01CF
:100B70009091DE01A091DF01B091E00126B5A89B24
:100B800005C02F3F19F00196A11DB11D3FBFBA2F1F
:100B9000A92F982F8827820F911DA11DB11D32E02A
:100BA000880F991FAA1FBB1F3A95D1F78C1B9D0B6D
:100BB000885E9340B8F20894E108F1080109110930
:100BC000C851DC4FE114F1040105110559F6DF911C
:100BD000CF911F910F91FF90EF900895CF93DF93E6
:100BE000482F50E0CA0180569F4FFC013491445772
:100BF0005F4FFA018491882369F190E0880F991F73
:100C0000FC01E259FF4FA591B491FC01E858FF4F58
:100C1000C591D491662351F42FB7F8948C91932FFA
:100C2000909589238C93888189230BC0623061F46D
:100C30002FB7F8948C91932F909589238C9388816A
:100C4000832B88832FBF06C09FB7F8948C91832B8A
:100C50008C939FBFDF91CF910895482F50E0CA0138
:100C60008C549F4FFC012491CA0180569F4FFC0178
:100C7000949144575F4FFA013491332309F440C0F3
:100C8000222351F1233071F0243028F42130A1F0D7
:100C9000223011F514C02630B1F02730C1F02430D5
:100CA000D9F404C0809180008F7703C080918000C8
:100CB0008F7D8093800010C084B58F7702C084B58B
:100CC0008F7D84BD09C08091B0008F7703C0809173
:100CD000B0008F7D8093B000E32FF0E0EE0FFF1F98
:100CE000E858FF4FA591B4912FB7F894662321F4EB
:100CF0008C919095892302C08C91892B8C932FBF66
:100D0000089508951F920F920FB60F9211242F93FA
:100D10003F934F938F939F93EF93FF938091C000E6
:100D200082FD19C04091C60080910402282F30E056
:100D30002F5F3F4F2F7330708091050290E028178E
:100D4000390759F0E0910402F0E0EA51FE4F42A366
:100D50002093040202C08091C600FF91EF919F9101
:100D60008F914F913F912F910F900FBE0F901F9039
:100D70001895809104022091050290E0805C9F4FBD
:100D8000821B91098F739070892B11F00E9481064C
:100D900008951F920F920FB60F9211242F938F93E5
:100DA0009F93EF93FF93909106028091070298170B
:100DB00031F48091C1008F7D8093C10010C0E0911B
:100DC0000702F0E0E85BFD4F20818091070290E090
:100DD00001968F739070809307022093C600FF9155
:100DE000EF919F918F912F910F900FBE0F901F90B9
:100DF0001895AF92BF92DF92EF92FF920F931F93DD
:100E0000CF93DF93EC017A018B01DD24403081EE3A
:100E1000580780E0680780E0780711F0DD24D3945C
:100E200091E0A92EB12CE889F989DD2069F0C5018E
:100E30000C8C02C0880F991F0A94E2F7808360E04F
:100E400079E08DE390E005C0108260E874E88EE1FF
:100E500090E0A80197010E94F009215030404040E5
:100E60005040569547953795279580E120303807B3
:100E700020F0DD2011F0DD24D6CFEC85FD85308318
:100E8000EE85FF8520831D8EEA89FB89408121E064
:100E900030E0C901088C02C0880F991F0A94E2F75C
:100EA000482B4083EA89FB894081C901098C02C033
:100EB000880F991F0A94E2F7482B4083EA89FB893F
:100EC0004081C9010A8C02C0880F991F0A94E2F779
:100ED000482B4083EA89FB8980810B8C02C0220F5A
:100EE000331F0A94E2F7209528232083DF91CF91C6
:100EF0001F910F91FF90EF90DF90BF90AF900895FA
:100F0000FC01268D878D30E0205C3F4F281B310986
:100F10002F733070C9010895FC01968D878D981745
:100F200019F42FEF3FEF06C0878DE80FF11D82A166
:100F3000282F30E0C9010895DC015E969C915E97F0
:100F40005F968C915F97981719F42FEF3FEF10C0C1
:100F50005F968C915F97FD01E80FF11D92A15F965E
:100F60008C915F978F5F8F735F968C93292F30E002
:100F7000C9010895DC015D968C915D97882339F055
:100F80005096ED91FC915197808186FFF9CF5D9647
:100F90001C920895DC0190968C919097282F30E058
:100FA0002F5F3F4F2F73307091968C91919790E007
:100FB00028173907C9F390968C919097FD01E80F97
:100FC000F11DEE59FF4F608390962C9390975296A7
:100FD000ED91FC915397208181E090E05B960C901D
:100FE0005B9702C0880F991F0A94E2F7282B208391
:100FF00081E05D968C935D975096ED91FC915197B1
:1010000080818064808381E090E0089581E008958C
:101010001092E9011092E80188EE93E0A0E0B0E0C0
:101020008093EA019093EB01A093EC01B093ED0162
:1010300081E391E09093E7018093E601109207022B
:1010400080910702809306021092050280910502AA
:101050008093040285EC90E09093F3018093F20179
:1010600084EC90E09093F5018093F40180EC90E0A3
:101070009093F7018093F60181EC90E09093F90151
:101080008093F80182EC90E09093FB018093FA0149
:1010900086EC90E09093FD018093FC0184E08093C6
:1010A000FE0183E08093FF0187E08093000285E0EA
:1010B0008093010281E0809302020895CF93DF9331
:1010C0000E944B050E94B600C9EBD6E00E94D700F3
:1010D0002097E1F30E94B906F9CFCF92DF92EF9209
:1010E000FF920F931F93CF93DF937C016B018A01D3
:1010F000C0E0D0E00FC0D6016D916D01D701ED9138
:10110000FC910190F081E02DC7010995C80FD91F0E
:10111000015010400115110571F7CE01DF91CF91FB
:101120001F910F91FF90EF90DF90CF900895EF9275
:10113000FF920F931F93CF93DF937C018B01C0E04D
:10114000D0E0F8010F5F1F4F6491662359F0D7017B
:10115000ED91FC910190F081E02DC7010995C80F38
:10116000D91FEFCFCE01DF91CF911F910F91FF904B
:10117000EF900895EF92FF920F931F938C01DC0183
:10118000ED91FC910190F081E02D6DE009957C01DD
:10119000D801ED91FC910190F081E02DC8016AE049
:1011A00009959C012E0D3F1DC9011F910F91FF90C4
:1011B000EF900895EF92FF920F931F937C010E948E
:1011C00097088C01C7010E94BA089C01200F311FAB
:1011D000C9011F910F91FF90EF900895EF92FF9238
:1011E0000F931F937C01DC01ED91FC910190F08144
:1011F000E02D09958C01C7010E94BA08080F191F3C
:10120000C8011F910F91FF90EF900895CF93DF9346
:10121000EC016115710519F420E030E00FC0DB012D
:101220000D900020E9F71197A61BB70BE881F98113
:101230000280F381E02DAD0109959C01C901DF9188
:10124000CF9108954F925F927F928F929F92AF922B
:10125000BF92CF92DF92EF92FF920F931F93DF9393
:10126000CF93CDB7DEB7A1970FB6F894DEBF0FBE10
:10127000CDBF2C01742ECB01223008F42AE019A234
:1012800031E2C32ED12CCC0EDD1E822E9924AA244D
:10129000BB24672D752FA50194010E94F0097901E7
:1012A0008A01C801B701A50194010E94BE09472D1A
:1012B000461B0894C108D1084A3014F4405D01C0AF
:1012C000495CF6014083E114F1040105110521F0A8
:1012D0007E2C5F2DC801DDCFC201B6010E94060938
:1012E000A1960FB6F894DEBF0FBECDBFCF91DF91B0
:1012F0001F910F91FF90EF90DF90CF90BF90AF9034
:101300009F908F907F905F904F900895DC01211502
:10131000310541F4ED91FC910190F081E02D642FB5
:10132000099508950E9422090895EF92FF920F9364
:101330001F939A01E62EFF2400E010E0B801A701F8
:101340000E9486091F910F91FF90EF9008950E94CF
:1013500006090895EF92FF920F931F937C010E945C
:1013600006098C01C7010E94BA08080F191FC8019D
:101370001F910F91FF90EF9008950895629FD00103
:10138000739FF001829FE00DF11D649FE00DF11D40
:10139000929FF00D839FF00D749FF00D659FF00DEF
:1013A0009927729FB00DE11DF91F639FB00DE11DDC
:1013B000F91FBD01CF011124089597FB092E0726BF
:1013C0000AD077FD04D02ED006D000201AF47095F4
:1013D00061957F4F0895F6F7909581959F4F0895F9
:1013E000A1E21A2EAA1BBB1BFD010DC0AA1FBB1F29
:1013F000EE1FFF1FA217B307E407F50720F0A21B9B
:10140000B30BE40BF50B661F771F881F991F1A9407
:1014100069F760957095809590959B01AC01BD0131
:10142000CF010895AA1BBB1B51E107C0AA1FBB1F18
:10143000A617B70710F0A61BB70B881F991F5A9560
:10144000A9F780959095BC01CD010895EE0FFF1F7F
:101450000590F491E02D099410E0CCECD0E004C0AC
:10146000FE010E94280A2296CE3CD107C9F7F894C3
:02147000FFCFAC
:10147200617661696C61626C65007A703D002B0077
:1014820079005448005454006200622100000000B8
:101492000018026D081503F70154023D0200000016
:0E14A20000CA076D0880079C078C07BA070078
:00000001FF
