:200000000204A47F38120496120AA17FC3120536120A72BFAAFA7F38120496228F2112014E
:2000200007AB07AD217F01EF8DF005F08002C333D5F0FBFFEB5FFF7004E4FF80027F01225D
:200040007800790B900000E849600AE4F0A3E91970F51880F2227427121AEDE4F50EF50F50
:20006000E4F50C85270885280985290A852A0BE4F8F9FA7B0112197C12173B7427121AEDB5
:2000800012197C121748AB07E50C700DEB64206003BB090280CD750C017401650C7010BBA0
:2000A0002D05750C8080BC750C02BB2B0280B47F30C3EB9F40077F39D3EB9F400280287E72
:2000C000007F0AAC0EAD0F12183DAC06AD07AF037E0074D02FFF74FF3EFEEF2DFFEE3CFEC0
:2000E0008E0E8F0F020063AF0C7E00EF64804E700DAE0EAF0FC3E49FFDE49EFC8004AC0E11
:20010000AD0FAE04AF05227F36120496120AA17FF01205367F88120536E4FF120536120A21
:20012000728F2B752C07120A72D52CFA120A72900002EFF0120A72900001EFF07F3612049A
:2001400096AF2B22120040228E3E8F3F7440121AE0E4F544F5457440121AD21217488F46F0
:200160000543E543700E0542E54270080541E54170020540E5467007AE44AF4502047D7409
:200180002565466003020467E4F547E4F548754901E4F54A7440121AD21217488F4605435C
:2001A000E543700E0542E54270080541E54170020540AF46EF646370030202927D63AF4607
:2001C000D3EF9D50357D2EAF46C3EF9D50030204677D39AF46D3EF9D4003020467AF46904D
:2001E0000422EF2F500205832582F58250020583740193C0E0E493C0E022AF46EF647560EB
:200200000DAF46EF64786003020467434701053D053DAF3DAB0778027CFF7DFF7EFF7FFE29
:2002200012173B1217668E4B8F4C0202AF434880020194AF48530780EF70064348040201FA
:2002400094AF4674D02FF980297F0AE98FF0A4FB7440121AD212174874D02FFF2BF905436F
:20026000E543700E0542E54270080541E541700205407440121AD2121748AD077F30C3ED99
:1F0280009F40077F39D3ED9F40BF894A434801020194053D053DAF3DAB0778027CFF7DD9
:2002A0007EFF7FFE12173B1217668F46020467754D00754E01AF47530701EF7003020307CA
:2002C000801C7D04AE4DAF4EEF8DF005F08005C333CE33CED5F0F8FF8E4D8F4E0549AC4DA3
:2002E000AD4EAE4BAF4C1217AF7C007D0FD3EF9DEE9C50CE80277E007F0AAC4DAD4E12185C
:200300003D8E4D8F4E0549AC4DAD4EAE4BAF4C1217AF7C007D09D3EF9DEE9C50D9AF47537D
:200320000762EF60020549AF48530701EF6028AF48530714EF70208015154A7F20853E832F
:20034000853F82120B0C0545E54570020544AD4AAF49C3EF9D40E2AF47530702EF60047D7D
:200360002D8002E4FDED6013AF05853E83853F82120B0C0545E54570020544AF48530701A3
:20038000EF7003020430AF48530704EF70030204308015154A7F30853E83853F82120B0C80
:2003A0000545E54570020544AD4AAF49C3EF9D40E2020430AC4DAD4EAE4BAF4C1217AFAB0D
:2003C00007AF037E00AC4DAD4E12183DAC4BAD4CC3ED9FFFEC9EFE8E4B8F4C74302BFD7FC6
:2003E00039D3ED9F400474272DFDAF05853E83853F82120B0C0545E54570020544AF47537B
:200400000701EF601C7D04AE4DAF4EEF8DF005F08005CEC313CE13D5F0F8FF8E4D8F4E8091
:200420000F7C007D0AAE4DAF4E1217AF8E4D8F4EE54D454E60030203B4AF48530701EF7090
:20044000030201568015154A7F20853E83853F82120B0C0545E54570020544AD4AAF49C317
:20046000EF9D40E2020156AF46853E83853F82120B0C0545E5457002054402015622022DF2
:20048000046702330241024102410241024102410241024102418F2C1208BDEF6005AF2CA0
:2004A0001205DE22E5A8C2AF549075814EA881760018B81FFAC0E0120144D0A802055E8D16
:2004C000298F2A120107A907E5296018AB2A7F01EF8BF005F08002C333D5F0FBFFAD07E962
:2004E0004DFD801AAB2A7F01EF8BF005F08002C333D5F0FBFB7FFFC3EF9BFFE95FFDAF056E
:20050000120504228F297F34120496120AA17F5A120536AF29120536AF29EFF4FF12053678
:20052000120A72EF64AA60057F351205DE120A727F34120496228F2C752D01752E08AD2D30
:20054000AF2CEF5DFF60077F0112084A8005E4FF12084AAF2DEF2FFF8F2DD52EE122121A77
:20056000C41209667E007F64120B11900000740EF07F041219F61200030205C912185B1285
:2005800018C2AD077F31C3ED9F403E7F39D3ED9F503790056AED2D500205832582F5825051
:2005A000020583740193C0E0E493C0E02212198580171218D58012120904800D1209B08001
:2005C0000812085980031207A002057C05AD05B205B705BC05C105C605C905C905C98F2C45
:2005E000852C2E752D007E177F137C011217A17D0AAF2CC3EF9D500302073F7D1DAF2CD378
:20060000EF9D501DAF2C90073FEF2F500205832582F58250020583740193C0E0E493C0E081
:20062000227D32AF2CC3EF9D500302073F7D38AF2CD3EF9D400302073FAF2C900717EF2F03
:20064000500205832582F58250020583740193C0E0E493C0E0227E167FE87C011217A102A3
:2006600007487E167FBD7C011217A10207487E167F977C011217A10207487E167F657C018C
:200680001217A10207487E167F387C011217A10207487E167F067C011217A10207487E1518
:2006A0007FD67C011217A10207487E157FA67C011217A10207487E157F707C011217A10232
:2006C00007487E157F3E7C011217A10207487E157F117C011217A10207487E147FE67C01B4
:2006E0001217A10207487E147FB07C011217A10207487E147F8C7C011217A1804B7E147FC6
:200700006B7C011217A180407E147F447C011217A180357E147F0F7C011217A1802A7E1374
:200720007FE57C011217A1801F7E137FBF7C011217A180147E137F997C011217A180097ECE
:20074000137F737C011217A17E137F5A7C011217A180FE06560662066E073F073F073F070D
:200760003F073F073F073F067A06860692069E06AA06B606C206CE06DA06E606F206FD074A
:20078000080713071E07290734C2B4D2B47F06DFFEA2B4E433FF8F2F7F0D1208B0AF2F22C9
:2007A0001209667E0C7F117C011217A17E0B7FEE7C011217A17E0D7F287C011217A17E0B18
:2007C0007FD37C011217A17E0B7FC87C011217A10208467D1B7F061208DA1218C2BF6503F5
:2007E00002084974D02FFF8F2085202E752D007E0D7F097C011217A18023AF2012001C8F87
:20080000217D0C7F081208DA85212E752D007E0B7FC47C011217A112182CEF700280DB7D9B
:200820000C7F081208DA7E0C7FC77C011217A17D1B7F061208DA7E0C7FC77C011217A17D75
:200840001B7F061208DA0207D322C2B4EF6002D2B47F0D1208B0D2B4221209667E0C7FA190
:200860007C011217A17E0C7F7A7C011217A17E0C7F5E7C011217A17E0C7F3F7C011217A12A
:20088000802B1201077E008E208F217D217F061208DA85202F85213085202D85212E7E0CC6
:2008A0007F337C011217A112182CEF700280D322AB07E4FF80010FC3EF9B40FA22C2B47F50
:2008C000491208B0D2B47F071208B0A2B4E433FF8F2D7F3E1208B0AF2D22EDAD07FF7E0064
:2008E00074202FFFE43EFE8E2F8F30AF057E0074202FFFE43EFE8E2D8F2E7E177F1B7C0162
:200900001217A1220209621209667E0E7F047C011217A17E0D7FE77C011217A17E0D7FC0A5
:200920007C011217A17E0D7F9E7C011217A17B047F207C02121A527F207C021200568F242F
:20094000AF2412050474FF6524601A7D217F061208DA7E0D7F9B7C011217A17D217F0612FB
:2009600008DA020907227E177F227C011217A1221208BDEF60147E137F137C011217A17EA0
:20098000127FFB7C011217A180FE7F33120536E4F520120A72AD07AF207E0074032FF58262
:2009A00074003EF583EDF005207408652070E3221209667E0D7F827C011217A17E0D7F68CF
:2009C0007C011217A17E0D7F287C011217A17E0D7F0C7C011217A1020A6E1218C2BF65036D
:2009E000020A7174D02FFF8F2685262E752D007E0D7F097C011217A17E0C7FD17C011217FE
:200A0000A17B067F207C02121A527F207C021200568E278F28E5274528702A7527007528DC
:200A2000018022E4FDAF261204BFAE27AF28120B117D01AF261204BFAE27AF28120B11129A
:200A4000182CEF700280DC7D347F081208DA7E0C7FC97C011217A17D1B7F061208DA7E0CB5
:200A60007FC77C011217A17D1B7F061208DA0209DA22E4F52DE4F52E120789EF6018AD2EE0
:200A80007F01EF8DF005F08002C333D5F0FBFDAF2DEF4DFF8F2D052E7408652E70DAAF2D05
:200AA00022900000E0FFBFFF087FCC120536020B0B7F55120536E4F52B900000E0FFAD07E7
:200AC0007C007F03ED8FF005F08005C333CC33CCD5F0F8FD7E0B7F24EF2DFBEE3CFAAF2B76
:200AE000AD07E4FCFE7F07C3EF9DFFEE9CFEEB2FFFEA3EFE850683850782E493FF120536EA
:200B0000052B7408652B6003020AB922C082C08322EF60010E90FF67A3E583458270F9DF3A
:200B2000F4DEF2220000000000000000FE0008019C0E6D100C000801DB082110C6000801A9
:200B40009C3F0B105400080186700A10000000000000000000000000000000000000000032
:200B60000000000000000000000000000000000000000000D900000013FAD320000000009C
:200B80000000000000000000000000000000000000000000360000000860D4291A000000A0
:200BA000086C3B29000000000000000000000000000000000000000000000000000000005D
:200BC000000000002531750020205A757374616E643A002020506F72742D50696E2D4E72C1
:200BE0002E202830202E2E2037293A0A0A003D3D3D3D3D3D3D3D3D3D3D3D3D3D3D3D3D3DBB
:200C00003D3D3D3D3D3D3D3D3D3D3D3D3D3D0A0A005A757374616E642065696E65732050DD
:200C20006F72742D50696E732065696E6C6573656E0A0025327820202F20202533750020B0
:200C400020506F72742D5A757374616E6420696E2048455820202F202044455A3A00284584
:200C60006E64652064757263682054617374656E647275636B290A0A0A003D3D3D3D3D3DAA
:200C80003D3D3D3D3D3D3D3D3D3D3D3D3D3D3D3D3D3D3D3D3D3D3D3D3D3D3D3D3D3D0A0A1A
:200CA0000045696E6C6573656E2064657320676573616D74656E20506F72742D5A75737489
:200CC000616E6465730A00200020202020202020000A0A202045696E6761626520646572A5
:200CE000205A6569747665727A6F65676572756E6720696E206D73202831202E2E2E2036A5
:200D000035353335293A2020002575002020506F72742D50696E2D4E722E202830202E2E7C
:200D20002037293A2020200028456E64652064757263682054617374656E647275636B2CEB
:200D40002020527565636B737072756E672064757263682045696E6761626520766F6E2026
:200D6000276527290A0A0A003D3D3D3D3D3D3D3D3D3D3D3D3D3D3D3D3D3D3D3D3D3D3D0AF4
:200D80000A00426C696E6B656E2065696E657320506F72742D50696E730A0020200020203C
:200DA000427974652D5765727420696E2044455A202830202E2E20323535293A2020200063
:200DC00028527565636B737072756E672064757263682045696E6761626520766F6E20328C
:200DE0003535290A0A0A003D3D3D3D3D3D3D3D3D3D3D3D3D3D3D3D3D3D3D3D3D3D3D3D3D4D
:200E00003D0A0A00417573676162652065696E657320427974652D5765727465730A000A26
:200E20000A0A0A4665727469672C2054617374652064727565636B656E202E2E2E2000208B
:200E40002020202025303278202020202020202020202025303278202530327820253032EE
:200E6000782025303278202530327820253032782020202020202020202020202020202598
:200E80003032782020202020202020202020202028484558290A000A0A0A2020382D42692A
:200EA000742043524320202020202034382D4269742053657269616C204E756D6265722025
:200EC0002020202020382D4269742046616D696C697920436F64650A0A0041626672616711
:200EE0006520647572636820447275636B206175662054617374652C20204265656E646512
:200F00006E2064757263682045696E6761626520766F6E202765273A2020003D3D3D3D3D71
:200F20003D3D3D3D3D3D3D3D3D3D3D3D3D3D3D3D3D3D3D3D3D3D3D3D3D3D3D3D3D3D3D3D11
:200F40003D3D3D3D3D3D3D3D0A0053696E676C6520436869703A204C6573656E20646573EC
:200F60002036342042697420524F4D2D4964656E746966696572730A000A0A5765697465DB
:200F800072202D2054617374652064727565636B656E202E2E2E20002020546573742050E6
:200FA0004F53495449563A20204D696E64657374656E732045494E455220646120210A00FC
:200FC000202054657374204E4547415449563A20204B65696E657220646120210A002020BB
:200FE0002020202020202020202020202020202020202020202020202020202020202020F1
:2010000020202020000A0A5374617274206465732054657374733A202054617374652064A0
:20102000727565636B656E202E2E2E2000284265656E64656E2064757263682045696E6747
:2010400061626520766F6E2027652729003D3D3D3D3D3D3D3D3D3D3D3D3D3D3D3D3D3D3D72
:201060003D3D3D3D3D3D3D3D3D3D3D3D3D3D3D3D3D3D3D3D3D3D3D3D3D3D3D3D3D3D3D3DD0
:201080003D3D3D0A00312D576972652D52657365743A20546573742C206F62204A454D4116
:2010A0004E4420616D2042757320616E67657363686C6F7373656E206973740A000A0A0A41
:2010C00049687265205761686C3A2020000A0A2020392E20002020362E205A757374616E3E
:2010E000642065696E657320506F72742D50696E732065696E6C6573656E0A0A00202035D0
:201100002E2045696E6C6573656E2064657320676573616D74656E20506F72742D5A75734A
:2011200074616E6465730A0A002020342E20426C696E6B656E2065696E657320506F72749E
:201140002D50696E730A0A002020332E20417573676162652065696E657320427974652D26
:201160005765727465730A0A002020322E2053696E676C6520436869703A204C6573656ECA
:20118000206465732036342042697420524F4D2D4964656E746966696572730A0A00202025
:2011A000312E20312D576972652D52657365743A20546573742C206F62204A454D414E44A5
:2011C00020616D2042757320616E67657363686C6F7373656E206973740A0A004269747433
:2011E0006520776165686C656E205369653A0A0A0A003D3D3D3D3D3D3D3D3D3D3D3D3D3D97
:201200003D3D3D3D3D3D3D3D3D3D3D3D3D3D3D3D3D3D3D3D3D3D3D3D3D3D3D3D3D3D3D3D2E
:201220003D3D3D3D0A0A004461732067726F73736520312D57697265202D2044533234302C
:201240003865722D50726F6A656B74202D204469676974616C20492F4F0A00000000000057
:20126000000000FE0008019C0E6D100C000801DB082110C60008019C3F0B1054000801866F
:20128000700A100000000000000000000000000000000000000000000000000000000000C4
:2012A0000000000000000000000000D900000013FAD3200000000000000000000000000055
:2012C0000000000000000000000000360000000860D4291A000000086C3B29000000000081
:2012E0000000000000000000000000000000000000000000000000000000000A0A20205248
:20130000657365742064727565636B656E202E2E2E20000A0A0A0A20204665686C65722003
:201320006265696D204C6573656E2064657320524F4D2D4964656E746966696572733A2092
:201340004B45494E2050726573656E636520766F6D20536C6176652021000A0A537973747C
:20136000656D20616E676568616C74656E20210A0A0700556E6775656C7469676520466524
:20138000686C65726E756D6D657220617566676574726574656E2021004453323430383A74
:2013A000204B65696E205072657320626569206473323430385F666C615F636C2829004462
:2013C00053323430383A204B65696E205072657320626569206473323430385F72645F6642
:2013E0006C612829004453323430383A204B65696E205072657320626569206473323430F2
:20140000385F72645F7A757374616E642829004453323430383A20436F6E6669726D617444
:20142000696F6E2D427974652066616C73636820696E206473323430385F77725F62797462
:20144000652829004453323430383A204B65696E20507265732062656920647332343038C1
:201460005F77725F627974652829004453323430383A204665686C65722062656920647364
:20148000323430385F696E69742829004453323430383A204B65696E205072657320626533
:2014A00069206473323430385F696E69742829004453323435303A204B65696E2050726510
:2014C000732E3A2053636872656962656E20696E205061676520332028496E69742D456EDB
:2014E0006465292021004453323435303A204B65696E20507265732E3A2053746172742006
:20150000436F6E766572742028456E6465292021004453323435303A204B65696E20507297
:2015200065732E3A20537461727420436F6E766572742028416E66616E67292021004453A8
:20154000323435303A204665686C6572206265696D2052FC636B6C6573656E20766F6E206D
:201560005061676520332028496E6974292021004453323435303A204B65696E20507265CB
:20158000732E3A2053636872656962656E20696E205061676520332028496E69742D416E1E
:2015A000662E292021004453323435303A204B65696E20507265732E3A204C6573656E2091
:2015C0006175732065696E6572205365697465202832292021004453323435303A204B6525
:2015E000696E20507265732E3A204C6573656E206175732065696E65722053656974652005
:201600002831292021004453323435303A204B65696E20507265732E3A2053636872656924
:2016200062656E20696E2065696E65205365697465202832292021004453323435303A2003
:201640004665686C6572206265696D2053636872656962656E202D20527565636B6C657319
:20166000656E2021004453323435303A204B65696E20507265732E3A205363687265696211
:20168000656E20696E2065696E65205365697465202831292021004453313832303A204BBB
:2016A00065696E205072657320626569206473313832305F77725F745F72656700445331A2
:2016C0003832303A204B65696E205072657320626569206473313832305F72645F74656DE9
:2016E000702829202D2032004453313832303A204B65696E20507265732062656920647346
:20170000313832305F72645F74656D702829202D2031000A0A2533753A20001B5925632569
:2017200063001B481B4A00EC70078F828E83EBF022B40206C88F00A603C822EF2BFFEE3A15
:20174000FEED39FDEC38FC22EC70078F828E83E0FF22D5E0078F828E8393FF22D5E006C88B
:1F1760008F008607C822EC700A8F828E83E0FEA3E0FF22D5E00B8F828E8393FE740193DF
:2017800022D5E009C88F008606088607C822BF0A083099FDC29975990D3099FDC2998F99B1
:2017A00022753D2D1218CC7E177F8E12014822C000C001C002C003C083C082AA04AB05A882
:2017C00006A90775F000EA4B7006E4FEFF02181F05F0EA54807017EB2BF582EA33F583D3FA
:2017E000E58299E583985006AA83AB8280E2E4F583F582E5822582F582E58333F583C3E9C0
:201800009BE89A4008C3E99BF9E89AF8A3EAC313FAEB13FBD5F0DCAE83AF82AC00AD01D026
:2018200082D083D003D002D001D00022E4FDA298E433FFBF0104C298AD99AF0522C000C080
:2018400001ED8FF0A4F9A8F0ED8EF0A428F8EC8FF0A428FEAF01D001D000221209667E12FE
:201860007F277C011217A17E117FF27C011217A17E117FDC7C011217A17E117F9E7C0112C8
:2018800017A17E117F697C011217A17E117F487C011217A17E117F297C011217A17E107FAA
:2018A000FD7C011217A17E107FD57C011217A17E107FCD7C011217A17E107FBD7C0112172A
:2018C000A1223098FDAF99C2987E0022A804A905AA06AB07220219781209667E0F7F4A7C7A
:2018E000011217A17E0F7F1B7C011217A17E0E7FDA7C011217A11218C2BF650302197B12C8
:2019000009707E0E7F977C011217A1900003E0FF7E008E3B8F3C900004E0FF7E008E398F9A
:201920003A900005E0FF7E008E378F38900006E0FF7E008E358F36900007E0FF7E008E33BF
:201940008F34900008E0FF7E008E318F32900009E0FF7E008E2F8F3090000AE0FF7E008E58
:201960002D8F2E7E0E7F3F7C011217A17E0E7F1F7C011217A11218C20218D822AC08AD0911
:20198000AE0AAF0B221209667E107F857C011217A17E107F4D7C011217A17E107F2D7C0101
:2019A0001217A17E107F057C011217A180457D027F071208DA7E0F7FDE7C011217A17D0296
:2019C0007F071208DA1218C2BF650280281208BDEF600B7E0F7FC07C011217A180097E0F79
:2019E0007F987C011217A17E0F7F797C011217A11218C280B9228F207F32120496120AA1AD
:201A00007FCC1205367F8D120536E4FF120536AF201205367F32120496120AA17FF01205E9
:201A2000367F8D120536E4FF120536120A728F217F32120496AF207E0074802FFDE43EFCC1
:201A4000AF217E00EF6D7004EE6C60057F331205DE227427121AEDE4F52BAF031F8F2C128A
:201A600018C28F2D7408652D7017E52B60F1152B7F0812178E7F2012178E7F0812178E8048
:201A8000DEAF2DEF640A6006740D652D7005E4F52D800DAD2CAF2BEF6D60C4AF2D12178EE8
:201AA000AF2B7E00AB07AA06E4F9F87427121AD212173BAB2D121727E52D6005052B021AAF
:201AC0005FAF2B22759852438920758DFDD28ED29922C88604088605088606088607C8227C
:1B1AE000C8F608A60108A60208A603C822C8A60408A60508A60608A607C822BB
:00000001FF
