:200000000203E78E3E8F3F74401216A1E4F544F545744012180F1215F08F460543E54370CD
:200020000E0542E54270080541E54170020540E5467007AE44AF450203387425654660033D
:20004000020322E4F547E4F548754901E4F54A744012180F1215F08F460543E543700E058A
:2000600042E54270080541E54170020540AF46EF6463700302014D7D63AF46D3EF9D503555
:200080007D2EAF46C3EF9D50030203227D39AF46D3EF9D4003020322AF469002DDEF2F50B1
:2000A0000205832582F58250020583740193C0E0E493C0E022AF46EF6475600DAF46EF646B
:2000C000786003020322434701053D053DAF3DAB0778027CFF7DFF7EFF7FFE121743121573
:2000E000AA8E4B8F4C02016A43488002004FAF48530780EF700643480402004FAF4674D08A
:200100002FF980297F0AE98FF0A4FB744012180F1215F074D02FFF2BF90543E543700E05F1
:2001200042E54270080541E54170020540744012180F1215F0AD077F30C3ED9F40077F3906
:20014000D3ED9F40BF894A43480102004F053D053DAF3DAB0778027CFF7DFF7EFF7FFE12F2
:2001600017431215AA8F46020322754D00754E01AF47530701EF70030201C2801C7D04AE8F
:200180004DAF4EEF8DF005F08005C333CE33CED5F0F8FF8E4D8F4E0549AC4DAD4EAE4BAF0C
:2001A0004C1216BC7C007D0FD3EF9DEE9C50CE80277E007F0AAC4DAD4E1215D28E4D8F4EAD
:2001C0000549AC4DAD4EAE4BAF4C1216BC7C007D09D3EF9DEE9C50D9AF47530762EF6002EE
:2001E0000549AF48530701EF6028AF48530714EF70208015154A7F20853E83853F821217BC
:20020000500545E54570020544AD4AAF49C3EF9D40E2AF47530702EF60047D2D8002E4FD4D
:20022000ED6013AF05853E83853F821217500545E54570020544AF48530701EF70030202BE
:20024000EBAF48530704EF70030202EB8015154A7F30853E83853F821217500545E5457081
:20026000020544AD4AAF49C3EF9D40E20202EBAC4DAD4EAE4BAF4C1216BCAB07AF037E0036
:20028000AC4DAD4E1215D2AC4BAD4CC3ED9FFFEC9EFE8E4B8F4C74302BFD7F39D3ED9F40D4
:2002A0000474272DFDAF05853E83853F821217500545E54570020544AF47530701EF601CD1
:2002C0007D04AE4DAF4EEF8DF005F08005CEC313CE13D5F0F8FF8E4D8F4E800F7C007D0A34
:2002E000AE4DAF4E1216BC8E4D8F4EE54D454E600302026FAF48530701EF70030200118088
:2003000015154A7F20853E83853F821217500545E54570020544AD4AAF49C3EF9D40E20234
:200320000011AF46853E83853F821217500545E545700205440200112200E8032200EE0053
:20034000FC00FC00FC00FC00FC00FC00FC00FC00FC7800790B900000E849600AE4F0A3E93A
:200360001970F51880F22212187A1204C07E007F64120402900000740EF07F04121B3F125D
:200380001B090203D21204F4121739AD077F31C3ED9F403E7F39D3ED9F5037900373ED2D07
:2003A000500205832582F58250020583740193C0E0E493C0E02212085A80171206B2801223
:2003C00012058E800D1205F0800812075980031207B002038503B603BB03C003C503CA0342
:2003E000CF03D203D203D2E5A8C2AF549075814EA881760018B81FFAC0E012058AD0A80246
:200400000367EF60010E90FF67A3E583458270F9DFF4DEF222121AC8EF60147E0A7F237C21
:20042000011216807E0A7F0B7C0112168080FE7F3312156EE4F52012055BAD07AF207E00AB
:2004400074032FF58274003EF583EDF005207408652070E322900000E0FFBFFF087FCC124B
:20046000156E0204BF7F5512156EE4F52B900000E0FFAD077C007F03ED8FF005F08005C3FD
:2004800033CC33CCD5F0F8FD7E087FCBEF2DFBEE3CFAAF2BAD07E4FCFE7F07C3EF9DFFEE6B
:2004A0009CFEEB2FFFEA3EFE850683850782E493FF12156E052B7408652B600302046D2208
:2004C0007E0E7F327C0112168022EDAD07FF7E0074202FFFE43EFE8E2F8F30AF057E007476
:2004E000202FFFE43EFE8E2D8F2E7E0E7F2B7C01121680221204C07E157F3A7C0112168052
:200500007E157F057C011216807E147FEF7C011216807E147FB17C011216807E147F7C7C8A
:20052000011216807E147F5B7C011216807E147F3C7C011216807E147F107C011216807E4B
:20054000137FE87C011216807E137FE07C011216807E137FD07C0112168022E4F52DE4F5E1
:200560002E12181DEF6018AD2E7F01EF8DF005F08002C333D5F0FBFDAF2DEF4DFF8F2D05D6
:200580002E7408652E70DAAF2D22120351220205EC1204C07E117F177C011216807E107F2E
:2005A000FA7C011216807E107FD37C011216807E107FB17C011216807B047F207C02121670
:2005C0000E7F207C021217558F24AF241218DA74FF6524601A7D217F061204CA7E107FAEB4
:2005E0007C011216807D217F061204CA020591221204C07E107F957C011216807E107F7BF4
:200600007C011216807E107F3B7C011216807E107F1F7C011216800206AE121739BF6503B8
:200620000206B174D02FFF8F2685262E752D007E107F1C7C011216807E0F7FE47C0112167C
:20064000807B067F207C0212160E7F207C021217558E278F28E5274528702A7527007528F3
:20066000018022E4FDAF26121888AE27AF281204027D01AF26121888AE27AF2812040212D0
:20068000190CEF700280DC7D347F081204CA7E0F7FDC7C011216807D1B7F061204CA7E0FC9
:2006A0007FDA7C011216807D1B7F061204CA02061A220207551204C07E127F5D7C01121636
:2006C000807E127F2E7C011216807E117FED7C01121680121739BF65030207581204157E85
:2006E000117FAA7C01121680900003E0FF7E008E3B8F3C900004E0FF7E008E398F3A900006
:2007000005E0FF7E008E378F38900006E0FF7E008E358F36900007E0FF7E008E338F349068
:200720000008E0FF7E008E318F32900009E0FF7E008E2F8F3090000AE0FF7E008E2D8F2EF3
:200740007E117F527C011216807E117F327C011216801217390206B5221204C07E0F7FB4D8
:200760007C011216807E0F7F8D7C011216807E0F7F717C011216807E0F7F527C0112168071
:20078000802B12183D7E008E208F217D217F061204CA85202F85213085202D85212E7E0F8B
:2007A0007F467C0112168012190CEF700280D3221204C07E0F7F247C011216807E0F7F010A
:2007C0007C011216807E107F3B7C011216807E0E7FE67C011216807E0E7FDB7C0112168066
:2007E0000208567D1B7F061204CA121739BF650302085974D02FFF8F2085202E752D007E9C
:20080000107F1C7C011216808023AF20121AE58F217D0C7F081204CA85212E752D007E0EE3
:200820007FD77C0112168012190CEF700280DB7D0C7F081204CA7E0F7FDA7C011216807DD2
:200840001B7F061204CA7E0F7FDA7C011216807D1B7F061204CA0207E3221204C07E137F1C
:20086000987C011216807E137F607C011216807E137F407C011216807E137F187C011216E4
:200880008080457D027F071204CA7E127FF17C011216807D027F071204CA121739BF65029C
:2008A0008028121AC8EF600B7E127FD37C0112168080097E127FAB7C011216807E127F8C38
:2008C0007C0112168012173980B9220000000000000000FE0008019C0E6D100C000801DB18
:2008E000082110C60008019C3F0B105400080186700A10000000000000000000000000008D
:20090000000000000000000000000000000000000000000000000000000000D900000013EB
:20092000FAD32000000000000000000000000000000000000000000000000036000000088C
:2009400060D4291A000000086C3B2900000000000000000000000000000000000000000048
:2009600000000000000000000000000000000000000000FE0008019C0E6D100C000801DB59
:20098000082110C60008019C3F0B105400080186700A1000000000000000000000000000EC
:2009A000000000000000000000000000000000000000000000000000000000D9000000134B
:2009C000FAD3200000000000000000000000000000000000000000000000003600000008EC
:2009E00060D4291A000000086C3B29000000000000000000000000000000000000000000A8
:200A000000000000000000000000000A0A202052657365742064727565636B656E202E2E92
:200A20002E20000A0A0A0A20204665686C6572206265696D204C6573656E20646573205208
:200A40004F4D2D4964656E746966696572733A204B45494E2050726573656E636520766F7C
:200A60006D20536C6176652021000A0A53797374656D20616E676568616C74656E20210A92
:200A80000A0700556E6775656C74696765204665686C65726E756D6D6572206175666765FA
:200AA00074726574656E2021004453323430383A204B65696E20507265732062656920648F
:200AC00073323430385F666C615F636C2829004453323430383A204B65696E2050726573C4
:200AE00020626569206473323430385F72645F666C612829004453323430383A204B6569F1
:200B00006E205072657320626569206473323430385F72645F7A757374616E642829004466
:200B200053323430383A20436F6E6669726D6174696F6E2D427974652066616C73636820DF
:200B4000696E206473323430385F77725F627974652829004453323430383A204B65696E07
:200B6000205072657320626569206473323430385F77725F627974652829004453323430CD
:200B8000383A204665686C657220626569206473323430385F696E697428290044533234F7
:200BA00030383A204B65696E205072657320626569206473323430385F696E6974282900B9
:200BC0004453323435303A204B65696E20507265732E3A2053636872656962656E20696E06
:200BE000205061676520332028496E69742D456E6465292021004453323435303A204B65AA
:200C0000696E20507265732E3A20537461727420436F6E766572742028456E64652920217E
:200C2000004453323435303A204B65696E20507265732E3A20537461727420436F6E766506
:200C400072742028416E66616E67292021004453323435303A204665686C6572206265694F
:200C60006D2052FC636B6C6573656E20766F6E205061676520332028496E6974292021000B
:200C80004453323435303A204B65696E20507265732E3A2053636872656962656E20696E45
:200CA000205061676520332028496E69742D416E662E292021004453323435303A204B6522
:200CC000696E20507265732E3A204C6573656E206175732065696E6572205365697465202E
:200CE0002832292021004453323435303A204B65696E20507265732E3A204C6573656E2094
:200D00006175732065696E6572205365697465202831292021004453323435303A204B65EE
:200D2000696E20507265732E3A2053636872656962656E20696E2065696E6520536569749A
:200D400065202832292021004453323435303A204665686C6572206265696D2053636872CB
:200D6000656962656E202D20527565636B6C6573656E2021004453323435303A204B6569DC
:200D80006E20507265732E3A2053636872656962656E20696E2065696E652053656974653E
:200DA000202831292021004453313832303A204B65696E20507265732062656920647331DB
:200DC0003832305F77725F745F726567004453313832303A204B65696E2050726573206242
:200DE0006569206473313832305F72645F74656D702829202D2032004453313832303A206D
:200E00004B65696E205072657320626569206473313832305F72645F74656D702829202D97
:200E20002031000A0A2533753A20001B5925632563001B481B4A000000000000000000FEDC
:200E40000008019C0E6D100C000801DB082110C60008019C3F0B105400080186700A100007
:200E6000000000000000000000000000000000000000000000000000000000000000000072
:200E800000000000000000D900000013FAD320000000000000000000000000000000000079
:200EA00000000000000000360000000860D4291A000000086C3B29000000000000000000A5
:200EC00000000000000000000000000000000000000000000000002531750020205A7573C5
:200EE00074616E643A002020506F72742D50696E2D4E722E202830202E2E2037293A0A0AFB
:200F0000003D3D3D3D3D3D3D3D3D3D3D3D3D3D3D3D3D3D3D3D3D3D3D3D3D3D3D3D3D3D3D6E
:200F20003D0A0A005A757374616E642065696E657320506F72742D50696E732065696E6CEF
:200F40006573656E0A0025327820202F2020253375002020506F72742D5A757374616E6496
:200F600020696E2048455820202F202044455A3A0028456E64652064757263682054617387
:200F800074656E647275636B290A0A0A003D3D3D3D3D3D3D3D3D3D3D3D3D3D3D3D3D3D3D23
:200FA0003D3D3D3D3D3D3D3D3D3D3D3D3D3D3D3D3D0A0A0045696E6C6573656E2064657381
:200FC00020676573616D74656E20506F72742D5A757374616E6465730A0020002020202040
:200FE000202020000A0A202045696E6761626520646572205A6569747665727A6F65676514
:2010000072756E6720696E206D73202831202E2E2E203635353335293A2020002575002075
:2010200020506F72742D50696E2D4E722E202830202E2E2037293A2020200028456E6465CA
:201040002064757263682054617374656E647275636B2C2020527565636B737072756E67AD
:201060002064757263682045696E6761626520766F6E20276527290A0A0A003D3D3D3D3DB1
:201080003D3D3D3D3D3D3D3D3D3D3D3D3D3D3D3D3D3D0A0A00426C696E6B656E2065696ED3
:2010A000657320506F72742D50696E730A002020002020427974652D5765727420696E20C8
:2010C00044455A202830202E2E20323535293A2020200028527565636B737072756E6720D9
:2010E00064757263682045696E6761626520766F6E20323535290A0A0A003D3D3D3D3D3D2B
:201100003D3D3D3D3D3D3D3D3D3D3D3D3D3D3D3D3D3D3D3D0A0A00417573676162652065BA
:20112000696E657320427974652D5765727465730A000A0A0A0A4665727469672C20546111
:201140007374652064727565636B656E202E2E2E20002020202020253032782020202020C9
:201160002020202020202530327820253032782025303278202530327820253032782025EF
:20118000303278202020202020202020202020202020253032782020202020202020202056
:2011A00020202028484558290A000A0A0A2020382D42697420435243202020202020343889
:2011C0002D4269742053657269616C204E756D626572202020202020382D426974204661AF
:2011E0006D696C697920436F64650A0A004162667261676520647572636820447275636B25
:20120000206175662054617374652C20204265656E64656E2064757263682045696E6761FA
:20122000626520766F6E202765273A2020003D3D3D3D3D3D3D3D3D3D3D3D3D3D3D3D3D3DDD
:201240003D3D3D3D3D3D3D3D3D3D3D3D3D3D3D3D3D3D3D3D3D3D3D3D3D3D3D0A0053696EEB
:20126000676C6520436869703A204C6573656E206465732036342042697420524F4D2D4998
:2012800064656E746966696572730A000A0A576569746572202D20546173746520647275BA
:2012A00065636B656E202E2E2E200020205465737420504F53495449563A20204D696E642E
:2012C000657374656E732045494E455220646120210A00202054657374204E454741544901
:2012E000563A20204B65696E657220646120210A00202020202020202020202020202020B0
:201300002020202020202020202020202020202020202020202020000A0A537461727420AB
:201320006465732054657374733A202054617374652064727565636B656E202E2E2E200088
:20134000284265656E64656E2064757263682045696E6761626520766F6E20276527290044
:201360003D3D3D3D3D3D3D3D3D3D3D3D3D3D3D3D3D3D3D3D3D3D3D3D3D3D3D3D3D3D3D3DCD
:201380003D3D3D3D3D3D3D3D3D3D3D3D3D3D3D3D3D3D3D3D3D3D0A00312D576972652D5291
:2013A000657365743A20546573742C206F62204A454D414E4420616D2042757320616E6708
:2013C000657363686C6F7373656E206973740A000A0A0A49687265205761686C3A20200090
:2013E0000A0A2020392E20002020362E205A757374616E642065696E657320506F72742D3F
:2014000050696E732065696E6C6573656E0A0A002020352E2045696E6C6573656E206465CC
:201420007320676573616D74656E20506F72742D5A757374616E6465730A0A002020342E5C
:2014400020426C696E6B656E2065696E657320506F72742D50696E730A0A002020332E2014
:20146000417573676162652065696E657320427974652D5765727465730A0A002020322E71
:201480002053696E676C6520436869703A204C6573656E206465732036342042697420523E
:2014A0004F4D2D4964656E746966696572730A0A002020312E20312D576972652D526573CE
:2014C00065743A20546573742C206F62204A454D414E4420616D2042757320616E676573E7
:2014E00063686C6F7373656E206973740A0A00426974746520776165686C656E20536965CC
:201500003A0A0A0A003D3D3D3D3D3D3D3D3D3D3D3D3D3D3D3D3D3D3D3D3D3D3D3D3D3D3D04
:201520003D3D3D3D3D3D3D3D3D3D3D3D3D3D3D3D3D3D3D3D3D3D3D0A0A004461732067720B
:201540006F73736520312D57697265202D2044533234303865722D50726F6A656B74202DBA
:20156000204469676974616C20492F4F0A008F2C752D01752E08AD2DAF2CEF5DFF60077FAD
:2015800001121B308005E4FF121B30AF2DEF2FFF8F2DD52EE122EC70078F828E83EBF022EB
:2015A000B40206C88F00A603C822EC700A8F828E83E0FEA3E0FF22D5E00B8F828E8393FE08
:2015C000740193FF22D5E009C88F008606088607C822C000C001ED8FF0A4F9A8F0ED8EF035
:2015E000A428F8EC8FF0A428FEAF01D001D00022EC70078F828E83E0FF22D5E0078F828E9E
:201600008393FF22D5E006C88F008607C82274271216AEE4F52BAF031F8F2C1217398F2DEB
:201620007408652D7017E52B60F1152B7F0812168E7F2012168E7F0812168E80DEAF2DEF7C
:20164000640A6006740D652D7005E4F52D800DAD2CAF2BEF6D60C4AF2D12168EAF2B7E007E
:20166000AB07AA06E4F9F8742712180F121743AB2D121596E52D6005052B02161BAF2B2288
:20168000753D2D1218067E167F8E12000322BF0A083099FDC29975990D3099FDC2998F990D
:2016A00022C8F608A60108A60208A603C822C8A60408A60508A60608A607C822C000C00157
:2016C000C002C003C083C082AA04AB05A806A90775F000EA4B7006E4FEFF02172C05F0EA2F
:2016E00054807017EB2BF582EA33F583D3E58299E583985006AA83AB8280E2E4F583F582B5
:20170000E5822582F582E58333F583C3E99BE89A4008C3E99BF9E89AF8A3EAC313FAEB130B
:20172000FBD5F0DCAE83AF82AC00AD01D082D083D003D002D001D000223098FDAF99C298DD
:201740007E0022EF2BFFEE3AFEED39FDEC38FC22C082C0832274271216AEE4F50EF50FE45E
:20176000F50C85270885280985290A852A0BE4F8F9FA7B0112183412174374271216AE12F4
:2017800018341215F0AB07E50C700DEB64206003BB090280CD750C017401650C7010BB2D11
:2017A00005750C8080BC750C02BB2B0280B47F30C3EB9F40077F39D3EB9F400280287E0088
:2017C0007F0AAC0EAD0F1215D2AC06AD07AF037E0074D02FFF74FF3EFEEF2DFFEE3CFE8E89
:2017E0000E8F0F021762AF0C7E00EF64804E700DAE0EAF0FC3E49FFDE49EFC8004AC0EADC5
:201800000FAE04AF0522A804A905AA06AB0722C88604088605088606088607C822C2B4D213
:20182000B47F06DFFEA2B4E433FF8F2F7F0D1218CDAF2F22AC08AD09AE0AAF0B227F361220
:201840001B221204557FF012156E7F8812156EE4FF12156E12055B8F2B752C0712055BD5AD
:201860002CFA12055B900002EFF012055B900001EFF07F36121B22AF2B2275985243892032
:20188000758DFDD28ED299228D298F2A12183DA907E5296018AB2A7F01EF8BF005F080021A
:1F18A000C333D5F0FBFFAD07E94DFD801AAB2A7F01EF8BF005F08002C333D5F0FBFB7F8D
:2018C000C3EF9BFFE95FFDAF051218DA22AB07E4FF80010FC3EF9B40FA228F297F34121B37
:2018E000221204557F5A12156EAF2912156EAF29EFF4FF12156E12055BEF64AA60057F35A9
:2019000012191D12055B7F34121B2222E4FDA298E433FFBF0104C298AD99AF05228F2C853E
:201920002C2E752D007E0E7F237C011216807D0AAF2CC3EF9D5003021A7E7D1DAF2CD3EF83
:201940009D501DAF2C901A7EEF2F500205832582F58250020583740193C0E0E493C0E022A9
:201960007D32AF2CC3EF9D5003021A7E7D38AF2CD3EF9D4003021A7EAF2C901A56EF2F508C
:201980000205832582F58250020583740193C0E0E493C0E0227E0D7FF87C01121680021AA1
:2019A000877E0D7FCD7C01121680021A877E0D7FA77C01121680021A877E0D7F757C01127A
:2019C0001680021A877E0D7F487C01121680021A877E0D7F167C01121680021A877E0C7FC3
:2019E000E67C01121680021A877E0C7FB67C01121680021A877E0C7F807C01121680021AE8
:201A0000877E0C7F4E7C01121680021A877E0C7F217C01121680021A877E0B7FF67C0112A1
:201A20001680021A877E0B7FC07C01121680021A877E0B7F9C7C01121680804B7E0B7F7BC6
:201A40007C0112168080407E0B7F547C0112168080357E0B7F1F7C01121680802A7E0A7F6E
:201A6000F57C01121680801F7E0A7FCF7C0112168080147E0A7FA97C0112168080097E0A38
:201A80007F837C011216807E0A7F6A7C0112168080FE199519A119AD1A7E1A7E1A7E1A7E7D
:201AA0001A7E1A7E1A7E19B919C519D119DD19E919F51A011A0D1A191A251A311A3C1A4708
:201AC0001A521A5D1A681A73C2B47F491218CDD2B47F071218CDA2B4E433FF8F2D7F3E12E5
:1F1AE00018CDAF2D228F2112183DAB07AD217F01EF8DF005F08002C333D5F0FBFFEB5F0B
:201B00007004E4FF80027F01227F38121B221204557FC312156E12055BBFAAFA7F38121B49
:201B200022228F2C121AC8EF6005AF2C12191D22C2B4EF6002D2B47F0D1218CDD2B4228F12
:201B4000207F32121B221204557FCC12156E7F8D12156EE4FF12156EAF2012156E7F3212DA
:201B60001B221204557FF012156E7F8D12156EE4FF12156E12055B8F217F32121B22AF20AF
:1B1B80007E0074802FFDE43EFCAF217E00EF6D7004EE6C60057F3312191D2295
:00000001FF
