:100000000C946D000C942E0C0C945B0C0C949500CD
:100010000C9495000C9495000C9495000C9495000C
:100020000C9495000C9495000C9495000C94070A80
:100030000C9495000C9495000C9495000C949500EC
:100040000C94880C0C9495000C941A0F0C94610F6E
:100050000C9495000C9495000C9495000C949500CC
:100060000C9495000C9495003A003A002000202052
:10007000002020200000000000240027002A0000AB
:10008000000000250028002B0000000000230026AF
:10009000002900040404040404040402020202020D
:1000A000020303030303030102040810204080013C
:1000B00002040810200102040810200000000700BC
:1000C0000201000003040600000000000000000020
:1000D000F300E2037607A010EC0011241FBECFEF5F
:1000E000D8E0DEBFCDBF12E0A0E0B1E0EEE7F5E280
:1000F00002C005900D92A435B107D9F713E0A4E52D
:10010000B2E001C01D92AA3AB107E1F710E0C8EDD4
:10011000D0E004C02297FE010E94AE12C03DD1077C
:10012000C9F70E94F6100C94B2120C940000FB0167
:10013000DC0102C001900D9241505040D8F7089563
:10014000CF92EF920F938130910569F56F5F7F4FEA
:1001500009F03EC08DE592E068E049E024E005E06A
:1001600056E0E52E37E0C32E0E94CB0582E792E0F1
:1001700065E14AE021EF32E00E94170C8EEA92E03E
:1001800060E10E94CA0382EB92E06FE00E94CA0322
:1001900086EB92E064E10E94CA038AEB92E061E19F
:1001A0000E94CA0315C0892B99F46F5F7F4F81F4B9
:1001B0008AEB92E00E94D20386EB92E00E94D20387
:1001C00082EB92E00E94D2038EEA92E00E94D20378
:1001D0000F91EF90CF90089580E090E06FEF7FEF68
:1001E0000E94A000089581E090E06FEF7FEF0E94F1
:1001F000A0000895CF93DF93EC018A3091052CF491
:100200008DE592E061E770E010C0843691052CF432
:100210008DE592E06EE670E008C083E0C83ED80746
:1002200034F48DE592E06CE670E00E9430118DE5CB
:1002300092E0BE014AE050E00E944212DF91CF916D
:1002400008950F931F938C010E94D3030E94B10D58
:10025000BC01C8010E94D6031F910F910895AF926F
:10026000BF92CF92DF92EF92FF920F931F93DF9393
:10027000CF93CDB7DEB729970FB6F894DEBF0FBE88
:10028000CDBF0E94DE0CAB01BC01409379015093BD
:100290007A0160937B0170937C0108E013E0C80150
:1002A0002AE030E00E94F311C80160E071E00E9492
:1002B00055125E010894A11CB11C89E0F501119250
:1002C0008A95E9F781E089838091B0029091B1022B
:1002D0008A839B838091B4029091B5028C839D8325
:1002E0008091B8029091B9028E839F838091BC0265
:1002F0009091BD02888799877DE0C72E71E0D72E47
:10030000C801B6010E9455120E94DE0CAB01BC016F
:100310008091790190917A01A0917B01B0917C014B
:10032000481B590B6A0B7B0BC8012AE030E00E9486
:10033000F31162E7E62E62E0F62EC701B50149E04F
:100340000E94BB0AC801B6010E9455120E94DE0C31
:10035000AB01BC018091790190917A01A0917B0160
:10036000B0917C01481B590B6A0B7B0BC8012AE03A
:1003700030E00E94F311C7010E945A0BC801B60178
:100380000E9455120E94DE0CAB01BC0180917901E4
:1003900090917A01A0917B01B0917C01481B590B8F
:1003A0006A0B7B0BC8012AE030E00E94F311C70101
:1003B0000E94E90AC801B6010E9455120E94DE0C93
:1003C000AB01BC018091790190917A01A0917B01F0
:1003D000B0917C01481B590B6A0B7B0BC8012AE0CA
:1003E00030E00E94F311C80160E171E00E945812F0
:1003F00029960FB6F894DEBF0FBECDBFCF91DF9127
:100400001F910F91FF90EF90DF90CF90BF90AF9032
:100410000895EF92FF920F931F93DF93CF93CDB781
:10042000DEB76D970FB6F894DEBF0FBECDBF0E944A
:10043000D00C611571058105910541F40E94D00C25
:10044000623071058105910508F471C00E94D00CDD
:100450009B01AC016093590270935A0280935B0236
:1004600090935C028091540290915502A0915602A3
:10047000B0915702281739074A075B0740F42093C9
:100480005402309355024093560250935702809184
:10049000540290915502A0915602B09157027901F1
:1004A0008A01E81AF90A0A0B1B0BD801C7018A3F17
:1004B0009105A105B105D8F1809158028823B9F5BD
:1004C00020935402309355024093560250935702A2
:1004D0008EEB92E00E9410048091EF029091F00266
:1004E00063E171E00E9455128091EF029091F00259
:1004F0006BE171E00E9455120091EF021091F00241
:100500000E94D00CAB01BC01C8012AE030E00E947F
:10051000F3118091EF029091F0026DE171E00E9481
:10052000581265E070E080E090E00E94490D8EEA8C
:1005300092E00E94210182EB92E00E94210186EB71
:1005400092E00E9421018AEB92E00E9421018DE558
:1005500092E060E040E00E94DE048091B002909161
:10056000B1020E94FA008DE592E06AE670E00E9416
:1005700030118091B4029091B5020E94FA008DE58D
:1005800092E060E041E00E94DE048091B802909128
:10059000B9020E94FA008DE592E068E670E00E94E0
:1005A00030118091BC029091BD020E94FA000E941D
:1005B000DE0C2091790130917A0140917B015091BC
:1005C0007C01621B730B840B950B605472448F404B
:1005D000904080F08091AE028823F9F48091B202BD
:1005E0008823D9F48091B6028823B9F48091BA02A5
:1005F000882399F40E94DE0C2091790130917A01D0
:1006000040917B0150917C01621B730B840B950B15
:10061000605876498849904010F00E942F018CE183
:10062000898382E792E00E94180B8823C1F08E0133
:100630000E5F1F4F82E792E0B801AE014F5F5F4F40
:100640000E944F0A882359F088E093E064E271E049
:100650000E94551288E093E0B8010E9458126D96EE
:100660000FB6F894DEBF0FBECDBFCF91DF911F91C3
:100670000F91FF90EF9008958EEB92E068E073E0A9
:1006800020E032EC41E050E00E94E30360ED77E0CF
:1006900080E090E00E94490D8EEB92E00E941004F1
:1006A0008091EF029091F00260E371E00E94581295
:1006B0006AE070E080E090E00E94490D8EEB92E0ED
:1006C00060E040E00E94E10388E093E040E051EE0A
:1006D00060E070E00E94910F88E093E00E949E101D
:1006E0008823D1F382E792E00E94A40B882331F49F
:1006F00088E093E06FE371E00E94581282E792E095
:1007000061E00E949D0B882331F488E093E06BE464
:1007100071E00E94581282E792E061E070E043E0ED
:1007200050E00E948C0B882331F488E093E06DE563
:1007300071E00E9458128DE592E060E142E020E015
:100740000E9415058DE592E06AE671E00E9455125F
:100750008EEA92E00E94D30360E00E94330E82EBA7
:1007600092E00E94D30360E00E94330E86EB92E099
:100770000E94D30360E00E94330E8AEB92E00E9455
:10078000D30360E00E94330E83E068EC70E00E94C7
:10079000D30D0895FC01618380E890E09383828308
:1007A000108208950895FC0181810895FC018281E1
:1007B00093818617970721F07383628381E080839A
:1007C000089508950895FC0172AB61ABCB01BA01A5
:1007D000A9010E94910F0895CF93DF93EC01662346
:1007E00039F015C063E070E080E090E00E94490DB0
:1007F0000E94D00C29813A814B815C81621B730B72
:10080000840B950B623371058105910558F30E94A5
:10081000D00C69837A838B839C83DF91CF91089579
:1008200060E00E94EC0308950F931F938C01FC017C
:10083000868160E00E94720E81E090E00E94040DCB
:10084000F801868161E00E94720E81E090E00E94D2
:10085000040DF801868160E00E94720E84E690E04B
:100860000E94040D1F910F910895CF92DF92EF9295
:10087000FF920F931F93CF93DF93D82EC92E282F6B
:10088000392FC9018C01C0E0D0E0E62EFF24F80129
:10089000878161E00E94330EB7010C2E02C075956E
:1008A00067950A94E2F76170F80187810E94720EE1
:1008B00021960F5F1F4FC830D10549F78D2D9C2D14
:1008C0000E941404DF91CF911F910F91FF90EF9040
:1008D000DF90CF900895CF92DF92EF92FF920F9327
:1008E0001F93CF93DF93D82EC92E282F392FC901FC
:1008F0008C01C0E0D0E0E62EFF24F801878161E0A2
:100900000E94330EB7010C2E02C0759567950A94AC
:10091000E2F76170F80187810E94720E21960F5FE5
:100920001F4FC430D10549F78D2D9C2D0E94140412
:10093000DF91CF911F910F91FF90EF90DF90CF90BB
:1009400008951F93CF93DF93EC01162F8C81642FB2
:100950000E94720E8D818F3F19F060E00E94720E2E
:100960008F8584FF05C0CE01612F0E9435040EC023
:10097000612F70E084E0759567958A95E1F7CE0167
:100980000E946B04CE01612F0E946B04DF91CF9116
:100990001F91089541E00E94A10481E090E0089534
:1009A00040E00E94A1040895FC016089862F8460C4
:1009B000808B6C60CF010E94D0040895DF93CF93A9
:1009C000CDB7DEB728970FB6F894DEBF0FBECDBF08
:1009D0009C01FE013196A6E8B1E088E00D900192FD
:1009E0008150E1F7F9018389481710F0482F4150F1
:1009F000E42FF0E0EE0FFF1FEC0FFD1F8181680F69
:100A00006068C9010E94D00428960FB6F894DEBF32
:100A10000FBECDBFCF91DF91089561E00E94D00459
:100A200080ED97E00E94040D0895CF93DF93EC01D1
:100A3000423018F08F8588608F874B8B1C8A222369
:100A400029F0413019F48F8584608F8780E593EC1D
:100A50000E94040D8C8160E00E94720E8E8160E025
:100A60000E94720E8D818F3F19F060E00E94720E1D
:100A70006F8564FD1DC0CE0163E00E946B0484E9B4
:100A800091E10E94040DCE0163E00E946B0484E9B1
:100A900091E10E94040DCE0163E00E946B0486E99F
:100AA00090E00E94040DCE0162E00E946B0416C02B
:100AB0006062CE010E94D00484E991E10E94040D9D
:100AC0006F856062CE010E94D00486E990E00E94AA
:100AD000040D6F856062CE010E94D0046F85606254
:100AE000CE010E94D00484E0888BCE010E94D40401
:100AF000CE010E940D0582E0898BCE0166E00E9446
:100B0000D004DF91CF9108956F927F928F92AF9230
:100B1000CF92EF920F931F93DF93CF93CDB7DEB7B2
:100B20003C01162F842FF301448325830683E7823B
:100B3000C086A18682869D8593879E8594879F85A2
:100B400095879889968761E00E94330EF30185812D
:100B50008F3F19F061E00E94330EF301868161E05E
:100B60000E94330E112319F0F301178603C080E1B0
:100B7000F3018787C30160E141E020E00E94150591
:100B8000CF91DF911F910F91EF90CF90AF908F9009
:100B90007F906F9008958F92AF92CF92EF920F93C4
:100BA0001F93CF93DF93DC01362F542F722F102F1A
:100BB000AE2C8C2C13961C921E92129782E891E018
:100BC00011969C938E9300D000D0EDB7FEB731966E
:100BD000CDB7DEB71982118212821382CD0161E096
:100BE000432F2FEF052FE72EC12E0E9484050F9073
:100BF0000F900F900F90DF91CF911F910F91EF9079
:100C0000CF90AF908F9008958CB58F7B8CBD089559
:100C1000882319F48CB5806202C08CB58F7D8CBDA1
:100C200008959CB5937F982B9CBD08952CB5382FC3
:100C300033702C7F322B3CBD2DB590E09595879578
:100C40009595879581702E7F822B8DBD08958AE0C2
:100C500061E00E94720E8AE061E00E94330E8CB562
:100C600080618CBD8CB580648CBD8DE061E00E949C
:100C7000330E8BE061E00E94330E0895FC0182E99F
:100C800091E091838083138212828FEF8483828725
:100C9000838714861586108A1786128A118A148A09
:100CA000138A089581E00895FC0165830895FC018D
:100CB00064830895FC0162870895FC0163870895A9
:100CC000FC0164870895FC01409585854823462BE7
:100CD00045870895FC0186810895FC018781089568
:100CE000FC0180850895FC0181850895AF92BF9233
:100CF000CF92DF92EF92FF920F931F93CF93DF93E8
:100D0000EC018B010E94D00C5B016C01780100E0CA
:100D100010E008C08A819B81029711F081E00EC02B
:100D20000E942D0C0E94D00C6A197B098C099D0928
:100D30006E157F058007910768F380E0DF91CF9102
:100D40001F910F91FF90EF90DF90CF90BF90AF90E9
:100D50000895CF93DF93EC0102C00E942D0C8A818D
:100D60009B810297D1F381E0DF91CF910895AF92FB
:100D7000BF92CF92DF92EF92FF920F931F93CF9388
:100D8000DF93EC018B010E94D00C5B016C017801B8
:100D900000E010E00DC0E881F9810280F381E02DD0
:100DA000CE010995882311F081E00EC00E942D0C20
:100DB0000E94D00C6A197B098C099D096E157F056C
:100DC0008007910740F380E0DF91CF911F910F9151
:100DD000FF90EF90DF90CF90BF90AF900895CF93AA
:100DE000DF93EC0102C00E942D0CE881F9810280A2
:100DF000F381E02DCE0109958823A9F3DF91CF91EE
:100E0000089508950895FC018CEB91E0918380830F
:100E10007383628355834483378326830895FC015B
:100E2000758364830895FC01778366830895FC01CC
:100E30007383628308956EBD0DB407FEFDCF8EB53A
:100E400008958CB580688CBD08958CB58F778CBD66
:100E500008950E9404060895CF93DF93EC018E81DC
:100E60009F81009771F08130910511F484E00AC0F0
:100E70008230910511F488E005C0039711F48CE0ED
:100E800001C080E00E94110620E08C819D810197C5
:100E900009F021E0822F0E9408068A819B8182301E
:100EA000910569F0833091051CF4019731F403C07A
:100EB00005971CF406C085E005C081E003C080E012
:100EC00001C084E00E9416060E942706DF91CF91A0
:100ED00008950F931F938C010E94030780ED91E00A
:100EE000F801918380831F910F91089581EF92E023
:100EF00060E070E040E050E020E030E00E946907F0
:100F00000895DF92EF92FF920F931F93CF93DF9399
:100F1000EC01162F7A01022FDFB6F8948F8960E07A
:100F20000E94720EAD89BE89ED91FC9111970190DE
:100F3000F081E02DCD01612F0995182F0EC0AD89EC
:100F4000BE89F70161917F01ED91FC9111970190AC
:100F5000F081E02DCD0109950150002381F78F89A3
:100F600061E00E94720EDFBE812FDF91CF911F9151
:100F70000F91FF90EF90DF900895DF92EF92FF9234
:100F80000F931F93CF93DF93EC01162F7A01022F5B
:100F9000DFB6F8948F8960E00E94720EAD89BE8939
:100FA000ED91FC9111970190F081E02DCD01612F21
:100FB0000995182F0EC0ED89FE89A081B1812D9170
:100FC0003C91CF0160E0F9010995F70181937F0120
:100FD0000150002381F78F8961E00E94720EDFBE0D
:100FE000812FDF91CF911F910F91FF90EF90DF90B4
:100FF0000895DF92EF92FF920F931F938C01F62ECC
:10100000E42EDFB6F894FC01878960E00E94720E3E
:10101000F801A589B689ED91FC9111970190F081B5
:10102000E02DCD016F2D0995F82EF801A589B6891F
:10103000ED91FC9111970190F081E02DCD016E2D85
:101040000995F801878961E00E94720EDFBE8F2D3D
:101050001F910F91FF90EF90DF900895EF92FF9214
:101060000F931F938C01F62EEFB6F894FC0187893D
:1010700060E00E94720EF801A589B689ED91FC919D
:1010800011970190F081E02DCD016F2D0995F801A8
:10109000A589B689ED91FC9111970190F081E02D21
:1010A000CD0160E00995F82EF801878961E00E9482
:1010B000720EEFBE8F2D1F910F91FF90EF9008954C
:1010C000EF92FF920F931F938C01F62EEFB6F894D8
:1010D000FC01878960E00E94720EF801A589B6893B
:1010E000ED91FC9111970190F081E02DCD016F2DD4
:1010F0000995F82EF801878961E00E94720EEFBE13
:101100008F2D1F910F91FF90EF9008950F931F93D4
:101110008C01FC01A589B689ED91FC91119706809F
:10112000F781E02DCD010995F801878961E00E94E2
:10113000330EF801878961E00E94720E64E670E068
:1011400080E090E00E94490D81E01F910F91089589
:10115000DF92EF92FF920F931F938C01D62E7A01AC
:101160000E943E0684EE91E0F80191838083F68A26
:10117000E58AD78A1F910F91FF90EF90DF90089535
:10118000FC01862F638D6827818D0E94720E089561
:10119000CF93DF93EC018A819B81019761F0CE01AF
:1011A00060E00E94C008888D60E00E94720E81E0BD
:1011B00090E09B838A83DF91CF910895EF92FF9215
:1011C0000F931F93CF93DF93EC01FC01E459FF4F82
:1011D00080818F5F80838150D1F57AE6E72EF12CF4
:1011E000EC0EFD1EF7019081C550DF4F8881CB5F6B
:1011F000D040981748F0CE010E94C8088B899C897E
:1012000001969C8B8B8B23C08E0105591F4FF801D3
:101210008081FE01E90FF11DE359FF4F608170E00D
:10122000082E02C0759567950A94E2F76170707098
:101230008F5FF8018083888D0E94720EF801808193
:10124000863028F01082F70180818F5F8083FE0155
:10125000E459FF4F8081883008F01082DF91CF91F0
:101260001F910F91FF90EF900895CF93DF93EC01C2
:101270008F890E94C60E30E020E0892B09F021E022
:101280008A8D281331E0832FDF91CF910895CF937A
:10129000DF93EC010E943509982F882319F08F8D78
:1012A0008F5F8F8F8E8D981759F028A188A1803578
:1012B00010F08DE101C08BE0820F88A39E8F03C0E8
:1012C00088A18C5E88A388A1803A08F48CC08AA18A
:1012D0009BA1969587959BA38AA38F8D853028F037
:1012E0008AA19BA198609BA38AA388A1805A88A306
:1012F0001F8E89A1882309F46BC08CA18F5F8CA3FA
:101300008CA18C3008F46FC08AA19BA1282F2F7369
:10131000322F36953695387098E008C0E32FF0E00C
:10132000E65FFD4F8081281721F03F5F9150B0F7B5
:1013300030E08AA19BA1E6E096958795EA95E1F7D2
:10134000982F282F26952695287048E008C0E22F70
:10135000F0E0E65FFD4F8081981721F02F5F41504C
:10136000B0F720E0932F9295907F922BC759DF4FD3
:101370008881C956D040882389F4FE01E859FF4F7F
:1013800090838081873018F08081843438F019A2EE
:101390008F8598890196988B8F8725C0DE01A75984
:1013A000BF4F8C91FE01E80FF11D95A38F5F8C93C9
:1013B0009C91C859DF4F8881C856D040981730F0AB
:1013C00019A281E08C8FCE010E94C8081CA20BC01C
:1013D0008AA19BA188539B4031F481E089A31CA280
:1013E000C759DF4F1882DF91CF910895FC018281A8
:1013F0009381039721F4CF010E94470908958281C8
:101400009381029719F4CF010E94DE0808951F927C
:101410000F920FB60F9211242F933F934F935F9328
:101420006F937F938F939F93AF93BF93EF93FF93AC
:101430008091F9029091FA020E94F609FF91EF91D2
:10144000BF91AF919F918F917F916F915F914F91DC
:101450003F912F910F900FBE0F901F901895FC0198
:10146000828D8430C8F0838D8683848D8783858DBB
:101470008087868D81878581882339F49681848150
:10148000981719F086818F3F39F4818992890196E6
:10149000928B818B81E083AF08958CE10895EF9268
:1014A000FF920F931F93CF93DF938C017B01EA018F
:1014B000DC01ED91FC910280F381E02D09958823F8
:1014C00011F1E114F104C1F02097B1F0F801428D5F
:1014D000242F30E023503040888190E0821793071A
:1014E00014F04450488348819801215E3F4FC70162
:1014F000B90150E00E949700D801DB961C92DB975F
:101500005A961C9281E0DF91CF911F910F91FF902D
:10151000EF9008956F710E942E08089562EE0E9468
:101520006008089561EE0E94600808956FEF0E94C0
:10153000600808956F7160620E94F9070895CF9363
:10154000DF93EC018A819B81029791F0898D60E0A5
:101550000E94720E488D4260CE0160E00E949A0A9D
:10156000898D61E00E94720E82E090E09B838A8305
:10157000DF91CF9108951F93CF93DF93EC01142F48
:101580004D3110F080E021C08A858B8F8B858C8F48
:101590008C858D8F8D858E8F9E01215E3F4FC90179
:1015A00050E00E949700CE010E949F0AAE01455E66
:1015B0005F4F1C5FCE0160EB212F0E9481078B895A
:1015C0009C8901969C8B8B8B81E0DF91CF911F9141
:1015D0000895CF93DF93EC018A819B81039771F08B
:1015E000488D4360CE0160E00E949A0A898D61E0D7
:1015F0000E94720E83E090E09B838A83DF91CF91FB
:101600000895CF93DF93EC018A819B81019769F064
:10161000CE0160E0488D0E949A0A898D60E00E94A8
:10162000720E81E090E09B838A83DF91CF910895D1
:101630001F93CF93DF93EC018BAD8823A1F58A81B3
:101640009B81029791F1CE010E94E90ACE0167E1E8
:101650000E948A0A80FD29C0CE0160E60E942E0801
:10166000182F813248F0CE010E948E0A1BAE1A8ECE
:10167000CE010E94010B19C0CE0167E040E40E9438
:101680009A0AAE01455E5F4FCE0161E6212F0E94AE
:10169000BD071A8FCE010E942F0A8BAD882319F047
:1016A000CE010E94010B8BAD01C080E0DF91CF9194
:1016B0001F9108950F931F93CF93DF938C01FC012B
:1016C00082819381029721F080E021C00E942D0C3D
:1016D000C8010E94960AC82FD0E0CE018073907096
:1016E000892BA1F3C80167E040E30E949A0AC4FF76
:1016F00003C0C8010E94920AC8010E94010B95E034
:10170000D695C7959A95E1F79E012170822FDF91BA
:10171000CF911F910F910895440F551F467062306D
:10172000710511F4406204C06130710509F448602C
:1017300066E00E949A0A81E00895462F4F7765E09F
:101740000E949A0A81E008950F931F93DF93CF932D
:101750000F92CDB7DEB78C01DC015596ED91FC916F
:101760005697A081B1811E962D913C911F97CF0174
:1017700060E070E0F9010995C8010E94860888239D
:1017800009F44EC0F801818D61E00E94330ED8014A
:1017900059968C9160E00E94720EC80167E040E7A4
:1017A0000E949A0AC8016CE14FE20E949A0AC8019D
:1017B0006DE145E00E949A0AC8016DE10E948A0A23
:1017C000853071F5C8010E94010BC8010E94920A80
:1017D000C8010E948E0A87E78983C80160EBAE01C9
:1017E0004F5F5F4F21E00E948107C80167E10E94BF
:1017F0008A0A84FF05C0C80160E543E70E94F90733
:10180000C8010E94920AC80162E00E949D0BC801B3
:1018100061E070E043E050E00E948C0B81E001C089
:1018200080E00F90CF91DF911F910F910895FF926B
:101830000F931F938C01F62E642FA9010E94A80814
:101840008EE192E0F8019183808313AE8CE0808F6B
:10185000F18E1F910F91FF90089508951F920F929E
:101860000FB60F9211242F933F934F935F936F9373
:101870007F938F939F93AF93BF93EF93FF93809149
:10188000FB029091FC02892B29F0E091FB02F09180
:10189000FC020995FF91EF91BF91AF919F918F91BC
:1018A0007F916F915F914F913F912F910F900FBE5C
:1018B0000F901F9018951F920F920FB60F92112440
:1018C0002F933F934F935F936F937F938F939F9348
:1018D000AF93BF93EF93FF938091FD029091FE022F
:1018E000892B29F0E091FD02F091FE020995FF910C
:1018F000EF91BF91AF919F918F917F916F915F9188
:101900004F913F912F910F900FBE0F901F90189500
:101910001F920F920FB60F9211242F933F938F9324
:101920009F93AF93BF938091030390910403A09181
:101930000503B0910603309107030196A11DB11D67
:10194000232F2D5F2D3720F02D570196A11DB11D9E
:10195000209307038093030390930403A09305034C
:10196000B09306038091FF0290910003A0910103C0
:10197000B09102030196A11DB11D8093FF029093C7
:101980000003A0930103B0930203BF91AF919F9115
:101990008F913F912F910F900FBE0F901F90189530
:1019A0008FB7F8942091030330910403409105030D
:1019B000509106038FBFB901CA0108959FB7F894EB
:1019C0002091FF02309100034091010350910203E6
:1019D00086B5A89B06C08F3F21F02F5F3F4F4F4F2A
:1019E0005F4F9FBF542F432F322F2227280F311DC7
:1019F000411D511D82E0220F331F441F551F8A9540
:101A0000D1F7B901CA010895019739F0880F991FDC
:101A1000880F991F02970197F1F70895789484B57C
:101A2000826084BD84B5816084BD85B5826085BDDA
:101A300085B5816085BDEEE6F0E0808181608083C0
:101A4000E1E8F0E0108280818260808380818160A3
:101A50008083E0E8F0E0808181608083E1EBF0E06A
:101A6000808184608083E0EBF0E08081816080830E
:101A7000EAE7F0E0808184608083808182608083F7
:101A80008081816080838081806880831092C10022
:101A90000895EF92FF920F931F93CF93DF937B01F3
:101AA0008C013FB7F8948091FF0290910003A091C0
:101AB0000103B091020326B5A89B05C02F3F19F082
:101AC0000196A11DB11D3FBFBA2FA92F982F8827BE
:101AD000820F911DA11DB11D52E0880F991FAA1FF1
:101AE000BB1F5A95D1F7EC0130C00E942D0C3FB7B7
:101AF000F8948091FF0290910003A0910103B091AE
:101B0000020326B5A89B05C02F3F19F00196A11D21
:101B1000B11D3FBFBA2FA92F982F8827820F911D83
:101B2000A11DB11D32E0880F991FAA1FBB1F3A9556
:101B3000D1F78C1B9D0B885E9340B8F20894E108A6
:101B4000F10801091109C851DC4FE114F104010544
:101B5000110559F6DF91CF911F910F91FF90EF90F2
:101B60000895982F8E3008F09E50977080917D01D7
:101B70008295880F880F807C892B80937C008091D0
:101B80007A00806480937A0080917A0086FDFCCF91
:101B90002091780040917900942F80E030E0282B4C
:101BA000392BC90108951F93CF93DF93182FEB01B1
:101BB00061E00E94330E209709F44AC0CF3FD1055F
:101BC00009F449C0E12FF0E0E554FF4F84918330E0
:101BD000C1F0843028F4813051F08230B1F50CC06E
:101BE000863019F1873049F1843079F514C084B515
:101BF000806884BDC7BD33C084B5806284BDC8BD64
:101C00002EC080918000806880938000D0938900EE
:101C1000C093880024C080918000806280938000FF
:101C2000D0938B00C0938A001AC08091B000806866
:101C30008093B000C093B30012C08091B000806266
:101C40008093B000C093B4000AC0C038D1051CF422
:101C5000812F60E002C0812F61E00E94720EDF914F
:101C6000CF911F910895CF93DF93482F50E0CA0181
:101C700089559F4FFC0134914D565F4FFA01849175
:101C8000882369F190E0880F991FFC01EB58FF4F02
:101C9000A591B491FC01E158FF4FC591D491662301
:101CA00051F42FB7F8948C91932F909589238C93AE
:101CB000888189230BC0623061F42FB7F8948C912E
:101CC000932F909589238C938881832B88832FBFB2
:101CD00006C09FB7F8948C91832B8C939FBFDF91A4
:101CE000CF910895482F50E0CA0185549F4FFC01C1
:101CF0002491CA0189559F4FFC0194914D565F4F25
:101D0000FA013491332309F440C0222351F12330E6
:101D100071F0243028F42130A1F0223011F514C0E4
:101D20002630B1F02730C1F02430D9F404C08091BE
:101D300080008F7703C0809180008F7D809380002A
:101D400010C084B58F7702C084B58F7D84BD09C073
:101D50008091B0008F7703C08091B0008F7D809319
:101D6000B000E32FF0E0EE0FFF1FE158FF4FA59109
:101D7000B4912FB7F894662321F48C919095892320
:101D800002C08C91892B8C932FBF0895682F70E02F
:101D9000CB0185549F4FFC012491CB0189559F4F66
:101DA000FC0144916D567F4FFB019491992319F4E6
:101DB00020E030E03CC0222351F1233071F0243088
:101DC00028F42130A1F0223011F514C02630B1F0F2
:101DD0002730C1F02430D9F404C0809180008F777F
:101DE00003C0809180008F7D8093800010C084B5F7
:101DF0008F7702C084B58F7D84BD09C08091B0000B
:101E00008F7703C08091B0008F7D8093B000892FC1
:101E100090E0880F991F87579F4FFC01A591B491BF
:101E20008C9120E030E0842311F021E030E0C90102
:101E3000089508951F920F920FB60F9211242F93B9
:101E40003F934F938F939F93EF93FF938091C000A5
:101E500082FD19C04091C60080912603282F30E0F2
:101E60002F5F3F4F2F7330708091270390E028172A
:101E7000390759F0E0912603F0E0E85FFC4F42A3F8
:101E80002093260302C08091C600FF91EF919F919D
:101E90008F914F913F912F910F900FBE0F901F90F8
:101EA0001895809126032091270390E0805C9F4F36
:101EB000821B91098F739070892B11F00E94190F6A
:101EC00008951F920F920FB60F9211242F938F93A4
:101ED0009F93EF93FF939091280380912903981784
:101EE00031F48091C1008F7D8093C10010C0E091DA
:101EF0002903F0E0E659FC4F20818091290390E00E
:101F000001968F739070809329032093C600FF91F0
:101F1000EF919F918F912F910F900FBE0F901F9077
:101F20001895AF92BF92DF92EF92FF920F931F939B
:101F3000CF93DF93EC017A018B01DD24403081EEF9
:101F4000580780E0680780E0780711F0DD24D3941B
:101F500091E0A92EB12CE889F989DD2069F0C5014D
:101F60000C8C02C0880F991F0A94E2F7808360E00E
:101F700079E08DE390E005C0108260E874E88EE1BE
:101F800090E0A80197010E948A1221503040404001
:101F90005040569547953795279580E12030380772
:101FA00020F0DD2011F0DD24D6CFEC85FD853083D7
:101FB000EE85FF8520831D8EEA89FB89408121E023
:101FC00030E0C901088C02C0880F991F0A94E2F71B
:101FD000482B4083EA89FB894081C901098C02C0F2
:101FE000880F991F0A94E2F7482B4083EA89FB89FE
:101FF0004081C9010A8C02C0880F991F0A94E2F738
:10200000482B4083EA89FB8980810B8C02C0220F18
:10201000331F0A94E2F7209528232083DF91CF9184
:102020001F910F91FF90EF90DF90BF90AF900895B8
:10203000FC01268D878D30E0205C3F4F281B310945
:102040002F733070C9010895FC01968D878D981704
:1020500019F42FEF3FEF06C0878DE80FF11D82A125
:10206000282F30E0C9010895DC015E969C915E97AF
:102070005F968C915F97981719F42FEF3FEF10C080
:102080005F968C915F97FD01E80FF11D92A15F961D
:102090008C915F978F5F8F735F968C93292F30E0C1
:1020A000C9010895DC015D968C915D97882339F014
:1020B0005096ED91FC915197808186FFF9CF5D9606
:1020C0001C920895DC0190968C919097282F30E017
:1020D0002F5F3F4F2F73307091968C91919790E0C6
:1020E00028173907C9F390968C919097FD01E80F56
:1020F000F11DEE59FF4F608390962C939097529666
:10210000ED91FC915397208181E090E05B960C90DB
:102110005B9702C0880F991F0A94E2F7282B20834F
:1021200081E05D968C935D975096ED91FC9151976F
:1021300080818064808381E090E0089581E008954B
:1021400010920B0310920A0388EE93E0A0E0B0E037
:1021500080930C0390930D03A0930E03B0930F0391
:1021600088E492E090930903809308031092290376
:1021700080912903809328031092270380912703DD
:102180008093260385EC90E09093150380931403CD
:1021900084EC90E0909317038093160380EC90E01A
:1021A000909319038093180381EC90E090931B03A4
:1021B00080931A0382EC90E090931D0380931C039C
:1021C00086EC90E090931F0380931E0384E080933D
:1021D000200383E08093210387E08093220385E03E
:1021E0008093230381E0809324030895CF93DF93AA
:1021F0000E940E0D0E943C03C1E5DFE00E9409022F
:102200002097E1F30E94510FF9CF0895CF92DF920A
:10221000EF92FF920F931F93CF93DF937C016B019B
:102220008A01C0E0D0E00FC0D6016D916D01D701E9
:10223000ED91FC910190F081E02DC7010995C80F47
:10224000D91F015010400115110571F7CE01DF9122
:10225000CF911F910F91FF90EF90DF90CF90089555
:10226000EF92FF920F931F93CF93DF937C018B012B
:10227000C0E0D0E0F8010F5F1F4F6491662359F072
:10228000D701ED91FC910190F081E02DC7010995F6
:10229000C80FD91FEFCFCE01DF91CF911F910F91C2
:1022A000FF90EF900895EF92FF920F931F938C0190
:1022B000DC01ED91FC910190F081E02D6DE009953C
:1022C0007C01D801ED91FC910190F081E02DC801D5
:1022D0006AE009959C012E0D3F1DC9011F910F91C8
:1022E000FF90EF900895CF93DF93EC016115710596
:1022F00019F420E030E00FC0DB010D900020E9F779
:102300001197A61BB70BE881F9810280F381E02DBC
:10231000AD0109959C01C901DF91CF9108954F92BC
:102320005F927F928F929F92AF92BF92CF92DF92F5
:10233000EF92FF920F931F93DF93CF93CDB7DEB74A
:10234000A1970FB6F894DEBF0FBECDBF2C01742E3F
:10235000CB01223008F42AE019A231E2C32ED12C9D
:10236000CC0EDD1E822E9924AA24BB24672D752F46
:10237000A50194010E948A1279018A01C801B7015E
:10238000A50194010E946B12472D461B0894C108B9
:10239000D1084A3014F4405D01C0495CF601408325
:1023A000E114F1040105110521F07E2C5F2DC80117
:1023B000DDCFC201B6010E947311A1960FB6F89449
:1023C000DEBF0FBECDBFCF91DF911F910F91FF9068
:1023D000EF90DF90CF90BF90AF909F908F907F90C5
:1023E0005F904F900895DC012115310541F4ED9186
:1023F000FC910190F081E02D642F099508950E94D1
:102400008F110895CF92DF92EF92FF920F931F9357
:10241000CF93DF93EC016A017B012115310541F473
:10242000E881F9810190F081E02D642F09951FC0AA
:102430002A303105D1F477FF17C0E881F981019086
:10244000F081E02D6DE209958C0144275527BA01F2
:102450004C195D096E097F09CE012AE00E948F1197
:102460009801280F391F04C02AE00E948F119C0197
:10247000C901DF91CF911F910F91FF90EF90DF90F5
:10248000CF900895EF92FF920F931F937B019A01D3
:102490000027F7FC0095102FB801A7010E94021237
:1024A0001F910F91FF90EF9008950E94731108956E
:1024B000EF92FF920F931F937C010E9473118C0186
:1024C000C7010E945311080F191FC8011F910F91D6
:1024D000FF90EF900895629FD001739FF001829F5B
:1024E000E00DF11D649FE00DF11D929FF00D839FA3
:1024F000F00D749FF00D659FF00D9927729FB00D40
:10250000E11DF91F639FB00DE11DF91FBD01CF0152
:1025100011240895A1E21A2EAA1BBB1BFD010DC0B8
:10252000AA1FBB1FEE1FFF1FA217B307E407F50783
:1025300020F0A21BB30BE40BF50B661F771F881F5F
:10254000991F1A9469F760957095809590959B01F5
:10255000AC01BD01CF010895EE0FFF1F0590F4916E
:10256000E02D099410E0C8EDD0E004C0FE010E9407
:0E257000AE122296CA3DD107C9F7F894FFCFEC
:10257E00202D2053656E64696E673A20003B200063
:10258E006E7300564D4450455F31007C005F564DD2
:10259E0044504500676F74207265706C793A200064
:1025AE00564D4450565F317C5F564D44505600692F
:1025BE006E6974206661696C656400736574436846
:1025CE00616E6E656C206661696C6564007365741E
:1025DE005246206661696C656400537069656C20B3
:1025EE006D6974206D69722100806967FF010000BA
:1025FE000000CA0406110000400014005400000040
:10260E00000052060511051105110511EF06A90668
:10261E007606B70657065A065D066006630654062A
:10262E006A066D06700673060000000005110107AC
:10263E000207051105110F07130717070000000009
:10264E001B07210725072C0729070F071307170755
:10265E000000000086080511051105110511EF0691
:10266E00A9067606B70657065A065D066006630685
:10267E0054066A066D06700673060D0E13151619AE
:10268E001A1C232526292A2C323400000000A40B04
:10269E00180B4F0ABB0A4D0AEF065A0B7606B70601
:1026AE0057065A065D066006630654066A066D06F0
:1026BE007006730600000000621006111810341028
:0426CE002410521072
:00000001FF
