:020000020000FC
:020000003AC6FE
:0200060066C4CE
:10001E00FFB68F939F93B29920C023FD21E020FD60
:10002E001BC021FD19C02B7F286026FF14C025FFA1
:10003E0003C080916A000AC080916D0090916E009D
:10004E00913029F0933011F091E0892780FD03C0A3
:10005E00BA9A28600FC013C017C021FD06C08827AA
:10006E0083BF9F918F91FFBE18958AED82BF82E06C
:10007E0083BF0FC08CE982BF82E083BF0AC08CE9C8
:10008E0082BF82E083BF05C088E882BF83E083BF62
:10009E0003C08BB78F7B8BBF82E088BF89B782602E
:1000AE0089BFDFCFFFB68F939F9320FD05C021FD43
:1000BE0005C022FD0AC019C022E028C024E0BA9A69
:1000CE008AED82BF83E083BF23C0BA982B7F8BB7A4
:1000DE0080648BBF88E080936C00882780936B00D0
:1000EE008093700080E48ABF09C0BA988BB7806491
:1000FE008BBF23FD02C022E009C00ED0277FB2992C
:10010E0005C088E882BF83E083BF02C0882783BF13
:10011E009F918F91FFBE189580917300806280939E
:10012E007300B29B02C081E001C088278795809141
:10013E006A00879580936A0025FD02C024FD0BD0CE
:10014E0080916C008A9580936C0021F488E08093F6
:10015E006C002ED0089580916B00853521F0809132
:10016E006E00813099F480916A00881F881F9091EB
:10017E006D008927817041F4979590936D00809161
:10018E006B008535A1F002C021E0089590916C00BE
:10019E00939590936C0080916E008A9580936E007B
:1001AE0031F483E080936E009A9590936C000895DD
:1001BE00AF93BF93809173008F7D80937300A09156
:1001CE006800B091690025FD2DC0809170008030CF
:1001DE0009F01AC080917000839580937000809111
:1001EE006A0080936B0020618C3C31F0853551F0B4
:1001FE00803F21F021E03BC020623FC083E080932E
:10020E006E002064A0E6B0E0A83641F480916B0049
:10021E00853511F4206231C021E031C08D9180937B
:10022E006D002DC0809170008130B1F480916A0014
:10023E0080936F008827809397008093960080911B
:10024E006F008CD180916F008A3A81F4809170009A
:10025E008395809370001AC080916F008F30C9F023
:10026E008A3AA1F0853599F0803F91F0D6C28091FF
:10027E00700083958093700002C0A4E7B0E0A09355
:10028E006800B0936900BF91AF9108953DC065C0FD
:10029E00B1C080917000823009F1833031F1A539FF
:1002AE0041F48091960080936A008FEF80939600C0
:1002BE00E6CF80916A008D9351D180917000843089
:1002CE0029F080917300839580937300A53929F4EA
:1002DE0020648091970080936A00C9CF80916A0054
:1002EE008F7F809371003AD1C2CF80916A00807067
:1002FE008093720033D1809171008F71809373005F
:10030E009927A80FB91FB3CF206480917000823057
:10031E0079F0833091F08430A9F08C91A53921F4D5
:10032E008FEF80936A00ABCF80936A0011969FCFB8
:10033E008091710080936A009ACF809172008093B1
:10034E006A0095CF8091730080936A00809171004E
:10035E008F719927A80FB91F8ACF90916A0080914B
:10036E007000823041F0833049F0843051F085E5E1
:10037E0080936A0084CF8091710005C080917200D5
:10038E0002C080917300891333C080917000843055
:10039E0071F580917300806880937300CF93DF9323
:1003AE00A0917100B0917200C4E7D0E08A2F8F71D6
:1003BE009927C80FD91F909173009F71981B939521
:1003CE00E199FECF80E08CBBBFBBAEBB119689918D
:1003DE008DBBE29AE19A9A9599F7DF91CF9180E4DD
:1003EE008ABF82E088BF206485E580936A003FCF94
:1003FE0021E045CF809170008230A1F08330B1F0C2
:10040E00AF3F31F4B03021F48FEF80936A0037CFD5
:10041E00E199FECFBFBBAEBBE09A8DB380936A006D
:10042E0011962DCFA0916A00AF7F21CFB0916A00B7
:10043E00B070206480917000839580937000E0CF3F
:10044E0080936000C0E6D0E097E0CBD0809195001D
:10045E00809367000895A0E6B0E088278D93A539B4
:10046E00E9F78BB780648BBF85B7816085BF21E0CC
:10047E00C2987894A5D054D1812F8C7F01F088E258
:10048E006894B4D1CC2351F4DD2341F480E1689417
:10049E00ADD1CC2319F4DD2309F408C0A0E6B0E0F9
:1004AE0098E089918D939A95E1F70CC0E4EDF4E014
:1004BE00A0E6B0E097E085918D939A95E1F7809153
:1004CE006000BEDF0895726C3302000000007731C9
:1004DE002D6572726F723A20000077312D69643A81
:1004EE000000636F6E6E6563742077312D69642032
:1004FE0044533234303120746F20504234212C203A
:10050E007573696E672064656661756C74207731EA
:10051E002D69643A0000415454696E793435207760
:0A052E00312D736C6176650D0A0033
:020002000DC02F
:02000A0053C0E1
:100538009F938F9398E09F93909195009827979514
:100548009091950020F48F9388E198278F91979543
:100558009093950086959F919A9569F78F919F91B1
:1005680008956F939F938F9398E09F9387958F93A8
:1005780091E08091960008F48927889490919700DB
:1005880080FF05C0089462E0862760E49627979567
:10059800879580939600909397008F919F919A9555
:1005A80021F78F919F916F910895000000009F930C
:1005B80093E09150F1F79F91815090408823A9F7DB
:1005C8009923A9F708958F939F931127C49A689444
:1005D80019D09FE080EAE9DFE89414D08827809357
:1005E800E0009F918F910895EF93FF938F93882751
:1005F8008093950089919CDF9A95E1F78F91FF91FF
:10060800EF9108958F939F93137FC498BC9A92EDAE
:100618009F9391E080EEC9DF9F9116F49150C1F746
:10062800C49ABC9890E08BE4C0DFB499146091E060
:1006380085E9BBDFB49B18609F918F9108958F93D4
:100648009F938091E3008430E0F7C498BC9A99277F
:1006580083E0ABDF16F4C49ABC9899278AE0A5DF3B
:10066800B49BE894B499689499278FE29EDFC49A62
:10067800BC98992781E099DF9F918F9108959F9366
:1006880098E080FB8F939F93DADF9F918F918894F6
:100698000EF4089487959A95A1F79F910895C49AA6
:1006A800BC9A0895C49ABC9808958F939F93E89430
:1006B800A9DF8CE08123A1F580EFE1DF98E09F932B
:1006C80090E89F936894BBDF10F96894B8DF11F93C
:1006D800812F837071F0833021F410619F919F9175
:1006E8001FC08C919F919095892390958C9310FBB6
:1006F80006C08C919F918923E89409F468949F938C
:10070800888188940EF408948795888398DF9F9150
:1007180088949795B1F6219611969F919A9579F6B6
:100728009F918F9108958F939F93AF93BF93CF938A
:10073800DF93C0EAD0E0A8E9B0E098E08FEF8D93AE
:100748009A95E9F70AC08F9399270894991F889476
:100758008795D8F78F9198279C93A8E9B0E0A5DFF3
:100768008CE08123E1F4C850D04097E03DDF8091D0
:1007780095009991891721F01062C850D04007C0A0
:100788008091E00083958093E000883041F098E004
:100798008E918823C1F68FEF8C939A95C9F7DF91D4
:1007A800CF91BF91AF919F918F9108958F939F9310
:1007B800CF93DF938F93E89425DF8CE0812311F0AA
:1007C8008F9112C0CC2329F4DD2319F48CEC57DF68
:1007D80009C085E554DF98E09F93899150DF9F9188
:1007E8009A95D1F78F914BDFDF91CF919F918F91A0
:1007F80008958F939F932EF4C0EAD0E09091E00083
:1008080002C09A952896992331F09F939881891769
:100818009F9119F0F6CFCC27DD279F918F910895EE
:1008280080916F00843451F08E3B69F08E3439F139
:100838008834B1F1883BA1F1843B01F020648FEF4B
:1008480080936A0017CD80917000813071F4206424
:10085800CF93DF93CEEED0E099E089918D939A956E
:10086800E1F7DF91CF91A4E7B0E0809170008A3082
:1008780011F421E007CD8D9180936A00FBCC809123
:100888007000813019F4A7EFB0E0F4CC80916A00D1
:100898008D9380917000843011F421E011C0EACC6E
:1008A8002064882780936A0080917000813041F02D
:1008B8008FEF9091E10090FD882780936A00DACC51
:1008C8008091E10081608093E100DCCCFFB6FF926B
:1008D8008F9378948091E30083958093E30085302B
:1008E80031F588278093E3008091E4008395809315
:1008F800E4008091E7008395833008F0882780938F
:10090800E70019D08091E600882329F08A95809322
:10091800E60009F4C7DE8091E400883C41F48827AA
:100928008093E4008091E50083958093E5008F91A2
:10093800FF90FFBE1895AF93BF938F939F936F93CC
:10094800A8EEB0E08091E50080FD13968091E70065
:100958009927A80FB91F682F8C9191E0662319F089
:10096800990F6A95D9F76091FA00962B06D06F9186
:100978009F918F91BF91AF91089560E1C098C19AFE
:10098800C1986A95E1F760E1C0989068C19897FFAF
:10099800C09897FDC09A881F991FC19A6A95B1F7A8
:1009A800C09A00000000000000000000C098C19834
:1009B8000895EF93FF93ECE5FDE08F71E80F80E079
:1009C800F81F8491FF91EF9108958F938091E8002B
:1009D8008093EB008091E9008093EC008091EA001D
:1009E8008093ED008F9108958F9380E48093EB00BE
:1009F80088278093EC008093ED008F9108958F9362
:100A080082958F70D6DF8D938F918F938F70D1DF02
:100A18008D938F910895AF93BF938F938091E20048
:100A280083958093E200A8EEB0E08EE0C2DF8D935C
:100A380083E1BFDF8D938D9388278D938F918F935B
:100A4800DEDF8F91BF91AF9108958F939F9384E4D8
:100A5800ADDE812F8C7009F00AC08881883219F0C8
:100A6800803109F004C01BDE86E98093E6009F917F
:100A78008F910895AF93BF93CF93DF938F939F93F5
:100A88008EEB94DE812F8C7009F012C0AF93BF9368
:100A980099E08FEFF4DD8D939A95D9F7DF91CF9197
:100AA8001F7D98E0A1DD80919500999189131062CE
:100AB8009F918F91DF91CF91BF91AF910895AF939F
:100AC800BF938F939F93A7EFB0E08EE46FDE812FE3
:100AD8008C7009F005C093E08D91D1DD9A95E1F70E
:100AE8009F918F91BF91AF9108958F939F9388E4C1
:100AF8005DDE812F8C7009F005C0D1DD97E280E1C1
:100B080054DDD0DD9F918F9108958F939F9388EB4B
:100B18004DDE812F8C7009F004C08FEFB0DD882383
:100B2800E1F39F918F910895CF93DF938F939F93D4
:100B38006F931F7D98E058DD8091950099918913F6
:100B48001062891353C08091EE009091EF0060917C
:100B5800F20067FF0FC063E08894881F991F6A95A9
:100B6800D9F78450904070E16091F400761B6627B5
:100B7800870F961F662799231AF48195909560E44C
:100B88006093FA008F9364E0959587956A95E1F7ED
:100B98008456904032F464E6860F6627961F60E01C
:100BA80001C061E06093FB006FEF63958A5090404D
:100BB800E2F7865F6093FC008093FD008F91EF93CE
:100BC800FF93ECE7FDE08F708F93E80F80E0F81F4C
:100BD80084918093FE008F91ECE8FDE0E80F80E0BF
:100BE800F81F84918093FF00FF91EF916F919F917F
:100BF8008F91DF91CF910895AF93BF938F939F9378
:100C0800A8EEB0E08091FB00882319F0D2DE8D9326
:100C180004C08091FC00882321F08091FC00C9DE8B
:100C28008D938091FD00C5DE8D93AB3E68F480689E
:100C380011978D93AA3E20F48091FF00E0DE04C056
:100C48008091FE00B6DE8D93C0DE9F918F91BF919B
:100C5800AF9108958F939F9386E98F9397E280E1F0
:100C6800A4DC8F918150C9F79F918F91089580E8F6
:100C780086BD882786BDA1EEB0E08D93A030E9F748
:100C880080E48093FA008CE98DBD8EBD88EC80BF2E
:100C980089B7806489BFB89AB99AE0DB84E189DEB4
:100CA800A8EEB0E08D93AE3EE9F7D4DF88278093B5
:100CB800FA00C0E6D0E06627A8EEB0E0862F88618B
:100CC80078DE8D9389919BDE80DEC4DF6395683082
:100CD80099F788278093E1008093E200C0E6D0E08E
:100CE800B4DEA8958091E10080FF02C01CD0F6CF49
:100CF8008091E6008823A9F7AEEEB0E0C0E6D0E028
:100D0800B9DECEEED0E010DF812F8C7F51F083DE8C
:100D180093EC80E54ADC8091E200883C09F4BDCF81
:100D2800DDCF6ADFDBCFBEDC80916F008E3429F027
:100D3800883439F0883B39F007C0C0E6D0E0BFDE20
:100D480003C0D3DE01C0E1DE8091E1008E7F809395
:100D5800E10008953F065B4F666D7D077F6F777CE6
:100D6800585E797101400850FFFF00000102040835
:100D78001020408000010102030304040506060751
:100D880008080909000613192531384450566369C3
:040D98007581889445
:00000001FF
